{
  "contractName": "BlockMiner",
  "abi": [
    {
      "inputs": [],
      "stateMutability": "nonpayable",
      "type": "constructor"
    },
    {
      "inputs": [],
      "name": "blocksMined",
      "outputs": [
        {
          "internalType": "uint256",
          "name": "",
          "type": "uint256"
        }
      ],
      "stateMutability": "view",
      "type": "function"
    },
    {
      "inputs": [],
      "name": "mine",
      "outputs": [],
      "stateMutability": "nonpayable",
      "type": "function"
    },
    {
      "inputs": [],
      "name": "blockTime",
      "outputs": [
        {
          "internalType": "uint256",
          "name": "",
          "type": "uint256"
        }
      ],
      "stateMutability": "view",
      "type": "function"
    }
  ],
  "bytecode": "0x608060405234801561001057600080fd5b506000808190555060d7806100266000396000f3fe6080604052348015600f57600080fd5b5060043610603c5760003560e01c806348b151661460415780638c4afaf614605d57806399f4b251146079575b600080fd5b60476081565b6040518082815260200191505060405180910390f35b60636089565b6040518082815260200191505060405180910390f35b607f608f565b005b600042905090565b60005481565b6001600080828254019250508190555056fea2646970667358221220dc3e62c6458add22a170441f8c2ad4d35ed58a2d45494272dd1f751d17d9fd0564736f6c634300060c0033",
  "immutableReferences": {},
  "source": "// SPDX-License-Identifier: MIT\npragma solidity ^0.6.0 <0.7.0;\n// file: BlockMinder.sol\n\n// used to \"waste\" blocks for truffle tests\ncontract BlockMiner {\n    uint256 public blocksMined;\n\n    constructor () public {\n        blocksMined = 0;\n    }\n\n    function mine() public {\n       blocksMined += 1;\n    }\n\n    function blockTime() external view returns (uint256) {\n       return block.timestamp;\n    }\n}",
  "sourcePath": "/Users/abdulhafiz/Documents/projects/xeb/defi_fraxlink_contract/contracts/Utils/BlockMiner.sol",
  "compiler": {
    "name": "solc",
    "version": "0.6.12+commit.27d51765.Emscripten.clang"
  },
  "schemaVersion": "3.3.4",
  "updatedAt": "2021-03-15T07:52:06.700Z",
  "devdoc": {
    "kind": "dev",
    "methods": {},
    "version": 1
  },
  "userdoc": {
    "kind": "user",
    "methods": {},
    "version": 1
  }
}