{
  "contractName": "Pool_WBTC",
  "abi": [
    {
      "inputs": [
        {
          "internalType": "address",
          "name": "_collateral_address",
          "type": "address"
        },
        {
          "internalType": "address",
          "name": "_oracle_address",
          "type": "address"
        },
        {
          "internalType": "address",
          "name": "_creator_address",
          "type": "address"
        },
        {
          "internalType": "address",
          "name": "_timelock_address",
          "type": "address"
        },
        {
          "internalType": "uint256",
          "name": "_pool_ceiling",
          "type": "uint256"
        }
      ],
      "stateMutability": "nonpayable",
      "type": "constructor"
    },
    {
      "anonymous": false,
      "inputs": [
        {
          "indexed": true,
          "internalType": "bytes32",
          "name": "role",
          "type": "bytes32"
        },
        {
          "indexed": true,
          "internalType": "bytes32",
          "name": "previousAdminRole",
          "type": "bytes32"
        },
        {
          "indexed": true,
          "internalType": "bytes32",
          "name": "newAdminRole",
          "type": "bytes32"
        }
      ],
      "name": "RoleAdminChanged",
      "type": "event"
    },
    {
      "anonymous": false,
      "inputs": [
        {
          "indexed": true,
          "internalType": "bytes32",
          "name": "role",
          "type": "bytes32"
        },
        {
          "indexed": true,
          "internalType": "address",
          "name": "account",
          "type": "address"
        },
        {
          "indexed": true,
          "internalType": "address",
          "name": "sender",
          "type": "address"
        }
      ],
      "name": "RoleGranted",
      "type": "event"
    },
    {
      "anonymous": false,
      "inputs": [
        {
          "indexed": true,
          "internalType": "bytes32",
          "name": "role",
          "type": "bytes32"
        },
        {
          "indexed": true,
          "internalType": "address",
          "name": "account",
          "type": "address"
        },
        {
          "indexed": true,
          "internalType": "address",
          "name": "sender",
          "type": "address"
        }
      ],
      "name": "RoleRevoked",
      "type": "event"
    },
    {
      "inputs": [],
      "name": "DEFAULT_ADMIN_ROLE",
      "outputs": [
        {
          "internalType": "bytes32",
          "name": "",
          "type": "bytes32"
        }
      ],
      "stateMutability": "view",
      "type": "function"
    },
    {
      "inputs": [
        {
          "internalType": "address",
          "name": "owner_address",
          "type": "address"
        }
      ],
      "name": "addOwner",
      "outputs": [],
      "stateMutability": "nonpayable",
      "type": "function"
    },
    {
      "inputs": [],
      "name": "availableExcessCollatDV",
      "outputs": [
        {
          "internalType": "uint256",
          "name": "",
          "type": "uint256"
        }
      ],
      "stateMutability": "view",
      "type": "function"
    },
    {
      "inputs": [
        {
          "internalType": "uint256",
          "name": "XESH_amount",
          "type": "uint256"
        }
      ],
      "name": "buyBackXESH",
      "outputs": [],
      "stateMutability": "nonpayable",
      "type": "function"
    },
    {
      "inputs": [],
      "name": "collatDollarBalance",
      "outputs": [
        {
          "internalType": "uint256",
          "name": "",
          "type": "uint256"
        }
      ],
      "stateMutability": "view",
      "type": "function"
    },
    {
      "inputs": [],
      "name": "collectRedemption",
      "outputs": [],
      "stateMutability": "nonpayable",
      "type": "function"
    },
    {
      "inputs": [
        {
          "internalType": "bytes32",
          "name": "role",
          "type": "bytes32"
        }
      ],
      "name": "getRoleAdmin",
      "outputs": [
        {
          "internalType": "bytes32",
          "name": "",
          "type": "bytes32"
        }
      ],
      "stateMutability": "view",
      "type": "function"
    },
    {
      "inputs": [
        {
          "internalType": "bytes32",
          "name": "role",
          "type": "bytes32"
        },
        {
          "internalType": "uint256",
          "name": "index",
          "type": "uint256"
        }
      ],
      "name": "getRoleMember",
      "outputs": [
        {
          "internalType": "address",
          "name": "",
          "type": "address"
        }
      ],
      "stateMutability": "view",
      "type": "function"
    },
    {
      "inputs": [
        {
          "internalType": "bytes32",
          "name": "role",
          "type": "bytes32"
        }
      ],
      "name": "getRoleMemberCount",
      "outputs": [
        {
          "internalType": "uint256",
          "name": "",
          "type": "uint256"
        }
      ],
      "stateMutability": "view",
      "type": "function"
    },
    {
      "inputs": [
        {
          "internalType": "bytes32",
          "name": "role",
          "type": "bytes32"
        },
        {
          "internalType": "address",
          "name": "account",
          "type": "address"
        }
      ],
      "name": "grantRole",
      "outputs": [],
      "stateMutability": "nonpayable",
      "type": "function"
    },
    {
      "inputs": [
        {
          "internalType": "bytes32",
          "name": "role",
          "type": "bytes32"
        },
        {
          "internalType": "address",
          "name": "account",
          "type": "address"
        }
      ],
      "name": "hasRole",
      "outputs": [
        {
          "internalType": "bool",
          "name": "",
          "type": "bool"
        }
      ],
      "stateMutability": "view",
      "type": "function"
    },
    {
      "inputs": [
        {
          "internalType": "uint256",
          "name": "collateral_amount_d8",
          "type": "uint256"
        }
      ],
      "name": "mint1t1XEB",
      "outputs": [],
      "stateMutability": "nonpayable",
      "type": "function"
    },
    {
      "inputs": [
        {
          "internalType": "uint256",
          "name": "xesh_amount_d8",
          "type": "uint256"
        }
      ],
      "name": "mintAlgorithmicXEB",
      "outputs": [],
      "stateMutability": "nonpayable",
      "type": "function"
    },
    {
      "inputs": [
        {
          "internalType": "uint256",
          "name": "collateral_amount",
          "type": "uint256"
        },
        {
          "internalType": "uint256",
          "name": "xesh_amount",
          "type": "uint256"
        }
      ],
      "name": "mintFractionalXEB",
      "outputs": [],
      "stateMutability": "nonpayable",
      "type": "function"
    },
    {
      "inputs": [],
      "name": "recollateralizeAmount",
      "outputs": [
        {
          "internalType": "uint256",
          "name": "recollateralization_left",
          "type": "uint256"
        }
      ],
      "stateMutability": "view",
      "type": "function"
    },
    {
      "inputs": [
        {
          "internalType": "uint256",
          "name": "collateral_amount_d8",
          "type": "uint256"
        }
      ],
      "name": "recollateralizeXeb",
      "outputs": [],
      "stateMutability": "nonpayable",
      "type": "function"
    },
    {
      "inputs": [
        {
          "internalType": "uint256",
          "name": "XEB_amount",
          "type": "uint256"
        }
      ],
      "name": "redeem1t1XEB",
      "outputs": [],
      "stateMutability": "nonpayable",
      "type": "function"
    },
    {
      "inputs": [
        {
          "internalType": "uint256",
          "name": "XEB_amount",
          "type": "uint256"
        }
      ],
      "name": "redeemAlgorithmicXEB",
      "outputs": [],
      "stateMutability": "nonpayable",
      "type": "function"
    },
    {
      "inputs": [
        {
          "internalType": "uint256",
          "name": "XEB_amount",
          "type": "uint256"
        }
      ],
      "name": "redeemFractionalXEB",
      "outputs": [],
      "stateMutability": "nonpayable",
      "type": "function"
    },
    {
      "inputs": [
        {
          "internalType": "address",
          "name": "owner_address",
          "type": "address"
        }
      ],
      "name": "removeOwner",
      "outputs": [],
      "stateMutability": "nonpayable",
      "type": "function"
    },
    {
      "inputs": [
        {
          "internalType": "bytes32",
          "name": "role",
          "type": "bytes32"
        },
        {
          "internalType": "address",
          "name": "account",
          "type": "address"
        }
      ],
      "name": "renounceRole",
      "outputs": [],
      "stateMutability": "nonpayable",
      "type": "function"
    },
    {
      "inputs": [
        {
          "internalType": "bytes32",
          "name": "role",
          "type": "bytes32"
        },
        {
          "internalType": "address",
          "name": "account",
          "type": "address"
        }
      ],
      "name": "revokeRole",
      "outputs": [],
      "stateMutability": "nonpayable",
      "type": "function"
    },
    {
      "inputs": [
        {
          "internalType": "address",
          "name": "_collateral_address",
          "type": "address"
        }
      ],
      "name": "setCollateralAdd",
      "outputs": [],
      "stateMutability": "nonpayable",
      "type": "function"
    },
    {
      "inputs": [
        {
          "internalType": "address",
          "name": "new_oracle",
          "type": "address"
        }
      ],
      "name": "setOracle",
      "outputs": [],
      "stateMutability": "nonpayable",
      "type": "function"
    },
    {
      "inputs": [
        {
          "internalType": "uint256",
          "name": "new_ceiling",
          "type": "uint256"
        }
      ],
      "name": "setPoolCeiling",
      "outputs": [],
      "stateMutability": "nonpayable",
      "type": "function"
    },
    {
      "inputs": [
        {
          "internalType": "address",
          "name": "_xeb_contract_address",
          "type": "address"
        }
      ],
      "name": "setXEBAddress",
      "outputs": [],
      "stateMutability": "nonpayable",
      "type": "function"
    },
    {
      "inputs": [
        {
          "internalType": "address",
          "name": "_xesh_contract_address",
          "type": "address"
        }
      ],
      "name": "setXESHAddress",
      "outputs": [],
      "stateMutability": "nonpayable",
      "type": "function"
    },
    {
      "inputs": [],
      "name": "toggleBuyBack",
      "outputs": [],
      "stateMutability": "nonpayable",
      "type": "function"
    },
    {
      "inputs": [],
      "name": "toggleMinting",
      "outputs": [],
      "stateMutability": "nonpayable",
      "type": "function"
    },
    {
      "inputs": [],
      "name": "toggleRedeeming",
      "outputs": [],
      "stateMutability": "nonpayable",
      "type": "function"
    },
    {
      "inputs": [
        {
          "internalType": "address",
          "name": "_account",
          "type": "address"
        }
      ],
      "name": "unclaimedCollateral",
      "outputs": [
        {
          "internalType": "uint256",
          "name": "",
          "type": "uint256"
        }
      ],
      "stateMutability": "view",
      "type": "function"
    },
    {
      "inputs": [],
      "name": "unclaimedPoolCollateral",
      "outputs": [
        {
          "internalType": "uint256",
          "name": "",
          "type": "uint256"
        }
      ],
      "stateMutability": "view",
      "type": "function"
    },
    {
      "inputs": [],
      "name": "unclaimedPoolXESH",
      "outputs": [
        {
          "internalType": "uint256",
          "name": "",
          "type": "uint256"
        }
      ],
      "stateMutability": "view",
      "type": "function"
    },
    {
      "inputs": [
        {
          "internalType": "address",
          "name": "_account",
          "type": "address"
        }
      ],
      "name": "unclaimedXESH",
      "outputs": [
        {
          "internalType": "uint256",
          "name": "",
          "type": "uint256"
        }
      ],
      "stateMutability": "view",
      "type": "function"
    }
  ],
  "bytecode": "0x608060405260006010556000601160006101000a81548160ff0219169083151502179055506000601160016101000a81548160ff0219169083151502179055506000601160026101000a81548160ff0219169083151502179055503480156200006757600080fd5b506040516200664938038062006649833981810160405260a08110156200008d57600080fd5b810190808051906020019092919080519060200190929190805190602001909291908051906020019092919080519060200190929190505050848484848484600260006101000a81548173ffffffffffffffffffffffffffffffffffffffff021916908373ffffffffffffffffffffffffffffffffffffffff16021790555083600460006101000a81548173ffffffffffffffffffffffffffffffffffffffff021916908373ffffffffffffffffffffffffffffffffffffffff16021790555081600760006101000a81548173ffffffffffffffffffffffffffffffffffffffff021916908373ffffffffffffffffffffffffffffffffffffffff1602179055506003839080600181540180825580915050600190039060005260206000200160009091909190916101000a81548173ffffffffffffffffffffffffffffffffffffffff021916908373ffffffffffffffffffffffffffffffffffffffff1602179055506003829080600181540180825580915050600190039060005260206000200160009091909190916101000a81548173ffffffffffffffffffffffffffffffffffffffff021916908373ffffffffffffffffffffffffffffffffffffffff16021790555083600a60006101000a81548173ffffffffffffffffffffffffffffffffffffffff021916908373ffffffffffffffffffffffffffffffffffffffff16021790555084600160006101000a81548173ffffffffffffffffffffffffffffffffffffffff021916908373ffffffffffffffffffffffffffffffffffffffff16021790555080601081905550620003016000801b620002f56200052d60201b60201c565b6200053560201b60201c565b620003557fc65532185ed70b2e999433e2e9fac124e083acb13ec183a4e05944da0792337b600460009054906101000a900473ffffffffffffffffffffffffffffffffffffffff166200054b60201b60201c565b620003a97fc65532185ed70b2e999433e2e9fac124e083acb13ec183a4e05944da0792337b600760009054906101000a900473ffffffffffffffffffffffffffffffffffffffff166200054b60201b60201c565b620003fd7fa84a5389ad41f9aab0831b01e5384cae76e7a7fd09131c206ff7927c201c3857600460009054906101000a900473ffffffffffffffffffffffffffffffffffffffff166200054b60201b60201c565b620004517fa84a5389ad41f9aab0831b01e5384cae76e7a7fd09131c206ff7927c201c3857600760009054906101000a900473ffffffffffffffffffffffffffffffffffffffff166200054b60201b60201c565b620004a57f103da79ff3755ff7a17a557d28b73d37cb4de0b3c3cc02fa6c48df0f35071fbf600460009054906101000a900473ffffffffffffffffffffffffffffffffffffffff166200054b60201b60201c565b620004f97f103da79ff3755ff7a17a557d28b73d37cb4de0b3c3cc02fa6c48df0f35071fbf600760009054906101000a900473ffffffffffffffffffffffffffffffffffffffff166200054b60201b60201c565b5050505050620005226000801b620005166200052d60201b60201c565b6200053560201b60201c565b5050505050620007d6565b600033905090565b620005478282620005ee60201b60201c565b5050565b6200058160008084815260200190815260200160002060020154620005756200052d60201b60201c565b6200069160201b60201c565b620005d8576040517f08c379a000000000000000000000000000000000000000000000000000000000815260040180806020018281038252602f8152602001806200661a602f913960400191505060405180910390fd5b620005ea8282620005ee60201b60201c565b5050565b6200061c81600080858152602001908152602001600020600001620006c960201b620050fa1790919060201c565b156200068d57620006326200052d60201b60201c565b73ffffffffffffffffffffffffffffffffffffffff168173ffffffffffffffffffffffffffffffffffffffff16837f2f8788117e7eff1d82e926ec794901d17c78024a50270940304540a733656f0d60405160405180910390a45b5050565b6000620006c1826000808681526020019081526020016000206000016200070160201b6200512a1790919060201c565b905092915050565b6000620006f9836000018373ffffffffffffffffffffffffffffffffffffffff1660001b6200073960201b60201c565b905092915050565b600062000731836000018373ffffffffffffffffffffffffffffffffffffffff1660001b620007b360201b60201c565b905092915050565b60006200074d8383620007b360201b60201c565b620007a8578260000182908060018154018082558091505060019003906000526020600020016000909190919091505582600001805490508360010160008481526020019081526020016000208190555060019050620007ad565b600090505b92915050565b600080836001016000848152602001908152602001600020541415905092915050565b615e3480620007e66000396000f3fe608060405234801561001057600080fd5b50600436106102065760003560e01c806379d96ea31161011a578063b01f3ff4116100ad578063d547741f1161007c578063d547741f14610839578063daa5048514610887578063e86bc61914610891578063f61adab2146108bf578063fe5ca6b0146108dd57610206565b8063b01f3ff414610729578063bd5e7e2a14610781578063ca15c8731461079f578063cf0917c6146107e157610206565b80639010d07c116100e95780639010d07c1461061757806391d1485414610679578063a217fddf146106dd578063a3c60c03146106fb57610206565b806379d96ea3146105675780637adbf973146105ab5780637b0461e9146105ef5780637d55094d1461060d57610206565b80632f2ff15d1161019d578063556e98341161016c578063556e9834146104655780635ac44499146104a957806366870792146104d75780637058b9cf146105055780637065cb481461052357610206565b80632f2ff15d1461039157806336568abe146103df5780634cb7a8e81461042d57806350c9ecd91461045b57610206565b8063173825d9116101d9578063173825d9146102af57806318275f5f146102f3578063248a9ca31461032157806327c005021461036357610206565b80630dc6ebc51461020b57806311e585ed1461024357806312ace5a21461028757806317284c9414610291575b600080fd5b6102416004803603604081101561022157600080fd5b81019080803590602001909291908035906020019092919050505061090b565b005b6102856004803603602081101561025957600080fd5b81019080803573ffffffffffffffffffffffffffffffffffffffff16906020019092919050505061108b565b005b61028f611217565b005b610299611686565b6040518082815260200191505060405180910390f35b6102f1600480360360208110156102c557600080fd5b81019080803573ffffffffffffffffffffffffffffffffffffffff16906020019092919050505061190c565b005b61031f6004803603602081101561030957600080fd5b8101908080359060200190929190505050611afb565b005b61034d6004803603602081101561033757600080fd5b81019080803590602001909291905050506120cc565b6040518082815260200191505060405180910390f35b61038f6004803603602081101561037957600080fd5b81019080803590602001909291905050506120eb565b005b6103dd600480360360408110156103a757600080fd5b8101908080359060200190929190803573ffffffffffffffffffffffffffffffffffffffff1690602001909291905050506125b6565b005b61042b600480360360408110156103f557600080fd5b8101908080359060200190929190803573ffffffffffffffffffffffffffffffffffffffff16906020019092919050505061263f565b005b6104596004803603602081101561044357600080fd5b81019080803590602001909291905050506126d8565b005b610463612ac0565b005b6104a76004803603602081101561047b57600080fd5b81019080803573ffffffffffffffffffffffffffffffffffffffff169060200190929190505050612b1f565b005b6104d5600480360360208110156104bf57600080fd5b8101908080359060200190929190505050612cab565b005b610503600480360360208110156104ed57600080fd5b810190808035906020019092919050505061356c565b005b61050d613b33565b6040518082815260200191505060405180910390f35b6105656004803603602081101561053957600080fd5b81019080803573ffffffffffffffffffffffffffffffffffffffff169060200190929190505050613c7e565b005b6105a96004803603602081101561057d57600080fd5b81019080803573ffffffffffffffffffffffffffffffffffffffff169060200190929190505050613deb565b005b6105ed600480360360208110156105c157600080fd5b81019080803573ffffffffffffffffffffffffffffffffffffffff169060200190929190505050613f77565b005b6105f7614125565b6040518082815260200191505060405180910390f35b61061561412b565b005b61064d6004803603604081101561062d57600080fd5b81019080803590602001909291908035906020019092919050505061418a565b604051808273ffffffffffffffffffffffffffffffffffffffff16815260200191505060405180910390f35b6106c56004803603604081101561068f57600080fd5b8101908080359060200190929190803573ffffffffffffffffffffffffffffffffffffffff1690602001909291905050506141bb565b60405180821515815260200191505060405180910390f35b6106e56141ec565b6040518082815260200191505060405180910390f35b6107276004803603602081101561071157600080fd5b81019080803590602001909291905050506141f3565b005b61076b6004803603602081101561073f57600080fd5b81019080803573ffffffffffffffffffffffffffffffffffffffff169060200190929190505050614856565b6040518082815260200191505060405180910390f35b61078961489f565b6040518082815260200191505060405180910390f35b6107cb600480360360208110156107b557600080fd5b81019080803590602001909291905050506148a5565b6040518082815260200191505060405180910390f35b610823600480360360208110156107f757600080fd5b81019080803573ffffffffffffffffffffffffffffffffffffffff1690602001909291905050506148cb565b6040518082815260200191505060405180910390f35b6108856004803603604081101561084f57600080fd5b8101908080359060200190929190803573ffffffffffffffffffffffffffffffffffffffff169060200190929190505050614914565b005b61088f61499d565b005b6108bd600480360360208110156108a757600080fd5b81019080803590602001909291905050506149fc565b005b6108c7614b0d565b6040518082815260200191505060405180910390f35b610909600480360360208110156108f357600080fd5b8101908080359060200190929190505050614ca3565b005b60001515601160009054906101000a900460ff16151514610994576040517f08c379a00000000000000000000000000000000000000000000000000000000081526004018080602001828103825260118152602001807f4d696e74696e672069732070617573656400000000000000000000000000000081525060200191505060405180910390fd5b600080600080600960009054906101000a900473ffffffffffffffffffffffffffffffffffffffff1673ffffffffffffffffffffffffffffffffffffffff1663d698477f6040518163ffffffff1660e01b815260040160e06040518083038186803b158015610a0257600080fd5b505afa158015610a16573d6000803e3d6000fd5b505050506040513d60e0811015610a2c57600080fd5b81019080805190602001909291908051906020019092919080519060200190929190805190602001909291908051906020019092919080519060200190929190805190602001909291905050505095505094505093509350620f424082108015610a965750600082115b610aeb576040517f08c379a0000000000000000000000000000000000000000000000000000000008152600401808060200182810382526038815260200180615ca96038913960400191505060405180910390fd5b610af3615bac565b604051806101200160405280838152602001858152602001868152602001600a60009054906101000a900473ffffffffffffffffffffffffffffffffffffffff1673ffffffffffffffffffffffffffffffffffffffff16633ddac953600560009054906101000a900473ffffffffffffffffffffffffffffffffffffffff166305f5e1006040518363ffffffff1660e01b8152600401808373ffffffffffffffffffffffffffffffffffffffff1681526020018281526020019250505060206040518083038186803b158015610bc857600080fd5b505afa158015610bdc573d6000803e3d6000fd5b505050506040513d6020811015610bf257600080fd5b81019080805190602001909291905050508152602001878152602001888152602001600160009054906101000a900473ffffffffffffffffffffffffffffffffffffffff1673ffffffffffffffffffffffffffffffffffffffff166370a08231306040518263ffffffff1660e01b8152600401808273ffffffffffffffffffffffffffffffffffffffff16815260200191505060206040518083038186803b158015610c9d57600080fd5b505afa158015610cb1573d6000803e3d6000fd5b505050506040513d6020811015610cc757600080fd5b8101908080519060200190929190505050815260200160105481526020018481525090506000806000610cf98461515a565b92509250925060105483600160009054906101000a900473ffffffffffffffffffffffffffffffffffffffff1673ffffffffffffffffffffffffffffffffffffffff166370a08231306040518263ffffffff1660e01b8152600401808273ffffffffffffffffffffffffffffffffffffffff16815260200191505060206040518083038186803b158015610d8c57600080fd5b505afa158015610da0573d6000803e3d6000fd5b505050506040513d6020811015610db657600080fd5b8101908080519060200190929190505050011115610e3c576040517f08c379a00000000000000000000000000000000000000000000000000000000081526004018080602001828103825260208152602001807f5b506f6f6c277320436c6f7365645d3a204365696c696e67207265616368656481525060200191505060405180910390fd5b600160009054906101000a900473ffffffffffffffffffffffffffffffffffffffff1673ffffffffffffffffffffffffffffffffffffffff166323b872dd3330866040518463ffffffff1660e01b8152600401808473ffffffffffffffffffffffffffffffffffffffff1681526020018373ffffffffffffffffffffffffffffffffffffffff1681526020018281526020019350505050602060405180830381600087803b158015610eed57600080fd5b505af1158015610f01573d6000803e3d6000fd5b505050506040513d6020811015610f1757600080fd5b810190808051906020019092919050505050600960009054906101000a900473ffffffffffffffffffffffffffffffffffffffff1673ffffffffffffffffffffffffffffffffffffffff1663b4f56b2633846040518363ffffffff1660e01b8152600401808373ffffffffffffffffffffffffffffffffffffffff16815260200182815260200192505050600060405180830381600087803b158015610fbc57600080fd5b505af1158015610fd0573d6000803e3d6000fd5b50505050600860009054906101000a900473ffffffffffffffffffffffffffffffffffffffff1673ffffffffffffffffffffffffffffffffffffffff166379cc679033836040518363ffffffff1660e01b8152600401808373ffffffffffffffffffffffffffffffffffffffff16815260200182815260200192505050600060405180830381600087803b15801561106757600080fd5b505af115801561107b573d6000803e3d6000fd5b5050505050505050505050505050565b6000805b60038054905081101561111d573373ffffffffffffffffffffffffffffffffffffffff16600382815481106110c057fe5b9060005260206000200160009054906101000a900473ffffffffffffffffffffffffffffffffffffffff1673ffffffffffffffffffffffffffffffffffffffff161415611110576001915061111d565b808060010191505061108f565b5080611191576040517f08c379a00000000000000000000000000000000000000000000000000000000081526004018080602001828103825260138152602001807f596f75277265206e6f7420616e206f776e65720000000000000000000000000081525060200191505060405180910390fd5b81600860006101000a81548173ffffffffffffffffffffffffffffffffffffffff021916908373ffffffffffffffffffffffffffffffffffffffff16021790555081600660006101000a81548173ffffffffffffffffffffffffffffffffffffffff021916908373ffffffffffffffffffffffffffffffffffffffff1602179055505050565b43600f60003373ffffffffffffffffffffffffffffffffffffffff1673ffffffffffffffffffffffffffffffffffffffff16815260200190815260200160002054106112ae576040517f08c379a0000000000000000000000000000000000000000000000000000000008152600401808060200182810382526039815260200180615ce16039913960400191505060405180910390fd5b6000600b60003373ffffffffffffffffffffffffffffffffffffffff1673ffffffffffffffffffffffffffffffffffffffff16815260200190815260200160002054111561149957600860009054906101000a900473ffffffffffffffffffffffffffffffffffffffff1673ffffffffffffffffffffffffffffffffffffffff1663a9059cbb33600b60003373ffffffffffffffffffffffffffffffffffffffff1673ffffffffffffffffffffffffffffffffffffffff168152602001908152602001600020546040518363ffffffff1660e01b8152600401808373ffffffffffffffffffffffffffffffffffffffff16815260200182815260200192505050602060405180830381600087803b1580156113c857600080fd5b505af11580156113dc573d6000803e3d6000fd5b505050506040513d60208110156113f257600080fd5b810190808051906020019092919050505050600b60003373ffffffffffffffffffffffffffffffffffffffff1673ffffffffffffffffffffffffffffffffffffffff16815260200190815260200160002054600e600082825403925050819055506000600b60003373ffffffffffffffffffffffffffffffffffffffff1673ffffffffffffffffffffffffffffffffffffffff168152602001908152602001600020819055505b6000600c60003373ffffffffffffffffffffffffffffffffffffffff1673ffffffffffffffffffffffffffffffffffffffff16815260200190815260200160002054111561168457600160009054906101000a900473ffffffffffffffffffffffffffffffffffffffff1673ffffffffffffffffffffffffffffffffffffffff1663a9059cbb33600c60003373ffffffffffffffffffffffffffffffffffffffff1673ffffffffffffffffffffffffffffffffffffffff168152602001908152602001600020546040518363ffffffff1660e01b8152600401808373ffffffffffffffffffffffffffffffffffffffff16815260200182815260200192505050602060405180830381600087803b1580156115b357600080fd5b505af11580156115c7573d6000803e3d6000fd5b505050506040513d60208110156115dd57600080fd5b810190808051906020019092919050505050600c60003373ffffffffffffffffffffffffffffffffffffffff1673ffffffffffffffffffffffffffffffffffffffff16815260200190815260200160002054600d600082825403925050819055506000600c60003373ffffffffffffffffffffffffffffffffffffffff1673ffffffffffffffffffffffffffffffffffffffff168152602001908152602001600020819055505b565b6000611907600960009054906101000a900473ffffffffffffffffffffffffffffffffffffffff1673ffffffffffffffffffffffffffffffffffffffff16638efca7cc6040518163ffffffff1660e01b815260040160206040518083038186803b1580156116f357600080fd5b505afa158015611707573d6000803e3d6000fd5b505050506040513d602081101561171d57600080fd5b81019080805190602001909291905050506118f9600a60009054906101000a900473ffffffffffffffffffffffffffffffffffffffff1673ffffffffffffffffffffffffffffffffffffffff16633ddac953600560009054906101000a900473ffffffffffffffffffffffffffffffffffffffff166305f5e1006040518363ffffffff1660e01b8152600401808373ffffffffffffffffffffffffffffffffffffffff1681526020018281526020019250505060206040518083038186803b1580156117e857600080fd5b505afa1580156117fc573d6000803e3d6000fd5b505050506040513d602081101561181257600080fd5b8101908080519060200190929190505050600d54600160009054906101000a900473ffffffffffffffffffffffffffffffffffffffff1673ffffffffffffffffffffffffffffffffffffffff166370a08231306040518263ffffffff1660e01b8152600401808273ffffffffffffffffffffffffffffffffffffffff16815260200191505060206040518083038186803b1580156118af57600080fd5b505afa1580156118c3573d6000803e3d6000fd5b505050506040513d60208110156118d957600080fd5b81019080805190602001909291905050500361537c90919063ffffffff16565b61540290919063ffffffff16565b905090565b6000805b60038054905081101561199e573373ffffffffffffffffffffffffffffffffffffffff166003828154811061194157fe5b9060005260206000200160009054906101000a900473ffffffffffffffffffffffffffffffffffffffff1673ffffffffffffffffffffffffffffffffffffffff161415611991576001915061199e565b8080600101915050611910565b5080611a12576040517f08c379a00000000000000000000000000000000000000000000000000000000081526004018080602001828103825260138152602001807f596f75277265206e6f7420616e206f776e65720000000000000000000000000081525060200191505060405180910390fd5b60005b600380549050811015611af6578273ffffffffffffffffffffffffffffffffffffffff1660038281548110611a4657fe5b9060005260206000200160009054906101000a900473ffffffffffffffffffffffffffffffffffffffff1673ffffffffffffffffffffffffffffffffffffffff161415611ae957600060038281548110611a9c57fe5b9060005260206000200160006101000a81548173ffffffffffffffffffffffffffffffffffffffff021916908373ffffffffffffffffffffffffffffffffffffffff160217905550611af6565b8080600101915050611a15565b505050565b60001515601160019054906101000a900460ff16151514611b84576040517f08c379a00000000000000000000000000000000000000000000000000000000081526004018080602001828103825260138152602001807f52656465656d696e67206973207061757365640000000000000000000000000081525060200191505060405180910390fd5b6000806000600960009054906101000a900473ffffffffffffffffffffffffffffffffffffffff1673ffffffffffffffffffffffffffffffffffffffff1663d698477f6040518163ffffffff1660e01b815260040160e06040518083038186803b158015611bf157600080fd5b505afa158015611c05573d6000803e3d6000fd5b505050506040513d60e0811015611c1b57600080fd5b810190808051906020019092919080519060200190929190805190602001909291908051906020019092919080519060200190929190805190602001909291908051906020019092919050505096505050945050509250620f4240821015611ceb576040517f08c379a000000000000000000000000000000000000000000000000000000000815260040180806020018281038252601d8152602001807f436f6c6c61746572616c20726174696f206d757374206265203e3d203100000081525060200191505060405180910390fd5b600073__XebPoolLibrary________________________6337c4e4fb85611e2287611e146305f5e100600a60009054906101000a900473ffffffffffffffffffffffffffffffffffffffff1673ffffffffffffffffffffffffffffffffffffffff16633ddac953600560009054906101000a900473ffffffffffffffffffffffffffffffffffffffff166305f5e1006040518363ffffffff1660e01b8152600401808373ffffffffffffffffffffffffffffffffffffffff1681526020018281526020019250505060206040518083038186803b158015611dcb57600080fd5b505afa158015611ddf573d6000803e3d6000fd5b505050506040513d6020811015611df557600080fd5b810190808051906020019092919050505061537c90919063ffffffff16565b61540290919063ffffffff16565b88866040518563ffffffff1660e01b81526004018085815260200184815260200183815260200182815260200194505050505060206040518083038186803b158015611e6d57600080fd5b505af4158015611e81573d6000803e3d6000fd5b505050506040513d6020811015611e9757600080fd5b81019080805190602001909291905050509050600160009054906101000a900473ffffffffffffffffffffffffffffffffffffffff1673ffffffffffffffffffffffffffffffffffffffff1663095ea7b333836040518363ffffffff1660e01b8152600401808373ffffffffffffffffffffffffffffffffffffffff16815260200182815260200192505050602060405180830381600087803b158015611f3d57600080fd5b505af1158015611f51573d6000803e3d6000fd5b505050506040513d6020811015611f6757600080fd5b81019080805190602001909291905050505080600c60003373ffffffffffffffffffffffffffffffffffffffff1673ffffffffffffffffffffffffffffffffffffffff1681526020019081526020016000206000828254019250508190555080600d6000828254019250508190555043600f60003373ffffffffffffffffffffffffffffffffffffffff1673ffffffffffffffffffffffffffffffffffffffff16815260200190815260200160002081905550600960009054906101000a900473ffffffffffffffffffffffffffffffffffffffff1673ffffffffffffffffffffffffffffffffffffffff1663a8a778ae33876040518363ffffffff1660e01b8152600401808373ffffffffffffffffffffffffffffffffffffffff16815260200182815260200192505050600060405180830381600087803b1580156120ad57600080fd5b505af11580156120c1573d6000803e3d6000fd5b505050505050505050565b6000806000838152602001908152602001600020600201549050919050565b60006120f5613b33565b11612168576040517f08c379a000000000000000000000000000000000000000000000000000000000815260040180806020018281038252601a8152602001807f6e6f20657874726120636f6c6c61746572616c206e656564656400000000000081525060200191505060405180910390fd5b600080600960009054906101000a900473ffffffffffffffffffffffffffffffffffffffff1673ffffffffffffffffffffffffffffffffffffffff1663d698477f6040518163ffffffff1660e01b815260040160e06040518083038186803b1580156121d357600080fd5b505afa1580156121e7573d6000803e3d6000fd5b505050506040513d60e08110156121fd57600080fd5b81019080805190602001909291908051906020019092919080519060200190929190805190602001909291908051906020019092919080519060200190929190805190602001909291905050505050505050915091506000600a60009054906101000a900473ffffffffffffffffffffffffffffffffffffffff1673ffffffffffffffffffffffffffffffffffffffff16633ddac953600560009054906101000a900473ffffffffffffffffffffffffffffffffffffffff166305f5e1006040518363ffffffff1660e01b8152600401808373ffffffffffffffffffffffffffffffffffffffff1681526020018281526020019250505060206040518083038186803b15801561230c57600080fd5b505afa158015612320573d6000803e3d6000fd5b505050506040513d602081101561233657600080fd5b810190808051906020019092919050505090506000612374846123666305f5e1008561537c90919063ffffffff16565b61540290919063ffffffff16565b905060006123a16305f5e100612393848961537c90919063ffffffff16565b61540290919063ffffffff16565b905060006123ad613b33565b90508181106123be578190506123c2565b8091505b60006123ea6123db60648461540290919063ffffffff16565b8461544c90919063ffffffff16565b9050600160009054906101000a900473ffffffffffffffffffffffffffffffffffffffff1673ffffffffffffffffffffffffffffffffffffffff166323b872dd33308b6040518463ffffffff1660e01b8152600401808473ffffffffffffffffffffffffffffffffffffffff1681526020018373ffffffffffffffffffffffffffffffffffffffff1681526020018281526020019350505050602060405180830381600087803b15801561249d57600080fd5b505af11580156124b1573d6000803e3d6000fd5b505050506040513d60208110156124c757600080fd5b810190808051906020019092919050505050600860009054906101000a900473ffffffffffffffffffffffffffffffffffffffff1673ffffffffffffffffffffffffffffffffffffffff1663b4f56b26326125416305f5e1006125338b8761537c90919063ffffffff16565b61540290919063ffffffff16565b6040518363ffffffff1660e01b8152600401808373ffffffffffffffffffffffffffffffffffffffff16815260200182815260200192505050600060405180830381600087803b15801561259457600080fd5b505af11580156125a8573d6000803e3d6000fd5b505050505050505050505050565b6125dc600080848152602001908152602001600020600201546125d76154d4565b6141bb565b612631576040517f08c379a000000000000000000000000000000000000000000000000000000000815260040180806020018281038252602f815260200180615c4a602f913960400191505060405180910390fd5b61263b82826154dc565b5050565b6126476154d4565b73ffffffffffffffffffffffffffffffffffffffff168173ffffffffffffffffffffffffffffffffffffffff16146126ca576040517f08c379a000000000000000000000000000000000000000000000000000000000815260040180806020018281038252602f815260200180615dd0602f913960400191505060405180910390fd5b6126d4828261556f565b5050565b60001515601160009054906101000a900460ff16151514612761576040517f08c379a00000000000000000000000000000000000000000000000000000000081526004018080602001828103825260118152602001807f4d696e74696e672069732070617573656400000000000000000000000000000081525060200191505060405180910390fd5b6000806000600960009054906101000a900473ffffffffffffffffffffffffffffffffffffffff1673ffffffffffffffffffffffffffffffffffffffff1663d698477f6040518163ffffffff1660e01b815260040160e06040518083038186803b1580156127ce57600080fd5b505afa1580156127e2573d6000803e3d6000fd5b505050506040513d60e08110156127f857600080fd5b810190808051906020019092919080519060200190929190805190602001909291908051906020019092919080519060200190929190805190602001909291908051906020019092919050505050955050945050935050600082146128c5576040517f08c379a000000000000000000000000000000000000000000000000000000000815260040180806020018281038252601a8152602001807f436f6c6c61746572616c20726174696f206d757374206265203000000000000081525060200191505060405180910390fd5b600073__XebPoolLibrary________________________636b489ef18386886040518463ffffffff1660e01b815260040180848152602001838152602001828152602001935050505060206040518083038186803b15801561292657600080fd5b505af415801561293a573d6000803e3d6000fd5b505050506040513d602081101561295057600080fd5b81019080805190602001909291905050509050600860009054906101000a900473ffffffffffffffffffffffffffffffffffffffff1673ffffffffffffffffffffffffffffffffffffffff1663a8a778ae33876040518363ffffffff1660e01b8152600401808373ffffffffffffffffffffffffffffffffffffffff16815260200182815260200192505050600060405180830381600087803b1580156129f657600080fd5b505af1158015612a0a573d6000803e3d6000fd5b50505050600960009054906101000a900473ffffffffffffffffffffffffffffffffffffffff1673ffffffffffffffffffffffffffffffffffffffff1663b4f56b2633836040518363ffffffff1660e01b8152600401808373ffffffffffffffffffffffffffffffffffffffff16815260200182815260200192505050600060405180830381600087803b158015612aa157600080fd5b505af1158015612ab5573d6000803e3d6000fd5b505050505050505050565b612aea7f103da79ff3755ff7a17a557d28b73d37cb4de0b3c3cc02fa6c48df0f35071fbf336141bb565b612af357600080fd5b601160029054906101000a900460ff1615601160026101000a81548160ff021916908315150217905550565b6000805b600380549050811015612bb1573373ffffffffffffffffffffffffffffffffffffffff1660038281548110612b5457fe5b9060005260206000200160009054906101000a900473ffffffffffffffffffffffffffffffffffffffff1673ffffffffffffffffffffffffffffffffffffffff161415612ba45760019150612bb1565b8080600101915050612b23565b5080612c25576040517f08c379a00000000000000000000000000000000000000000000000000000000081526004018080602001828103825260138152602001807f596f75277265206e6f7420616e206f776e65720000000000000000000000000081525060200191505060405180910390fd5b81600260006101000a81548173ffffffffffffffffffffffffffffffffffffffff021916908373ffffffffffffffffffffffffffffffffffffffff16021790555081600160006101000a81548173ffffffffffffffffffffffffffffffffffffffff021916908373ffffffffffffffffffffffffffffffffffffffff1602179055505050565b60001515601160019054906101000a900460ff16151514612d34576040517f08c379a00000000000000000000000000000000000000000000000000000000081526004018080602001828103825260138152602001807f52656465656d696e67206973207061757365640000000000000000000000000081525060200191505060405180910390fd5b600080600080600960009054906101000a900473ffffffffffffffffffffffffffffffffffffffff1673ffffffffffffffffffffffffffffffffffffffff1663d698477f6040518163ffffffff1660e01b815260040160e06040518083038186803b158015612da257600080fd5b505afa158015612db6573d6000803e3d6000fd5b505050506040513d60e0811015612dcc57600080fd5b81019080805190602001909291908051906020019092919080519060200190929190805190602001909291908051906020019092919080519060200190929190805190602001909291905050509650505094505093509350620f424082108015612e365750600082115b612e8b576040517f08c379a0000000000000000000000000000000000000000000000000000000008152600401808060200182810382526038815260200180615ca96038913960400191505060405180910390fd5b6000612eb685612ea86305f5e1008961537c90919063ffffffff16565b61540290919063ffffffff16565b90506000612fd486612fc66305f5e100600a60009054906101000a900473ffffffffffffffffffffffffffffffffffffffff1673ffffffffffffffffffffffffffffffffffffffff16633ddac953600560009054906101000a900473ffffffffffffffffffffffffffffffffffffffff166305f5e1006040518363ffffffff1660e01b8152600401808373ffffffffffffffffffffffffffffffffffffffff1681526020018281526020019250505060206040518083038186803b158015612f7d57600080fd5b505afa158015612f91573d6000803e3d6000fd5b505050506040513d6020811015612fa757600080fd5b810190808051906020019092919050505061537c90919063ffffffff16565b61540290919063ffffffff16565b90506130116130026305f5e100612ff4868661537c90919063ffffffff16565b61540290919063ffffffff16565b8361560290919063ffffffff16565b9150600061303e6305f5e100613030878661537c90919063ffffffff16565b61540290919063ffffffff16565b90506000613055828561560290919063ffffffff16565b9050600160009054906101000a900473ffffffffffffffffffffffffffffffffffffffff1673ffffffffffffffffffffffffffffffffffffffff1663095ea7b3336130bf6305f5e1006130b1888861537c90919063ffffffff16565b61540290919063ffffffff16565b6040518363ffffffff1660e01b8152600401808373ffffffffffffffffffffffffffffffffffffffff16815260200182815260200192505050602060405180830381600087803b15801561311257600080fd5b505af1158015613126573d6000803e3d6000fd5b505050506040513d602081101561313c57600080fd5b8101908080519060200190929190505050506131776305f5e100613169858561537c90919063ffffffff16565b61540290919063ffffffff16565b600c60003373ffffffffffffffffffffffffffffffffffffffff1673ffffffffffffffffffffffffffffffffffffffff168152602001908152602001600020600082825401925050819055506131ec6305f5e1006131de858561537c90919063ffffffff16565b61540290919063ffffffff16565b600d60008282540192505081905550600860009054906101000a900473ffffffffffffffffffffffffffffffffffffffff1673ffffffffffffffffffffffffffffffffffffffff1663b4f56b26306132636305f5e1006132558c8761537c90919063ffffffff16565b61540290919063ffffffff16565b6040518363ffffffff1660e01b8152600401808373ffffffffffffffffffffffffffffffffffffffff16815260200182815260200192505050600060405180830381600087803b1580156132b657600080fd5b505af11580156132ca573d6000803e3d6000fd5b50505050600860009054906101000a900473ffffffffffffffffffffffffffffffffffffffff1673ffffffffffffffffffffffffffffffffffffffff1663095ea7b3336133366305f5e1006133288c8761537c90919063ffffffff16565b61540290919063ffffffff16565b6040518363ffffffff1660e01b8152600401808373ffffffffffffffffffffffffffffffffffffffff16815260200182815260200192505050602060405180830381600087803b15801561338957600080fd5b505af115801561339d573d6000803e3d6000fd5b505050506040513d60208110156133b357600080fd5b8101908080519060200190929190505050506133ee6305f5e1006133e0898461537c90919063ffffffff16565b61540290919063ffffffff16565b600b60003373ffffffffffffffffffffffffffffffffffffffff1673ffffffffffffffffffffffffffffffffffffffff168152602001908152602001600020600082825401925050819055506134636305f5e100613455898461537c90919063ffffffff16565b61540290919063ffffffff16565b600e6000828254019250508190555043600f60003373ffffffffffffffffffffffffffffffffffffffff1673ffffffffffffffffffffffffffffffffffffffff16815260200190815260200160002081905550600960009054906101000a900473ffffffffffffffffffffffffffffffffffffffff1673ffffffffffffffffffffffffffffffffffffffff1663a8a778ae338b6040518363ffffffff1660e01b8152600401808373ffffffffffffffffffffffffffffffffffffffff16815260200182815260200192505050600060405180830381600087803b15801561354957600080fd5b505af115801561355d573d6000803e3d6000fd5b50505050505050505050505050565b60001515601160019054906101000a900460ff161515146135f5576040517f08c379a00000000000000000000000000000000000000000000000000000000081526004018080602001828103825260138152602001807f52656465656d696e67206973207061757365640000000000000000000000000081525060200191505060405180910390fd5b600080600080600960009054906101000a900473ffffffffffffffffffffffffffffffffffffffff1673ffffffffffffffffffffffffffffffffffffffff1663d698477f6040518163ffffffff1660e01b815260040160e06040518083038186803b15801561366357600080fd5b505afa158015613677573d6000803e3d6000fd5b505050506040513d60e081101561368d57600080fd5b810190808051906020019092919080519060200190929190805190602001909291908051906020019092919080519060200190929190805190602001909291908051906020019092919050505096505050945050935093506000821461375b576040517f08c379a000000000000000000000000000000000000000000000000000000000815260040180806020018281038252601a8152602001807f436f6c6c61746572616c20726174696f206d757374206265203000000000000081525060200191505060405180910390fd5b6000613786856137786305f5e1008961537c90919063ffffffff16565b61540290919063ffffffff16565b90506137c36137b46305f5e1006137a6858561537c90919063ffffffff16565b61540290919063ffffffff16565b8261560290919063ffffffff16565b9050600860009054906101000a900473ffffffffffffffffffffffffffffffffffffffff1673ffffffffffffffffffffffffffffffffffffffff1663b4f56b263061382d6305f5e10061381f898761537c90919063ffffffff16565b61540290919063ffffffff16565b6040518363ffffffff1660e01b8152600401808373ffffffffffffffffffffffffffffffffffffffff16815260200182815260200192505050600060405180830381600087803b15801561388057600080fd5b505af1158015613894573d6000803e3d6000fd5b50505050600860009054906101000a900473ffffffffffffffffffffffffffffffffffffffff1673ffffffffffffffffffffffffffffffffffffffff1663095ea7b3336139006305f5e1006138f2898761537c90919063ffffffff16565b61540290919063ffffffff16565b6040518363ffffffff1660e01b8152600401808373ffffffffffffffffffffffffffffffffffffffff16815260200182815260200192505050602060405180830381600087803b15801561395357600080fd5b505af1158015613967573d6000803e3d6000fd5b505050506040513d602081101561397d57600080fd5b8101908080519060200190929190505050506139b86305f5e1006139aa868461537c90919063ffffffff16565b61540290919063ffffffff16565b600b60003373ffffffffffffffffffffffffffffffffffffffff1673ffffffffffffffffffffffffffffffffffffffff16815260200190815260200160002060008282540192505081905550613a2d6305f5e100613a1f868461537c90919063ffffffff16565b61540290919063ffffffff16565b600e6000828254019250508190555043600f60003373ffffffffffffffffffffffffffffffffffffffff1673ffffffffffffffffffffffffffffffffffffffff16815260200190815260200160002081905550600960009054906101000a900473ffffffffffffffffffffffffffffffffffffffff1673ffffffffffffffffffffffffffffffffffffffff1663a8a778ae33886040518363ffffffff1660e01b8152600401808373ffffffffffffffffffffffffffffffffffffffff16815260200182815260200192505050600060405180830381600087803b158015613b1357600080fd5b505af1158015613b27573d6000803e3d6000fd5b50505050505050505050565b600080600080600960009054906101000a900473ffffffffffffffffffffffffffffffffffffffff1673ffffffffffffffffffffffffffffffffffffffff1663d698477f6040518163ffffffff1660e01b815260040160e06040518083038186803b158015613ba157600080fd5b505afa158015613bb5573d6000803e3d6000fd5b505050506040513d60e0811015613bcb57600080fd5b8101908080519060200190929190805190602001909291908051906020019092919080519060200190929190805190602001909291908051906020019092919080519060200190929190505050505094509450945050506000613c4e64e8d4a51000613c40858761537c90919063ffffffff16565b61540290919063ffffffff16565b905081811115613c7257613c6b828261560290919063ffffffff16565b9450613c77565b600094505b5050505090565b6000805b600380549050811015613d10573373ffffffffffffffffffffffffffffffffffffffff1660038281548110613cb357fe5b9060005260206000200160009054906101000a900473ffffffffffffffffffffffffffffffffffffffff1673ffffffffffffffffffffffffffffffffffffffff161415613d035760019150613d10565b8080600101915050613c82565b5080613d84576040517f08c379a00000000000000000000000000000000000000000000000000000000081526004018080602001828103825260138152602001807f596f75277265206e6f7420616e206f776e65720000000000000000000000000081525060200191505060405180910390fd5b6003829080600181540180825580915050600190039060005260206000200160009091909190916101000a81548173ffffffffffffffffffffffffffffffffffffffff021916908373ffffffffffffffffffffffffffffffffffffffff1602179055505050565b6000805b600380549050811015613e7d573373ffffffffffffffffffffffffffffffffffffffff1660038281548110613e2057fe5b9060005260206000200160009054906101000a900473ffffffffffffffffffffffffffffffffffffffff1673ffffffffffffffffffffffffffffffffffffffff161415613e705760019150613e7d565b8080600101915050613def565b5080613ef1576040517f08c379a00000000000000000000000000000000000000000000000000000000081526004018080602001828103825260138152602001807f596f75277265206e6f7420616e206f776e65720000000000000000000000000081525060200191505060405180910390fd5b81600960006101000a81548173ffffffffffffffffffffffffffffffffffffffff021916908373ffffffffffffffffffffffffffffffffffffffff16021790555081600560006101000a81548173ffffffffffffffffffffffffffffffffffffffff021916908373ffffffffffffffffffffffffffffffffffffffff1602179055505050565b6000805b600380549050811015614009573373ffffffffffffffffffffffffffffffffffffffff1660038281548110613fac57fe5b9060005260206000200160009054906101000a900473ffffffffffffffffffffffffffffffffffffffff1673ffffffffffffffffffffffffffffffffffffffff161415613ffc5760019150614009565b8080600101915050613f7b565b508061407d576040517f08c379a00000000000000000000000000000000000000000000000000000000081526004018080602001828103825260138152602001807f596f75277265206e6f7420616e206f776e65720000000000000000000000000081525060200191505060405180910390fd5b81600460006101000a81548173ffffffffffffffffffffffffffffffffffffffff021916908373ffffffffffffffffffffffffffffffffffffffff160217905550600460009054906101000a900473ffffffffffffffffffffffffffffffffffffffff16600a60006101000a81548173ffffffffffffffffffffffffffffffffffffffff021916908373ffffffffffffffffffffffffffffffffffffffff1602179055505050565b600d5481565b6141557fc65532185ed70b2e999433e2e9fac124e083acb13ec183a4e05944da0792337b336141bb565b61415e57600080fd5b601160009054906101000a900460ff1615601160006101000a81548160ff021916908315150217905550565b60006141b38260008086815260200190815260200160002060000161564c90919063ffffffff16565b905092915050565b60006141e48260008086815260200190815260200160002060000161512a90919063ffffffff16565b905092915050565b6000801b81565b60001515601160009054906101000a900460ff1615151461427c576040517f08c379a00000000000000000000000000000000000000000000000000000000081526004018080602001828103825260118152602001807f4d696e74696e672069732070617573656400000000000000000000000000000081525060200191505060405180910390fd5b6000806000600960009054906101000a900473ffffffffffffffffffffffffffffffffffffffff1673ffffffffffffffffffffffffffffffffffffffff1663d698477f6040518163ffffffff1660e01b815260040160e06040518083038186803b1580156142e957600080fd5b505afa1580156142fd573d6000803e3d6000fd5b505050506040513d60e081101561431357600080fd5b810190808051906020019092919080519060200190929190805190602001909291908051906020019092919080519060200190929190805190602001909291908051906020019092919050505050955050945050509250620f42408210156143e3576040517f08c379a000000000000000000000000000000000000000000000000000000000815260040180806020018281038252601d8152602001807f436f6c6c61746572616c20726174696f206d757374206265203e3d203100000081525060200191505060405180910390fd5b60105484600160009054906101000a900473ffffffffffffffffffffffffffffffffffffffff1673ffffffffffffffffffffffffffffffffffffffff166370a08231306040518263ffffffff1660e01b8152600401808273ffffffffffffffffffffffffffffffffffffffff16815260200191505060206040518083038186803b15801561447057600080fd5b505afa158015614484573d6000803e3d6000fd5b505050506040513d602081101561449a57600080fd5b8101908080519060200190929190505050011115614520576040517f08c379a00000000000000000000000000000000000000000000000000000000081526004018080602001828103825260208152602001807f5b506f6f6c277320436c6f7365645d3a204365696c696e67207265616368656481525060200191505060405180910390fd5b600073__XebPoolLibrary________________________63dfce6f92600a60009054906101000a900473ffffffffffffffffffffffffffffffffffffffff1673ffffffffffffffffffffffffffffffffffffffff16633ddac953600560009054906101000a900473ffffffffffffffffffffffffffffffffffffffff166305f5e1006040518363ffffffff1660e01b8152600401808373ffffffffffffffffffffffffffffffffffffffff1681526020018281526020019250505060206040518083038186803b1580156145f357600080fd5b505afa158015614607573d6000803e3d6000fd5b505050506040513d602081101561461d57600080fd5b81019080805190602001909291905050508685896040518563ffffffff1660e01b81526004018085815260200184815260200183815260200182815260200194505050505060206040518083038186803b15801561467a57600080fd5b505af415801561468e573d6000803e3d6000fd5b505050506040513d60208110156146a457600080fd5b81019080805190602001909291905050509050600160009054906101000a900473ffffffffffffffffffffffffffffffffffffffff1673ffffffffffffffffffffffffffffffffffffffff166323b872dd3330886040518463ffffffff1660e01b8152600401808473ffffffffffffffffffffffffffffffffffffffff1681526020018373ffffffffffffffffffffffffffffffffffffffff1681526020018281526020019350505050602060405180830381600087803b15801561476857600080fd5b505af115801561477c573d6000803e3d6000fd5b505050506040513d602081101561479257600080fd5b810190808051906020019092919050505050600960009054906101000a900473ffffffffffffffffffffffffffffffffffffffff1673ffffffffffffffffffffffffffffffffffffffff1663b4f56b2633836040518363ffffffff1660e01b8152600401808373ffffffffffffffffffffffffffffffffffffffff16815260200182815260200192505050600060405180830381600087803b15801561483757600080fd5b505af115801561484b573d6000803e3d6000fd5b505050505050505050565b6000600c60008373ffffffffffffffffffffffffffffffffffffffff1673ffffffffffffffffffffffffffffffffffffffff168152602001908152602001600020549050919050565b600e5481565b60006148c4600080848152602001908152602001600020600001615666565b9050919050565b6000600b60008373ffffffffffffffffffffffffffffffffffffffff1673ffffffffffffffffffffffffffffffffffffffff168152602001908152602001600020549050919050565b61493a600080848152602001908152602001600020600201546149356154d4565b6141bb565b61498f576040517f08c379a0000000000000000000000000000000000000000000000000000000008152600401808060200182810382526030815260200180615d3b6030913960400191505060405180910390fd5b614999828261556f565b5050565b6149c77fa84a5389ad41f9aab0831b01e5384cae76e7a7fd09131c206ff7927c201c3857336141bb565b6149d057600080fd5b601160019054906101000a900460ff1615601160016101000a81548160ff021916908315150217905550565b6000805b600380549050811015614a8e573373ffffffffffffffffffffffffffffffffffffffff1660038281548110614a3157fe5b9060005260206000200160009054906101000a900473ffffffffffffffffffffffffffffffffffffffff1673ffffffffffffffffffffffffffffffffffffffff161415614a815760019150614a8e565b8080600101915050614a00565b5080614b02576040517f08c379a00000000000000000000000000000000000000000000000000000000081526004018080602001828103825260138152602001807f596f75277265206e6f7420616e206f776e65720000000000000000000000000081525060200191505060405180910390fd5b816010819055505050565b6000806000806000600960009054906101000a900473ffffffffffffffffffffffffffffffffffffffff1673ffffffffffffffffffffffffffffffffffffffff1663d698477f6040518163ffffffff1660e01b815260040160e06040518083038186803b158015614b7d57600080fd5b505afa158015614b91573d6000803e3d6000fd5b505050506040513d60e0811015614ba757600080fd5b810190808051906020019092919080519060200190929190805190602001909291908051906020019092919080519060200190929190805190602001909291908051906020019092919050505050509450945094505093506000614c2a85614c1c6305f5e1008761537c90919063ffffffff16565b61540290919063ffffffff16565b90506305f5e100831115614c40576305f5e10092505b6000614c6b6305f5e100614c5d868561537c90919063ffffffff16565b61540290919063ffffffff16565b905080831115614c9557614c88818461560290919063ffffffff16565b9650505050505050614ca0565b600096505050505050505b90565b60001515601160029054906101000a900460ff16151514614d2c576040517f08c379a00000000000000000000000000000000000000000000000000000000081526004018080602001828103825260118152602001807f4275796261636b2069732070617573656400000000000000000000000000000081525060200191505060405180910390fd5b6000806000600960009054906101000a900473ffffffffffffffffffffffffffffffffffffffff1673ffffffffffffffffffffffffffffffffffffffff1663d698477f6040518163ffffffff1660e01b815260040160e06040518083038186803b158015614d9957600080fd5b505afa158015614dad573d6000803e3d6000fd5b505050506040513d60e0811015614dc357600080fd5b810190808051906020019092919080519060200190929190805190602001909291908051906020019092919080519060200190929190805190602001909291908051906020019092919050505096505050505092509250614e22615bf8565b6040518060a00160405280838152602001614e3b614b0d565b8152602001848152602001614f6086614f526305f5e100600a60009054906101000a900473ffffffffffffffffffffffffffffffffffffffff1673ffffffffffffffffffffffffffffffffffffffff16633ddac953600560009054906101000a900473ffffffffffffffffffffffffffffffffffffffff166305f5e1006040518363ffffffff1660e01b8152600401808373ffffffffffffffffffffffffffffffffffffffff1681526020018281526020019250505060206040518083038186803b158015614f0957600080fd5b505afa158015614f1d573d6000803e3d6000fd5b505050506040513d6020811015614f3357600080fd5b810190808051906020019092919050505061537c90919063ffffffff16565b61540290919063ffffffff16565b81526020018681525090506000614f768261567b565b9050600160009054906101000a900473ffffffffffffffffffffffffffffffffffffffff1673ffffffffffffffffffffffffffffffffffffffff1663a9059cbb33836040518363ffffffff1660e01b8152600401808373ffffffffffffffffffffffffffffffffffffffff16815260200182815260200192505050602060405180830381600087803b15801561500b57600080fd5b505af115801561501f573d6000803e3d6000fd5b505050506040513d602081101561503557600080fd5b810190808051906020019092919050505050600860009054906101000a900473ffffffffffffffffffffffffffffffffffffffff1673ffffffffffffffffffffffffffffffffffffffff166379cc679033886040518363ffffffff1660e01b8152600401808373ffffffffffffffffffffffffffffffffffffffff16815260200182815260200192505050600060405180830381600087803b1580156150da57600080fd5b505af11580156150ee573d6000803e3d6000fd5b50505050505050505050565b6000615122836000018373ffffffffffffffffffffffffffffffffffffffff1660001b6157e7565b905092915050565b6000615152836000018373ffffffffffffffffffffffffffffffffffffffff1660001b615857565b905092915050565b60008060008060008060008061519789604001516151896305f5e1008c6060015161537c90919063ffffffff16565b61540290919063ffffffff16565b90506151ca89602001516151bc6305f5e1008c6080015161537c90919063ffffffff16565b61540290919063ffffffff16565b92506151f9816151eb6305f5e1008c60a0015161537c90919063ffffffff16565b61540290919063ffffffff16565b91506152246305f5e100615216838561537c90919063ffffffff16565b61540290919063ffffffff16565b9350508760e00151838960c001510110615289576040517f08c379a0000000000000000000000000000000000000000000000000000000008152600401808060200182810382526044815260200180615d8c6044913960600191505060405180910390fd5b6152f56305f5e1006152e78a602001516152d9856152cb8e61010001516152bd6305f5e1008a61537c90919063ffffffff16565b61540290919063ffffffff16565b61560290919063ffffffff16565b61537c90919063ffffffff16565b61540290919063ffffffff16565b935061532488602001516153166305f5e1008761537c90919063ffffffff16565b61540290919063ffffffff16565b91508261536a6153596305f5e10061534b8c6000015187870161537c90919063ffffffff16565b61540290919063ffffffff16565b84840161560290919063ffffffff16565b85965096509650505050509193909250565b60008083141561538f57600090506153fc565b60008284029050828482816153a057fe5b04146153f7576040517f08c379a0000000000000000000000000000000000000000000000000000000008152600401808060200182810382526021815260200180615d6b6021913960400191505060405180910390fd5b809150505b92915050565b600061544483836040518060400160405280601a81526020017f536166654d6174683a206469766973696f6e206279207a65726f00000000000081525061587a565b905092915050565b6000808284019050838110156154ca576040517f08c379a000000000000000000000000000000000000000000000000000000000815260040180806020018281038252601b8152602001807f536166654d6174683a206164646974696f6e206f766572666c6f77000000000081525060200191505060405180910390fd5b8091505092915050565b600033905090565b615503816000808581526020019081526020016000206000016150fa90919063ffffffff16565b1561556b576155106154d4565b73ffffffffffffffffffffffffffffffffffffffff168173ffffffffffffffffffffffffffffffffffffffff16837f2f8788117e7eff1d82e926ec794901d17c78024a50270940304540a733656f0d60405160405180910390a45b5050565b6155968160008085815260200190815260200160002060000161594090919063ffffffff16565b156155fe576155a36154d4565b73ffffffffffffffffffffffffffffffffffffffff168173ffffffffffffffffffffffffffffffffffffffff16837ff6391f5c32d9c69d2a47ea670b442974b53935d1edc7fd64eb21e047a839171b60405160405180910390a45b5050565b600061564483836040518060400160405280601e81526020017f536166654d6174683a207375627472616374696f6e206f766572666c6f770000815250615970565b905092915050565b600061565b8360000183615a30565b60001c905092915050565b600061567482600001615ab3565b9050919050565b6000808260200151116156d9576040517f08c379a0000000000000000000000000000000000000000000000000000000008152600401808060200182810382526021815260200180615d1a6021913960400191505060405180910390fd5b600061570c83604001516156fe6305f5e100866080015161537c90919063ffffffff16565b61540290919063ffffffff16565b9050826020015181111561576b576040517f08c379a0000000000000000000000000000000000000000000000000000000008152600401808060200182810382526030815260200180615c796030913960400191505060405180910390fd5b600061579a846060015161578c6305f5e1008561537c90919063ffffffff16565b61540290919063ffffffff16565b90506157db6157cc6305f5e1006157be87600001518561537c90919063ffffffff16565b61540290919063ffffffff16565b8261560290919063ffffffff16565b90508092505050919050565b60006157f38383615857565b61584c578260000182908060018154018082558091505060019003906000526020600020016000909190919091505582600001805490508360010160008481526020019081526020016000208190555060019050615851565b600090505b92915050565b600080836001016000848152602001908152602001600020541415905092915050565b60008083118290615926576040517f08c379a00000000000000000000000000000000000000000000000000000000081526004018080602001828103825283818151815260200191508051906020019080838360005b838110156158eb5780820151818401526020810190506158d0565b50505050905090810190601f1680156159185780820380516001836020036101000a031916815260200191505b509250505060405180910390fd5b50600083858161593257fe5b049050809150509392505050565b6000615968836000018373ffffffffffffffffffffffffffffffffffffffff1660001b615ac4565b905092915050565b6000838311158290615a1d576040517f08c379a00000000000000000000000000000000000000000000000000000000081526004018080602001828103825283818151815260200191508051906020019080838360005b838110156159e25780820151818401526020810190506159c7565b50505050905090810190601f168015615a0f5780820380516001836020036101000a031916815260200191505b509250505060405180910390fd5b5060008385039050809150509392505050565b600081836000018054905011615a91576040517f08c379a0000000000000000000000000000000000000000000000000000000008152600401808060200182810382526022815260200180615c286022913960400191505060405180910390fd5b826000018281548110615aa057fe5b9060005260206000200154905092915050565b600081600001805490509050919050565b60008083600101600084815260200190815260200160002054905060008114615ba05760006001820390506000600186600001805490500390506000866000018281548110615b0f57fe5b9060005260206000200154905080876000018481548110615b2c57fe5b9060005260206000200181905550600183018760010160008381526020019081526020016000208190555086600001805480615b6457fe5b60019003818190600052602060002001600090559055866001016000878152602001908152602001600020600090556001945050505050615ba6565b60009150505b92915050565b6040518061012001604052806000815260200160008152602001600081526020016000815260200160008152602001600081526020016000815260200160008152602001600081525090565b6040518060a001604052806000815260200160008152602001600081526020016000815260200160008152509056fe456e756d657261626c655365743a20696e646578206f7574206f6620626f756e6473416363657373436f6e74726f6c3a2073656e646572206d75737420626520616e2061646d696e20746f206772616e74596f752061726520747279696e6720746f20627579206261636b206d6f7265207468616e207468652065786365737321436f6c6c61746572616c20726174696f206e6565647320746f206265206265747765656e202e30303030303120616e64202e3939393939396d7573742077616974206174206c65617374206f6e6520626c6f636b206265666f726520636f6c6c656374696e6720726564656d7074696f6e4e6f2065786365737320636f6c6c61746572616c20746f20627579206261636b21416363657373436f6e74726f6c3a2073656e646572206d75737420626520616e2061646d696e20746f207265766f6b65536166654d6174683a206d756c7469706c69636174696f6e206f766572666c6f77506f6f6c206365696c696e6720726561636865642c206e6f206d6f7265205845422063616e206265206d696e7465642077697468207468697320636f6c6c61746572616c416363657373436f6e74726f6c3a2063616e206f6e6c792072656e6f756e636520726f6c657320666f722073656c66a26469706673582212200c4ad0145abe756b716bfe1f126f97235edefc02150746a1678f7bca47fbba1464736f6c634300060c0033416363657373436f6e74726f6c3a2073656e646572206d75737420626520616e2061646d696e20746f206772616e74",
  "immutableReferences": {},
  "source": "// SPDX-License-Identifier: MIT\npragma solidity ^0.6.0 <0.7.0;\n\nimport \"./XebPool.sol\";\n\ncontract Pool_WBTC is XebPool {\n    constructor(\n        address _collateral_address,\n        address _oracle_address,\n        address _creator_address,\n        address _timelock_address,\n        uint256 _pool_ceiling\n    ) \n    XebPool(_collateral_address, _oracle_address, _creator_address, _timelock_address, _pool_ceiling)\n    public {\n    \t_setupRole(DEFAULT_ADMIN_ROLE, _msgSender());\n    }\n}",
  "sourcePath": "/Users/abdulhafiz/Documents/projects/xeb/defi_fraxlink_contract/contracts/Xeb/Pools/Pool_WBTC.sol",
  "compiler": {
    "name": "solc",
    "version": "0.6.12+commit.27d51765.Emscripten.clang"
  },
  "schemaVersion": "3.3.4",
  "updatedAt": "2021-03-15T14:40:12.680Z",
  "devdoc": {
    "kind": "dev",
    "methods": {
      "getRoleAdmin(bytes32)": {
        "details": "Returns the admin role that controls `role`. See {grantRole} and {revokeRole}. To change a role's admin, use {_setRoleAdmin}."
      },
      "getRoleMember(bytes32,uint256)": {
        "details": "Returns one of the accounts that have `role`. `index` must be a value between 0 and {getRoleMemberCount}, non-inclusive. Role bearers are not sorted in any particular way, and their ordering may change at any point. WARNING: When using {getRoleMember} and {getRoleMemberCount}, make sure you perform all queries on the same block. See the following https://forum.openzeppelin.com/t/iterating-over-elements-on-enumerableset-in-openzeppelin-contracts/2296[forum post] for more information."
      },
      "getRoleMemberCount(bytes32)": {
        "details": "Returns the number of accounts that have `role`. Can be used together with {getRoleMember} to enumerate all bearers of a role."
      },
      "grantRole(bytes32,address)": {
        "details": "Grants `role` to `account`. If `account` had not been already granted `role`, emits a {RoleGranted} event. Requirements: - the caller must have ``role``'s admin role."
      },
      "hasRole(bytes32,address)": {
        "details": "Returns `true` if `account` has been granted `role`."
      },
      "renounceRole(bytes32,address)": {
        "details": "Revokes `role` from the calling account. Roles are often managed via {grantRole} and {revokeRole}: this function's purpose is to provide a mechanism for accounts to lose their privileges if they are compromised (such as when a trusted device is misplaced). If the calling account had been granted `role`, emits a {RoleRevoked} event. Requirements: - the caller must be `account`."
      },
      "revokeRole(bytes32,address)": {
        "details": "Revokes `role` from `account`. If `account` had been granted `role`, emits a {RoleRevoked} event. Requirements: - the caller must have ``role``'s admin role."
      }
    },
    "version": 1
  },
  "userdoc": {
    "kind": "user",
    "methods": {},
    "version": 1
  }
}