{
  "contractName": "UniswapV2Router02_Modified",
  "abi": [
    {
      "inputs": [
        {
          "internalType": "address",
          "name": "_factory",
          "type": "address"
        },
        {
          "internalType": "address",
          "name": "_WBTC",
          "type": "address"
        }
      ],
      "stateMutability": "nonpayable",
      "type": "constructor"
    },
    {
      "inputs": [],
      "name": "WBTC",
      "outputs": [
        {
          "internalType": "address",
          "name": "",
          "type": "address"
        }
      ],
      "stateMutability": "view",
      "type": "function"
    },
    {
      "inputs": [],
      "name": "factory",
      "outputs": [
        {
          "internalType": "address",
          "name": "",
          "type": "address"
        }
      ],
      "stateMutability": "view",
      "type": "function"
    },
    {
      "stateMutability": "payable",
      "type": "receive"
    },
    {
      "inputs": [
        {
          "internalType": "address",
          "name": "tokenA",
          "type": "address"
        },
        {
          "internalType": "address",
          "name": "tokenB",
          "type": "address"
        },
        {
          "internalType": "uint256",
          "name": "amountADesired",
          "type": "uint256"
        },
        {
          "internalType": "uint256",
          "name": "amountBDesired",
          "type": "uint256"
        },
        {
          "internalType": "uint256",
          "name": "amountAMin",
          "type": "uint256"
        },
        {
          "internalType": "uint256",
          "name": "amountBMin",
          "type": "uint256"
        },
        {
          "internalType": "address",
          "name": "to",
          "type": "address"
        },
        {
          "internalType": "uint256",
          "name": "deadline",
          "type": "uint256"
        }
      ],
      "name": "addLiquidity",
      "outputs": [
        {
          "internalType": "uint256",
          "name": "amountA",
          "type": "uint256"
        },
        {
          "internalType": "uint256",
          "name": "amountB",
          "type": "uint256"
        },
        {
          "internalType": "uint256",
          "name": "liquidity",
          "type": "uint256"
        }
      ],
      "stateMutability": "nonpayable",
      "type": "function"
    },
    {
      "inputs": [
        {
          "internalType": "address",
          "name": "token",
          "type": "address"
        },
        {
          "internalType": "uint256",
          "name": "amountTokenDesired",
          "type": "uint256"
        },
        {
          "internalType": "uint256",
          "name": "amountTokenMin",
          "type": "uint256"
        },
        {
          "internalType": "uint256",
          "name": "amountWBTCMin",
          "type": "uint256"
        },
        {
          "internalType": "address",
          "name": "to",
          "type": "address"
        },
        {
          "internalType": "uint256",
          "name": "deadline",
          "type": "uint256"
        }
      ],
      "name": "addLiquidityWBTC",
      "outputs": [
        {
          "internalType": "uint256",
          "name": "amountToken",
          "type": "uint256"
        },
        {
          "internalType": "uint256",
          "name": "amountWBTC",
          "type": "uint256"
        },
        {
          "internalType": "uint256",
          "name": "liquidity",
          "type": "uint256"
        }
      ],
      "stateMutability": "payable",
      "type": "function"
    },
    {
      "inputs": [
        {
          "internalType": "address",
          "name": "tokenA",
          "type": "address"
        },
        {
          "internalType": "address",
          "name": "tokenB",
          "type": "address"
        },
        {
          "internalType": "uint256",
          "name": "liquidity",
          "type": "uint256"
        },
        {
          "internalType": "uint256",
          "name": "amountAMin",
          "type": "uint256"
        },
        {
          "internalType": "uint256",
          "name": "amountBMin",
          "type": "uint256"
        },
        {
          "internalType": "address",
          "name": "to",
          "type": "address"
        },
        {
          "internalType": "uint256",
          "name": "deadline",
          "type": "uint256"
        }
      ],
      "name": "removeLiquidity",
      "outputs": [
        {
          "internalType": "uint256",
          "name": "amountA",
          "type": "uint256"
        },
        {
          "internalType": "uint256",
          "name": "amountB",
          "type": "uint256"
        }
      ],
      "stateMutability": "nonpayable",
      "type": "function"
    },
    {
      "inputs": [
        {
          "internalType": "address",
          "name": "token",
          "type": "address"
        },
        {
          "internalType": "uint256",
          "name": "liquidity",
          "type": "uint256"
        },
        {
          "internalType": "uint256",
          "name": "amountTokenMin",
          "type": "uint256"
        },
        {
          "internalType": "uint256",
          "name": "amountWBTCMin",
          "type": "uint256"
        },
        {
          "internalType": "address",
          "name": "to",
          "type": "address"
        },
        {
          "internalType": "uint256",
          "name": "deadline",
          "type": "uint256"
        }
      ],
      "name": "removeLiquidityWBTC",
      "outputs": [
        {
          "internalType": "uint256",
          "name": "amountToken",
          "type": "uint256"
        },
        {
          "internalType": "uint256",
          "name": "amountWBTC",
          "type": "uint256"
        }
      ],
      "stateMutability": "nonpayable",
      "type": "function"
    },
    {
      "inputs": [
        {
          "internalType": "address",
          "name": "tokenA",
          "type": "address"
        },
        {
          "internalType": "address",
          "name": "tokenB",
          "type": "address"
        },
        {
          "internalType": "uint256",
          "name": "liquidity",
          "type": "uint256"
        },
        {
          "internalType": "uint256",
          "name": "amountAMin",
          "type": "uint256"
        },
        {
          "internalType": "uint256",
          "name": "amountBMin",
          "type": "uint256"
        },
        {
          "internalType": "address",
          "name": "to",
          "type": "address"
        },
        {
          "internalType": "uint256",
          "name": "deadline",
          "type": "uint256"
        },
        {
          "internalType": "bool",
          "name": "approveMax",
          "type": "bool"
        },
        {
          "internalType": "uint8",
          "name": "v",
          "type": "uint8"
        },
        {
          "internalType": "bytes32",
          "name": "r",
          "type": "bytes32"
        },
        {
          "internalType": "bytes32",
          "name": "s",
          "type": "bytes32"
        }
      ],
      "name": "removeLiquidityWithPermit",
      "outputs": [
        {
          "internalType": "uint256",
          "name": "amountA",
          "type": "uint256"
        },
        {
          "internalType": "uint256",
          "name": "amountB",
          "type": "uint256"
        }
      ],
      "stateMutability": "nonpayable",
      "type": "function"
    },
    {
      "inputs": [
        {
          "internalType": "address",
          "name": "token",
          "type": "address"
        },
        {
          "internalType": "uint256",
          "name": "liquidity",
          "type": "uint256"
        },
        {
          "internalType": "uint256",
          "name": "amountTokenMin",
          "type": "uint256"
        },
        {
          "internalType": "uint256",
          "name": "amountWBTCMin",
          "type": "uint256"
        },
        {
          "internalType": "address",
          "name": "to",
          "type": "address"
        },
        {
          "internalType": "uint256",
          "name": "deadline",
          "type": "uint256"
        },
        {
          "internalType": "bool",
          "name": "approveMax",
          "type": "bool"
        },
        {
          "internalType": "uint8",
          "name": "v",
          "type": "uint8"
        },
        {
          "internalType": "bytes32",
          "name": "r",
          "type": "bytes32"
        },
        {
          "internalType": "bytes32",
          "name": "s",
          "type": "bytes32"
        }
      ],
      "name": "removeLiquidityWBTCWithPermit",
      "outputs": [
        {
          "internalType": "uint256",
          "name": "amountToken",
          "type": "uint256"
        },
        {
          "internalType": "uint256",
          "name": "amountWBTC",
          "type": "uint256"
        }
      ],
      "stateMutability": "nonpayable",
      "type": "function"
    },
    {
      "inputs": [
        {
          "internalType": "address",
          "name": "token",
          "type": "address"
        },
        {
          "internalType": "uint256",
          "name": "liquidity",
          "type": "uint256"
        },
        {
          "internalType": "uint256",
          "name": "amountTokenMin",
          "type": "uint256"
        },
        {
          "internalType": "uint256",
          "name": "amountWBTCMin",
          "type": "uint256"
        },
        {
          "internalType": "address",
          "name": "to",
          "type": "address"
        },
        {
          "internalType": "uint256",
          "name": "deadline",
          "type": "uint256"
        }
      ],
      "name": "removeLiquidityWBTCSupportingFeeOnTransferTokens",
      "outputs": [
        {
          "internalType": "uint256",
          "name": "amountWBTC",
          "type": "uint256"
        }
      ],
      "stateMutability": "nonpayable",
      "type": "function"
    },
    {
      "inputs": [
        {
          "internalType": "address",
          "name": "token",
          "type": "address"
        },
        {
          "internalType": "uint256",
          "name": "liquidity",
          "type": "uint256"
        },
        {
          "internalType": "uint256",
          "name": "amountTokenMin",
          "type": "uint256"
        },
        {
          "internalType": "uint256",
          "name": "amountWBTCMin",
          "type": "uint256"
        },
        {
          "internalType": "address",
          "name": "to",
          "type": "address"
        },
        {
          "internalType": "uint256",
          "name": "deadline",
          "type": "uint256"
        },
        {
          "internalType": "bool",
          "name": "approveMax",
          "type": "bool"
        },
        {
          "internalType": "uint8",
          "name": "v",
          "type": "uint8"
        },
        {
          "internalType": "bytes32",
          "name": "r",
          "type": "bytes32"
        },
        {
          "internalType": "bytes32",
          "name": "s",
          "type": "bytes32"
        }
      ],
      "name": "removeLiquidityWBTCWithPermitSupportingFeeOnTransferTokens",
      "outputs": [
        {
          "internalType": "uint256",
          "name": "amountWBTC",
          "type": "uint256"
        }
      ],
      "stateMutability": "nonpayable",
      "type": "function"
    },
    {
      "inputs": [
        {
          "internalType": "uint256",
          "name": "amountIn",
          "type": "uint256"
        },
        {
          "internalType": "uint256",
          "name": "amountOutMin",
          "type": "uint256"
        },
        {
          "internalType": "address[]",
          "name": "path",
          "type": "address[]"
        },
        {
          "internalType": "address",
          "name": "to",
          "type": "address"
        },
        {
          "internalType": "uint256",
          "name": "deadline",
          "type": "uint256"
        }
      ],
      "name": "swapExactTokensForTokens",
      "outputs": [
        {
          "internalType": "uint256[]",
          "name": "amounts",
          "type": "uint256[]"
        }
      ],
      "stateMutability": "nonpayable",
      "type": "function"
    },
    {
      "inputs": [
        {
          "internalType": "uint256",
          "name": "amountOut",
          "type": "uint256"
        },
        {
          "internalType": "uint256",
          "name": "amountInMax",
          "type": "uint256"
        },
        {
          "internalType": "address[]",
          "name": "path",
          "type": "address[]"
        },
        {
          "internalType": "address",
          "name": "to",
          "type": "address"
        },
        {
          "internalType": "uint256",
          "name": "deadline",
          "type": "uint256"
        }
      ],
      "name": "swapTokensForExactTokens",
      "outputs": [
        {
          "internalType": "uint256[]",
          "name": "amounts",
          "type": "uint256[]"
        }
      ],
      "stateMutability": "nonpayable",
      "type": "function"
    },
    {
      "inputs": [
        {
          "internalType": "uint256",
          "name": "amountOutMin",
          "type": "uint256"
        },
        {
          "internalType": "address[]",
          "name": "path",
          "type": "address[]"
        },
        {
          "internalType": "address",
          "name": "to",
          "type": "address"
        },
        {
          "internalType": "uint256",
          "name": "deadline",
          "type": "uint256"
        }
      ],
      "name": "swapExactWBTCForTokens",
      "outputs": [
        {
          "internalType": "uint256[]",
          "name": "amounts",
          "type": "uint256[]"
        }
      ],
      "stateMutability": "payable",
      "type": "function"
    },
    {
      "inputs": [
        {
          "internalType": "uint256",
          "name": "amountOut",
          "type": "uint256"
        },
        {
          "internalType": "uint256",
          "name": "amountInMax",
          "type": "uint256"
        },
        {
          "internalType": "address[]",
          "name": "path",
          "type": "address[]"
        },
        {
          "internalType": "address",
          "name": "to",
          "type": "address"
        },
        {
          "internalType": "uint256",
          "name": "deadline",
          "type": "uint256"
        }
      ],
      "name": "swapTokensForExactWBTC",
      "outputs": [
        {
          "internalType": "uint256[]",
          "name": "amounts",
          "type": "uint256[]"
        }
      ],
      "stateMutability": "nonpayable",
      "type": "function"
    },
    {
      "inputs": [
        {
          "internalType": "uint256",
          "name": "amountIn",
          "type": "uint256"
        },
        {
          "internalType": "uint256",
          "name": "amountOutMin",
          "type": "uint256"
        },
        {
          "internalType": "address[]",
          "name": "path",
          "type": "address[]"
        },
        {
          "internalType": "address",
          "name": "to",
          "type": "address"
        },
        {
          "internalType": "uint256",
          "name": "deadline",
          "type": "uint256"
        }
      ],
      "name": "swapExactTokensForWBTC",
      "outputs": [
        {
          "internalType": "uint256[]",
          "name": "amounts",
          "type": "uint256[]"
        }
      ],
      "stateMutability": "nonpayable",
      "type": "function"
    },
    {
      "inputs": [
        {
          "internalType": "uint256",
          "name": "amountOut",
          "type": "uint256"
        },
        {
          "internalType": "address[]",
          "name": "path",
          "type": "address[]"
        },
        {
          "internalType": "address",
          "name": "to",
          "type": "address"
        },
        {
          "internalType": "uint256",
          "name": "deadline",
          "type": "uint256"
        }
      ],
      "name": "swapWBTCForExactTokens",
      "outputs": [
        {
          "internalType": "uint256[]",
          "name": "amounts",
          "type": "uint256[]"
        }
      ],
      "stateMutability": "payable",
      "type": "function"
    },
    {
      "inputs": [
        {
          "internalType": "uint256",
          "name": "amountIn",
          "type": "uint256"
        },
        {
          "internalType": "uint256",
          "name": "amountOutMin",
          "type": "uint256"
        },
        {
          "internalType": "address[]",
          "name": "path",
          "type": "address[]"
        },
        {
          "internalType": "address",
          "name": "to",
          "type": "address"
        },
        {
          "internalType": "uint256",
          "name": "deadline",
          "type": "uint256"
        }
      ],
      "name": "swapExactTokensForTokensSupportingFeeOnTransferTokens",
      "outputs": [],
      "stateMutability": "nonpayable",
      "type": "function"
    },
    {
      "inputs": [
        {
          "internalType": "uint256",
          "name": "amountOutMin",
          "type": "uint256"
        },
        {
          "internalType": "address[]",
          "name": "path",
          "type": "address[]"
        },
        {
          "internalType": "address",
          "name": "to",
          "type": "address"
        },
        {
          "internalType": "uint256",
          "name": "deadline",
          "type": "uint256"
        }
      ],
      "name": "swapExactWBTCForTokensSupportingFeeOnTransferTokens",
      "outputs": [],
      "stateMutability": "payable",
      "type": "function"
    },
    {
      "inputs": [
        {
          "internalType": "uint256",
          "name": "amountIn",
          "type": "uint256"
        },
        {
          "internalType": "uint256",
          "name": "amountOutMin",
          "type": "uint256"
        },
        {
          "internalType": "address[]",
          "name": "path",
          "type": "address[]"
        },
        {
          "internalType": "address",
          "name": "to",
          "type": "address"
        },
        {
          "internalType": "uint256",
          "name": "deadline",
          "type": "uint256"
        }
      ],
      "name": "swapExactTokensForWBTCSupportingFeeOnTransferTokens",
      "outputs": [],
      "stateMutability": "nonpayable",
      "type": "function"
    },
    {
      "inputs": [
        {
          "internalType": "uint256",
          "name": "amountA",
          "type": "uint256"
        },
        {
          "internalType": "uint256",
          "name": "reserveA",
          "type": "uint256"
        },
        {
          "internalType": "uint256",
          "name": "reserveB",
          "type": "uint256"
        }
      ],
      "name": "quote",
      "outputs": [
        {
          "internalType": "uint256",
          "name": "amountB",
          "type": "uint256"
        }
      ],
      "stateMutability": "pure",
      "type": "function"
    },
    {
      "inputs": [
        {
          "internalType": "uint256",
          "name": "amountIn",
          "type": "uint256"
        },
        {
          "internalType": "uint256",
          "name": "reserveIn",
          "type": "uint256"
        },
        {
          "internalType": "uint256",
          "name": "reserveOut",
          "type": "uint256"
        }
      ],
      "name": "getAmountOut",
      "outputs": [
        {
          "internalType": "uint256",
          "name": "amountOut",
          "type": "uint256"
        }
      ],
      "stateMutability": "pure",
      "type": "function"
    },
    {
      "inputs": [
        {
          "internalType": "uint256",
          "name": "amountOut",
          "type": "uint256"
        },
        {
          "internalType": "uint256",
          "name": "reserveIn",
          "type": "uint256"
        },
        {
          "internalType": "uint256",
          "name": "reserveOut",
          "type": "uint256"
        }
      ],
      "name": "getAmountIn",
      "outputs": [
        {
          "internalType": "uint256",
          "name": "amountIn",
          "type": "uint256"
        }
      ],
      "stateMutability": "pure",
      "type": "function"
    },
    {
      "inputs": [
        {
          "internalType": "uint256",
          "name": "amountIn",
          "type": "uint256"
        },
        {
          "internalType": "address[]",
          "name": "path",
          "type": "address[]"
        }
      ],
      "name": "getAmountsOut",
      "outputs": [
        {
          "internalType": "uint256[]",
          "name": "amounts",
          "type": "uint256[]"
        }
      ],
      "stateMutability": "view",
      "type": "function"
    },
    {
      "inputs": [
        {
          "internalType": "uint256",
          "name": "amountOut",
          "type": "uint256"
        },
        {
          "internalType": "address[]",
          "name": "path",
          "type": "address[]"
        }
      ],
      "name": "getAmountsIn",
      "outputs": [
        {
          "internalType": "uint256[]",
          "name": "amounts",
          "type": "uint256[]"
        }
      ],
      "stateMutability": "view",
      "type": "function"
    }
  ],
  "bytecode": "0x60c06040523480156200001157600080fd5b50604051620056e1380380620056e1833981810160405260408110156200003757600080fd5b8101908080519060200190929190805190602001909291905050508173ffffffffffffffffffffffffffffffffffffffff1660808173ffffffffffffffffffffffffffffffffffffffff1660601b815250508073ffffffffffffffffffffffffffffffffffffffff1660a08173ffffffffffffffffffffffffffffffffffffffff1660601b81525050505060805160601c60a05160601c615514620001cd6000398061015652806116eb5280611744528061177b52806118ea52806119c75280611ae05280611dbb5280612175528061233a52806123cf52806125ec528061272f5280612ad25280612db05280612ef752806130bf528061315452806137e352806139ab52806139e95250806114e5528061151d52806117225280611bd25280611cdb5280611f0552806120115280612262528061240e52806125ca5280612865528061296e5280612bc45280612cd05280612fe4528061319352806134a05280613760528061378952806137c15280613b215280613fc252806140be52806141a852806148f1528061493552506155146000f3fe60806040526004361061014f5760003560e01c80638803dbee116100b6578063baa2abde1161006f578063baa2abde14611013578063c45a0155146110e7578063d06ca61f14611128578063de68c5221461124c578063e6459b7c1461132e578063e8e33700146113e2576101ab565b80638803dbee14610b0b5780639ab5c93114610c245780639f0be66814610d3d578063ad615dec14610e3f578063af14d85014610ea2578063b69491c614610f4f576101ab565b806338ed17391161010857806338ed1739146106ad57806340a40170146107c657806347f61a8b146108c85780634dede3de146109a35780635c11d795146109e457806385f8c25914610aa8576101ab565b8063054d50d4146101b05780631f00ca74146102135780632195995c1461033757806326197fd61461043957806326ce77b4146104e75780632a1188e914610594576101ab565b366101ab577f000000000000000000000000000000000000000000000000000000000000000073ffffffffffffffffffffffffffffffffffffffff163373ffffffffffffffffffffffffffffffffffffffff16146101a957fe5b005b600080fd5b3480156101bc57600080fd5b506101fd600480360360608110156101d357600080fd5b810190808035906020019092919080359060200190929190803590602001909291905050506114c8565b6040518082815260200191505060405180910390f35b34801561021f57600080fd5b506102e06004803603604081101561023657600080fd5b81019080803590602001909291908035906020019064010000000081111561025d57600080fd5b82018360208201111561026f57600080fd5b8035906020019184602083028401116401000000008311171561029157600080fd5b919080806020026020016040519081016040528093929190818152602001838360200280828437600081840152601f19601f8201169050808301925050505050505091929192905050506114de565b6040518080602001828103825283818151815260200191508051906020019060200280838360005b83811015610323578082015181840152602081019050610308565b505050509050019250505060405180910390f35b34801561034357600080fd5b5061041c600480360361016081101561035b57600080fd5b81019080803573ffffffffffffffffffffffffffffffffffffffff169060200190929190803573ffffffffffffffffffffffffffffffffffffffff169060200190929190803590602001909291908035906020019092919080359060200190929190803573ffffffffffffffffffffffffffffffffffffffff16906020019092919080359060200190929190803515159060200190929190803560ff1690602001909291908035906020019092919080359060200190929190505050611513565b604051808381526020018281526020019250505060405180910390f35b6104c3600480360360c081101561044f57600080fd5b81019080803573ffffffffffffffffffffffffffffffffffffffff169060200190929190803590602001909291908035906020019092919080359060200190929190803573ffffffffffffffffffffffffffffffffffffffff16906020019092919080359060200190929190505050611669565b60405180848152602001838152602001828152602001935050505060405180910390f35b3480156104f357600080fd5b5061057e600480360360c081101561050a57600080fd5b81019080803573ffffffffffffffffffffffffffffffffffffffff169060200190929190803590602001909291908035906020019092919080359060200190929190803573ffffffffffffffffffffffffffffffffffffffff1690602001909291908035906020019092919050505061186b565b6040518082815260200191505060405180910390f35b3480156105a057600080fd5b50610656600480360360a08110156105b757600080fd5b810190808035906020019092919080359060200190929190803590602001906401000000008111156105e857600080fd5b8201836020820111156105fa57600080fd5b8035906020019184602083028401116401000000008311171561061c57600080fd5b9091929391929390803573ffffffffffffffffffffffffffffffffffffffff16906020019092919080359060200190929190505050611a65565b6040518080602001828103825283818151815260200191508051906020019060200280838360005b8381101561069957808201518184015260208101905061067e565b505050509050019250505060405180910390f35b3480156106b957600080fd5b5061076f600480360360a08110156106d057600080fd5b8101908080359060200190929190803590602001909291908035906020019064010000000081111561070157600080fd5b82018360208201111561071357600080fd5b8035906020019184602083028401116401000000008311171561073557600080fd5b9091929391929390803573ffffffffffffffffffffffffffffffffffffffff16906020019092919080359060200190929190505050611e87565b6040518080602001828103825283818151815260200191508051906020019060200280838360005b838110156107b2578082015181840152602081019050610797565b505050509050019250505060405180910390f35b610871600480360360808110156107dc57600080fd5b81019080803590602001909291908035906020019064010000000081111561080357600080fd5b82018360208201111561081557600080fd5b8035906020019184602083028401116401000000008311171561083757600080fd5b9091929391929390803573ffffffffffffffffffffffffffffffffffffffff169060200190929190803590602001909291905050506120fa565b6040518080602001828103825283818151815260200191508051906020019060200280838360005b838110156108b4578082015181840152602081019050610899565b505050509050019250505060405180910390f35b3480156108d457600080fd5b5061098d60048036036101408110156108ec57600080fd5b81019080803573ffffffffffffffffffffffffffffffffffffffff169060200190929190803590602001909291908035906020019092919080359060200190929190803573ffffffffffffffffffffffffffffffffffffffff16906020019092919080359060200190929190803515159060200190929190803560ff16906020019092919080359060200190929190803590602001909291905050506125c2565b6040518082815260200191505060405180910390f35b3480156109af57600080fd5b506109b861272d565b604051808273ffffffffffffffffffffffffffffffffffffffff16815260200191505060405180910390f35b3480156109f057600080fd5b50610aa6600480360360a0811015610a0757600080fd5b81019080803590602001909291908035906020019092919080359060200190640100000000811115610a3857600080fd5b820183602082011115610a4a57600080fd5b80359060200191846020830284011164010000000083111715610a6c57600080fd5b9091929391929390803573ffffffffffffffffffffffffffffffffffffffff16906020019092919080359060200190929190505050612751565b005b348015610ab457600080fd5b50610af560048036036060811015610acb57600080fd5b810190808035906020019092919080359060200190929190803590602001909291905050506127d1565b6040518082815260200191505060405180910390f35b348015610b1757600080fd5b50610bcd600480360360a0811015610b2e57600080fd5b81019080803590602001909291908035906020019092919080359060200190640100000000811115610b5f57600080fd5b820183602082011115610b7157600080fd5b80359060200191846020830284011164010000000083111715610b9357600080fd5b9091929391929390803573ffffffffffffffffffffffffffffffffffffffff169060200190929190803590602001909291905050506127e7565b6040518080602001828103825283818151815260200191508051906020019060200280838360005b83811015610c10578082015181840152602081019050610bf5565b505050509050019250505060405180910390f35b348015610c3057600080fd5b50610ce6600480360360a0811015610c4757600080fd5b81019080803590602001909291908035906020019092919080359060200190640100000000811115610c7857600080fd5b820183602082011115610c8a57600080fd5b80359060200191846020830284011164010000000083111715610cac57600080fd5b9091929391929390803573ffffffffffffffffffffffffffffffffffffffff16906020019092919080359060200190929190505050612a57565b6040518080602001828103825283818151815260200191508051906020019060200280838360005b83811015610d29578082015181840152602081019050610d0e565b505050509050019250505060405180910390f35b610de860048036036080811015610d5357600080fd5b810190808035906020019092919080359060200190640100000000811115610d7a57600080fd5b820183602082011115610d8c57600080fd5b80359060200191846020830284011164010000000083111715610dae57600080fd5b9091929391929390803573ffffffffffffffffffffffffffffffffffffffff16906020019092919080359060200190929190505050612e7c565b6040518080602001828103825283818151815260200191508051906020019060200280838360005b83811015610e2b578082015181840152602081019050610e10565b505050509050019250505060405180910390f35b348015610e4b57600080fd5b50610e8c60048036036060811015610e6257600080fd5b8101908080359060200190929190803590602001909291908035906020019092919050505061330a565b6040518082815260200191505060405180910390f35b610f4d60048036036080811015610eb857600080fd5b810190808035906020019092919080359060200190640100000000811115610edf57600080fd5b820183602082011115610ef157600080fd5b80359060200191846020830284011164010000000083111715610f1357600080fd5b9091929391929390803573ffffffffffffffffffffffffffffffffffffffff16906020019092919080359060200190929190505050613320565b005b348015610f5b57600080fd5b50611011600480360360a0811015610f7257600080fd5b81019080803590602001909291908035906020019092919080359060200190640100000000811115610fa357600080fd5b820183602082011115610fb557600080fd5b80359060200191846020830284011164010000000083111715610fd757600080fd5b9091929391929390803573ffffffffffffffffffffffffffffffffffffffff1690602001909291908035906020019092919050505061339f565b005b34801561101f57600080fd5b506110ca600480360360e081101561103657600080fd5b81019080803573ffffffffffffffffffffffffffffffffffffffff169060200190929190803573ffffffffffffffffffffffffffffffffffffffff169060200190929190803590602001909291908035906020019092919080359060200190929190803573ffffffffffffffffffffffffffffffffffffffff1690602001909291908035906020019092919050505061341f565b604051808381526020018281526020019250505060405180910390f35b3480156110f357600080fd5b506110fc61375e565b604051808273ffffffffffffffffffffffffffffffffffffffff16815260200191505060405180910390f35b34801561113457600080fd5b506111f56004803603604081101561114b57600080fd5b81019080803590602001909291908035906020019064010000000081111561117257600080fd5b82018360208201111561118457600080fd5b803590602001918460208302840111640100000000831117156111a657600080fd5b919080806020026020016040519081016040528093929190818152602001838360200280828437600081840152601f19601f820116905080830192505050505050509192919290505050613782565b6040518080602001828103825283818151815260200191508051906020019060200280838360005b8381101561123857808201518184015260208101905061121d565b505050509050019250505060405180910390f35b34801561125857600080fd5b50611311600480360361014081101561127057600080fd5b81019080803573ffffffffffffffffffffffffffffffffffffffff169060200190929190803590602001909291908035906020019092919080359060200190929190803573ffffffffffffffffffffffffffffffffffffffff16906020019092919080359060200190929190803515159060200190929190803560ff16906020019092919080359060200190929190803590602001909291905050506137b7565b604051808381526020018281526020019250505060405180910390f35b34801561133a57600080fd5b506113c5600480360360c081101561135157600080fd5b81019080803573ffffffffffffffffffffffffffffffffffffffff169060200190929190803590602001909291908035906020019092919080359060200190929190803573ffffffffffffffffffffffffffffffffffffffff1690602001909291908035906020019092919050505061392b565b604051808381526020018281526020019250505060405180910390f35b3480156113ee57600080fd5b506114a4600480360361010081101561140657600080fd5b81019080803573ffffffffffffffffffffffffffffffffffffffff169060200190929190803573ffffffffffffffffffffffffffffffffffffffff16906020019092919080359060200190929190803590602001909291908035906020019092919080359060200190929190803573ffffffffffffffffffffffffffffffffffffffff16906020019092919080359060200190929190505050613a88565b60405180848152602001838152602001828152602001935050505060405180910390f35b60006114d5848484613c17565b90509392505050565b606061150b7f00000000000000000000000000000000000000000000000000000000000000008484613d47565b905092915050565b60008060006115437f00000000000000000000000000000000000000000000000000000000000000008f8f613ec7565b9050600087611552578c611574565b7fffffffffffffffffffffffffffffffffffffffffffffffffffffffffffffffff5b90508173ffffffffffffffffffffffffffffffffffffffff1663d505accf3330848d8c8c8c6040518863ffffffff1660e01b8152600401808873ffffffffffffffffffffffffffffffffffffffff1681526020018773ffffffffffffffffffffffffffffffffffffffff1681526020018681526020018581526020018460ff168152602001838152602001828152602001975050505050505050600060405180830381600087803b15801561162857600080fd5b505af115801561163c573d6000803e3d6000fd5b5050505061164f8f8f8f8f8f8f8f61341f565b809450819550505050509b509b9950505050505050505050565b600080600083428110156116e5576040517f08c379a00000000000000000000000000000000000000000000000000000000081526004018080602001828103825260188152602001807f556e69737761705632526f757465723a2045585049524544000000000000000081525060200191505060405180910390fd5b6117138a7f00000000000000000000000000000000000000000000000000000000000000008b348c8c613fa5565b809450819550505060006117687f00000000000000000000000000000000000000000000000000000000000000008c7f0000000000000000000000000000000000000000000000000000000000000000613ec7565b90506117768b338388614301565b6117a27f0000000000000000000000000000000000000000000000000000000000000000338387614301565b8073ffffffffffffffffffffffffffffffffffffffff16636a627842886040518263ffffffff1660e01b8152600401808273ffffffffffffffffffffffffffffffffffffffff168152602001915050602060405180830381600087803b15801561180b57600080fd5b505af115801561181f573d6000803e3d6000fd5b505050506040513d602081101561183557600080fd5b810190808051906020019092919050505092508334111561185d5761185c338534036144e6565b5b505096509650969350505050565b600081428110156118e4576040517f08c379a00000000000000000000000000000000000000000000000000000000081526004018080602001828103825260188152602001807f556e69737761705632526f757465723a2045585049524544000000000000000081525060200191505060405180910390fd5b611913887f0000000000000000000000000000000000000000000000000000000000000000898989308961341f565b9050809250506119c588858a73ffffffffffffffffffffffffffffffffffffffff166370a08231306040518263ffffffff1660e01b8152600401808273ffffffffffffffffffffffffffffffffffffffff16815260200191505060206040518083038186803b15801561198557600080fd5b505afa158015611999573d6000803e3d6000fd5b505050506040513d60208110156119af57600080fd5b8101908080519060200190929190505050614645565b7f000000000000000000000000000000000000000000000000000000000000000073ffffffffffffffffffffffffffffffffffffffff16632e1a7d4d836040518263ffffffff1660e01b815260040180828152602001915050600060405180830381600087803b158015611a3857600080fd5b505af1158015611a4c573d6000803e3d6000fd5b50505050611a5a84836144e6565b509695505050505050565b60608142811015611ade576040517f08c379a00000000000000000000000000000000000000000000000000000000081526004018080602001828103825260188152602001807f556e69737761705632526f757465723a2045585049524544000000000000000081525060200191505060405180910390fd5b7f000000000000000000000000000000000000000000000000000000000000000073ffffffffffffffffffffffffffffffffffffffff16868660018989905003818110611b2757fe5b9050602002013573ffffffffffffffffffffffffffffffffffffffff1673ffffffffffffffffffffffffffffffffffffffff1614611bcd576040517f08c379a000000000000000000000000000000000000000000000000000000000815260040180806020018281038252601d8152602001807f556e69737761705632526f757465723a20494e56414c49445f5041544800000081525060200191505060405180910390fd5b611c397f000000000000000000000000000000000000000000000000000000000000000089888880806020026020016040519081016040528093929190818152602001838360200280828437600081840152601f19601f82011690508083019250505050505050613d47565b91508682600081518110611c4957fe5b60200260200101511115611ca8576040517f08c379a00000000000000000000000000000000000000000000000000000000081526004018080602001828103825260278152602001806154186027913960400191505060405180910390fd5b611d6d86866000818110611cb857fe5b9050602002013573ffffffffffffffffffffffffffffffffffffffff1633611d537f00000000000000000000000000000000000000000000000000000000000000008a8a6000818110611d0757fe5b9050602002013573ffffffffffffffffffffffffffffffffffffffff168b8b6001818110611d3157fe5b9050602002013573ffffffffffffffffffffffffffffffffffffffff16613ec7565b85600081518110611d6057fe5b6020026020010151614301565b611db982878780806020026020016040519081016040528093929190818152602001838360200280828437600081840152601f19601f8201169050808301925050505050505030614828565b7f000000000000000000000000000000000000000000000000000000000000000073ffffffffffffffffffffffffffffffffffffffff16632e1a7d4d83600185510381518110611e0557fe5b60200260200101516040518263ffffffff1660e01b815260040180828152602001915050600060405180830381600087803b158015611e4357600080fd5b505af1158015611e57573d6000803e3d6000fd5b50505050611e7c8483600185510381518110611e6f57fe5b60200260200101516144e6565b509695505050505050565b60608142811015611f00576040517f08c379a00000000000000000000000000000000000000000000000000000000081526004018080602001828103825260188152602001807f556e69737761705632526f757465723a2045585049524544000000000000000081525060200191505060405180910390fd5b611f6c7f000000000000000000000000000000000000000000000000000000000000000089888880806020026020016040519081016040528093929190818152602001838360200280828437600081840152601f19601f82011690508083019250505050505050614abd565b91508682600184510381518110611f7f57fe5b60200260200101511015611fde576040517f08c379a000000000000000000000000000000000000000000000000000000000815260040180806020018281038252602b815260200180615465602b913960400191505060405180910390fd5b6120a386866000818110611fee57fe5b9050602002013573ffffffffffffffffffffffffffffffffffffffff16336120897f00000000000000000000000000000000000000000000000000000000000000008a8a600081811061203d57fe5b9050602002013573ffffffffffffffffffffffffffffffffffffffff168b8b600181811061206757fe5b9050602002013573ffffffffffffffffffffffffffffffffffffffff16613ec7565b8560008151811061209657fe5b6020026020010151614301565b6120ef82878780806020026020016040519081016040528093929190818152602001838360200280828437600081840152601f19601f8201169050808301925050505050505086614828565b509695505050505050565b60608142811015612173576040517f08c379a00000000000000000000000000000000000000000000000000000000081526004018080602001828103825260188152602001807f556e69737761705632526f757465723a2045585049524544000000000000000081525060200191505060405180910390fd5b7f000000000000000000000000000000000000000000000000000000000000000073ffffffffffffffffffffffffffffffffffffffff16868660008181106121b757fe5b9050602002013573ffffffffffffffffffffffffffffffffffffffff1673ffffffffffffffffffffffffffffffffffffffff161461225d576040517f08c379a000000000000000000000000000000000000000000000000000000000815260040180806020018281038252601d8152602001807f556e69737761705632526f757465723a20494e56414c49445f5041544800000081525060200191505060405180910390fd5b6122c97f000000000000000000000000000000000000000000000000000000000000000088888880806020026020016040519081016040528093929190818152602001838360200280828437600081840152601f19601f82011690508083019250505050505050613d47565b915034826000815181106122d957fe5b60200260200101511115612338576040517f08c379a00000000000000000000000000000000000000000000000000000000081526004018080602001828103825260278152602001806154186027913960400191505060405180910390fd5b7f000000000000000000000000000000000000000000000000000000000000000073ffffffffffffffffffffffffffffffffffffffff1663d0e30db08360008151811061238157fe5b60200260200101516040518263ffffffff1660e01b81526004016000604051808303818588803b1580156123b457600080fd5b505af11580156123c8573d6000803e3d6000fd5b50505050507f000000000000000000000000000000000000000000000000000000000000000073ffffffffffffffffffffffffffffffffffffffff1663a9059cbb6124867f00000000000000000000000000000000000000000000000000000000000000008989600081811061243a57fe5b9050602002013573ffffffffffffffffffffffffffffffffffffffff168a8a600181811061246457fe5b9050602002013573ffffffffffffffffffffffffffffffffffffffff16613ec7565b8460008151811061249357fe5b60200260200101516040518363ffffffff1660e01b8152600401808373ffffffffffffffffffffffffffffffffffffffff16815260200182815260200192505050602060405180830381600087803b1580156124ee57600080fd5b505af1158015612502573d6000803e3d6000fd5b505050506040513d602081101561251857600080fd5b810190808051906020019092919050505061252f57fe5b61257b82878780806020026020016040519081016040528093929190818152602001838360200280828437600081840152601f19601f8201169050808301925050505050505086614828565b8160008151811061258857fe5b60200260200101513411156125b8576125b733836000815181106125a857fe5b602002602001015134036144e6565b5b5095945050505050565b6000806126107f00000000000000000000000000000000000000000000000000000000000000008d7f0000000000000000000000000000000000000000000000000000000000000000613ec7565b905060008661261f578b612641565b7fffffffffffffffffffffffffffffffffffffffffffffffffffffffffffffffff5b90508173ffffffffffffffffffffffffffffffffffffffff1663d505accf3330848c8b8b8b6040518863ffffffff1660e01b8152600401808873ffffffffffffffffffffffffffffffffffffffff1681526020018773ffffffffffffffffffffffffffffffffffffffff1681526020018681526020018581526020018460ff168152602001838152602001828152602001975050505050505050600060405180830381600087803b1580156126f557600080fd5b505af1158015612709573d6000803e3d6000fd5b5050505061271b8d8d8d8d8d8d61186b565b925050509a9950505050505050505050565b7f000000000000000000000000000000000000000000000000000000000000000081565b80428110156127c8576040517f08c379a00000000000000000000000000000000000000000000000000000000081526004018080602001828103825260188152602001807f556e69737761705632526f757465723a2045585049524544000000000000000081525060200191505060405180910390fd5b50505050505050565b60006127de848484614c35565b90509392505050565b60608142811015612860576040517f08c379a00000000000000000000000000000000000000000000000000000000081526004018080602001828103825260188152602001807f556e69737761705632526f757465723a2045585049524544000000000000000081525060200191505060405180910390fd5b6128cc7f000000000000000000000000000000000000000000000000000000000000000089888880806020026020016040519081016040528093929190818152602001838360200280828437600081840152601f19601f82011690508083019250505050505050613d47565b915086826000815181106128dc57fe5b6020026020010151111561293b576040517f08c379a00000000000000000000000000000000000000000000000000000000081526004018080602001828103825260278152602001806154186027913960400191505060405180910390fd5b612a008686600081811061294b57fe5b9050602002013573ffffffffffffffffffffffffffffffffffffffff16336129e67f00000000000000000000000000000000000000000000000000000000000000008a8a600081811061299a57fe5b9050602002013573ffffffffffffffffffffffffffffffffffffffff168b8b60018181106129c457fe5b9050602002013573ffffffffffffffffffffffffffffffffffffffff16613ec7565b856000815181106129f357fe5b6020026020010151614301565b612a4c82878780806020026020016040519081016040528093929190818152602001838360200280828437600081840152601f19601f8201169050808301925050505050505086614828565b509695505050505050565b60608142811015612ad0576040517f08c379a00000000000000000000000000000000000000000000000000000000081526004018080602001828103825260188152602001807f556e69737761705632526f757465723a2045585049524544000000000000000081525060200191505060405180910390fd5b7f000000000000000000000000000000000000000000000000000000000000000073ffffffffffffffffffffffffffffffffffffffff16868660018989905003818110612b1957fe5b9050602002013573ffffffffffffffffffffffffffffffffffffffff1673ffffffffffffffffffffffffffffffffffffffff1614612bbf576040517f08c379a000000000000000000000000000000000000000000000000000000000815260040180806020018281038252601d8152602001807f556e69737761705632526f757465723a20494e56414c49445f5041544800000081525060200191505060405180910390fd5b612c2b7f000000000000000000000000000000000000000000000000000000000000000089888880806020026020016040519081016040528093929190818152602001838360200280828437600081840152601f19601f82011690508083019250505050505050614abd565b91508682600184510381518110612c3e57fe5b60200260200101511015612c9d576040517f08c379a000000000000000000000000000000000000000000000000000000000815260040180806020018281038252602b815260200180615465602b913960400191505060405180910390fd5b612d6286866000818110612cad57fe5b9050602002013573ffffffffffffffffffffffffffffffffffffffff1633612d487f00000000000000000000000000000000000000000000000000000000000000008a8a6000818110612cfc57fe5b9050602002013573ffffffffffffffffffffffffffffffffffffffff168b8b6001818110612d2657fe5b9050602002013573ffffffffffffffffffffffffffffffffffffffff16613ec7565b85600081518110612d5557fe5b6020026020010151614301565b612dae82878780806020026020016040519081016040528093929190818152602001838360200280828437600081840152601f19601f8201169050808301925050505050505030614828565b7f000000000000000000000000000000000000000000000000000000000000000073ffffffffffffffffffffffffffffffffffffffff16632e1a7d4d83600185510381518110612dfa57fe5b60200260200101516040518263ffffffff1660e01b815260040180828152602001915050600060405180830381600087803b158015612e3857600080fd5b505af1158015612e4c573d6000803e3d6000fd5b50505050612e718483600185510381518110612e6457fe5b60200260200101516144e6565b509695505050505050565b60608142811015612ef5576040517f08c379a00000000000000000000000000000000000000000000000000000000081526004018080602001828103825260188152602001807f556e69737761705632526f757465723a2045585049524544000000000000000081525060200191505060405180910390fd5b7f000000000000000000000000000000000000000000000000000000000000000073ffffffffffffffffffffffffffffffffffffffff1686866000818110612f3957fe5b9050602002013573ffffffffffffffffffffffffffffffffffffffff1673ffffffffffffffffffffffffffffffffffffffff1614612fdf576040517f08c379a000000000000000000000000000000000000000000000000000000000815260040180806020018281038252601d8152602001807f556e69737761705632526f757465723a20494e56414c49445f5041544800000081525060200191505060405180910390fd5b61304b7f000000000000000000000000000000000000000000000000000000000000000034888880806020026020016040519081016040528093929190818152602001838360200280828437600081840152601f19601f82011690508083019250505050505050614abd565b9150868260018451038151811061305e57fe5b602002602001015110156130bd576040517f08c379a000000000000000000000000000000000000000000000000000000000815260040180806020018281038252602b815260200180615465602b913960400191505060405180910390fd5b7f000000000000000000000000000000000000000000000000000000000000000073ffffffffffffffffffffffffffffffffffffffff1663d0e30db08360008151811061310657fe5b60200260200101516040518263ffffffff1660e01b81526004016000604051808303818588803b15801561313957600080fd5b505af115801561314d573d6000803e3d6000fd5b50505050507f000000000000000000000000000000000000000000000000000000000000000073ffffffffffffffffffffffffffffffffffffffff1663a9059cbb61320b7f0000000000000000000000000000000000000000000000000000000000000000898960008181106131bf57fe5b9050602002013573ffffffffffffffffffffffffffffffffffffffff168a8a60018181106131e957fe5b9050602002013573ffffffffffffffffffffffffffffffffffffffff16613ec7565b8460008151811061321857fe5b60200260200101516040518363ffffffff1660e01b8152600401808373ffffffffffffffffffffffffffffffffffffffff16815260200182815260200192505050602060405180830381600087803b15801561327357600080fd5b505af1158015613287573d6000803e3d6000fd5b505050506040513d602081101561329d57600080fd5b81019080805190602001909291905050506132b457fe5b61330082878780806020026020016040519081016040528093929190818152602001838360200280828437600081840152601f19601f8201169050808301925050505050505086614828565b5095945050505050565b6000613317848484614d72565b90509392505050565b8042811015613397576040517f08c379a00000000000000000000000000000000000000000000000000000000081526004018080602001828103825260188152602001807f556e69737761705632526f757465723a2045585049524544000000000000000081525060200191505060405180910390fd5b505050505050565b8042811015613416576040517f08c379a00000000000000000000000000000000000000000000000000000000081526004018080602001828103825260188152602001807f556e69737761705632526f757465723a2045585049524544000000000000000081525060200191505060405180910390fd5b50505050505050565b6000808242811015613499576040517f08c379a00000000000000000000000000000000000000000000000000000000081526004018080602001828103825260188152602001807f556e69737761705632526f757465723a2045585049524544000000000000000081525060200191505060405180910390fd5b60006134c67f00000000000000000000000000000000000000000000000000000000000000008c8c613ec7565b90508073ffffffffffffffffffffffffffffffffffffffff166323b872dd33838c6040518463ffffffff1660e01b8152600401808473ffffffffffffffffffffffffffffffffffffffff1681526020018373ffffffffffffffffffffffffffffffffffffffff1681526020018281526020019350505050602060405180830381600087803b15801561355757600080fd5b505af115801561356b573d6000803e3d6000fd5b505050506040513d602081101561358157600080fd5b8101908080519060200190929190505050506000808273ffffffffffffffffffffffffffffffffffffffff166389afcb44896040518263ffffffff1660e01b8152600401808273ffffffffffffffffffffffffffffffffffffffff1681526020019150506040805180830381600087803b1580156135fe57600080fd5b505af1158015613612573d6000803e3d6000fd5b505050506040513d604081101561362857600080fd5b8101908080519060200190929190805190602001909291905050509150915060006136538e8e614e56565b5090508073ffffffffffffffffffffffffffffffffffffffff168e73ffffffffffffffffffffffffffffffffffffffff1614613690578183613693565b82825b80975081985050508a8710156136f4576040517f08c379a000000000000000000000000000000000000000000000000000000000815260040180806020018281038252602681526020018061543f6026913960400191505060405180910390fd5b8986101561374d576040517f08c379a00000000000000000000000000000000000000000000000000000000081526004018080602001828103825260268152602001806153606026913960400191505060405180910390fd5b505050505097509795505050505050565b7f000000000000000000000000000000000000000000000000000000000000000081565b60606137af7f00000000000000000000000000000000000000000000000000000000000000008484614abd565b905092915050565b60008060006138077f00000000000000000000000000000000000000000000000000000000000000008e7f0000000000000000000000000000000000000000000000000000000000000000613ec7565b9050600087613816578c613838565b7fffffffffffffffffffffffffffffffffffffffffffffffffffffffffffffffff5b90508173ffffffffffffffffffffffffffffffffffffffff1663d505accf3330848d8c8c8c6040518863ffffffff1660e01b8152600401808873ffffffffffffffffffffffffffffffffffffffff1681526020018773ffffffffffffffffffffffffffffffffffffffff1681526020018681526020018581526020018460ff168152602001838152602001828152602001975050505050505050600060405180830381600087803b1580156138ec57600080fd5b505af1158015613900573d6000803e3d6000fd5b505050506139128e8e8e8e8e8e61392b565b809450819550505050509a509a98505050505050505050565b60008082428110156139a5576040517f08c379a00000000000000000000000000000000000000000000000000000000081526004018080602001828103825260188152602001807f556e69737761705632526f757465723a2045585049524544000000000000000081525060200191505060405180910390fd5b6139d4897f00000000000000000000000000000000000000000000000000000000000000008a8a8a308a61341f565b80935081945050506139e7898685614645565b7f000000000000000000000000000000000000000000000000000000000000000073ffffffffffffffffffffffffffffffffffffffff16632e1a7d4d836040518263ffffffff1660e01b815260040180828152602001915050600060405180830381600087803b158015613a5a57600080fd5b505af1158015613a6e573d6000803e3d6000fd5b50505050613a7c85836144e6565b50965096945050505050565b60008060008342811015613b04576040517f08c379a00000000000000000000000000000000000000000000000000000000081526004018080602001828103825260188152602001807f556e69737761705632526f757465723a2045585049524544000000000000000081525060200191505060405180910390fd5b613b128c8c8c8c8c8c613fa5565b80945081955050506000613b477f00000000000000000000000000000000000000000000000000000000000000008e8e613ec7565b9050613b558d338388614301565b613b618c338387614301565b8073ffffffffffffffffffffffffffffffffffffffff16636a627842886040518263ffffffff1660e01b8152600401808273ffffffffffffffffffffffffffffffffffffffff168152602001915050602060405180830381600087803b158015613bca57600080fd5b505af1158015613bde573d6000803e3d6000fd5b505050506040513d6020811015613bf457600080fd5b810190808051906020019092919050505092505050985098509895505050505050565b6000808411613c71576040517f08c379a000000000000000000000000000000000000000000000000000000000815260040180806020018281038252602b8152602001806154b4602b913960400191505060405180910390fd5b600083118015613c815750600082115b613cd6576040517f08c379a00000000000000000000000000000000000000000000000000000000081526004018080602001828103825260288152602001806153aa6028913960400191505060405180910390fd5b6000613ced6103e586614fcd90919063ffffffff16565b90506000613d048483614fcd90919063ffffffff16565b90506000613d2f83613d216103e889614fcd90919063ffffffff16565b61505390919063ffffffff16565b9050808281613d3a57fe5b0493505050509392505050565b6060600282511015613dc1576040517f08c379a000000000000000000000000000000000000000000000000000000000815260040180806020018281038252601e8152602001807f556e697377617056324c6962726172793a20494e56414c49445f50415448000081525060200191505060405180910390fd5b815167ffffffffffffffff81118015613dd957600080fd5b50604051908082528060200260200182016040528015613e085781602001602082028036833780820191505090505b5090508281600183510381518110613e1c57fe5b6020026020010181815250506000600183510390505b6000811115613ebf57600080613e7287866001860381518110613e5157fe5b6020026020010151878681518110613e6557fe5b60200260200101516150db565b91509150613e94848481518110613e8557fe5b60200260200101518383614c35565b846001850381518110613ea357fe5b6020026020010181815250505050808060019003915050613e32565b509392505050565b6000806000613ed68585614e56565b915091508573ffffffffffffffffffffffffffffffffffffffff1663e6a4390583836040518363ffffffff1660e01b8152600401808373ffffffffffffffffffffffffffffffffffffffff1681526020018273ffffffffffffffffffffffffffffffffffffffff1681526020019250505060206040518083038186803b158015613f5f57600080fd5b505afa158015613f73573d6000803e3d6000fd5b505050506040513d6020811015613f8957600080fd5b8101908080519060200190929190505050925050509392505050565b600080600073ffffffffffffffffffffffffffffffffffffffff167f000000000000000000000000000000000000000000000000000000000000000073ffffffffffffffffffffffffffffffffffffffff1663e6a439058a8a6040518363ffffffff1660e01b8152600401808373ffffffffffffffffffffffffffffffffffffffff1681526020018273ffffffffffffffffffffffffffffffffffffffff1681526020019250505060206040518083038186803b15801561406557600080fd5b505afa158015614079573d6000803e3d6000fd5b505050506040513d602081101561408f57600080fd5b810190808051906020019092919050505073ffffffffffffffffffffffffffffffffffffffff1614156141a0577f000000000000000000000000000000000000000000000000000000000000000073ffffffffffffffffffffffffffffffffffffffff1663c9c6539689896040518363ffffffff1660e01b8152600401808373ffffffffffffffffffffffffffffffffffffffff1681526020018273ffffffffffffffffffffffffffffffffffffffff16815260200192505050602060405180830381600087803b15801561416357600080fd5b505af1158015614177573d6000803e3d6000fd5b505050506040513d602081101561418d57600080fd5b8101908080519060200190929190505050505b6000806141ce7f00000000000000000000000000000000000000000000000000000000000000008b8b6150db565b915091506000821480156141e25750600081145b156141f657878780945081955050506142f4565b6000614203898484614d72565b90508781116142745785811015614265576040517f08c379a00000000000000000000000000000000000000000000000000000000081526004018080602001828103825260268152602001806153606026913960400191505060405180910390fd5b888180955081965050506142f2565b6000614281898486614d72565b90508981111561428d57fe5b878110156142e6576040517f08c379a000000000000000000000000000000000000000000000000000000000815260040180806020018281038252602681526020018061543f6026913960400191505060405180910390fd5b80898096508197505050505b505b5050965096945050505050565b600060608573ffffffffffffffffffffffffffffffffffffffff166323b872dd868686604051602401808473ffffffffffffffffffffffffffffffffffffffff1681526020018373ffffffffffffffffffffffffffffffffffffffff16815260200182815260200193505050506040516020818303038152906040529060e01b6020820180517bffffffffffffffffffffffffffffffffffffffffffffffffffffffff83818316178352505050506040518082805190602001908083835b602083106143e257805182526020820191506020810190506020830392506143bf565b6001836020036101000a0380198251168184511680821785525050505050509050019150506000604051808303816000865af19150503d8060008114614444576040519150601f19603f3d011682016040523d82523d6000602084013e614449565b606091505b50915091508180156144895750600081511480614488575080806020019051602081101561447657600080fd5b81019080805190602001909291905050505b5b6144de576040517f08c379a00000000000000000000000000000000000000000000000000000000081526004018080602001828103825260248152602001806154906024913960400191505060405180910390fd5b505050505050565b60008273ffffffffffffffffffffffffffffffffffffffff1682600067ffffffffffffffff8111801561451857600080fd5b506040519080825280601f01601f19166020018201604052801561454b5781602001600182028036833780820191505090505b506040518082805190602001908083835b6020831061457f578051825260208201915060208101905060208303925061455c565b6001836020036101000a03801982511681845116808217855250505050505090500191505060006040518083038185875af1925050503d80600081146145e1576040519150601f19603f3d011682016040523d82523d6000602084013e6145e6565b606091505b5050905080614640576040517f08c379a00000000000000000000000000000000000000000000000000000000081526004018080602001828103825260248152602001806153866024913960400191505060405180910390fd5b505050565b600060608473ffffffffffffffffffffffffffffffffffffffff1663a9059cbb8585604051602401808373ffffffffffffffffffffffffffffffffffffffff168152602001828152602001925050506040516020818303038152906040529060e01b6020820180517bffffffffffffffffffffffffffffffffffffffffffffffffffffffff83818316178352505050506040518082805190602001908083835b6020831061470857805182526020820191506020810190506020830392506146e5565b6001836020036101000a0380198251168184511680821785525050505050509050019150506000604051808303816000865af19150503d806000811461476a576040519150601f19603f3d011682016040523d82523d6000602084013e61476f565b606091505b50915091508180156147af57506000815114806147ae575080806020019051602081101561479c57600080fd5b81019080805190602001909291905050505b5b614821576040517f08c379a000000000000000000000000000000000000000000000000000000000815260040180806020018281038252601f8152602001807f5472616e7366657248656c7065723a205452414e534645525f4641494c45440081525060200191505060405180910390fd5b5050505050565b60005b6001835103811015614ab75760008084838151811061484657fe5b602002602001015185600185018151811061485d57fe5b60200260200101519150915060006148758383614e56565b509050600087600186018151811061488957fe5b602002602001015190506000808373ffffffffffffffffffffffffffffffffffffffff168673ffffffffffffffffffffffffffffffffffffffff16146148d1578260006148d5565b6000835b91509150600060028a510388106148ec578861492e565b61492d7f0000000000000000000000000000000000000000000000000000000000000000878c60028c018151811061492057fe5b6020026020010151613ec7565b5b905061495b7f00000000000000000000000000000000000000000000000000000000000000008888613ec7565b73ffffffffffffffffffffffffffffffffffffffff1663022c0d9f848484600067ffffffffffffffff8111801561499157600080fd5b506040519080825280601f01601f1916602001820160405280156149c45781602001600182028036833780820191505090505b506040518563ffffffff1660e01b8152600401808581526020018481526020018373ffffffffffffffffffffffffffffffffffffffff16815260200180602001828103825283818151815260200191508051906020019080838360005b83811015614a3c578082015181840152602081019050614a21565b50505050905090810190601f168015614a695780820380516001836020036101000a031916815260200191505b5095505050505050600060405180830381600087803b158015614a8b57600080fd5b505af1158015614a9f573d6000803e3d6000fd5b5050505050505050505050808060010191505061482b565b50505050565b6060600282511015614b37576040517f08c379a000000000000000000000000000000000000000000000000000000000815260040180806020018281038252601e8152602001807f556e697377617056324c6962726172793a20494e56414c49445f50415448000081525060200191505060405180910390fd5b815167ffffffffffffffff81118015614b4f57600080fd5b50604051908082528060200260200182016040528015614b7e5781602001602082028036833780820191505090505b5090508281600081518110614b8f57fe5b60200260200101818152505060005b6001835103811015614c2d57600080614be187868581518110614bbd57fe5b6020026020010151876001870181518110614bd457fe5b60200260200101516150db565b91509150614c03848481518110614bf457fe5b60200260200101518383613c17565b846001850181518110614c1257fe5b60200260200101818152505050508080600101915050614b9e565b509392505050565b6000808411614c8f576040517f08c379a000000000000000000000000000000000000000000000000000000000815260040180806020018281038252602c81526020018061530f602c913960400191505060405180910390fd5b600083118015614c9f5750600082115b614cf4576040517f08c379a00000000000000000000000000000000000000000000000000000000081526004018080602001828103825260288152602001806153aa6028913960400191505060405180910390fd5b6000614d1d6103e8614d0f8787614fcd90919063ffffffff16565b614fcd90919063ffffffff16565b90506000614d486103e5614d3a888761520490919063ffffffff16565b614fcd90919063ffffffff16565b9050614d676001828481614d5857fe5b0461505390919063ffffffff16565b925050509392505050565b6000808411614dcc576040517f08c379a00000000000000000000000000000000000000000000000000000000081526004018080602001828103825260258152602001806153f36025913960400191505060405180910390fd5b600083118015614ddc5750600082115b614e31576040517f08c379a00000000000000000000000000000000000000000000000000000000081526004018080602001828103825260288152602001806153aa6028913960400191505060405180910390fd5b82614e458386614fcd90919063ffffffff16565b81614e4c57fe5b0490509392505050565b6000808273ffffffffffffffffffffffffffffffffffffffff168473ffffffffffffffffffffffffffffffffffffffff161415614ede576040517f08c379a000000000000000000000000000000000000000000000000000000000815260040180806020018281038252602581526020018061533b6025913960400191505060405180910390fd5b8273ffffffffffffffffffffffffffffffffffffffff168473ffffffffffffffffffffffffffffffffffffffff1610614f18578284614f1b565b83835b8092508193505050600073ffffffffffffffffffffffffffffffffffffffff168273ffffffffffffffffffffffffffffffffffffffff161415614fc6576040517f08c379a000000000000000000000000000000000000000000000000000000000815260040180806020018281038252601e8152602001807f556e697377617056324c6962726172793a205a45524f5f41444452455353000081525060200191505060405180910390fd5b9250929050565b600080831415614fe0576000905061504d565b6000828402905082848281614ff157fe5b0414615048576040517f08c379a00000000000000000000000000000000000000000000000000000000081526004018080602001828103825260218152602001806153d26021913960400191505060405180910390fd5b809150505b92915050565b6000808284019050838110156150d1576040517f08c379a000000000000000000000000000000000000000000000000000000000815260040180806020018281038252601b8152602001807f536166654d6174683a206164646974696f6e206f766572666c6f77000000000081525060200191505060405180910390fd5b8091505092915050565b60008060006150ea8585614e56565b5090506000806150fb888888613ec7565b73ffffffffffffffffffffffffffffffffffffffff16630902f1ac6040518163ffffffff1660e01b815260040160606040518083038186803b15801561514057600080fd5b505afa158015615154573d6000803e3d6000fd5b505050506040513d606081101561516a57600080fd5b81019080805190602001909291908051906020019092919080519060200190929190505050506dffffffffffffffffffffffffffff1691506dffffffffffffffffffffffffffff1691508273ffffffffffffffffffffffffffffffffffffffff168773ffffffffffffffffffffffffffffffffffffffff16146151ee5780826151f1565b81815b8095508196505050505050935093915050565b600061524683836040518060400160405280601e81526020017f536166654d6174683a207375627472616374696f6e206f766572666c6f77000081525061524e565b905092915050565b60008383111582906152fb576040517f08c379a00000000000000000000000000000000000000000000000000000000081526004018080602001828103825283818151815260200191508051906020019080838360005b838110156152c05780820151818401526020810190506152a5565b50505050905090810190601f1680156152ed5780820380516001836020036101000a031916815260200191505b509250505060405180910390fd5b506000838503905080915050939250505056fe556e697377617056324c6962726172793a20494e53554646494349454e545f4f55545055545f414d4f554e54556e697377617056324c6962726172793a204944454e544943414c5f414444524553534553556e69737761705632526f757465723a20494e53554646494349454e545f425f414d4f554e545472616e7366657248656c7065723a20574254435f5452414e534645525f4641494c4544556e697377617056324c6962726172793a20494e53554646494349454e545f4c4951554944495459536166654d6174683a206d756c7469706c69636174696f6e206f766572666c6f77556e697377617056324c6962726172793a20494e53554646494349454e545f414d4f554e54556e69737761705632526f757465723a204558434553534956455f494e5055545f414d4f554e54556e69737761705632526f757465723a20494e53554646494349454e545f415f414d4f554e54556e69737761705632526f757465723a20494e53554646494349454e545f4f55545055545f414d4f554e545472616e7366657248656c7065723a205452414e534645525f46524f4d5f4641494c4544556e697377617056324c6962726172793a20494e53554646494349454e545f494e5055545f414d4f554e54a26469706673582212203d0b6283bcfdeb197eefede3d70c7cfa9ba9e9825dfa70f7af8f01e7b262ec9064736f6c634300060c0033",
  "immutableReferences": {
    "10304": [
      {
        "length": 32,
        "start": 5349
      },
      {
        "length": 32,
        "start": 5405
      },
      {
        "length": 32,
        "start": 5922
      },
      {
        "length": 32,
        "start": 7122
      },
      {
        "length": 32,
        "start": 7387
      },
      {
        "length": 32,
        "start": 7941
      },
      {
        "length": 32,
        "start": 8209
      },
      {
        "length": 32,
        "start": 8802
      },
      {
        "length": 32,
        "start": 9230
      },
      {
        "length": 32,
        "start": 9674
      },
      {
        "length": 32,
        "start": 10341
      },
      {
        "length": 32,
        "start": 10606
      },
      {
        "length": 32,
        "start": 11204
      },
      {
        "length": 32,
        "start": 11472
      },
      {
        "length": 32,
        "start": 12260
      },
      {
        "length": 32,
        "start": 12691
      },
      {
        "length": 32,
        "start": 13472
      },
      {
        "length": 32,
        "start": 14176
      },
      {
        "length": 32,
        "start": 14217
      },
      {
        "length": 32,
        "start": 14273
      },
      {
        "length": 32,
        "start": 15137
      },
      {
        "length": 32,
        "start": 16322
      },
      {
        "length": 32,
        "start": 16574
      },
      {
        "length": 32,
        "start": 16808
      },
      {
        "length": 32,
        "start": 18673
      },
      {
        "length": 32,
        "start": 18741
      }
    ],
    "10307": [
      {
        "length": 32,
        "start": 342
      },
      {
        "length": 32,
        "start": 5867
      },
      {
        "length": 32,
        "start": 5956
      },
      {
        "length": 32,
        "start": 6011
      },
      {
        "length": 32,
        "start": 6378
      },
      {
        "length": 32,
        "start": 6599
      },
      {
        "length": 32,
        "start": 6880
      },
      {
        "length": 32,
        "start": 7611
      },
      {
        "length": 32,
        "start": 8565
      },
      {
        "length": 32,
        "start": 9018
      },
      {
        "length": 32,
        "start": 9167
      },
      {
        "length": 32,
        "start": 9708
      },
      {
        "length": 32,
        "start": 10031
      },
      {
        "length": 32,
        "start": 10962
      },
      {
        "length": 32,
        "start": 11696
      },
      {
        "length": 32,
        "start": 12023
      },
      {
        "length": 32,
        "start": 12479
      },
      {
        "length": 32,
        "start": 12628
      },
      {
        "length": 32,
        "start": 14307
      },
      {
        "length": 32,
        "start": 14763
      },
      {
        "length": 32,
        "start": 14825
      }
    ]
  },
  "source": "// SPDX-License-Identifier: MIT\npragma solidity ^0.6.0 <0.7.0;\n\nimport './Interfaces/IUniswapV2Factory.sol';\nimport './TransferHelper.sol';\n\nimport './Interfaces/IUniswapV2Router02.sol';\nimport './UniswapV2Library.sol';\nimport '../Math/SafeMath.sol';\nimport '../ERC20/IERC20.sol';\nimport '../ERC20/IWBTC.sol';\n\ncontract UniswapV2Router02_Modified is IUniswapV2Router02 {\n    using SafeMath for uint;\n\n    address public immutable override factory;\n    address public immutable override WBTC;\n\n    modifier ensure(uint deadline) {\n        require(deadline >= block.timestamp, 'UniswapV2Router: EXPIRED');\n        _;\n    }\n\n    constructor(address _factory, address _WBTC) public {\n        factory = _factory;\n        WBTC = _WBTC;\n    }\n\n    receive() external payable {\n        assert(msg.sender == WBTC); // only accept WBTC via fallback from the WBTC contract\n    }\n\n    // **** ADD LIQUIDITY ****\n    function _addLiquidity(\n        address tokenA,\n        address tokenB,\n        uint amountADesired,\n        uint amountBDesired,\n        uint amountAMin,\n        uint amountBMin\n    ) internal virtual returns (uint amountA, uint amountB) {\n        // create the pair if it doesn't exist yet\n        if (IUniswapV2Factory(factory).getPair(tokenA, tokenB) == address(0)) {\n            IUniswapV2Factory(factory).createPair(tokenA, tokenB);\n        }\n        (uint reserveA, uint reserveB) = UniswapV2Library.getReserves(factory, tokenA, tokenB);\n        if (reserveA == 0 && reserveB == 0) {\n            (amountA, amountB) = (amountADesired, amountBDesired);\n        } else {\n            uint amountBOptimal = UniswapV2Library.quote(amountADesired, reserveA, reserveB);\n            if (amountBOptimal <= amountBDesired) {\n                require(amountBOptimal >= amountBMin, 'UniswapV2Router: INSUFFICIENT_B_AMOUNT');\n                (amountA, amountB) = (amountADesired, amountBOptimal);\n            } else {\n                uint amountAOptimal = UniswapV2Library.quote(amountBDesired, reserveB, reserveA);\n                assert(amountAOptimal <= amountADesired);\n                require(amountAOptimal >= amountAMin, 'UniswapV2Router: INSUFFICIENT_A_AMOUNT');\n                (amountA, amountB) = (amountAOptimal, amountBDesired);\n            }\n        }\n    }\n    function addLiquidity(\n        address tokenA,\n        address tokenB,\n        uint amountADesired,\n        uint amountBDesired,\n        uint amountAMin,\n        uint amountBMin,\n        address to,\n        uint deadline\n    ) external virtual override ensure(deadline) returns (uint amountA, uint amountB, uint liquidity) {\n        (amountA, amountB) = _addLiquidity(tokenA, tokenB, amountADesired, amountBDesired, amountAMin, amountBMin);\n        address pair = UniswapV2Library.pairFor(factory, tokenA, tokenB);\n        TransferHelper.safeTransferFrom(tokenA, msg.sender, pair, amountA);\n        TransferHelper.safeTransferFrom(tokenB, msg.sender, pair, amountB);\n        liquidity = IUniswapV2Pair(pair).mint(to);\n    }\n    function addLiquidityWBTC(\n        address token,\n        uint amountTokenDesired,\n        uint amountTokenMin,\n        uint amountWBTCMin,\n        address to,\n        uint deadline\n    ) external virtual override payable ensure(deadline) returns (uint amountToken, uint amountWBTC, uint liquidity) {\n        (amountToken, amountWBTC) = _addLiquidity(\n            token,\n            WBTC,\n            amountTokenDesired,\n            msg.value,\n            amountTokenMin,\n            amountWBTCMin\n        );\n        address pair = UniswapV2Library.pairFor(factory, token, WBTC);\n        TransferHelper.safeTransferFrom(token, msg.sender, pair, amountToken);\n        \n        \n        TransferHelper.safeTransferFrom(WBTC, msg.sender, pair, amountWBTC);\n\n        // IWBTC(WBTC).transferFrom(msg.sender, pair, amountWBTC);\n        // IWBTC(WBTC).deposit{value: amountWBTC}();\n        // assert(IWBTC(WBTC).transfer(pair, amountWBTC));\n\n        // require(false, \"HELLO: HOW ARE YOU TODAY!\");\n\n        liquidity = IUniswapV2Pair(pair).mint(to); // << PROBLEM IS HERE\n\n        // refund dust eth, if any\n        if (msg.value > amountWBTC) TransferHelper.safeTransferWBTC(msg.sender, msg.value - amountWBTC);\n    }\n\n    // **** REMOVE LIQUIDITY ****\n    function removeLiquidity(\n        address tokenA,\n        address tokenB,\n        uint liquidity,\n        uint amountAMin,\n        uint amountBMin,\n        address to,\n        uint deadline\n    ) public virtual override ensure(deadline) returns (uint amountA, uint amountB) {\n        address pair = UniswapV2Library.pairFor(factory, tokenA, tokenB);\n        IUniswapV2Pair(pair).transferFrom(msg.sender, pair, liquidity); // send liquidity to pair\n        (uint amount0, uint amount1) = IUniswapV2Pair(pair).burn(to);\n        (address token0,) = UniswapV2Library.sortTokens(tokenA, tokenB);\n        (amountA, amountB) = tokenA == token0 ? (amount0, amount1) : (amount1, amount0);\n        require(amountA >= amountAMin, 'UniswapV2Router: INSUFFICIENT_A_AMOUNT');\n        require(amountB >= amountBMin, 'UniswapV2Router: INSUFFICIENT_B_AMOUNT');\n    }\n    function removeLiquidityWBTC(\n        address token,\n        uint liquidity,\n        uint amountTokenMin,\n        uint amountWBTCMin,\n        address to,\n        uint deadline\n    ) public virtual override ensure(deadline) returns (uint amountToken, uint amountWBTC) {\n        (amountToken, amountWBTC) = removeLiquidity(\n            token,\n            WBTC,\n            liquidity,\n            amountTokenMin,\n            amountWBTCMin,\n            address(this),\n            deadline\n        );\n        TransferHelper.safeTransfer(token, to, amountToken);\n        IWBTC(WBTC).withdraw(amountWBTC);\n        TransferHelper.safeTransferWBTC(to, amountWBTC);\n    }\n    function removeLiquidityWithPermit(\n        address tokenA,\n        address tokenB,\n        uint liquidity,\n        uint amountAMin,\n        uint amountBMin,\n        address to,\n        uint deadline,\n        bool approveMax, uint8 v, bytes32 r, bytes32 s\n    ) external virtual override returns (uint amountA, uint amountB) {\n        address pair = UniswapV2Library.pairFor(factory, tokenA, tokenB);\n        uint value = approveMax ? uint(-1) : liquidity;\n        IUniswapV2Pair(pair).permit(msg.sender, address(this), value, deadline, v, r, s);\n        (amountA, amountB) = removeLiquidity(tokenA, tokenB, liquidity, amountAMin, amountBMin, to, deadline);\n    }\n    function removeLiquidityWBTCWithPermit(\n        address token,\n        uint liquidity,\n        uint amountTokenMin,\n        uint amountWBTCMin,\n        address to,\n        uint deadline,\n        bool approveMax, uint8 v, bytes32 r, bytes32 s\n    ) external virtual override returns (uint amountToken, uint amountWBTC) {\n        address pair = UniswapV2Library.pairFor(factory, token, WBTC);\n        uint value = approveMax ? uint(-1) : liquidity;\n        IUniswapV2Pair(pair).permit(msg.sender, address(this), value, deadline, v, r, s);\n        (amountToken, amountWBTC) = removeLiquidityWBTC(token, liquidity, amountTokenMin, amountWBTCMin, to, deadline);\n    }\n\n    // **** REMOVE LIQUIDITY (supporting fee-on-transfer tokens) ****\n    function removeLiquidityWBTCSupportingFeeOnTransferTokens(\n        address token,\n        uint liquidity,\n        uint amountTokenMin,\n        uint amountWBTCMin,\n        address to,\n        uint deadline\n    ) public virtual override ensure(deadline) returns (uint amountWBTC) {\n        (, amountWBTC) = removeLiquidity(\n            token,\n            WBTC,\n            liquidity,\n            amountTokenMin,\n            amountWBTCMin,\n            address(this),\n            deadline\n        );\n        TransferHelper.safeTransfer(token, to, IERC20(token).balanceOf(address(this)));\n        IWBTC(WBTC).withdraw(amountWBTC);\n        TransferHelper.safeTransferWBTC(to, amountWBTC);\n    }\n    function removeLiquidityWBTCWithPermitSupportingFeeOnTransferTokens(\n        address token,\n        uint liquidity,\n        uint amountTokenMin,\n        uint amountWBTCMin,\n        address to,\n        uint deadline,\n        bool approveMax, uint8 v, bytes32 r, bytes32 s\n    ) external virtual override returns (uint amountWBTC) {\n        address pair = UniswapV2Library.pairFor(factory, token, WBTC);\n        uint value = approveMax ? uint(-1) : liquidity;\n        IUniswapV2Pair(pair).permit(msg.sender, address(this), value, deadline, v, r, s);\n        amountWBTC = removeLiquidityWBTCSupportingFeeOnTransferTokens(\n            token, liquidity, amountTokenMin, amountWBTCMin, to, deadline\n        );\n    }\n\n    // **** SWAP ****\n    // requires the initial amount to have already been sent to the first pair\n    function _swap(uint[] memory amounts, address[] memory path, address _to) internal virtual {\n        for (uint i; i < path.length - 1; i++) {\n            (address input, address output) = (path[i], path[i + 1]);\n            (address token0,) = UniswapV2Library.sortTokens(input, output);\n            uint amountOut = amounts[i + 1];\n            (uint amount0Out, uint amount1Out) = input == token0 ? (uint(0), amountOut) : (amountOut, uint(0));\n            address to = i < path.length - 2 ? UniswapV2Library.pairFor(factory, output, path[i + 2]) : _to;\n            IUniswapV2Pair(UniswapV2Library.pairFor(factory, input, output)).swap(\n                amount0Out, amount1Out, to, new bytes(0)\n            );\n        }\n    }\n    function swapExactTokensForTokens(\n        uint amountIn,\n        uint amountOutMin,\n        address[] calldata path,\n        address to,\n        uint deadline\n    ) external virtual override ensure(deadline) returns (uint[] memory amounts) {\n        amounts = UniswapV2Library.getAmountsOut(factory, amountIn, path);\n        require(amounts[amounts.length - 1] >= amountOutMin, 'UniswapV2Router: INSUFFICIENT_OUTPUT_AMOUNT');\n        TransferHelper.safeTransferFrom(\n            path[0], msg.sender, UniswapV2Library.pairFor(factory, path[0], path[1]), amounts[0]\n        );\n        _swap(amounts, path, to);\n    }\n    function swapTokensForExactTokens(\n        uint amountOut,\n        uint amountInMax,\n        address[] calldata path,\n        address to,\n        uint deadline\n    ) external virtual override ensure(deadline) returns (uint[] memory amounts) {\n        amounts = UniswapV2Library.getAmountsIn(factory, amountOut, path);\n        require(amounts[0] <= amountInMax, 'UniswapV2Router: EXCESSIVE_INPUT_AMOUNT');\n        TransferHelper.safeTransferFrom(\n            path[0], msg.sender, UniswapV2Library.pairFor(factory, path[0], path[1]), amounts[0]\n        );\n        _swap(amounts, path, to);\n    }\n    function swapExactWBTCForTokens(uint amountOutMin, address[] calldata path, address to, uint deadline)\n        external\n        virtual\n        override\n        payable\n        ensure(deadline)\n        returns (uint[] memory amounts)\n    {\n        require(path[0] == WBTC, 'UniswapV2Router: INVALID_PATH');\n        amounts = UniswapV2Library.getAmountsOut(factory, msg.value, path);\n        require(amounts[amounts.length - 1] >= amountOutMin, 'UniswapV2Router: INSUFFICIENT_OUTPUT_AMOUNT');\n        IWBTC(WBTC).deposit{value: amounts[0]}();\n        assert(IWBTC(WBTC).transfer(UniswapV2Library.pairFor(factory, path[0], path[1]), amounts[0]));\n        _swap(amounts, path, to);\n    }\n    function swapTokensForExactWBTC(uint amountOut, uint amountInMax, address[] calldata path, address to, uint deadline)\n        external\n        virtual\n        override\n        ensure(deadline)\n        returns (uint[] memory amounts)\n    {\n        require(path[path.length - 1] == WBTC, 'UniswapV2Router: INVALID_PATH');\n        amounts = UniswapV2Library.getAmountsIn(factory, amountOut, path);\n        require(amounts[0] <= amountInMax, 'UniswapV2Router: EXCESSIVE_INPUT_AMOUNT');\n        TransferHelper.safeTransferFrom(\n            path[0], msg.sender, UniswapV2Library.pairFor(factory, path[0], path[1]), amounts[0]\n        );\n        _swap(amounts, path, address(this));\n        IWBTC(WBTC).withdraw(amounts[amounts.length - 1]);\n        TransferHelper.safeTransferWBTC(to, amounts[amounts.length - 1]);\n    }\n    function swapExactTokensForWBTC(uint amountIn, uint amountOutMin, address[] calldata path, address to, uint deadline)\n        external\n        virtual\n        override\n        ensure(deadline)\n        returns (uint[] memory amounts)\n    {\n        require(path[path.length - 1] == WBTC, 'UniswapV2Router: INVALID_PATH');\n        amounts = UniswapV2Library.getAmountsOut(factory, amountIn, path);\n        require(amounts[amounts.length - 1] >= amountOutMin, 'UniswapV2Router: INSUFFICIENT_OUTPUT_AMOUNT');\n        TransferHelper.safeTransferFrom(\n            path[0], msg.sender, UniswapV2Library.pairFor(factory, path[0], path[1]), amounts[0]\n        );\n        _swap(amounts, path, address(this));\n        IWBTC(WBTC).withdraw(amounts[amounts.length - 1]);\n        TransferHelper.safeTransferWBTC(to, amounts[amounts.length - 1]);\n    }\n    function swapWBTCForExactTokens(uint amountOut, address[] calldata path, address to, uint deadline)\n        external\n        virtual\n        override\n        payable\n        ensure(deadline)\n        returns (uint[] memory amounts)\n    {\n        require(path[0] == WBTC, 'UniswapV2Router: INVALID_PATH');\n        amounts = UniswapV2Library.getAmountsIn(factory, amountOut, path);\n        require(amounts[0] <= msg.value, 'UniswapV2Router: EXCESSIVE_INPUT_AMOUNT');\n        IWBTC(WBTC).deposit{value: amounts[0]}();\n        assert(IWBTC(WBTC).transfer(UniswapV2Library.pairFor(factory, path[0], path[1]), amounts[0]));\n        _swap(amounts, path, to);\n        // refund dust eth, if any\n        if (msg.value > amounts[0]) TransferHelper.safeTransferWBTC(msg.sender, msg.value - amounts[0]);\n    }\n\n    // **** SWAP (supporting fee-on-transfer tokens) ****\n    // requires the initial amount to have already been sent to the first pair\n    function _swapSupportingFeeOnTransferTokens(address[] memory path, address _to) internal virtual {\n        // for (uint i; i < path.length - 1; i++) {\n        //     (address input, address output) = (path[i], path[i + 1]);\n        //     (address token0,) = UniswapV2Library.sortTokens(input, output);\n        //     IUniswapV2Pair pair = IUniswapV2Pair(UniswapV2Library.pairFor(factory, input, output));\n        //     uint amountInput;\n        //     uint amountOutput;\n        //     { // scope to avoid stack too deep errors\n        //     (uint reserve0, uint reserve1,) = pair.getReserves();\n        //     (uint reserveInput, uint reserveOutput) = input == token0 ? (reserve0, reserve1) : (reserve1, reserve0);\n        //     amountInput = IERC20(input).balanceOf(address(pair)).sub(reserveInput);\n        //     amountOutput = UniswapV2Library.getAmountOut(amountInput, reserveInput, reserveOutput);\n        //     }\n        //     (uint amount0Out, uint amount1Out) = input == token0 ? (uint(0), amountOutput) : (amountOutput, uint(0));\n        //     address to = i < path.length - 2 ? UniswapV2Library.pairFor(factory, output, path[i + 2]) : _to;\n        //     pair.swap(amount0Out, amount1Out, to, new bytes(0));\n        // }\n    }\n    function swapExactTokensForTokensSupportingFeeOnTransferTokens(\n        uint amountIn,\n        uint amountOutMin,\n        address[] calldata path,\n        address to,\n        uint deadline\n    ) external virtual override ensure(deadline) {\n        // TransferHelper.safeTransferFrom(\n        //     path[0], msg.sender, UniswapV2Library.pairFor(factory, path[0], path[1]), amountIn\n        // );\n        // uint balanceBefore = IERC20(path[path.length - 1]).balanceOf(to);\n        // _swapSupportingFeeOnTransferTokens(path, to);\n        // require(\n        //     IERC20(path[path.length - 1]).balanceOf(to).sub(balanceBefore) >= amountOutMin,\n        //     'UniswapV2Router: INSUFFICIENT_OUTPUT_AMOUNT'\n        // );\n    }\n    function swapExactWBTCForTokensSupportingFeeOnTransferTokens(\n        uint amountOutMin,\n        address[] calldata path,\n        address to,\n        uint deadline\n    )\n        external\n        virtual\n        override\n        payable\n        ensure(deadline)\n    {\n        // require(path[0] == WBTC, 'UniswapV2Router: INVALID_PATH');\n        // uint amountIn = msg.value;\n        // IWBTC(WBTC).deposit{value: amountIn}();\n        // assert(IWBTC(WBTC).transfer(UniswapV2Library.pairFor(factory, path[0], path[1]), amountIn));\n        // uint balanceBefore = IERC20(path[path.length - 1]).balanceOf(to);\n        // _swapSupportingFeeOnTransferTokens(path, to);\n        // require(\n        //     IERC20(path[path.length - 1]).balanceOf(to).sub(balanceBefore) >= amountOutMin,\n        //     'UniswapV2Router: INSUFFICIENT_OUTPUT_AMOUNT'\n        // );\n    }\n    function swapExactTokensForWBTCSupportingFeeOnTransferTokens(\n        uint amountIn,\n        uint amountOutMin,\n        address[] calldata path,\n        address to,\n        uint deadline\n    )\n        external\n        virtual\n        override\n        ensure(deadline)\n    {\n        // require(path[path.length - 1] == WBTC, 'UniswapV2Router: INVALID_PATH');\n        // TransferHelper.safeTransferFrom(\n        //     path[0], msg.sender, UniswapV2Library.pairFor(factory, path[0], path[1]), amountIn\n        // );\n        // _swapSupportingFeeOnTransferTokens(path, address(this));\n        // uint amountOut = IERC20(WBTC).balanceOf(address(this));\n        // require(amountOut >= amountOutMin, 'UniswapV2Router: INSUFFICIENT_OUTPUT_AMOUNT');\n        // IWBTC(WBTC).withdraw(amountOut);\n        // TransferHelper.safeTransferWBTC(to, amountOut);\n    }\n\n    // **** LIBRARY FUNCTIONS ****\n    function quote(uint amountA, uint reserveA, uint reserveB) public pure virtual override returns (uint amountB) {\n        return UniswapV2Library.quote(amountA, reserveA, reserveB);\n    }\n\n    function getAmountOut(uint amountIn, uint reserveIn, uint reserveOut)\n        public\n        pure\n        virtual\n        override\n        returns (uint amountOut)\n    {\n        return UniswapV2Library.getAmountOut(amountIn, reserveIn, reserveOut);\n    }\n\n    function getAmountIn(uint amountOut, uint reserveIn, uint reserveOut)\n        public\n        pure\n        virtual\n        override\n        returns (uint amountIn)\n    {\n        return UniswapV2Library.getAmountIn(amountOut, reserveIn, reserveOut);\n    }\n\n    function getAmountsOut(uint amountIn, address[] memory path)\n        public\n        view\n        virtual\n        override\n        returns (uint[] memory amounts)\n    {\n        return UniswapV2Library.getAmountsOut(factory, amountIn, path);\n    }\n\n    function getAmountsIn(uint amountOut, address[] memory path)\n        public\n        view\n        virtual\n        override\n        returns (uint[] memory amounts)\n    {\n        return UniswapV2Library.getAmountsIn(factory, amountOut, path);\n    }\n}",
  "sourcePath": "/Users/abdulhafiz/Documents/projects/xeb/defi_fraxlink_contract/contracts/Uniswap/UniswapV2Router02_Modified.sol",
  "compiler": {
    "name": "solc",
    "version": "0.6.12+commit.27d51765.Emscripten.clang"
  },
  "schemaVersion": "3.3.4",
  "updatedAt": "2021-03-15T14:40:12.664Z",
  "devdoc": {
    "kind": "dev",
    "methods": {},
    "version": 1
  },
  "userdoc": {
    "kind": "user",
    "methods": {},
    "version": 1
  }
}