{
  "contractName": "XEBECStablecoin",
  "abi": [
    {
      "inputs": [
        {
          "internalType": "string",
          "name": "_symbol",
          "type": "string"
        },
        {
          "internalType": "address",
          "name": "_creator_address",
          "type": "address"
        },
        {
          "internalType": "address",
          "name": "_timelock_address",
          "type": "address"
        }
      ],
      "stateMutability": "nonpayable",
      "type": "constructor"
    },
    {
      "anonymous": false,
      "inputs": [
        {
          "indexed": true,
          "internalType": "address",
          "name": "owner",
          "type": "address"
        },
        {
          "indexed": true,
          "internalType": "address",
          "name": "spender",
          "type": "address"
        },
        {
          "indexed": false,
          "internalType": "uint256",
          "name": "value",
          "type": "uint256"
        }
      ],
      "name": "Approval",
      "type": "event"
    },
    {
      "anonymous": false,
      "inputs": [
        {
          "indexed": true,
          "internalType": "bytes32",
          "name": "role",
          "type": "bytes32"
        },
        {
          "indexed": true,
          "internalType": "bytes32",
          "name": "previousAdminRole",
          "type": "bytes32"
        },
        {
          "indexed": true,
          "internalType": "bytes32",
          "name": "newAdminRole",
          "type": "bytes32"
        }
      ],
      "name": "RoleAdminChanged",
      "type": "event"
    },
    {
      "anonymous": false,
      "inputs": [
        {
          "indexed": true,
          "internalType": "bytes32",
          "name": "role",
          "type": "bytes32"
        },
        {
          "indexed": true,
          "internalType": "address",
          "name": "account",
          "type": "address"
        },
        {
          "indexed": true,
          "internalType": "address",
          "name": "sender",
          "type": "address"
        }
      ],
      "name": "RoleGranted",
      "type": "event"
    },
    {
      "anonymous": false,
      "inputs": [
        {
          "indexed": true,
          "internalType": "bytes32",
          "name": "role",
          "type": "bytes32"
        },
        {
          "indexed": true,
          "internalType": "address",
          "name": "account",
          "type": "address"
        },
        {
          "indexed": true,
          "internalType": "address",
          "name": "sender",
          "type": "address"
        }
      ],
      "name": "RoleRevoked",
      "type": "event"
    },
    {
      "anonymous": false,
      "inputs": [
        {
          "indexed": true,
          "internalType": "address",
          "name": "from",
          "type": "address"
        },
        {
          "indexed": true,
          "internalType": "address",
          "name": "to",
          "type": "address"
        },
        {
          "indexed": false,
          "internalType": "uint256",
          "name": "value",
          "type": "uint256"
        }
      ],
      "name": "Transfer",
      "type": "event"
    },
    {
      "anonymous": false,
      "inputs": [
        {
          "indexed": true,
          "internalType": "address",
          "name": "from",
          "type": "address"
        },
        {
          "indexed": true,
          "internalType": "address",
          "name": "to",
          "type": "address"
        },
        {
          "indexed": false,
          "internalType": "uint256",
          "name": "amount",
          "type": "uint256"
        }
      ],
      "name": "XEBBurned",
      "type": "event"
    },
    {
      "inputs": [],
      "name": "COLLATERAL_RATIO_PAUSER",
      "outputs": [
        {
          "internalType": "bytes32",
          "name": "",
          "type": "bytes32"
        }
      ],
      "stateMutability": "view",
      "type": "function",
      "constant": true
    },
    {
      "inputs": [],
      "name": "DEFAULT_ADMIN_ADDRESS",
      "outputs": [
        {
          "internalType": "address",
          "name": "",
          "type": "address"
        }
      ],
      "stateMutability": "view",
      "type": "function",
      "constant": true
    },
    {
      "inputs": [],
      "name": "DEFAULT_ADMIN_ROLE",
      "outputs": [
        {
          "internalType": "bytes32",
          "name": "",
          "type": "bytes32"
        }
      ],
      "stateMutability": "view",
      "type": "function",
      "constant": true
    },
    {
      "inputs": [
        {
          "internalType": "address",
          "name": "owner",
          "type": "address"
        },
        {
          "internalType": "address",
          "name": "spender",
          "type": "address"
        }
      ],
      "name": "allowance",
      "outputs": [
        {
          "internalType": "uint256",
          "name": "",
          "type": "uint256"
        }
      ],
      "stateMutability": "view",
      "type": "function",
      "constant": true
    },
    {
      "inputs": [
        {
          "internalType": "address",
          "name": "spender",
          "type": "address"
        },
        {
          "internalType": "uint256",
          "name": "amount",
          "type": "uint256"
        }
      ],
      "name": "approve",
      "outputs": [
        {
          "internalType": "bool",
          "name": "",
          "type": "bool"
        }
      ],
      "stateMutability": "nonpayable",
      "type": "function"
    },
    {
      "inputs": [
        {
          "internalType": "address",
          "name": "account",
          "type": "address"
        }
      ],
      "name": "balanceOf",
      "outputs": [
        {
          "internalType": "uint256",
          "name": "",
          "type": "uint256"
        }
      ],
      "stateMutability": "view",
      "type": "function",
      "constant": true
    },
    {
      "inputs": [
        {
          "internalType": "uint256",
          "name": "amount",
          "type": "uint256"
        }
      ],
      "name": "burn",
      "outputs": [],
      "stateMutability": "nonpayable",
      "type": "function"
    },
    {
      "inputs": [
        {
          "internalType": "address",
          "name": "account",
          "type": "address"
        },
        {
          "internalType": "uint256",
          "name": "amount",
          "type": "uint256"
        }
      ],
      "name": "burnFrom",
      "outputs": [],
      "stateMutability": "nonpayable",
      "type": "function"
    },
    {
      "inputs": [],
      "name": "collateral_ratio_paused",
      "outputs": [
        {
          "internalType": "bool",
          "name": "",
          "type": "bool"
        }
      ],
      "stateMutability": "view",
      "type": "function",
      "constant": true
    },
    {
      "inputs": [],
      "name": "creator_address",
      "outputs": [
        {
          "internalType": "address",
          "name": "",
          "type": "address"
        }
      ],
      "stateMutability": "view",
      "type": "function",
      "constant": true
    },
    {
      "inputs": [],
      "name": "decimals",
      "outputs": [
        {
          "internalType": "uint8",
          "name": "",
          "type": "uint8"
        }
      ],
      "stateMutability": "view",
      "type": "function",
      "constant": true
    },
    {
      "inputs": [
        {
          "internalType": "address",
          "name": "spender",
          "type": "address"
        },
        {
          "internalType": "uint256",
          "name": "subtractedValue",
          "type": "uint256"
        }
      ],
      "name": "decreaseAllowance",
      "outputs": [
        {
          "internalType": "bool",
          "name": "",
          "type": "bool"
        }
      ],
      "stateMutability": "nonpayable",
      "type": "function"
    },
    {
      "inputs": [],
      "name": "genesis_supply",
      "outputs": [
        {
          "internalType": "uint256",
          "name": "",
          "type": "uint256"
        }
      ],
      "stateMutability": "view",
      "type": "function",
      "constant": true
    },
    {
      "inputs": [
        {
          "internalType": "bytes32",
          "name": "role",
          "type": "bytes32"
        }
      ],
      "name": "getRoleAdmin",
      "outputs": [
        {
          "internalType": "bytes32",
          "name": "",
          "type": "bytes32"
        }
      ],
      "stateMutability": "view",
      "type": "function",
      "constant": true
    },
    {
      "inputs": [
        {
          "internalType": "bytes32",
          "name": "role",
          "type": "bytes32"
        },
        {
          "internalType": "uint256",
          "name": "index",
          "type": "uint256"
        }
      ],
      "name": "getRoleMember",
      "outputs": [
        {
          "internalType": "address",
          "name": "",
          "type": "address"
        }
      ],
      "stateMutability": "view",
      "type": "function",
      "constant": true
    },
    {
      "inputs": [
        {
          "internalType": "bytes32",
          "name": "role",
          "type": "bytes32"
        }
      ],
      "name": "getRoleMemberCount",
      "outputs": [
        {
          "internalType": "uint256",
          "name": "",
          "type": "uint256"
        }
      ],
      "stateMutability": "view",
      "type": "function",
      "constant": true
    },
    {
      "inputs": [],
      "name": "global_collateral_ratio",
      "outputs": [
        {
          "internalType": "uint256",
          "name": "",
          "type": "uint256"
        }
      ],
      "stateMutability": "view",
      "type": "function",
      "constant": true
    },
    {
      "inputs": [
        {
          "internalType": "bytes32",
          "name": "role",
          "type": "bytes32"
        },
        {
          "internalType": "address",
          "name": "account",
          "type": "address"
        }
      ],
      "name": "grantRole",
      "outputs": [],
      "stateMutability": "nonpayable",
      "type": "function"
    },
    {
      "inputs": [
        {
          "internalType": "bytes32",
          "name": "role",
          "type": "bytes32"
        },
        {
          "internalType": "address",
          "name": "account",
          "type": "address"
        }
      ],
      "name": "hasRole",
      "outputs": [
        {
          "internalType": "bool",
          "name": "",
          "type": "bool"
        }
      ],
      "stateMutability": "view",
      "type": "function",
      "constant": true
    },
    {
      "inputs": [
        {
          "internalType": "address",
          "name": "spender",
          "type": "address"
        },
        {
          "internalType": "uint256",
          "name": "addedValue",
          "type": "uint256"
        }
      ],
      "name": "increaseAllowance",
      "outputs": [
        {
          "internalType": "bool",
          "name": "",
          "type": "bool"
        }
      ],
      "stateMutability": "nonpayable",
      "type": "function"
    },
    {
      "inputs": [],
      "name": "minting_fee",
      "outputs": [
        {
          "internalType": "uint256",
          "name": "",
          "type": "uint256"
        }
      ],
      "stateMutability": "view",
      "type": "function",
      "constant": true
    },
    {
      "inputs": [
        {
          "internalType": "uint256",
          "name": "",
          "type": "uint256"
        }
      ],
      "name": "owners",
      "outputs": [
        {
          "internalType": "address",
          "name": "",
          "type": "address"
        }
      ],
      "stateMutability": "view",
      "type": "function",
      "constant": true
    },
    {
      "inputs": [],
      "name": "redemption_fee",
      "outputs": [
        {
          "internalType": "uint256",
          "name": "",
          "type": "uint256"
        }
      ],
      "stateMutability": "view",
      "type": "function",
      "constant": true
    },
    {
      "inputs": [
        {
          "internalType": "bytes32",
          "name": "role",
          "type": "bytes32"
        },
        {
          "internalType": "address",
          "name": "account",
          "type": "address"
        }
      ],
      "name": "renounceRole",
      "outputs": [],
      "stateMutability": "nonpayable",
      "type": "function"
    },
    {
      "inputs": [
        {
          "internalType": "bytes32",
          "name": "role",
          "type": "bytes32"
        },
        {
          "internalType": "address",
          "name": "account",
          "type": "address"
        }
      ],
      "name": "revokeRole",
      "outputs": [],
      "stateMutability": "nonpayable",
      "type": "function"
    },
    {
      "inputs": [],
      "name": "symbol",
      "outputs": [
        {
          "internalType": "string",
          "name": "",
          "type": "string"
        }
      ],
      "stateMutability": "view",
      "type": "function",
      "constant": true
    },
    {
      "inputs": [],
      "name": "timelock_address",
      "outputs": [
        {
          "internalType": "address",
          "name": "",
          "type": "address"
        }
      ],
      "stateMutability": "view",
      "type": "function",
      "constant": true
    },
    {
      "inputs": [],
      "name": "totalSupply",
      "outputs": [
        {
          "internalType": "uint256",
          "name": "",
          "type": "uint256"
        }
      ],
      "stateMutability": "view",
      "type": "function",
      "constant": true
    },
    {
      "inputs": [
        {
          "internalType": "address",
          "name": "recipient",
          "type": "address"
        },
        {
          "internalType": "uint256",
          "name": "amount",
          "type": "uint256"
        }
      ],
      "name": "transfer",
      "outputs": [
        {
          "internalType": "bool",
          "name": "",
          "type": "bool"
        }
      ],
      "stateMutability": "nonpayable",
      "type": "function"
    },
    {
      "inputs": [
        {
          "internalType": "address",
          "name": "sender",
          "type": "address"
        },
        {
          "internalType": "address",
          "name": "recipient",
          "type": "address"
        },
        {
          "internalType": "uint256",
          "name": "amount",
          "type": "uint256"
        }
      ],
      "name": "transferFrom",
      "outputs": [
        {
          "internalType": "bool",
          "name": "",
          "type": "bool"
        }
      ],
      "stateMutability": "nonpayable",
      "type": "function"
    },
    {
      "inputs": [],
      "name": "wbtc_address",
      "outputs": [
        {
          "internalType": "address",
          "name": "",
          "type": "address"
        }
      ],
      "stateMutability": "view",
      "type": "function",
      "constant": true
    },
    {
      "inputs": [],
      "name": "wbtc_usd_consumer_address",
      "outputs": [
        {
          "internalType": "address",
          "name": "",
          "type": "address"
        }
      ],
      "stateMutability": "view",
      "type": "function",
      "constant": true
    },
    {
      "inputs": [
        {
          "internalType": "address",
          "name": "",
          "type": "address"
        }
      ],
      "name": "xeb_pools",
      "outputs": [
        {
          "internalType": "bool",
          "name": "",
          "type": "bool"
        }
      ],
      "stateMutability": "view",
      "type": "function",
      "constant": true
    },
    {
      "inputs": [],
      "name": "xeb_wbtc_oracle_address",
      "outputs": [
        {
          "internalType": "address",
          "name": "",
          "type": "address"
        }
      ],
      "stateMutability": "view",
      "type": "function",
      "constant": true
    },
    {
      "inputs": [],
      "name": "xesh_address",
      "outputs": [
        {
          "internalType": "address",
          "name": "",
          "type": "address"
        }
      ],
      "stateMutability": "view",
      "type": "function",
      "constant": true
    },
    {
      "inputs": [],
      "name": "xesh_wbtc_oracle_address",
      "outputs": [
        {
          "internalType": "address",
          "name": "",
          "type": "address"
        }
      ],
      "stateMutability": "view",
      "type": "function",
      "constant": true
    },
    {
      "inputs": [],
      "name": "xeb_price",
      "outputs": [
        {
          "internalType": "uint256",
          "name": "",
          "type": "uint256"
        }
      ],
      "stateMutability": "view",
      "type": "function",
      "constant": true
    },
    {
      "inputs": [],
      "name": "xesh_price",
      "outputs": [
        {
          "internalType": "uint256",
          "name": "",
          "type": "uint256"
        }
      ],
      "stateMutability": "view",
      "type": "function",
      "constant": true
    },
    {
      "inputs": [],
      "name": "xeb_info",
      "outputs": [
        {
          "internalType": "uint256",
          "name": "",
          "type": "uint256"
        },
        {
          "internalType": "uint256",
          "name": "",
          "type": "uint256"
        },
        {
          "internalType": "uint256",
          "name": "",
          "type": "uint256"
        },
        {
          "internalType": "uint256",
          "name": "",
          "type": "uint256"
        },
        {
          "internalType": "uint256",
          "name": "",
          "type": "uint256"
        },
        {
          "internalType": "uint256",
          "name": "",
          "type": "uint256"
        },
        {
          "internalType": "uint256",
          "name": "",
          "type": "uint256"
        }
      ],
      "stateMutability": "view",
      "type": "function",
      "constant": true
    },
    {
      "inputs": [],
      "name": "globalCollateralValue",
      "outputs": [
        {
          "internalType": "uint256",
          "name": "",
          "type": "uint256"
        }
      ],
      "stateMutability": "view",
      "type": "function",
      "constant": true
    },
    {
      "inputs": [],
      "name": "refreshCollateralRatio",
      "outputs": [],
      "stateMutability": "nonpayable",
      "type": "function"
    },
    {
      "inputs": [
        {
          "internalType": "uint256",
          "name": "amount",
          "type": "uint256"
        }
      ],
      "name": "mint",
      "outputs": [],
      "stateMutability": "nonpayable",
      "type": "function"
    },
    {
      "inputs": [
        {
          "internalType": "address",
          "name": "b_address",
          "type": "address"
        },
        {
          "internalType": "uint256",
          "name": "b_amount",
          "type": "uint256"
        }
      ],
      "name": "pool_burn_from",
      "outputs": [],
      "stateMutability": "nonpayable",
      "type": "function"
    },
    {
      "inputs": [
        {
          "internalType": "address",
          "name": "m_address",
          "type": "address"
        },
        {
          "internalType": "uint256",
          "name": "m_amount",
          "type": "uint256"
        }
      ],
      "name": "pool_mint",
      "outputs": [],
      "stateMutability": "nonpayable",
      "type": "function"
    },
    {
      "inputs": [
        {
          "internalType": "address",
          "name": "pool_address",
          "type": "address"
        }
      ],
      "name": "addPool",
      "outputs": [],
      "stateMutability": "nonpayable",
      "type": "function"
    },
    {
      "inputs": [
        {
          "internalType": "address",
          "name": "pool_address",
          "type": "address"
        }
      ],
      "name": "removePool",
      "outputs": [],
      "stateMutability": "nonpayable",
      "type": "function"
    },
    {
      "inputs": [
        {
          "internalType": "enum XEBECStablecoin.PriceChoice",
          "name": "choice",
          "type": "uint8"
        },
        {
          "internalType": "address",
          "name": "oracle_address",
          "type": "address"
        }
      ],
      "name": "addStablecoinOracle",
      "outputs": [],
      "stateMutability": "nonpayable",
      "type": "function"
    },
    {
      "inputs": [
        {
          "internalType": "enum XEBECStablecoin.PriceChoice",
          "name": "choice",
          "type": "uint8"
        },
        {
          "internalType": "address",
          "name": "oracle_address",
          "type": "address"
        }
      ],
      "name": "removeStablecoinOracle",
      "outputs": [],
      "stateMutability": "nonpayable",
      "type": "function"
    },
    {
      "inputs": [
        {
          "internalType": "address",
          "name": "owner_address",
          "type": "address"
        }
      ],
      "name": "addOwner",
      "outputs": [],
      "stateMutability": "nonpayable",
      "type": "function"
    },
    {
      "inputs": [
        {
          "internalType": "address",
          "name": "owner_address",
          "type": "address"
        }
      ],
      "name": "removeOwner",
      "outputs": [],
      "stateMutability": "nonpayable",
      "type": "function"
    },
    {
      "inputs": [
        {
          "internalType": "uint256",
          "name": "red_fee",
          "type": "uint256"
        }
      ],
      "name": "setRedemptionFee",
      "outputs": [],
      "stateMutability": "nonpayable",
      "type": "function"
    },
    {
      "inputs": [
        {
          "internalType": "uint256",
          "name": "min_fee",
          "type": "uint256"
        }
      ],
      "name": "setMintingFee",
      "outputs": [],
      "stateMutability": "nonpayable",
      "type": "function"
    },
    {
      "inputs": [
        {
          "internalType": "address",
          "name": "_xesh_address",
          "type": "address"
        }
      ],
      "name": "setXESHAddress",
      "outputs": [],
      "stateMutability": "nonpayable",
      "type": "function"
    },
    {
      "inputs": [
        {
          "internalType": "address",
          "name": "_xeb_addr",
          "type": "address"
        },
        {
          "internalType": "address",
          "name": "_wbtc_address",
          "type": "address"
        }
      ],
      "name": "setXEBWbtcOracle",
      "outputs": [],
      "stateMutability": "nonpayable",
      "type": "function"
    },
    {
      "inputs": [
        {
          "internalType": "address",
          "name": "_xesh_addr",
          "type": "address"
        },
        {
          "internalType": "address",
          "name": "_wbtc_address",
          "type": "address"
        }
      ],
      "name": "setXESHWbtcOracle",
      "outputs": [],
      "stateMutability": "nonpayable",
      "type": "function"
    },
    {
      "inputs": [],
      "name": "toggleCollateralRatio",
      "outputs": [],
      "stateMutability": "nonpayable",
      "type": "function"
    }
  ],
  "bytecode": "0x60806040526008600760006101000a81548160ff021916908360ff16021790555069d3c21bcecceda10000006011556000601860146101000a81548160ff0219169083151502179055503480156200005657600080fd5b50604051620054223803806200542283398181016040528101906200007c919062000938565b8260069080519060200190620000949291906200081f565b5081600a60006101000a81548173ffffffffffffffffffffffffffffffffffffffff021916908373ffffffffffffffffffffffffffffffffffffffff16021790555080600b60006101000a81548173ffffffffffffffffffffffffffffffffffffffff021916908373ffffffffffffffffffffffffffffffffffffffff1602179055506200013b6000801b6200012f6200037c60201b60201c565b6200038460201b60201c565b6200014b6200037c60201b60201c565b601860006101000a81548173ffffffffffffffffffffffffffffffffffffffff021916908373ffffffffffffffffffffffffffffffffffffffff1602179055506008600a60009054906101000a900473ffffffffffffffffffffffffffffffffffffffff169080600181540180825580915050600190039060005260206000200160009091909190916101000a81548173ffffffffffffffffffffffffffffffffffffffff021916908373ffffffffffffffffffffffffffffffffffffffff1602179055506008600b60009054906101000a900473ffffffffffffffffffffffffffffffffffffffff169080600181540180825580915050600190039060005260206000200160009091909190916101000a81548173ffffffffffffffffffffffffffffffffffffffff021916908373ffffffffffffffffffffffffffffffffffffffff160217905550620002cb600a60009054906101000a900473ffffffffffffffffffffffffffffffffffffffff166011546200039a60201b60201c565b6200031f7fb25402418ad555013210365a422f9f1206b2dd00719998db06f8a1fbe014641b600a60009054906101000a900473ffffffffffffffffffffffffffffffffffffffff166200054960201b60201c565b620003737fb25402418ad555013210365a422f9f1206b2dd00719998db06f8a1fbe014641b600b60009054906101000a900473ffffffffffffffffffffffffffffffffffffffff166200054960201b60201c565b50505062000c21565b600033905090565b620003968282620005d860201b60201c565b5050565b600073ffffffffffffffffffffffffffffffffffffffff168273ffffffffffffffffffffffffffffffffffffffff1614156200040d576040517f08c379a0000000000000000000000000000000000000000000000000000000008152600401620004049062000ae8565b60405180910390fd5b62000421600083836200067c60201b60201c565b6200043d816002546200068160201b620029321790919060201c565b6002819055506200049b816000808573ffffffffffffffffffffffffffffffffffffffff1673ffffffffffffffffffffffffffffffffffffffff168152602001908152602001600020546200068160201b620029321790919060201c565b6000808473ffffffffffffffffffffffffffffffffffffffff1673ffffffffffffffffffffffffffffffffffffffff168152602001908152602001600020819055508173ffffffffffffffffffffffffffffffffffffffff16600073ffffffffffffffffffffffffffffffffffffffff167fddf252ad1be2c89b69c2b068fc378daa952ba7f163c4a11628f55a4df523b3ef836040516200053d919062000b0a565b60405180910390a35050565b620005806003600084815260200190815260200160002060020154620005746200037c60201b60201c565b620006d960201b60201c565b620005c2576040517f08c379a0000000000000000000000000000000000000000000000000000000008152600401620005b99062000aa4565b60405180910390fd5b620005d48282620005d860201b60201c565b5050565b6200060781600360008581526020019081526020016000206000016200071260201b620029871790919060201c565b1562000678576200061d6200037c60201b60201c565b73ffffffffffffffffffffffffffffffffffffffff168173ffffffffffffffffffffffffffffffffffffffff16837f2f8788117e7eff1d82e926ec794901d17c78024a50270940304540a733656f0d60405160405180910390a45b5050565b505050565b600080828401905083811015620006cf576040517f08c379a0000000000000000000000000000000000000000000000000000000008152600401620006c69062000ac6565b60405180910390fd5b8091505092915050565b60006200070a82600360008681526020019081526020016000206000016200074a60201b620029b71790919060201c565b905092915050565b600062000742836000018373ffffffffffffffffffffffffffffffffffffffff1660001b6200078260201b60201c565b905092915050565b60006200077a836000018373ffffffffffffffffffffffffffffffffffffffff1660001b620007fc60201b60201c565b905092915050565b6000620007968383620007fc60201b60201c565b620007f1578260000182908060018154018082558091505060019003906000526020600020016000909190919091505582600001805490508360010160008481526020019081526020016000208190555060019050620007f6565b600090505b92915050565b600080836001016000848152602001908152602001600020541415905092915050565b828054600181600116156101000203166002900490600052602060002090601f016020900481019282601f106200086257805160ff191683800117855562000893565b8280016001018555821562000893579182015b828111156200089257825182559160200191906001019062000875565b5b509050620008a29190620008a6565b5090565b5b80821115620008c1576000816000905550600101620008a7565b5090565b600081519050620008d68162000c07565b92915050565b600082601f830112620008ee57600080fd5b815162000905620008ff8262000b55565b62000b27565b915080825260208301602083018583830111156200092257600080fd5b6200092f83828462000bd1565b50505092915050565b6000806000606084860312156200094e57600080fd5b600084015167ffffffffffffffff8111156200096957600080fd5b6200097786828701620008dc565b93505060206200098a86828701620008c5565b92505060406200099d86828701620008c5565b9150509250925092565b6000620009b6602f8362000b82565b91507f416363657373436f6e74726f6c3a2073656e646572206d75737420626520616e60008301527f2061646d696e20746f206772616e7400000000000000000000000000000000006020830152604082019050919050565b600062000a1e601b8362000b82565b91507f536166654d6174683a206164646974696f6e206f766572666c6f7700000000006000830152602082019050919050565b600062000a60601f8362000b82565b91507f45524332303a206d696e7420746f20746865207a65726f2061646472657373006000830152602082019050919050565b62000a9e8162000bc7565b82525050565b6000602082019050818103600083015262000abf81620009a7565b9050919050565b6000602082019050818103600083015262000ae18162000a0f565b9050919050565b6000602082019050818103600083015262000b038162000a51565b9050919050565b600060208201905062000b21600083018462000a93565b92915050565b6000604051905081810181811067ffffffffffffffff8211171562000b4b57600080fd5b8060405250919050565b600067ffffffffffffffff82111562000b6d57600080fd5b601f19601f8301169050602081019050919050565b600082825260208201905092915050565b600062000ba08262000ba7565b9050919050565b600073ffffffffffffffffffffffffffffffffffffffff82169050919050565b6000819050919050565b60005b8381101562000bf157808201518184015260208101905062000bd4565b8381111562000c01576000848401525b50505050565b62000c128162000b93565b811462000c1e57600080fd5b50565b6147f18062000c316000396000f3fe608060405234801561001057600080fd5b50600436106103785760003560e01c806387a140c3116101d3578063c135baed11610104578063d698477f116100a2578063dd62ed3e1161007c578063dd62ed3e14610a27578063df9990b914610a57578063f22d372c14610a75578063f2569dae14610a9357610378565b8063d698477f146109c9578063d914cd4b146109ed578063dc6663c714610a0957610378565b8063cb73999f116100de578063cb73999f14610955578063ccfa52b614610973578063d2d97b061461098f578063d547741f146109ad57610378565b8063c135baed146108e9578063c3355b8d14610907578063ca15c8731461092557610378565b8063a217fddf11610171578063a8a778ae1161014b578063a8a778ae14610877578063a9059cbb14610893578063b4f56b26146108c3578063bef40ec8146108df57610378565b8063a217fddf1461080d578063a3574da11461082b578063a457c2d71461084757610378565b80639010d07c116101ad5780639010d07c1461077357806391d14854146107a357806395d89b41146107d3578063a0712d68146107f157610378565b806387a140c3146107195780638b7b7b08146107375780638efca7cc1461075557610378565b80633b7d0946116102ad578063545055171161024b57806370a082311161022557806370a082311461069357806379cc6790146106c35780637c516ff6146106df5780637dbc1df0146106fd57610378565b806354505517146106295780635db57527146106475780637065cb481461067757610378565b8063499c6ca211610287578063499c6ca2146105b35780634bd0be23146105cf57806351e238e3146105ed57806353cf3b211461060b57610378565b80633b7d0946146105715780634013124a1461058d57806342966c681461059757610378565b8063248a9ca31161031a578063313ce567116102f4578063313ce567146104e957806335467d5d1461050757806336568abe14610525578063395093511461054157610378565b8063248a9ca31461047f5780632eb9771b146104af5780632f2ff15d146104cd57610378565b8063173825d911610356578063173825d9146103f957806318160ddd14610415578063238a47091461043357806323b872dd1461044f57610378565b8063025e7c271461037d578063095ea7b3146103ad57806311e585ed146103dd575b600080fd5b61039760048036038101906103929190613c14565b610aaf565b6040516103a4919061429b565b60405180910390f35b6103c760048036038101906103c29190613afb565b610aeb565b6040516103d491906142df565b60405180910390f35b6103f760048036038101906103f29190613a47565b610b09565b005b610413600480360381019061040e9190613a47565b610c21565b005b61041d610ddd565b60405161042a9190614537565b60405180910390f35b61044d60048036038101906104489190613c14565b610de7565b005b61046960048036038101906104649190613aac565b610ec5565b60405161047691906142df565b60405180910390f35b61049960048036038101906104949190613b37565b610f9e565b6040516104a691906142fa565b60405180910390f35b6104b7610fbe565b6040516104c49190614537565b60405180910390f35b6104e760048036038101906104e29190613b60565b610fc4565b005b6104f1611038565b6040516104fe91906145c1565b60405180910390f35b61050f61104b565b60405161051c919061429b565b60405180910390f35b61053f600480360381019061053a9190613b60565b611071565b005b61055b60048036038101906105569190613afb565b6110f4565b60405161056891906142df565b60405180910390f35b61058b60048036038101906105869190613a47565b6111a7565b005b6105956113b2565b005b6105b160048036038101906105ac9190613c14565b6114dc565b005b6105cd60048036038101906105c89190613a70565b6114f0565b005b6105d761168b565b6040516105e4919061429b565b60405180910390f35b6105f56116b1565b6040516106029190614537565b60405180910390f35b6106136116b7565b604051610620919061429b565b60405180910390f35b6106316116dd565b60405161063e91906142fa565b60405180910390f35b610661600480360381019061065c9190613a47565b611701565b60405161066e91906142df565b60405180910390f35b610691600480360381019061068c9190613a47565b611721565b005b6106ad60048036038101906106a89190613a47565b61185b565b6040516106ba9190614537565b60405180910390f35b6106dd60048036038101906106d89190613afb565b6118a3565b005b6106e7611905565b6040516106f4919061429b565b60405180910390f35b61071760048036038101906107129190613c14565b61192b565b005b610721611a09565b60405161072e91906142df565b60405180910390f35b61073f611a1c565b60405161074c919061429b565b60405180910390f35b61075d611a42565b60405161076a9190614537565b60405180910390f35b61078d60048036038101906107889190613b9c565b611a4c565b60405161079a919061429b565b60405180910390f35b6107bd60048036038101906107b89190613b60565b611a7e565b6040516107ca91906142df565b60405180910390f35b6107db611ab0565b6040516107e89190614315565b60405180910390f35b61080b60048036038101906108069190613c14565b611b4e565b005b610815611c2f565b60405161082291906142fa565b60405180910390f35b61084560048036038101906108409190613a70565b611c36565b005b610861600480360381019061085c9190613afb565b611dd1565b60405161086e91906142df565b60405180910390f35b610891600480360381019061088c9190613afb565b611e9e565b005b6108ad60048036038101906108a89190613afb565b611fa4565b6040516108ba91906142df565b60405180910390f35b6108dd60048036038101906108d89190613afb565b611fc2565b005b6108e7612063565b005b6108f16120c2565b6040516108fe919061429b565b60405180910390f35b61090f6120e8565b60405161091c9190614537565b60405180910390f35b61093f600480360381019061093a9190613b37565b6120ee565b60405161094c9190614537565b60405180910390f35b61095d612115565b60405161096a9190614537565b60405180910390f35b61098d60048036038101906109889190613bd8565b61211b565b005b61099761227d565b6040516109a49190614537565b60405180910390f35b6109c760048036038101906109c29190613b60565b6123ce565b005b6109d1612442565b6040516109e49796959493929190614552565b60405180910390f35b610a076004803603810190610a029190613a47565b612491565b005b610a11612623565b604051610a1e919061429b565b60405180910390f35b610a416004803603810190610a3c9190613a70565b612649565b604051610a4e9190614537565b60405180910390f35b610a5f6126d0565b604051610a6c9190614537565b60405180910390f35b610a7d6126da565b604051610a8a919061429b565b60405180910390f35b610aad6004803603810190610aa89190613bd8565b612700565b005b60088181548110610abc57fe5b906000526020600020016000915054906101000a900473ffffffffffffffffffffffffffffffffffffffff1681565b6000610aff610af86129e7565b84846129ef565b6001905092915050565b6000805b600880549050811015610b9b573373ffffffffffffffffffffffffffffffffffffffff1660088281548110610b3e57fe5b9060005260206000200160009054906101000a900473ffffffffffffffffffffffffffffffffffffffff1673ffffffffffffffffffffffffffffffffffffffff161415610b8e5760019150610b9b565b8080600101915050610b0d565b5080610bdc576040517f08c379a0000000000000000000000000000000000000000000000000000000008152600401610bd390614457565b60405180910390fd5b81600c60006101000a81548173ffffffffffffffffffffffffffffffffffffffff021916908373ffffffffffffffffffffffffffffffffffffffff1602179055505050565b6000805b600880549050811015610cb3573373ffffffffffffffffffffffffffffffffffffffff1660088281548110610c5657fe5b9060005260206000200160009054906101000a900473ffffffffffffffffffffffffffffffffffffffff1673ffffffffffffffffffffffffffffffffffffffff161415610ca65760019150610cb3565b8080600101915050610c25565b5080610cf4576040517f08c379a0000000000000000000000000000000000000000000000000000000008152600401610ceb90614457565b60405180910390fd5b60005b600880549050811015610dd8578273ffffffffffffffffffffffffffffffffffffffff1660088281548110610d2857fe5b9060005260206000200160009054906101000a900473ffffffffffffffffffffffffffffffffffffffff1673ffffffffffffffffffffffffffffffffffffffff161415610dcb57600060088281548110610d7e57fe5b9060005260206000200160006101000a81548173ffffffffffffffffffffffffffffffffffffffff021916908373ffffffffffffffffffffffffffffffffffffffff160217905550610dd8565b8080600101915050610cf7565b505050565b6000600254905090565b6000805b600880549050811015610e79573373ffffffffffffffffffffffffffffffffffffffff1660088281548110610e1c57fe5b9060005260206000200160009054906101000a900473ffffffffffffffffffffffffffffffffffffffff1673ffffffffffffffffffffffffffffffffffffffff161415610e6c5760019150610e79565b8080600101915050610deb565b5080610eba576040517f08c379a0000000000000000000000000000000000000000000000000000000008152600401610eb190614457565b60405180910390fd5b816017819055505050565b6000610ed2848484612bba565b610f9384610ede6129e7565b610f8e8560405180606001604052806028815260200161474b60289139600160008b73ffffffffffffffffffffffffffffffffffffffff1673ffffffffffffffffffffffffffffffffffffffff1681526020019081526020016000206000610f446129e7565b73ffffffffffffffffffffffffffffffffffffffff1673ffffffffffffffffffffffffffffffffffffffff16815260200190815260200160002054612e4f9092919063ffffffff16565b6129ef565b600190509392505050565b600060036000838152602001908152602001600020600201549050919050565b60155481565b610feb6003600084815260200190815260200160002060020154610fe66129e7565b611a7e565b61102a576040517f08c379a000000000000000000000000000000000000000000000000000000000815260040161102190614377565b60405180910390fd5b6110348282612eaa565b5050565b600760009054906101000a900460ff1681565b601860009054906101000a900473ffffffffffffffffffffffffffffffffffffffff1681565b6110796129e7565b73ffffffffffffffffffffffffffffffffffffffff168173ffffffffffffffffffffffffffffffffffffffff16146110e6576040517f08c379a00000000000000000000000000000000000000000000000000000000081526004016110dd906144f7565b60405180910390fd5b6110f08282612f3e565b5050565b600061119d6111016129e7565b8461119885600160006111126129e7565b73ffffffffffffffffffffffffffffffffffffffff1673ffffffffffffffffffffffffffffffffffffffff16815260200190815260200160002060008973ffffffffffffffffffffffffffffffffffffffff1673ffffffffffffffffffffffffffffffffffffffff1681526020019081526020016000205461293290919063ffffffff16565b6129ef565b6001905092915050565b6000805b600880549050811015611239573373ffffffffffffffffffffffffffffffffffffffff16600882815481106111dc57fe5b9060005260206000200160009054906101000a900473ffffffffffffffffffffffffffffffffffffffff1673ffffffffffffffffffffffffffffffffffffffff16141561122c5760019150611239565b80806001019150506111ab565b508061127a576040517f08c379a000000000000000000000000000000000000000000000000000000000815260040161127190614457565b60405180910390fd5b601460008373ffffffffffffffffffffffffffffffffffffffff1673ffffffffffffffffffffffffffffffffffffffff16815260200190815260200160002060006101000a81549060ff021916905560005b6013805490508110156113ad578273ffffffffffffffffffffffffffffffffffffffff16601382815481106112fd57fe5b9060005260206000200160009054906101000a900473ffffffffffffffffffffffffffffffffffffffff1673ffffffffffffffffffffffffffffffffffffffff1614156113a05760006013828154811061135357fe5b9060005260206000200160006101000a81548173ffffffffffffffffffffffffffffffffffffffff021916908373ffffffffffffffffffffffffffffffffffffffff1602179055506113ad565b80806001019150506112cc565b505050565b60001515601860149054906101000a900460ff16151514611408576040517f08c379a00000000000000000000000000000000000000000000000000000000081526004016113ff906144d7565b60405180910390fd5b610e106019544203101580156114285750620f4240611425611a42565b14155b61143157600080fd5b600061143b61227d565b905060008082141561145057600090506114d1565b61148061145b610ddd565b6114726305f5e10085612fd290919063ffffffff16565b61304290919063ffffffff16565b9050620f424061148e611a42565b11156114b4576114a96113888261308c90919063ffffffff16565b6015819055506114d0565b6114c96113888261293290919063ffffffff16565b6015819055505b5b426019819055505050565b6114ed6114e76129e7565b826130d6565b50565b6000805b600880549050811015611582573373ffffffffffffffffffffffffffffffffffffffff166008828154811061152557fe5b9060005260206000200160009054906101000a900473ffffffffffffffffffffffffffffffffffffffff1673ffffffffffffffffffffffffffffffffffffffff1614156115755760019150611582565b80806001019150506114f4565b50806115c3576040517f08c379a00000000000000000000000000000000000000000000000000000000081526004016115ba90614457565b60405180910390fd5b82600d60006101000a81548173ffffffffffffffffffffffffffffffffffffffff021916908373ffffffffffffffffffffffffffffffffffffffff16021790555082600460016101000a81548173ffffffffffffffffffffffffffffffffffffffff021916908373ffffffffffffffffffffffffffffffffffffffff16021790555081600f60006101000a81548173ffffffffffffffffffffffffffffffffffffffff021916908373ffffffffffffffffffffffffffffffffffffffff160217905550505050565b600a60009054906101000a900473ffffffffffffffffffffffffffffffffffffffff1681565b60115481565b600e60009054906101000a900473ffffffffffffffffffffffffffffffffffffffff1681565b7fb25402418ad555013210365a422f9f1206b2dd00719998db06f8a1fbe014641b81565b60146020528060005260406000206000915054906101000a900460ff1681565b6000805b6008805490508110156117b3573373ffffffffffffffffffffffffffffffffffffffff166008828154811061175657fe5b9060005260206000200160009054906101000a900473ffffffffffffffffffffffffffffffffffffffff1673ffffffffffffffffffffffffffffffffffffffff1614156117a657600191506117b3565b8080600101915050611725565b50806117f4576040517f08c379a00000000000000000000000000000000000000000000000000000000081526004016117eb90614457565b60405180910390fd5b6008829080600181540180825580915050600190039060005260206000200160009091909190916101000a81548173ffffffffffffffffffffffffffffffffffffffff021916908373ffffffffffffffffffffffffffffffffffffffff1602179055505050565b60008060008373ffffffffffffffffffffffffffffffffffffffff1673ffffffffffffffffffffffffffffffffffffffff168152602001908152602001600020549050919050565b60006118e282604051806060016040528060248152602001614773602491396118d3866118ce6129e7565b612649565b612e4f9092919063ffffffff16565b90506118f6836118f06129e7565b836129ef565b61190083836130d6565b505050565b600f60009054906101000a900473ffffffffffffffffffffffffffffffffffffffff1681565b6000805b6008805490508110156119bd573373ffffffffffffffffffffffffffffffffffffffff166008828154811061196057fe5b9060005260206000200160009054906101000a900473ffffffffffffffffffffffffffffffffffffffff1673ffffffffffffffffffffffffffffffffffffffff1614156119b057600191506119bd565b808060010191505061192f565b50806119fe576040517f08c379a00000000000000000000000000000000000000000000000000000000081526004016119f590614457565b60405180910390fd5b816016819055505050565b601860149054906101000a900460ff1681565b601060009054906101000a900473ffffffffffffffffffffffffffffffffffffffff1681565b60006103e8905090565b6000611a76826003600086815260200190815260200160002060000161328490919063ffffffff16565b905092915050565b6000611aa882600360008681526020019081526020016000206000016129b790919063ffffffff16565b905092915050565b60068054600181600116156101000203166002900480601f016020809104026020016040519081016040528092919081815260200182805460018160011615610100020316600290048015611b465780601f10611b1b57610100808354040283529160200191611b46565b820191906000526020600020905b815481529060010190602001808311611b2957829003601f168201915b505050505081565b6000805b600880549050811015611be0573373ffffffffffffffffffffffffffffffffffffffff1660088281548110611b8357fe5b9060005260206000200160009054906101000a900473ffffffffffffffffffffffffffffffffffffffff1673ffffffffffffffffffffffffffffffffffffffff161415611bd35760019150611be0565b8080600101915050611b52565b5080611c21576040517f08c379a0000000000000000000000000000000000000000000000000000000008152600401611c1890614457565b60405180910390fd5b611c2b338361329e565b5050565b6000801b81565b6000805b600880549050811015611cc8573373ffffffffffffffffffffffffffffffffffffffff1660088281548110611c6b57fe5b9060005260206000200160009054906101000a900473ffffffffffffffffffffffffffffffffffffffff1673ffffffffffffffffffffffffffffffffffffffff161415611cbb5760019150611cc8565b8080600101915050611c3a565b5080611d09576040517f08c379a0000000000000000000000000000000000000000000000000000000008152600401611d0090614457565b60405180910390fd5b82600e60006101000a81548173ffffffffffffffffffffffffffffffffffffffff021916908373ffffffffffffffffffffffffffffffffffffffff16021790555082600560006101000a81548173ffffffffffffffffffffffffffffffffffffffff021916908373ffffffffffffffffffffffffffffffffffffffff16021790555081600f60006101000a81548173ffffffffffffffffffffffffffffffffffffffff021916908373ffffffffffffffffffffffffffffffffffffffff160217905550505050565b6000611e94611dde6129e7565b84611e8f856040518060600160405280602581526020016147976025913960016000611e086129e7565b73ffffffffffffffffffffffffffffffffffffffff1673ffffffffffffffffffffffffffffffffffffffff16815260200190815260200160002060008a73ffffffffffffffffffffffffffffffffffffffff1673ffffffffffffffffffffffffffffffffffffffff16815260200190815260200160002054612e4f9092919063ffffffff16565b6129ef565b6001905092915050565b60011515601460003373ffffffffffffffffffffffffffffffffffffffff1673ffffffffffffffffffffffffffffffffffffffff16815260200190815260200160002060009054906101000a900460ff16151514611f31576040517f08c379a0000000000000000000000000000000000000000000000000000000008152600401611f28906143f7565b60405180910390fd5b611f3b8282613432565b3373ffffffffffffffffffffffffffffffffffffffff168273ffffffffffffffffffffffffffffffffffffffff167f31c93fe7635b2a3e2e4199fe7c40835f6419291455a32ac8dc20c4441d03eee883604051611f989190614537565b60405180910390a35050565b6000611fb8611fb16129e7565b8484612bba565b6001905092915050565b60011515601460003373ffffffffffffffffffffffffffffffffffffffff1673ffffffffffffffffffffffffffffffffffffffff16815260200190815260200160002060009054906101000a900460ff16151514612055576040517f08c379a000000000000000000000000000000000000000000000000000000000815260040161204c906143f7565b60405180910390fd5b61205f828261329e565b5050565b61208d7fb25402418ad555013210365a422f9f1206b2dd00719998db06f8a1fbe014641b33611a7e565b61209657600080fd5b601860149054906101000a900460ff1615601860146101000a81548160ff021916908315150217905550565b600c60009054906101000a900473ffffffffffffffffffffffffffffffffffffffff1681565b60175481565b600061210e60036000848152602001908152602001600020600001613501565b9050919050565b60165481565b6000805b6008805490508110156121ad573373ffffffffffffffffffffffffffffffffffffffff166008828154811061215057fe5b9060005260206000200160009054906101000a900473ffffffffffffffffffffffffffffffffffffffff1673ffffffffffffffffffffffffffffffffffffffff1614156121a057600191506121ad565b808060010191505061211f565b50806121ee576040517f08c379a00000000000000000000000000000000000000000000000000000000081526004016121e590614457565b60405180910390fd5b601260008460018111156121fe57fe5b600181111561220957fe5b8152602001908152602001600020829080600181540180825580915050600190039060005260206000200160009091909190916101000a81548173ffffffffffffffffffffffffffffffffffffffff021916908373ffffffffffffffffffffffffffffffffffffffff160217905550505050565b6000806000905060005b6013805490508110156123c657600073ffffffffffffffffffffffffffffffffffffffff16601382815481106122b957fe5b9060005260206000200160009054906101000a900473ffffffffffffffffffffffffffffffffffffffff1673ffffffffffffffffffffffffffffffffffffffff16146123b9576013818154811061230c57fe5b9060005260206000200160009054906101000a900473ffffffffffffffffffffffffffffffffffffffff1673ffffffffffffffffffffffffffffffffffffffff166317284c946040518163ffffffff1660e01b815260040160206040518083038186803b15801561237c57600080fd5b505afa158015612390573d6000803e3d6000fd5b505050506040513d601f19601f820116820180604052508101906123b49190613c3d565b820191505b8080600101915050612287565b508091505090565b6123f560036000848152602001908152602001600020600201546123f06129e7565b611a7e565b612434576040517f08c379a000000000000000000000000000000000000000000000000000000000815260040161242b90614417565b60405180910390fd5b61243e8282612f3e565b5050565b60008060008060008060006124576000613516565b6124616001613516565b612469610ddd565b60155461247461227d565b601754601654965096509650965096509650965090919293949596565b6000805b600880549050811015612523573373ffffffffffffffffffffffffffffffffffffffff16600882815481106124c657fe5b9060005260206000200160009054906101000a900473ffffffffffffffffffffffffffffffffffffffff1673ffffffffffffffffffffffffffffffffffffffff1614156125165760019150612523565b8080600101915050612495565b5080612564576040517f08c379a000000000000000000000000000000000000000000000000000000000815260040161255b90614457565b60405180910390fd5b6001601460008473ffffffffffffffffffffffffffffffffffffffff1673ffffffffffffffffffffffffffffffffffffffff16815260200190815260200160002060006101000a81548160ff0219169083151502179055506013829080600181540180825580915050600190039060005260206000200160009091909190916101000a81548173ffffffffffffffffffffffffffffffffffffffff021916908373ffffffffffffffffffffffffffffffffffffffff1602179055505050565b600b60009054906101000a900473ffffffffffffffffffffffffffffffffffffffff1681565b6000600160008473ffffffffffffffffffffffffffffffffffffffff1673ffffffffffffffffffffffffffffffffffffffff16815260200190815260200160002060008373ffffffffffffffffffffffffffffffffffffffff1673ffffffffffffffffffffffffffffffffffffffff16815260200190815260200160002054905092915050565b60006103e8905090565b600d60009054906101000a900473ffffffffffffffffffffffffffffffffffffffff1681565b6000805b600880549050811015612792573373ffffffffffffffffffffffffffffffffffffffff166008828154811061273557fe5b9060005260206000200160009054906101000a900473ffffffffffffffffffffffffffffffffffffffff1673ffffffffffffffffffffffffffffffffffffffff1614156127855760019150612792565b8080600101915050612704565b50806127d3576040517f08c379a00000000000000000000000000000000000000000000000000000000081526004016127ca90614457565b60405180910390fd5b60005b601260008560018111156127e657fe5b60018111156127f157fe5b81526020019081526020016000208054905081101561292c578273ffffffffffffffffffffffffffffffffffffffff166012600086600181111561283157fe5b600181111561283c57fe5b8152602001908152602001600020828154811061285557fe5b9060005260206000200160009054906101000a900473ffffffffffffffffffffffffffffffffffffffff1673ffffffffffffffffffffffffffffffffffffffff16141561291f576000601260008660018111156128ae57fe5b60018111156128b957fe5b815260200190815260200160002082815481106128d257fe5b9060005260206000200160006101000a81548173ffffffffffffffffffffffffffffffffffffffff021916908373ffffffffffffffffffffffffffffffffffffffff16021790555061292c565b80806001019150506127d6565b50505050565b60008082840190508381101561297d576040517f08c379a0000000000000000000000000000000000000000000000000000000008152600401612974906143b7565b60405180910390fd5b8091505092915050565b60006129af836000018373ffffffffffffffffffffffffffffffffffffffff1660001b61374f565b905092915050565b60006129df836000018373ffffffffffffffffffffffffffffffffffffffff1660001b6137bf565b905092915050565b600033905090565b600073ffffffffffffffffffffffffffffffffffffffff168373ffffffffffffffffffffffffffffffffffffffff161415612a5f576040517f08c379a0000000000000000000000000000000000000000000000000000000008152600401612a56906144b7565b60405180910390fd5b600073ffffffffffffffffffffffffffffffffffffffff168273ffffffffffffffffffffffffffffffffffffffff161415612acf576040517f08c379a0000000000000000000000000000000000000000000000000000000008152600401612ac690614397565b60405180910390fd5b80600160008573ffffffffffffffffffffffffffffffffffffffff1673ffffffffffffffffffffffffffffffffffffffff16815260200190815260200160002060008473ffffffffffffffffffffffffffffffffffffffff1673ffffffffffffffffffffffffffffffffffffffff168152602001908152602001600020819055508173ffffffffffffffffffffffffffffffffffffffff168373ffffffffffffffffffffffffffffffffffffffff167f8c5be1e5ebec7d5bd14f71427d1e84f3dd0314c0f7b2291e5b200ac8c7c3b92583604051612bad9190614537565b60405180910390a3505050565b600073ffffffffffffffffffffffffffffffffffffffff168373ffffffffffffffffffffffffffffffffffffffff161415612c2a576040517f08c379a0000000000000000000000000000000000000000000000000000000008152600401612c2190614497565b60405180910390fd5b600073ffffffffffffffffffffffffffffffffffffffff168273ffffffffffffffffffffffffffffffffffffffff161415612c9a576040517f08c379a0000000000000000000000000000000000000000000000000000000008152600401612c9190614357565b60405180910390fd5b612ca58383836137e2565b612d1081604051806060016040528060268152602001614725602691396000808773ffffffffffffffffffffffffffffffffffffffff1673ffffffffffffffffffffffffffffffffffffffff16815260200190815260200160002054612e4f9092919063ffffffff16565b6000808573ffffffffffffffffffffffffffffffffffffffff1673ffffffffffffffffffffffffffffffffffffffff16815260200190815260200160002081905550612da3816000808573ffffffffffffffffffffffffffffffffffffffff1673ffffffffffffffffffffffffffffffffffffffff1681526020019081526020016000205461293290919063ffffffff16565b6000808473ffffffffffffffffffffffffffffffffffffffff1673ffffffffffffffffffffffffffffffffffffffff168152602001908152602001600020819055508173ffffffffffffffffffffffffffffffffffffffff168373ffffffffffffffffffffffffffffffffffffffff167fddf252ad1be2c89b69c2b068fc378daa952ba7f163c4a11628f55a4df523b3ef83604051612e429190614537565b60405180910390a3505050565b6000838311158290612e97576040517f08c379a0000000000000000000000000000000000000000000000000000000008152600401612e8e9190614315565b60405180910390fd5b5060008385039050809150509392505050565b612ed2816003600085815260200190815260200160002060000161298790919063ffffffff16565b15612f3a57612edf6129e7565b73ffffffffffffffffffffffffffffffffffffffff168173ffffffffffffffffffffffffffffffffffffffff16837f2f8788117e7eff1d82e926ec794901d17c78024a50270940304540a733656f0d60405160405180910390a45b5050565b612f6681600360008581526020019081526020016000206000016137e790919063ffffffff16565b15612fce57612f736129e7565b73ffffffffffffffffffffffffffffffffffffffff168173ffffffffffffffffffffffffffffffffffffffff16837ff6391f5c32d9c69d2a47ea670b442974b53935d1edc7fd64eb21e047a839171b60405160405180910390a45b5050565b600080831415612fe5576000905061303c565b6000828402905082848281612ff657fe5b0414613037576040517f08c379a000000000000000000000000000000000000000000000000000000000815260040161302e90614437565b60405180910390fd5b809150505b92915050565b600061308483836040518060400160405280601a81526020017f536166654d6174683a206469766973696f6e206279207a65726f000000000000815250613817565b905092915050565b60006130ce83836040518060400160405280601e81526020017f536166654d6174683a207375627472616374696f6e206f766572666c6f770000815250612e4f565b905092915050565b600073ffffffffffffffffffffffffffffffffffffffff168273ffffffffffffffffffffffffffffffffffffffff161415613146576040517f08c379a000000000000000000000000000000000000000000000000000000000815260040161313d90614477565b60405180910390fd5b613152826000836137e2565b6131bd81604051806060016040528060228152602001614703602291396000808673ffffffffffffffffffffffffffffffffffffffff1673ffffffffffffffffffffffffffffffffffffffff16815260200190815260200160002054612e4f9092919063ffffffff16565b6000808473ffffffffffffffffffffffffffffffffffffffff1673ffffffffffffffffffffffffffffffffffffffff168152602001908152602001600020819055506132148160025461308c90919063ffffffff16565b600281905550600073ffffffffffffffffffffffffffffffffffffffff168273ffffffffffffffffffffffffffffffffffffffff167fddf252ad1be2c89b69c2b068fc378daa952ba7f163c4a11628f55a4df523b3ef836040516132789190614537565b60405180910390a35050565b60006132938360000183613878565b60001c905092915050565b600073ffffffffffffffffffffffffffffffffffffffff168273ffffffffffffffffffffffffffffffffffffffff16141561330e576040517f08c379a000000000000000000000000000000000000000000000000000000000815260040161330590614517565b60405180910390fd5b61331a600083836137e2565b61332f8160025461293290919063ffffffff16565b600281905550613386816000808573ffffffffffffffffffffffffffffffffffffffff1673ffffffffffffffffffffffffffffffffffffffff1681526020019081526020016000205461293290919063ffffffff16565b6000808473ffffffffffffffffffffffffffffffffffffffff1673ffffffffffffffffffffffffffffffffffffffff168152602001908152602001600020819055508173ffffffffffffffffffffffffffffffffffffffff16600073ffffffffffffffffffffffffffffffffffffffff167fddf252ad1be2c89b69c2b068fc378daa952ba7f163c4a11628f55a4df523b3ef836040516134269190614537565b60405180910390a35050565b61343c82826130d6565b6134fd826134486129e7565b6134f88460405180606001604052806024815260200161477360249139600160008973ffffffffffffffffffffffffffffffffffffffff1673ffffffffffffffffffffffffffffffffffffffff16815260200190815260200160002060006134ae6129e7565b73ffffffffffffffffffffffffffffffffffffffff1673ffffffffffffffffffffffffffffffffffffffff16815260200190815260200160002054612e4f9092919063ffffffff16565b6129ef565b5050565b600061350f826000016138e5565b9050919050565b6000806000600181111561352657fe5b83600181111561353257fe5b141561361257600460019054906101000a900473ffffffffffffffffffffffffffffffffffffffff1673ffffffffffffffffffffffffffffffffffffffff16633ddac953600f60009054906101000a900473ffffffffffffffffffffffffffffffffffffffff166305f5e1006040518363ffffffff1660e01b81526004016135bb9291906142b6565b60206040518083038186803b1580156135d357600080fd5b505afa1580156135e7573d6000803e3d6000fd5b505050506040513d601f19601f8201168201806040525081019061360b9190613c3d565b9050613746565b60018081111561361e57fe5b83600181111561362a57fe5b141561370a57600560009054906101000a900473ffffffffffffffffffffffffffffffffffffffff1673ffffffffffffffffffffffffffffffffffffffff16633ddac953600f60009054906101000a900473ffffffffffffffffffffffffffffffffffffffff166305f5e1006040518363ffffffff1660e01b81526004016136b39291906142b6565b60206040518083038186803b1580156136cb57600080fd5b505afa1580156136df573d6000803e3d6000fd5b505050506040513d601f19601f820116820180604052508101906137039190613c3d565b9050613745565b6040517f08c379a000000000000000000000000000000000000000000000000000000000815260040161373c906143d7565b60405180910390fd5b5b80915050919050565b600061375b83836137bf565b6137b45782600001829080600181540180825580915050600190039060005260206000200160009091909190915055826000018054905083600101600084815260200190815260200160002081905550600190506137b9565b600090505b92915050565b600080836001016000848152602001908152602001600020541415905092915050565b505050565b600061380f836000018373ffffffffffffffffffffffffffffffffffffffff1660001b6138f6565b905092915050565b6000808311829061385e576040517f08c379a00000000000000000000000000000000000000000000000000000000081526004016138559190614315565b60405180910390fd5b50600083858161386a57fe5b049050809150509392505050565b6000818360000180549050116138c3576040517f08c379a00000000000000000000000000000000000000000000000000000000081526004016138ba90614337565b60405180910390fd5b8260000182815481106138d257fe5b9060005260206000200154905092915050565b600081600001805490509050919050565b600080836001016000848152602001908152602001600020549050600081146139d2576000600182039050600060018660000180549050039050600086600001828154811061394157fe5b906000526020600020015490508087600001848154811061395e57fe5b906000526020600020018190555060018301876001016000838152602001908152602001600020819055508660000180548061399657fe5b600190038181906000526020600020016000905590558660010160008781526020019081526020016000206000905560019450505050506139d8565b60009150505b92915050565b6000813590506139ed816146ad565b92915050565b600081359050613a02816146c4565b92915050565b600081359050613a17816146db565b92915050565b600081359050613a2c816146eb565b92915050565b600081519050613a41816146eb565b92915050565b600060208284031215613a5957600080fd5b6000613a67848285016139de565b91505092915050565b60008060408385031215613a8357600080fd5b6000613a91858286016139de565b9250506020613aa2858286016139de565b9150509250929050565b600080600060608486031215613ac157600080fd5b6000613acf868287016139de565b9350506020613ae0868287016139de565b9250506040613af186828701613a1d565b9150509250925092565b60008060408385031215613b0e57600080fd5b6000613b1c858286016139de565b9250506020613b2d85828601613a1d565b9150509250929050565b600060208284031215613b4957600080fd5b6000613b57848285016139f3565b91505092915050565b60008060408385031215613b7357600080fd5b6000613b81858286016139f3565b9250506020613b92858286016139de565b9150509250929050565b60008060408385031215613baf57600080fd5b6000613bbd858286016139f3565b9250506020613bce85828601613a1d565b9150509250929050565b60008060408385031215613beb57600080fd5b6000613bf985828601613a08565b9250506020613c0a858286016139de565b9150509250929050565b600060208284031215613c2657600080fd5b6000613c3484828501613a1d565b91505092915050565b600060208284031215613c4f57600080fd5b6000613c5d84828501613a32565b91505092915050565b613c6f816145f8565b82525050565b613c7e8161460a565b82525050565b613c8d81614616565b82525050565b613c9c81614657565b82525050565b6000613cad826145dc565b613cb781856145e7565b9350613cc7818560208601614669565b613cd08161469c565b840191505092915050565b6000613ce86022836145e7565b91507f456e756d657261626c655365743a20696e646578206f7574206f6620626f756e60008301527f64730000000000000000000000000000000000000000000000000000000000006020830152604082019050919050565b6000613d4e6023836145e7565b91507f45524332303a207472616e7366657220746f20746865207a65726f206164647260008301527f65737300000000000000000000000000000000000000000000000000000000006020830152604082019050919050565b6000613db4602f836145e7565b91507f416363657373436f6e74726f6c3a2073656e646572206d75737420626520616e60008301527f2061646d696e20746f206772616e7400000000000000000000000000000000006020830152604082019050919050565b6000613e1a6022836145e7565b91507f45524332303a20617070726f766520746f20746865207a65726f20616464726560008301527f73730000000000000000000000000000000000000000000000000000000000006020830152604082019050919050565b6000613e80601b836145e7565b91507f536166654d6174683a206164646974696f6e206f766572666c6f7700000000006000830152602082019050919050565b6000613ec0603c836145e7565b91507f494e56414c49442050524943452043484f4943452e204e6565647320746f206260008301527f65206569746865722030202858454229206f72203120285845534829000000006020830152604082019050919050565b6000613f26601f836145e7565b91507f4f6e6c792078656220706f6f6c732063616e206d696e74206e657720584542006000830152602082019050919050565b6000613f666030836145e7565b91507f416363657373436f6e74726f6c3a2073656e646572206d75737420626520616e60008301527f2061646d696e20746f207265766f6b65000000000000000000000000000000006020830152604082019050919050565b6000613fcc6021836145e7565b91507f536166654d6174683a206d756c7469706c69636174696f6e206f766572666c6f60008301527f77000000000000000000000000000000000000000000000000000000000000006020830152604082019050919050565b60006140326013836145e7565b91507f596f75277265206e6f7420616e206f776e6572000000000000000000000000006000830152602082019050919050565b60006140726021836145e7565b91507f45524332303a206275726e2066726f6d20746865207a65726f2061646472657360008301527f73000000000000000000000000000000000000000000000000000000000000006020830152604082019050919050565b60006140d86025836145e7565b91507f45524332303a207472616e736665722066726f6d20746865207a65726f20616460008301527f64726573730000000000000000000000000000000000000000000000000000006020830152604082019050919050565b600061413e6024836145e7565b91507f45524332303a20617070726f76652066726f6d20746865207a65726f2061646460008301527f72657373000000000000000000000000000000000000000000000000000000006020830152604082019050919050565b60006141a46020836145e7565b91507f436f6c6c61746572616c20526174696f20686173206265656e207061757365646000830152602082019050919050565b60006141e4602f836145e7565b91507f416363657373436f6e74726f6c3a2063616e206f6e6c792072656e6f756e636560008301527f20726f6c657320666f722073656c6600000000000000000000000000000000006020830152604082019050919050565b600061424a601f836145e7565b91507f45524332303a206d696e7420746f20746865207a65726f2061646472657373006000830152602082019050919050565b61428681614640565b82525050565b6142958161464a565b82525050565b60006020820190506142b06000830184613c66565b92915050565b60006040820190506142cb6000830185613c66565b6142d86020830184613c93565b9392505050565b60006020820190506142f46000830184613c75565b92915050565b600060208201905061430f6000830184613c84565b92915050565b6000602082019050818103600083015261432f8184613ca2565b905092915050565b6000602082019050818103600083015261435081613cdb565b9050919050565b6000602082019050818103600083015261437081613d41565b9050919050565b6000602082019050818103600083015261439081613da7565b9050919050565b600060208201905081810360008301526143b081613e0d565b9050919050565b600060208201905081810360008301526143d081613e73565b9050919050565b600060208201905081810360008301526143f081613eb3565b9050919050565b6000602082019050818103600083015261441081613f19565b9050919050565b6000602082019050818103600083015261443081613f59565b9050919050565b6000602082019050818103600083015261445081613fbf565b9050919050565b6000602082019050818103600083015261447081614025565b9050919050565b6000602082019050818103600083015261449081614065565b9050919050565b600060208201905081810360008301526144b0816140cb565b9050919050565b600060208201905081810360008301526144d081614131565b9050919050565b600060208201905081810360008301526144f081614197565b9050919050565b60006020820190508181036000830152614510816141d7565b9050919050565b600060208201905081810360008301526145308161423d565b9050919050565b600060208201905061454c600083018461427d565b92915050565b600060e082019050614567600083018a61427d565b614574602083018961427d565b614581604083018861427d565b61458e606083018761427d565b61459b608083018661427d565b6145a860a083018561427d565b6145b560c083018461427d565b98975050505050505050565b60006020820190506145d6600083018461428c565b92915050565b600081519050919050565b600082825260208201905092915050565b600061460382614620565b9050919050565b60008115159050919050565b6000819050919050565b600073ffffffffffffffffffffffffffffffffffffffff82169050919050565b6000819050919050565b600060ff82169050919050565b600061466282614640565b9050919050565b60005b8381101561468757808201518184015260208101905061466c565b83811115614696576000848401525b50505050565b6000601f19601f8301169050919050565b6146b6816145f8565b81146146c157600080fd5b50565b6146cd81614616565b81146146d857600080fd5b50565b600281106146e857600080fd5b50565b6146f481614640565b81146146ff57600080fd5b5056fe45524332303a206275726e20616d6f756e7420657863656564732062616c616e636545524332303a207472616e7366657220616d6f756e7420657863656564732062616c616e636545524332303a207472616e7366657220616d6f756e74206578636565647320616c6c6f77616e636545524332303a206275726e20616d6f756e74206578636565647320616c6c6f77616e636545524332303a2064656372656173656420616c6c6f77616e63652062656c6f77207a65726fa2646970667358221220e9114bb034270e3be0ee509ca9e0d16cd9c947a237368413c23d24b1d92607ee64736f6c634300060c0033",
  "immutableReferences": {},
  "source": "// SPDX-License-Identifier: MIT\npragma solidity ^0.6.0 <0.7.0;\npragma experimental ABIEncoderV2;\n\nimport \"../Common/Context.sol\";\nimport \"../ERC20/IERC20.sol\";\nimport \"../ERC20/ERC20Custom.sol\";\nimport \"../ERC20/ERC20.sol\";\nimport \"../Math/SafeMath.sol\";\nimport \"../Xesh/XESH.sol\";\nimport \"./Pools/XebPool.sol\";\nimport \"../Oracle/UniswapPairOracle.sol\";\n// import \"../Oracle/ChainlinkETHUSDPriceConsumer.sol\";\nimport \"../Governance/AccessControl.sol\";\n\ncontract XEBECStablecoin is ERC20Custom, AccessControl {\n    using SafeMath for uint256;\n\n    /* ========== STATE VARIABLES ========== */\n    enum PriceChoice { XEB, XESH }\n    PriceChoice price_choices;\n    // ChainlinkETHUSDPriceConsumer wbtc_usd_pricer;\n    // uint8 wbtc_usd_pricer_decimals;\n    UniswapPairOracle xebWbtcOracle;\n    UniswapPairOracle xeshWbtcOracle;\n    string public symbol;\n    uint8 public decimals = 8;\n    address[] public owners;\n    address governance_address;\n    address public creator_address;\n    address public timelock_address;\n    address public xesh_address;\n    address public xeb_wbtc_oracle_address;\n    address public xesh_wbtc_oracle_address;\n    address public wbtc_address;\n    address public wbtc_usd_consumer_address;\n    uint256 public genesis_supply = 1000000e18; // 1M. This is to help with establishing the Uniswap pools, as they need liquidity\n\n    mapping(PriceChoice => address[]) private stablecoin_oracles; // \n\n    // The addresses in this array are added by the oracle and these contracts are able to mint xeb\n    address[] xeb_pools_array;\n\n    // Mapping is also used for faster verification\n    mapping(address => bool) public xeb_pools; \n    \n    uint256 public global_collateral_ratio; // 6 decimals of precision, e.g. 924102 = 0.924102\n    uint256 public redemption_fee; // 6 decimals of precision, divide by 1000000 in calculations for fee\n    uint256 public minting_fee; // 6 decimals of precision, divide by 1000000 in calculations for fee\n\n    address public DEFAULT_ADMIN_ADDRESS;\n    bytes32 public constant COLLATERAL_RATIO_PAUSER = keccak256(\"COLLATERAL_RATIO_PAUSER\");\n    bool public collateral_ratio_paused = false;\n\n    /* ========== MODIFIERS ========== */\n\n    modifier onlyCollateralRatioPauser() {\n        require(hasRole(COLLATERAL_RATIO_PAUSER, msg.sender));\n        _;\n    }\n\n    modifier onlyPools() {\n       require(xeb_pools[msg.sender] == true, \"Only xeb pools can mint new XEB\");\n        _;\n    } \n    \n    modifier onlyByGovernance() {\n        require(msg.sender == governance_address, \"You're not the governance contract :p\");\n        _;\n    }\n\n    modifier onlyByOwnerOrGovernance() {\n        // Loop through the owners until one is found\n        bool found = false;\n        for (uint i = 0; i < owners.length; i++){ \n            if (owners[i] == msg.sender) {\n                found = true;\n                break;\n            }\n        }\n        require(found, \"You're not an owner\");\n        _;\n    }\n\n    /* ========== CONSTRUCTOR ========== */\n\n    constructor(\n        string memory _symbol,\n        address _creator_address,\n        address _timelock_address\n    ) public {\n        symbol = _symbol;\n        creator_address = _creator_address;\n        timelock_address = _timelock_address;\n        _setupRole(DEFAULT_ADMIN_ROLE, _msgSender());\n        DEFAULT_ADMIN_ADDRESS = _msgSender();\n        owners.push(creator_address);\n        owners.push(timelock_address);\n        _mint(creator_address, genesis_supply);\n        grantRole(COLLATERAL_RATIO_PAUSER, creator_address);\n        grantRole(COLLATERAL_RATIO_PAUSER, timelock_address);\n    }\n\n    /* ========== VIEWS ========== */\n\n    // Choice = 'XEB' or 'XESH' for now\n    function oracle_price(PriceChoice choice) internal view returns (uint256) {\n        // Get the ETH / USD price first, and cut it down to 1e8 precision\n        // uint256 wbtc_usd_price = uint256(wbtc_usd_pricer.getLatestPrice()).mul(1e8).div(uint256(10) ** wbtc_usd_pricer_decimals);\n        uint256 price_vs_wbtc;\n\n        if (choice == PriceChoice.XEB) {\n            price_vs_wbtc = uint256(xebWbtcOracle.consult(wbtc_address, 1e8));\n        }\n        else if (choice == PriceChoice.XESH) {\n            price_vs_wbtc = uint256(xeshWbtcOracle.consult(wbtc_address, 1e8));\n        }\n        else revert(\"INVALID PRICE CHOICE. Needs to be either 0 (XEB) or 1 (XESH)\");\n\n        // Will be in 1e8 format\n        return price_vs_wbtc;\n    }\n\n    // Returns X XEB = 1000 satoshis\n    function xeb_price() public view returns (uint256) {\n        return 1000;\n    }\n\n    // Returns X XESH = 1 USD\n    function xesh_price()  public view returns (uint256) {\n        return 1000;\n    }\n\n    // This is needed to avoid costly repeat calls to different getter functions\n    // It is cheaper gas-wise to just dump everything and only use some of the info\n    function xeb_info() public view returns (uint256, uint256, uint256, uint256, uint256, uint256, uint256) {\n        return (\n            oracle_price(PriceChoice.XEB), // xeb_price()\n            oracle_price(PriceChoice.XESH), // xesh_price()\n            totalSupply(), // totalSupply()\n            global_collateral_ratio, // global_collateral_ratio()\n            globalCollateralValue(), // globalCollateralValue\n            minting_fee, // minting_fee()\n            redemption_fee // redemption_fee()\n        );\n    }\n\n    // Iterate through all xeb pools and calculate all value of collateral in all pools globally \n    function globalCollateralValue() public view returns (uint256) {\n        uint256 total_collateral_value_d8 = 0; \n\n        for (uint i = 0; i < xeb_pools_array.length; i++){ \n            // Exclude null addresses\n            if (xeb_pools_array[i] != address(0)){\n                total_collateral_value_d8 += XebPool(xeb_pools_array[i]).collatDollarBalance();\n            }\n\n        }\n        return total_collateral_value_d8;\n    }\n\n    /* ========== PUBLIC FUNCTIONS ========== */\n    \n    // There needs to be a time interval that this can be called. Otherwise it can be called multiple times per expansion.\n    uint256 last_call_time; // Last time the refreshCollateralRatio function was called\n    function refreshCollateralRatio() public {\n        require(collateral_ratio_paused == false, \"Collateral Ratio has been paused\");\n        require(block.timestamp - last_call_time >= 3600 && xeb_price() != 1000000);  // 3600 seconds means can be called once per hour, 86400 seconds is per day, callable only if XEB price is not $1\n        \n        uint256 tot_collat_value =  globalCollateralValue();\n\n        // If tot_collat_value > totalSupply(), this will truncate to 0 and underflow below.\n        // Need to multiply by 1e8 to avoid this issue and divide by 1e8 later when used in other places\n        // uint256 globalC_ratio = (totalSupply().mul(1e8)).div(tot_collat_value); \n        uint256 globalC_ratio;\n        if (tot_collat_value == 0) globalC_ratio = 0;\n        else {\n            globalC_ratio = (tot_collat_value.mul(1e8)).div(totalSupply()); \n            \n            // Step increments are .5% \n            if (xeb_price() > 1000000) {\n                global_collateral_ratio = globalC_ratio.sub(5000);\n            }    \n            else {\n                global_collateral_ratio = globalC_ratio.add(5000);\n            }\n        }\n\n\n        last_call_time = block.timestamp; // Set the time of the last expansion\n    }\n\n    /* ========== RESTRICTED FUNCTIONS ========== */\n\n    // Public implementation of internal _mint()\n    function mint(uint256 amount) public virtual onlyByOwnerOrGovernance {\n        _mint(msg.sender, amount);\n    }\n\n    // Used by pools when user redeems\n    function pool_burn_from(address b_address, uint256 b_amount) public onlyPools {\n        super._burnFrom(b_address, b_amount);\n        emit XEBBurned(b_address, msg.sender, b_amount);\n    }\n\n    // This function is what other xeb pools will call to mint new XEB \n    function pool_mint(address m_address, uint256 m_amount) public onlyPools {\n        super._mint(m_address, m_amount);\n    }\n\n    // Adds collateral addresses supported, such as tether and busd, must be ERC20 \n    function addPool(address pool_address) public onlyByOwnerOrGovernance {\n        xeb_pools[pool_address] = true; \n        xeb_pools_array.push(pool_address);\n    }\n\n    // Remove a pool \n    function removePool(address pool_address) public onlyByOwnerOrGovernance {\n        // Delete from the mapping\n        delete xeb_pools[pool_address];\n\n        // 'Delete' from the array by setting the address to 0x0\n        for (uint i = 0; i < xeb_pools_array.length; i++){ \n            if (xeb_pools_array[i] == pool_address) {\n                xeb_pools_array[i] = address(0); // This will leave a null in the array and keep the indices the same\n                break;\n            }\n        }\n    }\n\n    // Adds a new stablecoin oracle \n    function addStablecoinOracle(PriceChoice choice, address oracle_address) public onlyByOwnerOrGovernance {\n        stablecoin_oracles[choice].push(oracle_address);\n    }\n\n    // Removes an oracle \n    function removeStablecoinOracle(PriceChoice choice, address oracle_address) public onlyByOwnerOrGovernance {\n        // 'Delete' from the array by setting the address to 0x0\n        for (uint i = 0; i < stablecoin_oracles[choice].length; i++){ \n            if (stablecoin_oracles[choice][i] == oracle_address) {\n                stablecoin_oracles[choice][i] = address(0); // This will leave a null in the array and keep the indices the same\n                break;\n            }\n        }\n    }\n\n    // Adds an owner \n    function addOwner(address owner_address) public onlyByOwnerOrGovernance {\n        owners.push(owner_address);\n    }\n\n    // Removes an owner \n    function removeOwner(address owner_address) public onlyByOwnerOrGovernance {\n        // 'Delete' from the array by setting the address to 0x0\n        for (uint i = 0; i < owners.length; i++){ \n            if (owners[i] == owner_address) {\n                owners[i] = address(0); // This will leave a null in the array and keep the indices the same\n                break;\n            }\n        }\n    }\n\n    function setRedemptionFee(uint256 red_fee) public onlyByOwnerOrGovernance {\n        redemption_fee = red_fee;\n    }\n\n    function setMintingFee(uint256 min_fee) public onlyByOwnerOrGovernance {\n        minting_fee = min_fee;\n    }  \n\n    function setXESHAddress(address _xesh_address) public onlyByOwnerOrGovernance {\n        xesh_address = _xesh_address;\n    }\n\n    // function setETHUSDOracle(address _eth_usd_consumer_address) public onlyByOwnerOrGovernance {\n    //     eth_usd_consumer_address = _eth_usd_consumer_address;\n    //     eth_usd_pricer = ChainlinkETHUSDPriceConsumer(eth_usd_consumer_address);\n    //     eth_usd_pricer_decimals = eth_usd_pricer.getDecimals();\n    // }\n\n    // Sets the XEB_ETH Uniswap oracle address \n    function setXEBWbtcOracle(address _xeb_addr, address _wbtc_address) public onlyByOwnerOrGovernance {\n        xeb_wbtc_oracle_address = _xeb_addr;\n        xebWbtcOracle = UniswapPairOracle(_xeb_addr); \n        wbtc_address = _wbtc_address;\n    }\n\n    // Sets the XESH_ETH Uniswap oracle address \n    function setXESHWbtcOracle(address _xesh_addr, address _wbtc_address) public onlyByOwnerOrGovernance {\n        xesh_wbtc_oracle_address = _xesh_addr;\n        xeshWbtcOracle = UniswapPairOracle(_xesh_addr);\n        wbtc_address = _wbtc_address;\n    }\n\n    function toggleCollateralRatio() public onlyCollateralRatioPauser {\n        collateral_ratio_paused = !collateral_ratio_paused;\n    }\n\n    /* ========== EVENTS ========== */\n\n    // Track XESH burned\n    event XEBBurned(address indexed from, address indexed to, uint256 amount);\n}\n",
  "sourcePath": "/Users/abdulhafiz/Documents/projects/xeb/defi_fraxlink_contract/contracts/Xeb/Xeb.sol",
  "compiler": {
    "name": "solc",
    "version": "0.6.12+commit.27d51765.Emscripten.clang"
  },
  "schemaVersion": "3.3.4",
  "updatedAt": "2021-03-07T17:07:43.174Z",
  "networkType": "ethereum",
  "devdoc": {
    "kind": "dev",
    "methods": {
      "allowance(address,address)": {
        "details": "See {IERC20-allowance}."
      },
      "approve(address,uint256)": {
        "details": "See {IERC20-approve}. Requirements: - `spender` cannot be the zero address.approve(address spender, uint256 amount)"
      },
      "balanceOf(address)": {
        "details": "See {IERC20-balanceOf}."
      },
      "burn(uint256)": {
        "details": "Destroys `amount` tokens from the caller. See {ERC20-_burn}."
      },
      "burnFrom(address,uint256)": {
        "details": "Destroys `amount` tokens from `account`, deducting from the caller's allowance. See {ERC20-_burn} and {ERC20-allowance}. Requirements: - the caller must have allowance for `accounts`'s tokens of at least `amount`."
      },
      "decreaseAllowance(address,uint256)": {
        "details": "Atomically decreases the allowance granted to `spender` by the caller. This is an alternative to {approve} that can be used as a mitigation for problems described in {IERC20-approve}. Emits an {Approval} event indicating the updated allowance. Requirements: - `spender` cannot be the zero address. - `spender` must have allowance for the caller of at least `subtractedValue`."
      },
      "getRoleAdmin(bytes32)": {
        "details": "Returns the admin role that controls `role`. See {grantRole} and {revokeRole}. To change a role's admin, use {_setRoleAdmin}."
      },
      "getRoleMember(bytes32,uint256)": {
        "details": "Returns one of the accounts that have `role`. `index` must be a value between 0 and {getRoleMemberCount}, non-inclusive. Role bearers are not sorted in any particular way, and their ordering may change at any point. WARNING: When using {getRoleMember} and {getRoleMemberCount}, make sure you perform all queries on the same block. See the following https://forum.openzeppelin.com/t/iterating-over-elements-on-enumerableset-in-openzeppelin-contracts/2296[forum post] for more information."
      },
      "getRoleMemberCount(bytes32)": {
        "details": "Returns the number of accounts that have `role`. Can be used together with {getRoleMember} to enumerate all bearers of a role."
      },
      "grantRole(bytes32,address)": {
        "details": "Grants `role` to `account`. If `account` had not been already granted `role`, emits a {RoleGranted} event. Requirements: - the caller must have ``role``'s admin role."
      },
      "hasRole(bytes32,address)": {
        "details": "Returns `true` if `account` has been granted `role`."
      },
      "increaseAllowance(address,uint256)": {
        "details": "Atomically increases the allowance granted to `spender` by the caller. This is an alternative to {approve} that can be used as a mitigation for problems described in {IERC20-approve}. Emits an {Approval} event indicating the updated allowance. Requirements: - `spender` cannot be the zero address."
      },
      "renounceRole(bytes32,address)": {
        "details": "Revokes `role` from the calling account. Roles are often managed via {grantRole} and {revokeRole}: this function's purpose is to provide a mechanism for accounts to lose their privileges if they are compromised (such as when a trusted device is misplaced). If the calling account had been granted `role`, emits a {RoleRevoked} event. Requirements: - the caller must be `account`."
      },
      "revokeRole(bytes32,address)": {
        "details": "Revokes `role` from `account`. If `account` had been granted `role`, emits a {RoleRevoked} event. Requirements: - the caller must have ``role``'s admin role."
      },
      "totalSupply()": {
        "details": "See {IERC20-totalSupply}."
      },
      "transfer(address,uint256)": {
        "details": "See {IERC20-transfer}. Requirements: - `recipient` cannot be the zero address. - the caller must have a balance of at least `amount`."
      },
      "transferFrom(address,address,uint256)": {
        "details": "See {IERC20-transferFrom}. Emits an {Approval} event indicating the updated allowance. This is not required by the EIP. See the note at the beginning of {ERC20}; Requirements: - `sender` and `recipient` cannot be the zero address. - `sender` must have a balance of at least `amount`. - the caller must have allowance for `sender`'s tokens of at least `amount`."
      }
    },
    "version": 1
  },
  "userdoc": {
    "kind": "user",
    "methods": {},
    "version": 1
  }
}