{
  "contractName": "XebPoolLibrary",
  "abi": [
    {
      "inputs": [
        {
          "internalType": "uint256",
          "name": "col_price",
          "type": "uint256"
        },
        {
          "internalType": "uint256",
          "name": "xeb_price",
          "type": "uint256"
        },
        {
          "internalType": "uint256",
          "name": "mint_fee",
          "type": "uint256"
        },
        {
          "internalType": "uint256",
          "name": "collateral_amount_d8",
          "type": "uint256"
        }
      ],
      "name": "calcMint1t1XEB",
      "outputs": [
        {
          "internalType": "uint256",
          "name": "",
          "type": "uint256"
        }
      ],
      "stateMutability": "pure",
      "type": "function",
      "constant": true
    },
    {
      "inputs": [
        {
          "internalType": "uint256",
          "name": "mint_fee",
          "type": "uint256"
        },
        {
          "internalType": "uint256",
          "name": "xesh_price_usd",
          "type": "uint256"
        },
        {
          "internalType": "uint256",
          "name": "xesh_amount_d8",
          "type": "uint256"
        }
      ],
      "name": "calcMintAlgorithmicXEB",
      "outputs": [
        {
          "internalType": "uint256",
          "name": "",
          "type": "uint256"
        }
      ],
      "stateMutability": "pure",
      "type": "function",
      "constant": true
    },
    {
      "inputs": [
        {
          "internalType": "uint256",
          "name": "xeb_price_usd",
          "type": "uint256"
        },
        {
          "internalType": "uint256",
          "name": "col_price_usd",
          "type": "uint256"
        },
        {
          "internalType": "uint256",
          "name": "XEB_amount",
          "type": "uint256"
        },
        {
          "internalType": "uint256",
          "name": "redemption_fee",
          "type": "uint256"
        }
      ],
      "name": "calcRedeem1t1XEB",
      "outputs": [
        {
          "internalType": "uint256",
          "name": "",
          "type": "uint256"
        }
      ],
      "stateMutability": "pure",
      "type": "function",
      "constant": true
    }
  ],
  "bytecode": "0x6106e0610026600b82828239805160001a60731461001957fe5b30600052607381538281f3fe730000000000000000000000000000000000000000301460806040526004361061004b5760003560e01c806337c4e4fb146100505780636b489ef114610080578063dfce6f92146100b0575b600080fd5b61006a600480360381019061006591906104bb565b6100e0565b604051610077919061060e565b60405180910390f35b61009a6004803603810190610095919061046c565b610182565b6040516100a7919061060e565b60405180910390f35b6100ca60048036038101906100c591906104bb565b6101f5565b6040516100d7919061060e565b60405180910390f35b60008061010c866100fe6305f5e1008761029790919063ffffffff16565b61030790919063ffffffff16565b905060006101396305f5e10061012b888561029790919063ffffffff16565b61030790919063ffffffff16565b90506101766101676305f5e100610159878561029790919063ffffffff16565b61030790919063ffffffff16565b8261035190919063ffffffff16565b92505050949350505050565b6000806101ae846101a06305f5e1008661029790919063ffffffff16565b61030790919063ffffffff16565b90506101eb6101dc6305f5e1006101ce888561029790919063ffffffff16565b61030790919063ffffffff16565b8261035190919063ffffffff16565b9150509392505050565b600080610221856102136305f5e1008961029790919063ffffffff16565b61030790919063ffffffff16565b9050600061024e826102406305f5e1008761029790919063ffffffff16565b61030790919063ffffffff16565b905061028b61027c6305f5e10061026e888561029790919063ffffffff16565b61030790919063ffffffff16565b8261035190919063ffffffff16565b92505050949350505050565b6000808314156102aa5760009050610301565b60008284029050828482816102bb57fe5b04146102fc576040517f08c379a00000000000000000000000000000000000000000000000000000000081526004016102f3906105ee565b60405180910390fd5b809150505b92915050565b600061034983836040518060400160405280601a81526020017f536166654d6174683a206469766973696f6e206279207a65726f00000000000081525061039b565b905092915050565b600061039383836040518060400160405280601e81526020017f536166654d6174683a207375627472616374696f6e206f766572666c6f7700008152506103fc565b905092915050565b600080831182906103e2576040517f08c379a00000000000000000000000000000000000000000000000000000000081526004016103d991906105cc565b60405180910390fd5b5060008385816103ee57fe5b049050809150509392505050565b6000838311158290610444576040517f08c379a000000000000000000000000000000000000000000000000000000000815260040161043b91906105cc565b60405180910390fd5b5060008385039050809150509392505050565b60008135905061046681610693565b92915050565b60008060006060848603121561048157600080fd5b600061048f86828701610457565b93505060206104a086828701610457565b92505060406104b186828701610457565b9150509250925092565b600080600080608085870312156104d157600080fd5b60006104df87828801610457565b94505060206104f087828801610457565b935050604061050187828801610457565b925050606061051287828801610457565b91505092959194509250565b600061052982610629565b6105338185610634565b935061054381856020860161064f565b61054c81610682565b840191505092915050565b6000610564602183610634565b91507f536166654d6174683a206d756c7469706c69636174696f6e206f766572666c6f60008301527f77000000000000000000000000000000000000000000000000000000000000006020830152604082019050919050565b6105c681610645565b82525050565b600060208201905081810360008301526105e6818461051e565b905092915050565b6000602082019050818103600083015261060781610557565b9050919050565b600060208201905061062360008301846105bd565b92915050565b600081519050919050565b600082825260208201905092915050565b6000819050919050565b60005b8381101561066d578082015181840152602081019050610652565b8381111561067c576000848401525b50505050565b6000601f19601f8301169050919050565b61069c81610645565b81146106a757600080fd5b5056fea264697066735822122009fbf4b8a0ae7066b8ed65a1bc1890eec646827c93c4b5ef3fdcd68690a0d22764736f6c634300060c0033",
  "immutableReferences": {},
  "source": "// SPDX-License-Identifier: MIT\npragma solidity ^0.6.0;\npragma experimental ABIEncoderV2;\n\nimport \"../../Math/SafeMath.sol\";\n\n\n\nlibrary XebPoolLibrary {\n    using SafeMath for uint256;\n\n    // ================ Structs ================\n    // Needed to lower stack size\n    struct MintFF_Params {\n        uint256 mint_fee; \n        uint256 xesh_price_usd; \n        uint256 xeb_price_usd; \n        uint256 col_price_xeb;\n        uint256 xesh_amount;\n        uint256 collateral_amount;\n        uint256 collateral_token_balance;\n        uint256 pool_ceiling;\n        uint256 col_ratio;\n    }\n\n    struct BuybackXESH_Params {\n        uint256 buyback_fee;\n        uint256 excess_collateral_satoshi_value_d8;\n        uint256 xesh_price_usd;\n        uint256 col_price_usd;\n        uint256 XESH_amount;\n    }\n\n    // ================ Functions ================\n\n    function calcMint1t1XEB(uint256 col_price, uint256 xeb_price, uint256 mint_fee, uint256 collateral_amount_d8) public pure returns (uint256) {\n        uint256 col_price_usd = col_price.mul(1e8).div(xeb_price);\n        uint256 c_satoshi_value_d8 = (collateral_amount_d8.mul(1e8)).div(col_price_usd);\n        return c_satoshi_value_d8.sub((c_satoshi_value_d8.mul(mint_fee)).div(1e8));\n    }\n\n    function calcMintAlgorithmicXEB(uint256 mint_fee, uint256 xesh_price_usd, uint256 xesh_amount_d8) public pure returns (uint256) {\n        uint256 xesh_satoshi_value_d8 = xesh_amount_d8.mul(1e8).div(xesh_price_usd);\n        return xesh_satoshi_value_d8.sub((xesh_satoshi_value_d8.mul(mint_fee)).div(1e8));\n    }\n\n    // Must be internal because of the struct\n    function calcMintFractionalXEB(MintFF_Params memory params) internal pure returns (uint256, uint256, uint256) {\n        // Since solidity truncates division, every division operation must be the last operation in the equation to ensure minimum error\n        // The contract must check the proper ratio was sent to mint XEB. We do this by seeing the minimum mintable XEB based on each amount \n        uint256 xesh_needed;\n        uint256 collateral_needed;\n        uint256 xesh_satoshi_value_d8;\n        uint256 c_satoshi_value_d8;\n        \n        // Scoping for stack concerns\n        {\n            uint256 col_price_usd = params.col_price_xeb.mul(1e8).div(params.xeb_price_usd);\n        \n            // USD amounts of the collateral and the XESH\n            xesh_satoshi_value_d8 = params.xesh_amount.mul(1e8).div(params.xesh_price_usd);\n            c_satoshi_value_d8 = params.collateral_amount.mul(1e8).div(col_price_usd);\n\n            // Recalculate and round down\n            collateral_needed = c_satoshi_value_d8.mul(col_price_usd).div(1e8);\n        }\n        require(params.collateral_token_balance + collateral_needed < params.pool_ceiling, \"Pool ceiling reached, no more XEB can be minted with this collateral\");\n        \n        xesh_needed = ((c_satoshi_value_d8.mul(1e8).div(params.col_ratio)).sub(c_satoshi_value_d8)).mul(params.xesh_price_usd).div(1e8);\n        xesh_satoshi_value_d8 = xesh_needed.mul(1e8).div(params.xesh_price_usd);\n\n        return (\n            collateral_needed,\n            (c_satoshi_value_d8 + xesh_satoshi_value_d8).sub(((c_satoshi_value_d8 + xesh_satoshi_value_d8).mul(params.mint_fee)).div(1e8)),\n            xesh_needed\n        );\n    }\n\n    function calcRedeem1t1XEB(uint256 xeb_price_usd, uint256 col_price_usd, uint256 XEB_amount, uint256 redemption_fee) public pure returns (uint256) {\n        uint256 xeb_satoshi_value_d8 = XEB_amount.mul(1e8).div(xeb_price_usd);\n        uint256 collateral_needed_d8 = xeb_satoshi_value_d8.mul(col_price_usd).div(1e8);\n        return collateral_needed_d8.sub((collateral_needed_d8.mul(redemption_fee)).div(1e8));\n    }\n\n    // Must be internal because of the struct\n    function calcBuyBackXESH(BuybackXESH_Params memory params) internal pure returns (uint256) {\n        // If the total collateral value is higher than the amount required at the current collateral ratio then buy back up to the possible XESH with the desired collateral\n        require(params.excess_collateral_satoshi_value_d8 > 0, \"No excess collateral to buy back!\");\n\n        // Make sure not to take more than is available\n        uint256 xesh_satoshi_value_d8 = params.XESH_amount.mul(1e8).div(params.xesh_price_usd);\n        require(xesh_satoshi_value_d8 <= params.excess_collateral_satoshi_value_d8, \"You are trying to buy back more than the excess!\");\n\n        // Get the equivalent amount of collateral based on the market value of XESH provided \n        uint256 collateral_equivalent_d8 = xesh_satoshi_value_d8.mul(1e8).div(params.col_price_usd);\n        collateral_equivalent_d8 = collateral_equivalent_d8.sub((collateral_equivalent_d8.mul(params.buyback_fee)).div(1e8));\n\n        return (\n            collateral_equivalent_d8\n        );\n\n    }\n\n}\n",
  "sourcePath": "/Users/abdulhafiz/Documents/projects/xeb/defi_fraxlink_contract/contracts/Xeb/Pools/XebPoolLibrary.sol",
  "compiler": {
    "name": "solc",
    "version": "0.6.12+commit.27d51765.Emscripten.clang"
  },
  "schemaVersion": "3.3.4",
  "updatedAt": "2021-03-07T17:07:43.162Z",
  "networkType": "ethereum",
  "devdoc": {
    "kind": "dev",
    "methods": {},
    "version": 1
  },
  "userdoc": {
    "kind": "user",
    "methods": {},
    "version": 1
  }
}