{
  "contractName": "XebPool",
  "abi": [
    {
      "inputs": [
        {
          "internalType": "address",
          "name": "_collateral_address",
          "type": "address"
        },
        {
          "internalType": "address",
          "name": "_oracle_address",
          "type": "address"
        },
        {
          "internalType": "address",
          "name": "_creator_address",
          "type": "address"
        },
        {
          "internalType": "address",
          "name": "_timelock_address",
          "type": "address"
        },
        {
          "internalType": "uint256",
          "name": "_pool_ceiling",
          "type": "uint256"
        }
      ],
      "stateMutability": "nonpayable",
      "type": "constructor"
    },
    {
      "anonymous": false,
      "inputs": [
        {
          "indexed": true,
          "internalType": "bytes32",
          "name": "role",
          "type": "bytes32"
        },
        {
          "indexed": true,
          "internalType": "bytes32",
          "name": "previousAdminRole",
          "type": "bytes32"
        },
        {
          "indexed": true,
          "internalType": "bytes32",
          "name": "newAdminRole",
          "type": "bytes32"
        }
      ],
      "name": "RoleAdminChanged",
      "type": "event"
    },
    {
      "anonymous": false,
      "inputs": [
        {
          "indexed": true,
          "internalType": "bytes32",
          "name": "role",
          "type": "bytes32"
        },
        {
          "indexed": true,
          "internalType": "address",
          "name": "account",
          "type": "address"
        },
        {
          "indexed": true,
          "internalType": "address",
          "name": "sender",
          "type": "address"
        }
      ],
      "name": "RoleGranted",
      "type": "event"
    },
    {
      "anonymous": false,
      "inputs": [
        {
          "indexed": true,
          "internalType": "bytes32",
          "name": "role",
          "type": "bytes32"
        },
        {
          "indexed": true,
          "internalType": "address",
          "name": "account",
          "type": "address"
        },
        {
          "indexed": true,
          "internalType": "address",
          "name": "sender",
          "type": "address"
        }
      ],
      "name": "RoleRevoked",
      "type": "event"
    },
    {
      "inputs": [],
      "name": "DEFAULT_ADMIN_ROLE",
      "outputs": [
        {
          "internalType": "bytes32",
          "name": "",
          "type": "bytes32"
        }
      ],
      "stateMutability": "view",
      "type": "function"
    },
    {
      "inputs": [
        {
          "internalType": "bytes32",
          "name": "role",
          "type": "bytes32"
        }
      ],
      "name": "getRoleAdmin",
      "outputs": [
        {
          "internalType": "bytes32",
          "name": "",
          "type": "bytes32"
        }
      ],
      "stateMutability": "view",
      "type": "function"
    },
    {
      "inputs": [
        {
          "internalType": "bytes32",
          "name": "role",
          "type": "bytes32"
        },
        {
          "internalType": "uint256",
          "name": "index",
          "type": "uint256"
        }
      ],
      "name": "getRoleMember",
      "outputs": [
        {
          "internalType": "address",
          "name": "",
          "type": "address"
        }
      ],
      "stateMutability": "view",
      "type": "function"
    },
    {
      "inputs": [
        {
          "internalType": "bytes32",
          "name": "role",
          "type": "bytes32"
        }
      ],
      "name": "getRoleMemberCount",
      "outputs": [
        {
          "internalType": "uint256",
          "name": "",
          "type": "uint256"
        }
      ],
      "stateMutability": "view",
      "type": "function"
    },
    {
      "inputs": [
        {
          "internalType": "bytes32",
          "name": "role",
          "type": "bytes32"
        },
        {
          "internalType": "address",
          "name": "account",
          "type": "address"
        }
      ],
      "name": "grantRole",
      "outputs": [],
      "stateMutability": "nonpayable",
      "type": "function"
    },
    {
      "inputs": [
        {
          "internalType": "bytes32",
          "name": "role",
          "type": "bytes32"
        },
        {
          "internalType": "address",
          "name": "account",
          "type": "address"
        }
      ],
      "name": "hasRole",
      "outputs": [
        {
          "internalType": "bool",
          "name": "",
          "type": "bool"
        }
      ],
      "stateMutability": "view",
      "type": "function"
    },
    {
      "inputs": [
        {
          "internalType": "bytes32",
          "name": "role",
          "type": "bytes32"
        },
        {
          "internalType": "address",
          "name": "account",
          "type": "address"
        }
      ],
      "name": "renounceRole",
      "outputs": [],
      "stateMutability": "nonpayable",
      "type": "function"
    },
    {
      "inputs": [
        {
          "internalType": "bytes32",
          "name": "role",
          "type": "bytes32"
        },
        {
          "internalType": "address",
          "name": "account",
          "type": "address"
        }
      ],
      "name": "revokeRole",
      "outputs": [],
      "stateMutability": "nonpayable",
      "type": "function"
    },
    {
      "inputs": [],
      "name": "unclaimedPoolCollateral",
      "outputs": [
        {
          "internalType": "uint256",
          "name": "",
          "type": "uint256"
        }
      ],
      "stateMutability": "view",
      "type": "function"
    },
    {
      "inputs": [],
      "name": "unclaimedPoolXESH",
      "outputs": [
        {
          "internalType": "uint256",
          "name": "",
          "type": "uint256"
        }
      ],
      "stateMutability": "view",
      "type": "function"
    },
    {
      "inputs": [
        {
          "internalType": "address",
          "name": "_account",
          "type": "address"
        }
      ],
      "name": "unclaimedXESH",
      "outputs": [
        {
          "internalType": "uint256",
          "name": "",
          "type": "uint256"
        }
      ],
      "stateMutability": "view",
      "type": "function"
    },
    {
      "inputs": [
        {
          "internalType": "address",
          "name": "_account",
          "type": "address"
        }
      ],
      "name": "unclaimedCollateral",
      "outputs": [
        {
          "internalType": "uint256",
          "name": "",
          "type": "uint256"
        }
      ],
      "stateMutability": "view",
      "type": "function"
    },
    {
      "inputs": [],
      "name": "collatDollarBalance",
      "outputs": [
        {
          "internalType": "uint256",
          "name": "",
          "type": "uint256"
        }
      ],
      "stateMutability": "view",
      "type": "function"
    },
    {
      "inputs": [],
      "name": "availableExcessCollatDV",
      "outputs": [
        {
          "internalType": "uint256",
          "name": "",
          "type": "uint256"
        }
      ],
      "stateMutability": "view",
      "type": "function"
    },
    {
      "inputs": [
        {
          "internalType": "uint256",
          "name": "collateral_amount_d8",
          "type": "uint256"
        }
      ],
      "name": "mint1t1XEB",
      "outputs": [],
      "stateMutability": "nonpayable",
      "type": "function"
    },
    {
      "inputs": [
        {
          "internalType": "uint256",
          "name": "xesh_amount_d8",
          "type": "uint256"
        }
      ],
      "name": "mintAlgorithmicXEB",
      "outputs": [],
      "stateMutability": "nonpayable",
      "type": "function"
    },
    {
      "inputs": [
        {
          "internalType": "uint256",
          "name": "collateral_amount",
          "type": "uint256"
        },
        {
          "internalType": "uint256",
          "name": "xesh_amount",
          "type": "uint256"
        }
      ],
      "name": "mintFractionalXEB",
      "outputs": [],
      "stateMutability": "nonpayable",
      "type": "function"
    },
    {
      "inputs": [
        {
          "internalType": "uint256",
          "name": "XEB_amount",
          "type": "uint256"
        }
      ],
      "name": "redeem1t1XEB",
      "outputs": [],
      "stateMutability": "nonpayable",
      "type": "function"
    },
    {
      "inputs": [
        {
          "internalType": "uint256",
          "name": "XEB_amount",
          "type": "uint256"
        }
      ],
      "name": "redeemFractionalXEB",
      "outputs": [],
      "stateMutability": "nonpayable",
      "type": "function"
    },
    {
      "inputs": [
        {
          "internalType": "uint256",
          "name": "XEB_amount",
          "type": "uint256"
        }
      ],
      "name": "redeemAlgorithmicXEB",
      "outputs": [],
      "stateMutability": "nonpayable",
      "type": "function"
    },
    {
      "inputs": [],
      "name": "collectRedemption",
      "outputs": [],
      "stateMutability": "nonpayable",
      "type": "function"
    },
    {
      "inputs": [
        {
          "internalType": "uint256",
          "name": "XESH_amount",
          "type": "uint256"
        }
      ],
      "name": "buyBackXESH",
      "outputs": [],
      "stateMutability": "nonpayable",
      "type": "function"
    },
    {
      "inputs": [],
      "name": "recollateralizeAmount",
      "outputs": [
        {
          "internalType": "uint256",
          "name": "recollateralization_left",
          "type": "uint256"
        }
      ],
      "stateMutability": "view",
      "type": "function"
    },
    {
      "inputs": [
        {
          "internalType": "uint256",
          "name": "collateral_amount_d8",
          "type": "uint256"
        }
      ],
      "name": "recollateralizeXeb",
      "outputs": [],
      "stateMutability": "nonpayable",
      "type": "function"
    },
    {
      "inputs": [],
      "name": "toggleMinting",
      "outputs": [],
      "stateMutability": "nonpayable",
      "type": "function"
    },
    {
      "inputs": [],
      "name": "toggleRedeeming",
      "outputs": [],
      "stateMutability": "nonpayable",
      "type": "function"
    },
    {
      "inputs": [],
      "name": "toggleBuyBack",
      "outputs": [],
      "stateMutability": "nonpayable",
      "type": "function"
    },
    {
      "inputs": [
        {
          "internalType": "uint256",
          "name": "new_ceiling",
          "type": "uint256"
        }
      ],
      "name": "setPoolCeiling",
      "outputs": [],
      "stateMutability": "nonpayable",
      "type": "function"
    },
    {
      "inputs": [
        {
          "internalType": "address",
          "name": "new_oracle",
          "type": "address"
        }
      ],
      "name": "setOracle",
      "outputs": [],
      "stateMutability": "nonpayable",
      "type": "function"
    },
    {
      "inputs": [
        {
          "internalType": "address",
          "name": "_collateral_address",
          "type": "address"
        }
      ],
      "name": "setCollateralAdd",
      "outputs": [],
      "stateMutability": "nonpayable",
      "type": "function"
    },
    {
      "inputs": [
        {
          "internalType": "address",
          "name": "_xeb_contract_address",
          "type": "address"
        }
      ],
      "name": "setXEBAddress",
      "outputs": [],
      "stateMutability": "nonpayable",
      "type": "function"
    },
    {
      "inputs": [
        {
          "internalType": "address",
          "name": "_xesh_contract_address",
          "type": "address"
        }
      ],
      "name": "setXESHAddress",
      "outputs": [],
      "stateMutability": "nonpayable",
      "type": "function"
    },
    {
      "inputs": [
        {
          "internalType": "address",
          "name": "owner_address",
          "type": "address"
        }
      ],
      "name": "addOwner",
      "outputs": [],
      "stateMutability": "nonpayable",
      "type": "function"
    },
    {
      "inputs": [
        {
          "internalType": "address",
          "name": "owner_address",
          "type": "address"
        }
      ],
      "name": "removeOwner",
      "outputs": [],
      "stateMutability": "nonpayable",
      "type": "function"
    }
  ],
  "bytecode": "0x608060405260006010556000601160006101000a81548160ff0219169083151502179055506000601160016101000a81548160ff0219169083151502179055506000601160026101000a81548160ff0219169083151502179055503480156200006757600080fd5b506040516200648f3803806200648f83398181016040528101906200008d919062000788565b84600260006101000a81548173ffffffffffffffffffffffffffffffffffffffff021916908373ffffffffffffffffffffffffffffffffffffffff16021790555083600460006101000a81548173ffffffffffffffffffffffffffffffffffffffff021916908373ffffffffffffffffffffffffffffffffffffffff16021790555081600760006101000a81548173ffffffffffffffffffffffffffffffffffffffff021916908373ffffffffffffffffffffffffffffffffffffffff1602179055506003839080600181540180825580915050600190039060005260206000200160009091909190916101000a81548173ffffffffffffffffffffffffffffffffffffffff021916908373ffffffffffffffffffffffffffffffffffffffff1602179055506003829080600181540180825580915050600190039060005260206000200160009091909190916101000a81548173ffffffffffffffffffffffffffffffffffffffff021916908373ffffffffffffffffffffffffffffffffffffffff16021790555083600a60006101000a81548173ffffffffffffffffffffffffffffffffffffffff021916908373ffffffffffffffffffffffffffffffffffffffff16021790555084600160006101000a81548173ffffffffffffffffffffffffffffffffffffffff021916908373ffffffffffffffffffffffffffffffffffffffff16021790555080601081905550620002c36000801b620002b7620004c660201b60201c565b620004ce60201b60201c565b620003177fc65532185ed70b2e999433e2e9fac124e083acb13ec183a4e05944da0792337b600460009054906101000a900473ffffffffffffffffffffffffffffffffffffffff16620004e460201b60201c565b6200036b7fc65532185ed70b2e999433e2e9fac124e083acb13ec183a4e05944da0792337b600760009054906101000a900473ffffffffffffffffffffffffffffffffffffffff16620004e460201b60201c565b620003bf7fa84a5389ad41f9aab0831b01e5384cae76e7a7fd09131c206ff7927c201c3857600460009054906101000a900473ffffffffffffffffffffffffffffffffffffffff16620004e460201b60201c565b620004137fa84a5389ad41f9aab0831b01e5384cae76e7a7fd09131c206ff7927c201c3857600760009054906101000a900473ffffffffffffffffffffffffffffffffffffffff16620004e460201b60201c565b620004677f103da79ff3755ff7a17a557d28b73d37cb4de0b3c3cc02fa6c48df0f35071fbf600460009054906101000a900473ffffffffffffffffffffffffffffffffffffffff16620004e460201b60201c565b620004bb7f103da79ff3755ff7a17a557d28b73d37cb4de0b3c3cc02fa6c48df0f35071fbf600760009054906101000a900473ffffffffffffffffffffffffffffffffffffffff16620004e460201b60201c565b505050505062000917565b600033905090565b620004e082826200057260201b60201c565b5050565b6200051a600080848152602001908152602001600020600201546200050e620004c660201b60201c565b6200061560201b60201c565b6200055c576040517f08c379a0000000000000000000000000000000000000000000000000000000008152600401620005539062000872565b60405180910390fd5b6200056e82826200057260201b60201c565b5050565b620005a0816000808581526020019081526020016000206000016200064d60201b620042721790919060201c565b156200061157620005b6620004c660201b60201c565b73ffffffffffffffffffffffffffffffffffffffff168173ffffffffffffffffffffffffffffffffffffffff16837f2f8788117e7eff1d82e926ec794901d17c78024a50270940304540a733656f0d60405160405180910390a45b5050565b600062000645826000808681526020019081526020016000206000016200068560201b620042a21790919060201c565b905092915050565b60006200067d836000018373ffffffffffffffffffffffffffffffffffffffff1660001b620006bd60201b60201c565b905092915050565b6000620006b5836000018373ffffffffffffffffffffffffffffffffffffffff1660001b6200073760201b60201c565b905092915050565b6000620006d183836200073760201b60201c565b6200072c57826000018290806001815401808255809150506001900390600052602060002001600090919091909150558260000180549050836001016000848152602001908152602001600020819055506001905062000731565b600090505b92915050565b600080836001016000848152602001908152602001600020541415905092915050565b6000815190506200076b81620008e3565b92915050565b6000815190506200078281620008fd565b92915050565b600080600080600060a08688031215620007a157600080fd5b6000620007b1888289016200075a565b9550506020620007c4888289016200075a565b9450506040620007d7888289016200075a565b9350506060620007ea888289016200075a565b9250506080620007fd8882890162000771565b9150509295509295909350565b600062000819602f8362000894565b91507f416363657373436f6e74726f6c3a2073656e646572206d75737420626520616e60008301527f2061646d696e20746f206772616e7400000000000000000000000000000000006020830152604082019050919050565b600060208201905081810360008301526200088d816200080a565b9050919050565b600082825260208201905092915050565b6000620008b282620008b9565b9050919050565b600073ffffffffffffffffffffffffffffffffffffffff82169050919050565b6000819050919050565b620008ee81620008a5565b8114620008fa57600080fd5b50565b6200090881620008d9565b81146200091457600080fd5b50565b615b6880620009276000396000f3fe608060405234801561001057600080fd5b50600436106102065760003560e01c806379d96ea31161011a578063b01f3ff4116100ad578063d547741f1161007c578063d547741f14610583578063daa504851461059f578063e86bc619146105a9578063f61adab2146105c5578063fe5ca6b0146105e357610206565b8063b01f3ff4146104d5578063bd5e7e2a14610505578063ca15c87314610523578063cf0917c61461055357610206565b80639010d07c116100e95780639010d07c1461043b57806391d148541461046b578063a217fddf1461049b578063a3c60c03146104b957610206565b806379d96ea3146103db5780637adbf973146103f75780637b0461e9146104135780637d55094d1461043157610206565b80632f2ff15d1161019d578063556e98341161016c578063556e98341461034d5780635ac444991461036957806366870792146103855780637058b9cf146103a15780637065cb48146103bf57610206565b80632f2ff15d146102ef57806336568abe1461030b5780634cb7a8e81461032757806350c9ecd91461034357610206565b8063173825d9116101d9578063173825d91461026b57806318275f5f14610287578063248a9ca3146102a357806327c00502146102d357610206565b80630dc6ebc51461020b57806311e585ed1461022757806312ace5a21461024357806317284c941461024d575b600080fd5b61022560048036038101906102209190614de2565b6105ff565b005b610241600480360381019061023c9190614c9d565b610c00565b005b61024b610d59565b005b610255611174565b6040516102629190615945565b60405180910390f35b61028560048036038101906102809190614c9d565b6113bf565b005b6102a1600480360381019061029c9190614d90565b61157b565b005b6102bd60048036038101906102b89190614cef565b611a38565b6040516102ca91906156a8565b60405180910390f35b6102ed60048036038101906102e89190614d90565b611a57565b005b61030960048036038101906103049190614d18565b611e3a565b005b61032560048036038101906103209190614d18565b611ead565b005b610341600480360381019061033c9190614d90565b611f30565b005b61034b61222c565b005b61036760048036038101906103629190614c9d565b61228b565b005b610383600480360381019061037e9190614d90565b6123e4565b005b61039f600480360381019061039a9190614d90565b612b88565b005b6103a9613053565b6040516103b69190615945565b60405180910390f35b6103d960048036038101906103d49190614c9d565b61315f565b005b6103f560048036038101906103f09190614c9d565b613299565b005b610411600480360381019061040c9190614c9d565b6133f2565b005b61041b61356d565b6040516104289190615945565b60405180910390f35b610439613573565b005b61045560048036038101906104509190614d54565b6135d2565b60405161046291906155c0565b60405180910390f35b61048560048036038101906104809190614d18565b613603565b604051610492919061568d565b60405180910390f35b6104a3613634565b6040516104b091906156a8565b60405180910390f35b6104d360048036038101906104ce9190614d90565b61363b565b005b6104ef60048036038101906104ea9190614c9d565b613b22565b6040516104fc9190615945565b60405180910390f35b61050d613b6b565b60405161051a9190615945565b60405180910390f35b61053d60048036038101906105389190614cef565b613b71565b60405161054a9190615945565b60405180910390f35b61056d60048036038101906105689190614c9d565b613b97565b60405161057a9190615945565b60405180910390f35b61059d60048036038101906105989190614d18565b613be0565b005b6105a7613c53565b005b6105c360048036038101906105be9190614d90565b613cb2565b005b6105cd613d90565b6040516105da9190615945565b60405180910390f35b6105fd60048036038101906105f89190614d90565b613ee7565b005b60001515601160009054906101000a900460ff16151514610655576040517f08c379a000000000000000000000000000000000000000000000000000000000815260040161064c90615885565b60405180910390fd5b600080600080600960009054906101000a900473ffffffffffffffffffffffffffffffffffffffff1673ffffffffffffffffffffffffffffffffffffffff1663d698477f6040518163ffffffff1660e01b815260040160e06040518083038186803b1580156106c357600080fd5b505afa1580156106d7573d6000803e3d6000fd5b505050506040513d601f19601f820116820180604052508101906106fb9190614e1e565b5095505094505093509350620f4240821080156107185750600082115b610757576040517f08c379a000000000000000000000000000000000000000000000000000000000815260040161074e90615785565b60405180910390fd5b61075f614bb9565b604051806101200160405280838152602001858152602001868152602001600a60009054906101000a900473ffffffffffffffffffffffffffffffffffffffff1673ffffffffffffffffffffffffffffffffffffffff16633ddac953600560009054906101000a900473ffffffffffffffffffffffffffffffffffffffff166305f5e1006040518363ffffffff1660e01b815260040161080092919061563b565b60206040518083038186803b15801561081857600080fd5b505afa15801561082c573d6000803e3d6000fd5b505050506040513d601f19601f820116820180604052508101906108509190614db9565b8152602001878152602001888152602001600160009054906101000a900473ffffffffffffffffffffffffffffffffffffffff1673ffffffffffffffffffffffffffffffffffffffff166370a08231306040518263ffffffff1660e01b81526004016108bc91906155c0565b60206040518083038186803b1580156108d457600080fd5b505afa1580156108e8573d6000803e3d6000fd5b505050506040513d601f19601f8201168201806040525081019061090c9190614db9565b81526020016010548152602001848152509050600080600061092d846142d2565b92509250925060105483600160009054906101000a900473ffffffffffffffffffffffffffffffffffffffff1673ffffffffffffffffffffffffffffffffffffffff166370a08231306040518263ffffffff1660e01b815260040161099291906155c0565b60206040518083038186803b1580156109aa57600080fd5b505afa1580156109be573d6000803e3d6000fd5b505050506040513d601f19601f820116820180604052508101906109e29190614db9565b011115610a24576040517f08c379a0000000000000000000000000000000000000000000000000000000008152600401610a1b906158a5565b60405180910390fd5b600160009054906101000a900473ffffffffffffffffffffffffffffffffffffffff1673ffffffffffffffffffffffffffffffffffffffff166323b872dd3330866040518463ffffffff1660e01b8152600401610a83939291906155db565b602060405180830381600087803b158015610a9d57600080fd5b505af1158015610ab1573d6000803e3d6000fd5b505050506040513d601f19601f82011682018060405250810190610ad59190614cc6565b50600960009054906101000a900473ffffffffffffffffffffffffffffffffffffffff1673ffffffffffffffffffffffffffffffffffffffff1663b4f56b2633846040518363ffffffff1660e01b8152600401610b33929190615612565b600060405180830381600087803b158015610b4d57600080fd5b505af1158015610b61573d6000803e3d6000fd5b50505050600860009054906101000a900473ffffffffffffffffffffffffffffffffffffffff1673ffffffffffffffffffffffffffffffffffffffff166379cc679033836040518363ffffffff1660e01b8152600401610bc2929190615612565b600060405180830381600087803b158015610bdc57600080fd5b505af1158015610bf0573d6000803e3d6000fd5b5050505050505050505050505050565b6000805b600380549050811015610c92573373ffffffffffffffffffffffffffffffffffffffff1660038281548110610c3557fe5b9060005260206000200160009054906101000a900473ffffffffffffffffffffffffffffffffffffffff1673ffffffffffffffffffffffffffffffffffffffff161415610c855760019150610c92565b8080600101915050610c04565b5080610cd3576040517f08c379a0000000000000000000000000000000000000000000000000000000008152600401610cca90615865565b60405180910390fd5b81600860006101000a81548173ffffffffffffffffffffffffffffffffffffffff021916908373ffffffffffffffffffffffffffffffffffffffff16021790555081600660006101000a81548173ffffffffffffffffffffffffffffffffffffffff021916908373ffffffffffffffffffffffffffffffffffffffff1602179055505050565b43600f60003373ffffffffffffffffffffffffffffffffffffffff1673ffffffffffffffffffffffffffffffffffffffff1681526020019081526020016000205410610dda576040517f08c379a0000000000000000000000000000000000000000000000000000000008152600401610dd1906157a5565b60405180910390fd5b6000600b60003373ffffffffffffffffffffffffffffffffffffffff1673ffffffffffffffffffffffffffffffffffffffff168152602001908152602001600020541115610fa657600860009054906101000a900473ffffffffffffffffffffffffffffffffffffffff1673ffffffffffffffffffffffffffffffffffffffff1663a9059cbb33600b60003373ffffffffffffffffffffffffffffffffffffffff1673ffffffffffffffffffffffffffffffffffffffff168152602001908152602001600020546040518363ffffffff1660e01b8152600401610ebe929190615612565b602060405180830381600087803b158015610ed857600080fd5b505af1158015610eec573d6000803e3d6000fd5b505050506040513d601f19601f82011682018060405250810190610f109190614cc6565b50600b60003373ffffffffffffffffffffffffffffffffffffffff1673ffffffffffffffffffffffffffffffffffffffff16815260200190815260200160002054600e600082825403925050819055506000600b60003373ffffffffffffffffffffffffffffffffffffffff1673ffffffffffffffffffffffffffffffffffffffff168152602001908152602001600020819055505b6000600c60003373ffffffffffffffffffffffffffffffffffffffff1673ffffffffffffffffffffffffffffffffffffffff16815260200190815260200160002054111561117257600160009054906101000a900473ffffffffffffffffffffffffffffffffffffffff1673ffffffffffffffffffffffffffffffffffffffff1663a9059cbb33600c60003373ffffffffffffffffffffffffffffffffffffffff1673ffffffffffffffffffffffffffffffffffffffff168152602001908152602001600020546040518363ffffffff1660e01b815260040161108a929190615612565b602060405180830381600087803b1580156110a457600080fd5b505af11580156110b8573d6000803e3d6000fd5b505050506040513d601f19601f820116820180604052508101906110dc9190614cc6565b50600c60003373ffffffffffffffffffffffffffffffffffffffff1673ffffffffffffffffffffffffffffffffffffffff16815260200190815260200160002054600d600082825403925050819055506000600c60003373ffffffffffffffffffffffffffffffffffffffff1673ffffffffffffffffffffffffffffffffffffffff168152602001908152602001600020819055505b565b60006113ba600960009054906101000a900473ffffffffffffffffffffffffffffffffffffffff1673ffffffffffffffffffffffffffffffffffffffff16638efca7cc6040518163ffffffff1660e01b815260040160206040518083038186803b1580156111e157600080fd5b505afa1580156111f5573d6000803e3d6000fd5b505050506040513d601f19601f820116820180604052508101906112199190614db9565b6113ac600a60009054906101000a900473ffffffffffffffffffffffffffffffffffffffff1673ffffffffffffffffffffffffffffffffffffffff16633ddac953600560009054906101000a900473ffffffffffffffffffffffffffffffffffffffff166305f5e1006040518363ffffffff1660e01b815260040161129f92919061563b565b60206040518083038186803b1580156112b757600080fd5b505afa1580156112cb573d6000803e3d6000fd5b505050506040513d601f19601f820116820180604052508101906112ef9190614db9565b600d54600160009054906101000a900473ffffffffffffffffffffffffffffffffffffffff1673ffffffffffffffffffffffffffffffffffffffff166370a08231306040518263ffffffff1660e01b815260040161134d91906155c0565b60206040518083038186803b15801561136557600080fd5b505afa158015611379573d6000803e3d6000fd5b505050506040513d601f19601f8201168201806040525081019061139d9190614db9565b036144de90919063ffffffff16565b61454e90919063ffffffff16565b905090565b6000805b600380549050811015611451573373ffffffffffffffffffffffffffffffffffffffff16600382815481106113f457fe5b9060005260206000200160009054906101000a900473ffffffffffffffffffffffffffffffffffffffff1673ffffffffffffffffffffffffffffffffffffffff1614156114445760019150611451565b80806001019150506113c3565b5080611492576040517f08c379a000000000000000000000000000000000000000000000000000000000815260040161148990615865565b60405180910390fd5b60005b600380549050811015611576578273ffffffffffffffffffffffffffffffffffffffff16600382815481106114c657fe5b9060005260206000200160009054906101000a900473ffffffffffffffffffffffffffffffffffffffff1673ffffffffffffffffffffffffffffffffffffffff1614156115695760006003828154811061151c57fe5b9060005260206000200160006101000a81548173ffffffffffffffffffffffffffffffffffffffff021916908373ffffffffffffffffffffffffffffffffffffffff160217905550611576565b8080600101915050611495565b505050565b60001515601160019054906101000a900460ff161515146115d1576040517f08c379a00000000000000000000000000000000000000000000000000000000081526004016115c8906157c5565b60405180910390fd5b6000806000600960009054906101000a900473ffffffffffffffffffffffffffffffffffffffff1673ffffffffffffffffffffffffffffffffffffffff1663d698477f6040518163ffffffff1660e01b815260040160e06040518083038186803b15801561163e57600080fd5b505afa158015611652573d6000803e3d6000fd5b505050506040513d601f19601f820116820180604052508101906116769190614e1e565b96505050945050509250620f42408210156116c6576040517f08c379a00000000000000000000000000000000000000000000000000000000081526004016116bd90615745565b60405180910390fd5b600073__XebPoolLibrary________________________6337c4e4fb856117de876117d06305f5e100600a60009054906101000a900473ffffffffffffffffffffffffffffffffffffffff1673ffffffffffffffffffffffffffffffffffffffff16633ddac953600560009054906101000a900473ffffffffffffffffffffffffffffffffffffffff166305f5e1006040518363ffffffff1660e01b815260040161177292919061563b565b60206040518083038186803b15801561178a57600080fd5b505afa15801561179e573d6000803e3d6000fd5b505050506040513d601f19601f820116820180604052508101906117c29190614db9565b6144de90919063ffffffff16565b61454e90919063ffffffff16565b88866040518563ffffffff1660e01b81526004016117ff9493929190615997565b60206040518083038186803b15801561181757600080fd5b505af415801561182b573d6000803e3d6000fd5b505050506040513d601f19601f8201168201806040525081019061184f9190614db9565b9050600160009054906101000a900473ffffffffffffffffffffffffffffffffffffffff1673ffffffffffffffffffffffffffffffffffffffff1663095ea7b333836040518363ffffffff1660e01b81526004016118ae929190615612565b602060405180830381600087803b1580156118c857600080fd5b505af11580156118dc573d6000803e3d6000fd5b505050506040513d601f19601f820116820180604052508101906119009190614cc6565b5080600c60003373ffffffffffffffffffffffffffffffffffffffff1673ffffffffffffffffffffffffffffffffffffffff1681526020019081526020016000206000828254019250508190555080600d6000828254019250508190555043600f60003373ffffffffffffffffffffffffffffffffffffffff1673ffffffffffffffffffffffffffffffffffffffff16815260200190815260200160002081905550600960009054906101000a900473ffffffffffffffffffffffffffffffffffffffff1673ffffffffffffffffffffffffffffffffffffffff1663a8a778ae33876040518363ffffffff1660e01b81526004016119ff929190615612565b600060405180830381600087803b158015611a1957600080fd5b505af1158015611a2d573d6000803e3d6000fd5b505050505050505050565b6000806000838152602001908152602001600020600201549050919050565b6000611a61613053565b11611aa1576040517f08c379a0000000000000000000000000000000000000000000000000000000008152600401611a98906158c5565b60405180910390fd5b600080600960009054906101000a900473ffffffffffffffffffffffffffffffffffffffff1673ffffffffffffffffffffffffffffffffffffffff1663d698477f6040518163ffffffff1660e01b815260040160e06040518083038186803b158015611b0c57600080fd5b505afa158015611b20573d6000803e3d6000fd5b505050506040513d601f19601f82011682018060405250810190611b449190614e1e565b5050505050915091506000600a60009054906101000a900473ffffffffffffffffffffffffffffffffffffffff1673ffffffffffffffffffffffffffffffffffffffff16633ddac953600560009054906101000a900473ffffffffffffffffffffffffffffffffffffffff166305f5e1006040518363ffffffff1660e01b8152600401611bd292919061563b565b60206040518083038186803b158015611bea57600080fd5b505afa158015611bfe573d6000803e3d6000fd5b505050506040513d601f19601f82011682018060405250810190611c229190614db9565b90506000611c4f84611c416305f5e100856144de90919063ffffffff16565b61454e90919063ffffffff16565b90506000611c7c6305f5e100611c6e84896144de90919063ffffffff16565b61454e90919063ffffffff16565b90506000611c88613053565b9050818110611c9957819050611c9d565b8091505b6000611cc5611cb660648461454e90919063ffffffff16565b8461459890919063ffffffff16565b9050600160009054906101000a900473ffffffffffffffffffffffffffffffffffffffff1673ffffffffffffffffffffffffffffffffffffffff166323b872dd33308b6040518463ffffffff1660e01b8152600401611d26939291906155db565b602060405180830381600087803b158015611d4057600080fd5b505af1158015611d54573d6000803e3d6000fd5b505050506040513d601f19601f82011682018060405250810190611d789190614cc6565b50600860009054906101000a900473ffffffffffffffffffffffffffffffffffffffff1673ffffffffffffffffffffffffffffffffffffffff1663b4f56b2632611de16305f5e100611dd38b876144de90919063ffffffff16565b61454e90919063ffffffff16565b6040518363ffffffff1660e01b8152600401611dfe929190615612565b600060405180830381600087803b158015611e1857600080fd5b505af1158015611e2c573d6000803e3d6000fd5b505050505050505050505050565b611e6060008084815260200190815260200160002060020154611e5b6145ed565b613603565b611e9f576040517f08c379a0000000000000000000000000000000000000000000000000000000008152600401611e9690615705565b60405180910390fd5b611ea982826145f5565b5050565b611eb56145ed565b73ffffffffffffffffffffffffffffffffffffffff168173ffffffffffffffffffffffffffffffffffffffff1614611f22576040517f08c379a0000000000000000000000000000000000000000000000000000000008152600401611f1990615905565b60405180910390fd5b611f2c8282614688565b5050565b60001515601160009054906101000a900460ff16151514611f86576040517f08c379a0000000000000000000000000000000000000000000000000000000008152600401611f7d90615885565b60405180910390fd5b6000806000600960009054906101000a900473ffffffffffffffffffffffffffffffffffffffff1673ffffffffffffffffffffffffffffffffffffffff1663d698477f6040518163ffffffff1660e01b815260040160e06040518083038186803b158015611ff357600080fd5b505afa158015612007573d6000803e3d6000fd5b505050506040513d601f19601f8201168201806040525081019061202b9190614e1e565b5095505094505093505060008214612078576040517f08c379a000000000000000000000000000000000000000000000000000000000815260040161206f906158e5565b60405180910390fd5b600073__XebPoolLibrary________________________636b489ef18386886040518463ffffffff1660e01b81526004016120b593929190615960565b60206040518083038186803b1580156120cd57600080fd5b505af41580156120e1573d6000803e3d6000fd5b505050506040513d601f19601f820116820180604052508101906121059190614db9565b9050600860009054906101000a900473ffffffffffffffffffffffffffffffffffffffff1673ffffffffffffffffffffffffffffffffffffffff1663a8a778ae33876040518363ffffffff1660e01b8152600401612164929190615612565b600060405180830381600087803b15801561217e57600080fd5b505af1158015612192573d6000803e3d6000fd5b50505050600960009054906101000a900473ffffffffffffffffffffffffffffffffffffffff1673ffffffffffffffffffffffffffffffffffffffff1663b4f56b2633836040518363ffffffff1660e01b81526004016121f3929190615612565b600060405180830381600087803b15801561220d57600080fd5b505af1158015612221573d6000803e3d6000fd5b505050505050505050565b6122567f103da79ff3755ff7a17a557d28b73d37cb4de0b3c3cc02fa6c48df0f35071fbf33613603565b61225f57600080fd5b601160029054906101000a900460ff1615601160026101000a81548160ff021916908315150217905550565b6000805b60038054905081101561231d573373ffffffffffffffffffffffffffffffffffffffff16600382815481106122c057fe5b9060005260206000200160009054906101000a900473ffffffffffffffffffffffffffffffffffffffff1673ffffffffffffffffffffffffffffffffffffffff161415612310576001915061231d565b808060010191505061228f565b508061235e576040517f08c379a000000000000000000000000000000000000000000000000000000000815260040161235590615865565b60405180910390fd5b81600260006101000a81548173ffffffffffffffffffffffffffffffffffffffff021916908373ffffffffffffffffffffffffffffffffffffffff16021790555081600160006101000a81548173ffffffffffffffffffffffffffffffffffffffff021916908373ffffffffffffffffffffffffffffffffffffffff1602179055505050565b60001515601160019054906101000a900460ff1615151461243a576040517f08c379a0000000000000000000000000000000000000000000000000000000008152600401612431906157c5565b60405180910390fd5b600080600080600960009054906101000a900473ffffffffffffffffffffffffffffffffffffffff1673ffffffffffffffffffffffffffffffffffffffff1663d698477f6040518163ffffffff1660e01b815260040160e06040518083038186803b1580156124a857600080fd5b505afa1580156124bc573d6000803e3d6000fd5b505050506040513d601f19601f820116820180604052508101906124e09190614e1e565b9650505094505093509350620f4240821080156124fd5750600082115b61253c576040517f08c379a000000000000000000000000000000000000000000000000000000000815260040161253390615785565b60405180910390fd5b6000612567856125596305f5e100896144de90919063ffffffff16565b61454e90919063ffffffff16565b90506000612666866126586305f5e100600a60009054906101000a900473ffffffffffffffffffffffffffffffffffffffff1673ffffffffffffffffffffffffffffffffffffffff16633ddac953600560009054906101000a900473ffffffffffffffffffffffffffffffffffffffff166305f5e1006040518363ffffffff1660e01b81526004016125fa92919061563b565b60206040518083038186803b15801561261257600080fd5b505afa158015612626573d6000803e3d6000fd5b505050506040513d601f19601f8201168201806040525081019061264a9190614db9565b6144de90919063ffffffff16565b61454e90919063ffffffff16565b90506126a36126946305f5e10061268686866144de90919063ffffffff16565b61454e90919063ffffffff16565b8361471b90919063ffffffff16565b915060006126d06305f5e1006126c287866144de90919063ffffffff16565b61454e90919063ffffffff16565b905060006126e7828561471b90919063ffffffff16565b9050600160009054906101000a900473ffffffffffffffffffffffffffffffffffffffff1673ffffffffffffffffffffffffffffffffffffffff1663095ea7b3336127516305f5e10061274388886144de90919063ffffffff16565b61454e90919063ffffffff16565b6040518363ffffffff1660e01b815260040161276e929190615612565b602060405180830381600087803b15801561278857600080fd5b505af115801561279c573d6000803e3d6000fd5b505050506040513d601f19601f820116820180604052508101906127c09190614cc6565b506127ea6305f5e1006127dc85856144de90919063ffffffff16565b61454e90919063ffffffff16565b600c60003373ffffffffffffffffffffffffffffffffffffffff1673ffffffffffffffffffffffffffffffffffffffff1681526020019081526020016000206000828254019250508190555061285f6305f5e10061285185856144de90919063ffffffff16565b61454e90919063ffffffff16565b600d60008282540192505081905550600860009054906101000a900473ffffffffffffffffffffffffffffffffffffffff1673ffffffffffffffffffffffffffffffffffffffff1663b4f56b26306128d66305f5e1006128c88c876144de90919063ffffffff16565b61454e90919063ffffffff16565b6040518363ffffffff1660e01b81526004016128f3929190615664565b600060405180830381600087803b15801561290d57600080fd5b505af1158015612921573d6000803e3d6000fd5b50505050600860009054906101000a900473ffffffffffffffffffffffffffffffffffffffff1673ffffffffffffffffffffffffffffffffffffffff1663095ea7b33361298d6305f5e10061297f8c876144de90919063ffffffff16565b61454e90919063ffffffff16565b6040518363ffffffff1660e01b81526004016129aa929190615612565b602060405180830381600087803b1580156129c457600080fd5b505af11580156129d8573d6000803e3d6000fd5b505050506040513d601f19601f820116820180604052508101906129fc9190614cc6565b50612a266305f5e100612a1889846144de90919063ffffffff16565b61454e90919063ffffffff16565b600b60003373ffffffffffffffffffffffffffffffffffffffff1673ffffffffffffffffffffffffffffffffffffffff16815260200190815260200160002060008282540192505081905550612a9b6305f5e100612a8d89846144de90919063ffffffff16565b61454e90919063ffffffff16565b600e6000828254019250508190555043600f60003373ffffffffffffffffffffffffffffffffffffffff1673ffffffffffffffffffffffffffffffffffffffff16815260200190815260200160002081905550600960009054906101000a900473ffffffffffffffffffffffffffffffffffffffff1673ffffffffffffffffffffffffffffffffffffffff1663a8a778ae338b6040518363ffffffff1660e01b8152600401612b4b929190615612565b600060405180830381600087803b158015612b6557600080fd5b505af1158015612b79573d6000803e3d6000fd5b50505050505050505050505050565b60001515601160019054906101000a900460ff16151514612bde576040517f08c379a0000000000000000000000000000000000000000000000000000000008152600401612bd5906157c5565b60405180910390fd5b600080600080600960009054906101000a900473ffffffffffffffffffffffffffffffffffffffff1673ffffffffffffffffffffffffffffffffffffffff1663d698477f6040518163ffffffff1660e01b815260040160e06040518083038186803b158015612c4c57600080fd5b505afa158015612c60573d6000803e3d6000fd5b505050506040513d601f19601f82011682018060405250810190612c849190614e1e565b965050509450509350935060008214612cd2576040517f08c379a0000000000000000000000000000000000000000000000000000000008152600401612cc9906158e5565b60405180910390fd5b6000612cfd85612cef6305f5e100896144de90919063ffffffff16565b61454e90919063ffffffff16565b9050612d3a612d2b6305f5e100612d1d85856144de90919063ffffffff16565b61454e90919063ffffffff16565b8261471b90919063ffffffff16565b9050600860009054906101000a900473ffffffffffffffffffffffffffffffffffffffff1673ffffffffffffffffffffffffffffffffffffffff1663b4f56b2630612da46305f5e100612d9689876144de90919063ffffffff16565b61454e90919063ffffffff16565b6040518363ffffffff1660e01b8152600401612dc1929190615664565b600060405180830381600087803b158015612ddb57600080fd5b505af1158015612def573d6000803e3d6000fd5b50505050600860009054906101000a900473ffffffffffffffffffffffffffffffffffffffff1673ffffffffffffffffffffffffffffffffffffffff1663095ea7b333612e5b6305f5e100612e4d89876144de90919063ffffffff16565b61454e90919063ffffffff16565b6040518363ffffffff1660e01b8152600401612e78929190615612565b602060405180830381600087803b158015612e9257600080fd5b505af1158015612ea6573d6000803e3d6000fd5b505050506040513d601f19601f82011682018060405250810190612eca9190614cc6565b50612ef46305f5e100612ee686846144de90919063ffffffff16565b61454e90919063ffffffff16565b600b60003373ffffffffffffffffffffffffffffffffffffffff1673ffffffffffffffffffffffffffffffffffffffff16815260200190815260200160002060008282540192505081905550612f696305f5e100612f5b86846144de90919063ffffffff16565b61454e90919063ffffffff16565b600e6000828254019250508190555043600f60003373ffffffffffffffffffffffffffffffffffffffff1673ffffffffffffffffffffffffffffffffffffffff16815260200190815260200160002081905550600960009054906101000a900473ffffffffffffffffffffffffffffffffffffffff1673ffffffffffffffffffffffffffffffffffffffff1663a8a778ae33886040518363ffffffff1660e01b8152600401613019929190615612565b600060405180830381600087803b15801561303357600080fd5b505af1158015613047573d6000803e3d6000fd5b50505050505050505050565b600080600080600960009054906101000a900473ffffffffffffffffffffffffffffffffffffffff1673ffffffffffffffffffffffffffffffffffffffff1663d698477f6040518163ffffffff1660e01b815260040160e06040518083038186803b1580156130c157600080fd5b505afa1580156130d5573d6000803e3d6000fd5b505050506040513d601f19601f820116820180604052508101906130f99190614e1e565b50509450945094505050600061312f64e8d4a5100061312185876144de90919063ffffffff16565b61454e90919063ffffffff16565b9050818111156131535761314c828261471b90919063ffffffff16565b9450613158565b600094505b5050505090565b6000805b6003805490508110156131f1573373ffffffffffffffffffffffffffffffffffffffff166003828154811061319457fe5b9060005260206000200160009054906101000a900473ffffffffffffffffffffffffffffffffffffffff1673ffffffffffffffffffffffffffffffffffffffff1614156131e457600191506131f1565b8080600101915050613163565b5080613232576040517f08c379a000000000000000000000000000000000000000000000000000000000815260040161322990615865565b60405180910390fd5b6003829080600181540180825580915050600190039060005260206000200160009091909190916101000a81548173ffffffffffffffffffffffffffffffffffffffff021916908373ffffffffffffffffffffffffffffffffffffffff1602179055505050565b6000805b60038054905081101561332b573373ffffffffffffffffffffffffffffffffffffffff16600382815481106132ce57fe5b9060005260206000200160009054906101000a900473ffffffffffffffffffffffffffffffffffffffff1673ffffffffffffffffffffffffffffffffffffffff16141561331e576001915061332b565b808060010191505061329d565b508061336c576040517f08c379a000000000000000000000000000000000000000000000000000000000815260040161336390615865565b60405180910390fd5b81600960006101000a81548173ffffffffffffffffffffffffffffffffffffffff021916908373ffffffffffffffffffffffffffffffffffffffff16021790555081600560006101000a81548173ffffffffffffffffffffffffffffffffffffffff021916908373ffffffffffffffffffffffffffffffffffffffff1602179055505050565b6000805b600380549050811015613484573373ffffffffffffffffffffffffffffffffffffffff166003828154811061342757fe5b9060005260206000200160009054906101000a900473ffffffffffffffffffffffffffffffffffffffff1673ffffffffffffffffffffffffffffffffffffffff1614156134775760019150613484565b80806001019150506133f6565b50806134c5576040517f08c379a00000000000000000000000000000000000000000000000000000000081526004016134bc90615865565b60405180910390fd5b81600460006101000a81548173ffffffffffffffffffffffffffffffffffffffff021916908373ffffffffffffffffffffffffffffffffffffffff160217905550600460009054906101000a900473ffffffffffffffffffffffffffffffffffffffff16600a60006101000a81548173ffffffffffffffffffffffffffffffffffffffff021916908373ffffffffffffffffffffffffffffffffffffffff1602179055505050565b600d5481565b61359d7fc65532185ed70b2e999433e2e9fac124e083acb13ec183a4e05944da0792337b33613603565b6135a657600080fd5b601160009054906101000a900460ff1615601160006101000a81548160ff021916908315150217905550565b60006135fb8260008086815260200190815260200160002060000161476590919063ffffffff16565b905092915050565b600061362c826000808681526020019081526020016000206000016142a290919063ffffffff16565b905092915050565b6000801b81565b60001515601160009054906101000a900460ff16151514613691576040517f08c379a000000000000000000000000000000000000000000000000000000000815260040161368890615885565b60405180910390fd5b6000806000600960009054906101000a900473ffffffffffffffffffffffffffffffffffffffff1673ffffffffffffffffffffffffffffffffffffffff1663d698477f6040518163ffffffff1660e01b815260040160e06040518083038186803b1580156136fe57600080fd5b505afa158015613712573d6000803e3d6000fd5b505050506040513d601f19601f820116820180604052508101906137369190614e1e565b50955050945050509250620f4240821015613786576040517f08c379a000000000000000000000000000000000000000000000000000000000815260040161377d90615745565b60405180910390fd5b60105484600160009054906101000a900473ffffffffffffffffffffffffffffffffffffffff1673ffffffffffffffffffffffffffffffffffffffff166370a08231306040518263ffffffff1660e01b81526004016137e591906155c0565b60206040518083038186803b1580156137fd57600080fd5b505afa158015613811573d6000803e3d6000fd5b505050506040513d601f19601f820116820180604052508101906138359190614db9565b011115613877576040517f08c379a000000000000000000000000000000000000000000000000000000000815260040161386e906158a5565b60405180910390fd5b600073__XebPoolLibrary________________________63dfce6f92600a60009054906101000a900473ffffffffffffffffffffffffffffffffffffffff1673ffffffffffffffffffffffffffffffffffffffff16633ddac953600560009054906101000a900473ffffffffffffffffffffffffffffffffffffffff166305f5e1006040518363ffffffff1660e01b815260040161391692919061563b565b60206040518083038186803b15801561392e57600080fd5b505afa158015613942573d6000803e3d6000fd5b505050506040513d601f19601f820116820180604052508101906139669190614db9565b8685896040518563ffffffff1660e01b81526004016139889493929190615997565b60206040518083038186803b1580156139a057600080fd5b505af41580156139b4573d6000803e3d6000fd5b505050506040513d601f19601f820116820180604052508101906139d89190614db9565b9050600160009054906101000a900473ffffffffffffffffffffffffffffffffffffffff1673ffffffffffffffffffffffffffffffffffffffff166323b872dd3330886040518463ffffffff1660e01b8152600401613a39939291906155db565b602060405180830381600087803b158015613a5357600080fd5b505af1158015613a67573d6000803e3d6000fd5b505050506040513d601f19601f82011682018060405250810190613a8b9190614cc6565b50600960009054906101000a900473ffffffffffffffffffffffffffffffffffffffff1673ffffffffffffffffffffffffffffffffffffffff1663b4f56b2633836040518363ffffffff1660e01b8152600401613ae9929190615612565b600060405180830381600087803b158015613b0357600080fd5b505af1158015613b17573d6000803e3d6000fd5b505050505050505050565b6000600c60008373ffffffffffffffffffffffffffffffffffffffff1673ffffffffffffffffffffffffffffffffffffffff168152602001908152602001600020549050919050565b600e5481565b6000613b9060008084815260200190815260200160002060000161477f565b9050919050565b6000600b60008373ffffffffffffffffffffffffffffffffffffffff1673ffffffffffffffffffffffffffffffffffffffff168152602001908152602001600020549050919050565b613c0660008084815260200190815260200160002060020154613c016145ed565b613603565b613c45576040517f08c379a0000000000000000000000000000000000000000000000000000000008152600401613c3c90615805565b60405180910390fd5b613c4f8282614688565b5050565b613c7d7fa84a5389ad41f9aab0831b01e5384cae76e7a7fd09131c206ff7927c201c385733613603565b613c8657600080fd5b601160019054906101000a900460ff1615601160016101000a81548160ff021916908315150217905550565b6000805b600380549050811015613d44573373ffffffffffffffffffffffffffffffffffffffff1660038281548110613ce757fe5b9060005260206000200160009054906101000a900473ffffffffffffffffffffffffffffffffffffffff1673ffffffffffffffffffffffffffffffffffffffff161415613d375760019150613d44565b8080600101915050613cb6565b5080613d85576040517f08c379a0000000000000000000000000000000000000000000000000000000008152600401613d7c90615865565b60405180910390fd5b816010819055505050565b6000806000806000600960009054906101000a900473ffffffffffffffffffffffffffffffffffffffff1673ffffffffffffffffffffffffffffffffffffffff1663d698477f6040518163ffffffff1660e01b815260040160e06040518083038186803b158015613e0057600080fd5b505afa158015613e14573d6000803e3d6000fd5b505050506040513d601f19601f82011682018060405250810190613e389190614e1e565b50509450945094505093506000613e6e85613e606305f5e100876144de90919063ffffffff16565b61454e90919063ffffffff16565b90506305f5e100831115613e84576305f5e10092505b6000613eaf6305f5e100613ea186856144de90919063ffffffff16565b61454e90919063ffffffff16565b905080831115613ed957613ecc818461471b90919063ffffffff16565b9650505050505050613ee4565b600096505050505050505b90565b60001515601160029054906101000a900460ff16151514613f3d576040517f08c379a0000000000000000000000000000000000000000000000000000000008152600401613f3490615925565b60405180910390fd5b6000806000600960009054906101000a900473ffffffffffffffffffffffffffffffffffffffff1673ffffffffffffffffffffffffffffffffffffffff1663d698477f6040518163ffffffff1660e01b815260040160e06040518083038186803b158015613faa57600080fd5b505afa158015613fbe573d6000803e3d6000fd5b505050506040513d601f19601f82011682018060405250810190613fe29190614e1e565b96505050505092509250613ff4614c05565b6040518060a0016040528083815260200161400d613d90565b8152602001848152602001614113866141056305f5e100600a60009054906101000a900473ffffffffffffffffffffffffffffffffffffffff1673ffffffffffffffffffffffffffffffffffffffff16633ddac953600560009054906101000a900473ffffffffffffffffffffffffffffffffffffffff166305f5e1006040518363ffffffff1660e01b81526004016140a792919061563b565b60206040518083038186803b1580156140bf57600080fd5b505afa1580156140d3573d6000803e3d6000fd5b505050506040513d601f19601f820116820180604052508101906140f79190614db9565b6144de90919063ffffffff16565b61454e90919063ffffffff16565b8152602001868152509050600061412982614794565b9050600160009054906101000a900473ffffffffffffffffffffffffffffffffffffffff1673ffffffffffffffffffffffffffffffffffffffff1663a9059cbb33836040518363ffffffff1660e01b8152600401614188929190615612565b602060405180830381600087803b1580156141a257600080fd5b505af11580156141b6573d6000803e3d6000fd5b505050506040513d601f19601f820116820180604052508101906141da9190614cc6565b50600860009054906101000a900473ffffffffffffffffffffffffffffffffffffffff1673ffffffffffffffffffffffffffffffffffffffff166379cc679033886040518363ffffffff1660e01b8152600401614238929190615612565b600060405180830381600087803b15801561425257600080fd5b505af1158015614266573d6000803e3d6000fd5b50505050505050505050565b600061429a836000018373ffffffffffffffffffffffffffffffffffffffff1660001b6148d4565b905092915050565b60006142ca836000018373ffffffffffffffffffffffffffffffffffffffff1660001b614944565b905092915050565b60008060008060008060008061430f89604001516143016305f5e1008c606001516144de90919063ffffffff16565b61454e90919063ffffffff16565b905061434289602001516143346305f5e1008c608001516144de90919063ffffffff16565b61454e90919063ffffffff16565b9250614371816143636305f5e1008c60a001516144de90919063ffffffff16565b61454e90919063ffffffff16565b915061439c6305f5e10061438e83856144de90919063ffffffff16565b61454e90919063ffffffff16565b9350508760e00151838960c0015101106143eb576040517f08c379a00000000000000000000000000000000000000000000000000000000081526004016143e290615845565b60405180910390fd5b6144576305f5e1006144498a6020015161443b8561442d8e610100015161441f6305f5e1008a6144de90919063ffffffff16565b61454e90919063ffffffff16565b61471b90919063ffffffff16565b6144de90919063ffffffff16565b61454e90919063ffffffff16565b935061448688602001516144786305f5e100876144de90919063ffffffff16565b61454e90919063ffffffff16565b9150826144cc6144bb6305f5e1006144ad8c600001518787016144de90919063ffffffff16565b61454e90919063ffffffff16565b84840161471b90919063ffffffff16565b85965096509650505050509193909250565b6000808314156144f15760009050614548565b600082840290508284828161450257fe5b0414614543576040517f08c379a000000000000000000000000000000000000000000000000000000000815260040161453a90615825565b60405180910390fd5b809150505b92915050565b600061459083836040518060400160405280601a81526020017f536166654d6174683a206469766973696f6e206279207a65726f000000000000815250614967565b905092915050565b6000808284019050838110156145e3576040517f08c379a00000000000000000000000000000000000000000000000000000000081526004016145da90615765565b60405180910390fd5b8091505092915050565b600033905090565b61461c8160008085815260200190815260200160002060000161427290919063ffffffff16565b15614684576146296145ed565b73ffffffffffffffffffffffffffffffffffffffff168173ffffffffffffffffffffffffffffffffffffffff16837f2f8788117e7eff1d82e926ec794901d17c78024a50270940304540a733656f0d60405160405180910390a45b5050565b6146af816000808581526020019081526020016000206000016149c890919063ffffffff16565b15614717576146bc6145ed565b73ffffffffffffffffffffffffffffffffffffffff168173ffffffffffffffffffffffffffffffffffffffff16837ff6391f5c32d9c69d2a47ea670b442974b53935d1edc7fd64eb21e047a839171b60405160405180910390a45b5050565b600061475d83836040518060400160405280601e81526020017f536166654d6174683a207375627472616374696f6e206f766572666c6f7700008152506149f8565b905092915050565b60006147748360000183614a53565b60001c905092915050565b600061478d82600001614ac0565b9050919050565b6000808260200151116147dc576040517f08c379a00000000000000000000000000000000000000000000000000000000081526004016147d3906157e5565b60405180910390fd5b600061480f83604001516148016305f5e10086608001516144de90919063ffffffff16565b61454e90919063ffffffff16565b90508260200151811115614858576040517f08c379a000000000000000000000000000000000000000000000000000000000815260040161484f90615725565b60405180910390fd5b600061488784606001516148796305f5e100856144de90919063ffffffff16565b61454e90919063ffffffff16565b90506148c86148b96305f5e1006148ab8760000151856144de90919063ffffffff16565b61454e90919063ffffffff16565b8261471b90919063ffffffff16565b90508092505050919050565b60006148e08383614944565b61493957826000018290806001815401808255809150506001900390600052602060002001600090919091909150558260000180549050836001016000848152602001908152602001600020819055506001905061493e565b600090505b92915050565b600080836001016000848152602001908152602001600020541415905092915050565b600080831182906149ae576040517f08c379a00000000000000000000000000000000000000000000000000000000081526004016149a591906156c3565b60405180910390fd5b5060008385816149ba57fe5b049050809150509392505050565b60006149f0836000018373ffffffffffffffffffffffffffffffffffffffff1660001b614ad1565b905092915050565b6000838311158290614a40576040517f08c379a0000000000000000000000000000000000000000000000000000000008152600401614a3791906156c3565b60405180910390fd5b5060008385039050809150509392505050565b600081836000018054905011614a9e576040517f08c379a0000000000000000000000000000000000000000000000000000000008152600401614a95906156e5565b60405180910390fd5b826000018281548110614aad57fe5b9060005260206000200154905092915050565b600081600001805490509050919050565b60008083600101600084815260200190815260200160002054905060008114614bad5760006001820390506000600186600001805490500390506000866000018281548110614b1c57fe5b9060005260206000200154905080876000018481548110614b3957fe5b9060005260206000200181905550600183018760010160008381526020019081526020016000208190555086600001805480614b7157fe5b60019003818190600052602060002001600090559055866001016000878152602001908152602001600020600090556001945050505050614bb3565b60009150505b92915050565b6040518061012001604052806000815260200160008152602001600081526020016000815260200160008152602001600081526020016000815260200160008152602001600081525090565b6040518060a0016040528060008152602001600081526020016000815260200160008152602001600081525090565b600081359050614c4381615ad6565b92915050565b600081519050614c5881615aed565b92915050565b600081359050614c6d81615b04565b92915050565b600081359050614c8281615b1b565b92915050565b600081519050614c9781615b1b565b92915050565b600060208284031215614caf57600080fd5b6000614cbd84828501614c34565b91505092915050565b600060208284031215614cd857600080fd5b6000614ce684828501614c49565b91505092915050565b600060208284031215614d0157600080fd5b6000614d0f84828501614c5e565b91505092915050565b60008060408385031215614d2b57600080fd5b6000614d3985828601614c5e565b9250506020614d4a85828601614c34565b9150509250929050565b60008060408385031215614d6757600080fd5b6000614d7585828601614c5e565b9250506020614d8685828601614c73565b9150509250929050565b600060208284031215614da257600080fd5b6000614db084828501614c73565b91505092915050565b600060208284031215614dcb57600080fd5b6000614dd984828501614c88565b91505092915050565b60008060408385031215614df557600080fd5b6000614e0385828601614c73565b9250506020614e1485828601614c73565b9150509250929050565b600080600080600080600060e0888a031215614e3957600080fd5b6000614e478a828b01614c88565b9750506020614e588a828b01614c88565b9650506040614e698a828b01614c88565b9550506060614e7a8a828b01614c88565b9450506080614e8b8a828b01614c88565b93505060a0614e9c8a828b01614c88565b92505060c0614ead8a828b01614c88565b91505092959891949750929550565b614ec581615a4a565b82525050565b614ed4816159f8565b82525050565b614ee381615a0a565b82525050565b614ef281615a16565b82525050565b614f0181615a5c565b82525050565b6000614f12826159dc565b614f1c81856159e7565b9350614f2c818560208601615a92565b614f3581615ac5565b840191505092915050565b6000614f4d6022836159e7565b91507f456e756d657261626c655365743a20696e646578206f7574206f6620626f756e60008301527f64730000000000000000000000000000000000000000000000000000000000006020830152604082019050919050565b6000614fb3602f836159e7565b91507f416363657373436f6e74726f6c3a2073656e646572206d75737420626520616e60008301527f2061646d696e20746f206772616e7400000000000000000000000000000000006020830152604082019050919050565b60006150196030836159e7565b91507f596f752061726520747279696e6720746f20627579206261636b206d6f72652060008301527f7468616e207468652065786365737321000000000000000000000000000000006020830152604082019050919050565b600061507f601d836159e7565b91507f436f6c6c61746572616c20726174696f206d757374206265203e3d20310000006000830152602082019050919050565b60006150bf601b836159e7565b91507f536166654d6174683a206164646974696f6e206f766572666c6f7700000000006000830152602082019050919050565b60006150ff6038836159e7565b91507f436f6c6c61746572616c20726174696f206e6565647320746f2062652062657460008301527f7765656e202e30303030303120616e64202e39393939393900000000000000006020830152604082019050919050565b60006151656039836159e7565b91507f6d7573742077616974206174206c65617374206f6e6520626c6f636b2062656660008301527f6f726520636f6c6c656374696e6720726564656d7074696f6e000000000000006020830152604082019050919050565b60006151cb6013836159e7565b91507f52656465656d696e6720697320706175736564000000000000000000000000006000830152602082019050919050565b600061520b6021836159e7565b91507f4e6f2065786365737320636f6c6c61746572616c20746f20627579206261636b60008301527f21000000000000000000000000000000000000000000000000000000000000006020830152604082019050919050565b60006152716030836159e7565b91507f416363657373436f6e74726f6c3a2073656e646572206d75737420626520616e60008301527f2061646d696e20746f207265766f6b65000000000000000000000000000000006020830152604082019050919050565b60006152d76021836159e7565b91507f536166654d6174683a206d756c7469706c69636174696f6e206f766572666c6f60008301527f77000000000000000000000000000000000000000000000000000000000000006020830152604082019050919050565b600061533d6044836159e7565b91507f506f6f6c206365696c696e6720726561636865642c206e6f206d6f726520584560008301527f422063616e206265206d696e7465642077697468207468697320636f6c6c617460208301527f6572616c000000000000000000000000000000000000000000000000000000006040830152606082019050919050565b60006153c96013836159e7565b91507f596f75277265206e6f7420616e206f776e6572000000000000000000000000006000830152602082019050919050565b60006154096011836159e7565b91507f4d696e74696e67206973207061757365640000000000000000000000000000006000830152602082019050919050565b60006154496020836159e7565b91507f5b506f6f6c277320436c6f7365645d3a204365696c696e6720726561636865646000830152602082019050919050565b6000615489601a836159e7565b91507f6e6f20657874726120636f6c6c61746572616c206e65656465640000000000006000830152602082019050919050565b60006154c9601a836159e7565b91507f436f6c6c61746572616c20726174696f206d75737420626520300000000000006000830152602082019050919050565b6000615509602f836159e7565b91507f416363657373436f6e74726f6c3a2063616e206f6e6c792072656e6f756e636560008301527f20726f6c657320666f722073656c6600000000000000000000000000000000006020830152604082019050919050565b600061556f6011836159e7565b91507f4275796261636b206973207061757365640000000000000000000000000000006000830152602082019050919050565b6155ab81615a40565b82525050565b6155ba81615a40565b82525050565b60006020820190506155d56000830184614ecb565b92915050565b60006060820190506155f06000830186614ebc565b6155fd6020830185614ecb565b61560a60408301846155a2565b949350505050565b60006040820190506156276000830185614ebc565b61563460208301846155a2565b9392505050565b60006040820190506156506000830185614ecb565b61565d6020830184614ef8565b9392505050565b60006040820190506156796000830185614ecb565b61568660208301846155a2565b9392505050565b60006020820190506156a26000830184614eda565b92915050565b60006020820190506156bd6000830184614ee9565b92915050565b600060208201905081810360008301526156dd8184614f07565b905092915050565b600060208201905081810360008301526156fe81614f40565b9050919050565b6000602082019050818103600083015261571e81614fa6565b9050919050565b6000602082019050818103600083015261573e8161500c565b9050919050565b6000602082019050818103600083015261575e81615072565b9050919050565b6000602082019050818103600083015261577e816150b2565b9050919050565b6000602082019050818103600083015261579e816150f2565b9050919050565b600060208201905081810360008301526157be81615158565b9050919050565b600060208201905081810360008301526157de816151be565b9050919050565b600060208201905081810360008301526157fe816151fe565b9050919050565b6000602082019050818103600083015261581e81615264565b9050919050565b6000602082019050818103600083015261583e816152ca565b9050919050565b6000602082019050818103600083015261585e81615330565b9050919050565b6000602082019050818103600083015261587e816153bc565b9050919050565b6000602082019050818103600083015261589e816153fc565b9050919050565b600060208201905081810360008301526158be8161543c565b9050919050565b600060208201905081810360008301526158de8161547c565b9050919050565b600060208201905081810360008301526158fe816154bc565b9050919050565b6000602082019050818103600083015261591e816154fc565b9050919050565b6000602082019050818103600083015261593e81615562565b9050919050565b600060208201905061595a60008301846155a2565b92915050565b600060608201905061597560008301866155b1565b61598260208301856155b1565b61598f60408301846155b1565b949350505050565b60006080820190506159ac60008301876155b1565b6159b960208301866155b1565b6159c660408301856155b1565b6159d360608301846155b1565b95945050505050565b600081519050919050565b600082825260208201905092915050565b6000615a0382615a20565b9050919050565b60008115159050919050565b6000819050919050565b600073ffffffffffffffffffffffffffffffffffffffff82169050919050565b6000819050919050565b6000615a5582615a6e565b9050919050565b6000615a6782615a40565b9050919050565b6000615a7982615a80565b9050919050565b6000615a8b82615a20565b9050919050565b60005b83811015615ab0578082015181840152602081019050615a95565b83811115615abf576000848401525b50505050565b6000601f19601f8301169050919050565b615adf816159f8565b8114615aea57600080fd5b50565b615af681615a0a565b8114615b0157600080fd5b50565b615b0d81615a16565b8114615b1857600080fd5b50565b615b2481615a40565b8114615b2f57600080fd5b5056fea2646970667358221220981cefe9348dfb9500beb8741147b6e81f6e5470f8e4e18878b99fe92a750b9464736f6c634300060c0033",
  "immutableReferences": {},
  "source": "// SPDX-License-Identifier: MIT\npragma solidity ^0.6.0 <0.7.0;\npragma experimental ABIEncoderV2;\n\nimport \"../../Math/SafeMath.sol\";\nimport \"../../Xesh/XESH.sol\";\nimport \"../../Xeb/Xeb.sol\";\nimport \"../../ERC20/ERC20.sol\";\n// import '../../Uniswap/TransferHelper.sol';\nimport \"../../Oracle/UniswapPairOracle.sol\";\nimport \"../../Governance/AccessControl.sol\";\n// import \"../../Utils/StringHelpers.sol\";\nimport \"./XebPoolLibrary.sol\";\n\ncontract XebPool is AccessControl {\n    using SafeMath for uint256;\n\n    /* ========== STATE VARIABLES ========== */\n\n    ERC20 private collateral_token;\n    address private collateral_address;\n    address[] private owners;\n    address private oracle_address;\n    address private xeb_contract_address;\n    address private xesh_contract_address;\n    address private timelock_address;\n    XEBShares private XESH;\n    XEBECStablecoin private XEB;\n    UniswapPairOracle private oracle;\n\n    mapping (address => uint256) private redeemXESHBalances;\n    mapping (address => uint256) private redeemCollateralBalances;\n    uint256 public unclaimedPoolCollateral;\n    uint256 public unclaimedPoolXESH;\n    mapping (address => uint256) lastRedeemed;\n    \n    // Pool_ceiling is the total units of collateral that a pool contract can hold\n    uint256 private pool_ceiling = 0;\n\n    // AccessControl Roles\n    bytes32 private constant MINT_PAUSER = keccak256(\"MINT_PAUSER\");\n    bytes32 private constant REDEEM_PAUSER = keccak256(\"REDEEM_PAUSER\");\n    bytes32 private constant BUYBACK_PAUSER = keccak256(\"BUYBACK_PAUSER\");\n    \n    // AccessControl state variables\n    bool mintPaused = false;\n    bool redeemPaused = false;\n    bool buyBackPaused = false;\n\n    /* ========== MODIFIERS ========== */\n\n    modifier onlyByOwnerOrGovernance() {\n        // Loop through the owners until one is found\n        bool found = false;\n        for (uint i = 0; i < owners.length; i++){ \n            if (owners[i] == msg.sender) {\n                found = true;\n                break;\n            }\n        }\n        require(found, \"You're not an owner\");\n        _;\n    }\n\n    // AccessControl Modifiers\n    modifier onlyMintPauser() {\n        require(hasRole(MINT_PAUSER, msg.sender));\n        _;\n    }\n\n    modifier onlyRedeemPauser() {\n        require(hasRole(REDEEM_PAUSER, msg.sender));\n        _;\n    }\n\n    modifier onlyBuyBackPauser() {\n        require(hasRole(BUYBACK_PAUSER, msg.sender));\n        _;\n    }\n\n    modifier notRedeemPaused() {\n        require(redeemPaused == false, \"Redeeming is paused\");\n        _;\n    }\n\n    modifier notMintPaused() {\n        require(mintPaused == false, \"Minting is paused\");\n        _;\n    }\n \n    /* ========== CONSTRUCTOR ========== */\n    \n    constructor(\n        address _collateral_address,\n        address _oracle_address,\n        address _creator_address,\n        address _timelock_address,\n        uint256 _pool_ceiling\n    ) public {\n        collateral_address = _collateral_address;\n        oracle_address = _oracle_address;\n        timelock_address = _timelock_address;\n        owners.push(_creator_address);\n        owners.push(_timelock_address);\n        oracle = UniswapPairOracle(_oracle_address);\n        collateral_token = ERC20(_collateral_address);\n        pool_ceiling = _pool_ceiling;\n\n        _setupRole(DEFAULT_ADMIN_ROLE, _msgSender());\n        grantRole(MINT_PAUSER, oracle_address);\n        grantRole(MINT_PAUSER, timelock_address);\n        grantRole(REDEEM_PAUSER, oracle_address);\n        grantRole(REDEEM_PAUSER, timelock_address);\n        grantRole(BUYBACK_PAUSER, oracle_address);\n        grantRole(BUYBACK_PAUSER, timelock_address);\n    }\n\n    /* ========== VIEWS ========== */\n\n    \n    function unclaimedXESH(address _account) public view returns (uint256) {\n        return redeemXESHBalances[_account];\n    }\n\n    function unclaimedCollateral(address _account) public view returns (uint256) {\n        return redeemCollateralBalances[_account];\n    }\n\n    function collatDollarBalance() public view returns (uint256) {\n        return (collateral_token.balanceOf(address(this)) - unclaimedPoolCollateral)\n                                .mul(oracle.consult(xeb_contract_address, 1e8))  // X XEB / 1 COLLAT\n                                .div(XEB.xeb_price());\n    }\n\n\n    // (uint256 xeb_price, uint256 xesh_price, uint256 total_supply, uint256 global_collateral_ratio, uint256 global_collat_value, uint256 minting_fee, uint256 redemption_fee) = XEB.xeb_info();\n\n    function availableExcessCollatDV() public view returns (uint256) {\n        (uint256 xeb_price, , uint256 total_supply, uint256 global_collateral_ratio, uint256 global_collat_value, , ) = XEB.xeb_info();\n        uint256 total_XEB_sats_value_d8 = total_supply.mul(1e8).div(xeb_price); \n        if (global_collateral_ratio > 1e8) global_collateral_ratio = 1e8; // Handles an overcollateralized contract with CR > 1\n        uint256 required_collat_sats_value_d8 = (total_XEB_sats_value_d8.mul(global_collateral_ratio)).div(1e8);\n        if (global_collat_value > required_collat_sats_value_d8) return global_collat_value.sub(required_collat_sats_value_d8);\n        else return 0;\n    }\n\n    /* ========== PUBLIC FUNCTIONS ========== */\n    \n    // We separate out the 1t1, fractional and algorithmic minting functions for gas efficiency \n    // 100+% collateral-backed\n    function mint1t1XEB(uint256 collateral_amount_d8) external notMintPaused {\n        (uint256 xeb_price, , , uint256 global_collateral_ratio, , uint256 minting_fee, ) = XEB.xeb_info();\n        require(global_collateral_ratio >= 1000000, \"Collateral ratio must be >= 1\");\n        require((collateral_token.balanceOf(address(this))) + collateral_amount_d8 <= pool_ceiling, \"[Pool's Closed]: Ceiling reached\");\n        \n        (uint256 xeb_amount_d8) = XebPoolLibrary.calcMint1t1XEB(\n            oracle.consult(xeb_contract_address, 1e8), // X XEB / 1 COLLAT\n            xeb_price,\n            minting_fee,\n            collateral_amount_d8\n        );\n\n        // TransferHelper.safeTransferFrom(collateral_address, msg.sender, address(this), collateral_amount_d8);\n        collateral_token.transferFrom(msg.sender, address(this), collateral_amount_d8);\n        XEB.pool_mint(msg.sender, xeb_amount_d8);\n    }\n\n    // 0% collateral-backed\n    function mintAlgorithmicXEB(uint256 xesh_amount_d8) external notMintPaused {\n        (, uint256 xesh_price, , uint256 global_collateral_ratio, , uint256 minting_fee, ) = XEB.xeb_info();\n        require(global_collateral_ratio == 0, \"Collateral ratio must be 0\");\n        \n        (uint256 xeb_amount_d8) = XebPoolLibrary.calcMintAlgorithmicXEB(\n            minting_fee, \n            xesh_price, // X XESH / 1 USD\n            xesh_amount_d8\n        );\n\n        XESH.pool_burn_from(msg.sender, xesh_amount_d8);\n        XEB.pool_mint(msg.sender, xeb_amount_d8);\n    }\n\n    // Will fail if fully collateralized or fully algorithmic\n    // > 0% and < 100% collateral-backed\n    function mintFractionalXEB(uint256 collateral_amount, uint256 xesh_amount) external notMintPaused {\n        (uint256 xeb_price, uint256 xesh_price, , uint256 global_collateral_ratio, , uint256 minting_fee, ) = XEB.xeb_info();\n        require(global_collateral_ratio < 1000000 && global_collateral_ratio > 0, \"Collateral ratio needs to be between .000001 and .999999\");\n        \n        XebPoolLibrary.MintFF_Params memory input_params = XebPoolLibrary.MintFF_Params(\n            minting_fee, \n            xesh_price, // X XESH / 1 USD\n            xeb_price,\n            oracle.consult(xeb_contract_address, 1e8),\n            xesh_amount,\n            collateral_amount,\n            (collateral_token.balanceOf(address(this))),\n            pool_ceiling,\n            global_collateral_ratio\n        );\n\n        (uint256 collateral_needed, uint256 mint_amount, uint256 xesh_needed) = XebPoolLibrary.calcMintFractionalXEB(input_params);\n\n        require((collateral_token.balanceOf(address(this))) + collateral_needed <= pool_ceiling, \"[Pool's Closed]: Ceiling reached\");\n\n        // TransferHelper.safeTransferFrom(collateral_address, msg.sender, address(this), collateral_needed);\n        collateral_token.transferFrom(msg.sender, address(this), collateral_needed);\n        XEB.pool_mint(msg.sender, mint_amount);\n        XESH.burnFrom(msg.sender, xesh_needed);\n    }\n\n    // Redeem collateral. 100+% collateral-backed\n    function redeem1t1XEB(uint256 XEB_amount) external notRedeemPaused {\n        (uint256 xeb_price, , , uint256 global_collateral_ratio, , , uint256 redemption_fee) = XEB.xeb_info();\n        require(global_collateral_ratio >= 1000000, \"Collateral ratio must be >= 1\");\n\n        (uint256 collateral_needed) = XebPoolLibrary.calcRedeem1t1XEB(\n            xeb_price,\n            oracle.consult(xeb_contract_address, 1e8).mul(1e8).div(xeb_price),\n            XEB_amount,\n            redemption_fee\n        );\n\n        collateral_token.approve(msg.sender, collateral_needed);\n        redeemCollateralBalances[msg.sender] += collateral_needed;\n        unclaimedPoolCollateral += collateral_needed;\n        \n        lastRedeemed[msg.sender] = block.number;\n\n        XEB.pool_burn_from(msg.sender, XEB_amount);\n    }\n\n    // Will fail if fully collateralized or algorithmic\n    // Redeem XEB for collateral and XESH. .000001% - .999999% collateral-backed\n    function redeemFractionalXEB(uint256 XEB_amount) external notRedeemPaused {\n        (uint256 xeb_price, uint256 xesh_price, , uint256 global_collateral_ratio, , , uint256 redemption_fee) = XEB.xeb_info();\n        require(global_collateral_ratio < 1000000 && global_collateral_ratio > 0, \"Collateral ratio needs to be between .000001 and .999999\");\n        uint256 xeb_sats_value_d8 = XEB_amount.mul(1e8).div(xeb_price);\n        uint256 col_price_usd = oracle.consult(xeb_contract_address, 1e8).mul(1e8).div(xeb_price);\n\n        xeb_sats_value_d8 = xeb_sats_value_d8.sub((xeb_sats_value_d8.mul(redemption_fee)).div(1e8));\n        uint256 collateral_sats_value_d8 = xeb_sats_value_d8.mul(global_collateral_ratio).div(1e8);\n        uint256 xesh_sats_value_d8 = xeb_sats_value_d8.sub(collateral_sats_value_d8);\n\n        collateral_token.approve(msg.sender, collateral_sats_value_d8.mul(col_price_usd).div(1e8));\n        redeemCollateralBalances[msg.sender] += collateral_sats_value_d8.mul(col_price_usd).div(1e8);\n        unclaimedPoolCollateral += collateral_sats_value_d8.mul(col_price_usd).div(1e8);\n\n        XESH.pool_mint(address(this), xesh_sats_value_d8.mul(xesh_price).div(1e8));\n        XESH.approve(msg.sender, xesh_sats_value_d8.mul(xesh_price).div(1e8));\n        redeemXESHBalances[msg.sender] += xesh_sats_value_d8.mul(xesh_price).div(1e8);\n        unclaimedPoolXESH += xesh_sats_value_d8.mul(xesh_price).div(1e8);\n        \n        lastRedeemed[msg.sender] = block.number;\n\n        XEB.pool_burn_from(msg.sender, XEB_amount);\n    }\n\n    // Redeem XEB for XESH. 0% collateral-backed\n    function redeemAlgorithmicXEB(uint256 XEB_amount) external notRedeemPaused {\n        (uint256 xeb_price, uint256 xesh_price, , uint256 global_collateral_ratio, , , uint256 redemption_fee) = XEB.xeb_info();\n        require(global_collateral_ratio == 0, \"Collateral ratio must be 0\"); \n        uint256 xeb_sats_value_d8 = XEB_amount.mul(1e8).div(xeb_price);\n        xeb_sats_value_d8 = xeb_sats_value_d8.sub((xeb_sats_value_d8.mul(redemption_fee)).div(1e8));\n\n        XESH.pool_mint(address(this), xeb_sats_value_d8.mul(xesh_price).div(1e8));\n        XESH.approve(msg.sender, xeb_sats_value_d8.mul(xesh_price).div(1e8));\n        redeemXESHBalances[msg.sender] += xeb_sats_value_d8.mul(xesh_price).div(1e8);\n        unclaimedPoolXESH += xeb_sats_value_d8.mul(xesh_price).div(1e8);\n        \n        lastRedeemed[msg.sender] = block.number;\n        \n        XEB.pool_burn_from(msg.sender, XEB_amount);\n    }\n\n    // After a redemption happens, transfer the newly minted XESH and owed collateral from this pool\n    // contract to the user. Redemption is split into two functions to prevent flash loans from being able\n    // to take out XEB/collateral from the system, use an AMM to trade the new price, and then mint back into the system.\n    function collectRedemption() public {\n        require(lastRedeemed[msg.sender] < block.number, \"must wait at least one block before collecting redemption\");\n        if(redeemXESHBalances[msg.sender] > 0){\n            XESH.transfer(msg.sender, redeemXESHBalances[msg.sender]);\n            unclaimedPoolXESH -= redeemXESHBalances[msg.sender];\n            redeemXESHBalances[msg.sender] = 0;\n        }\n        \n        if(redeemCollateralBalances[msg.sender] > 0){\n            collateral_token.transfer(msg.sender, redeemCollateralBalances[msg.sender]);\n            unclaimedPoolCollateral -= redeemCollateralBalances[msg.sender];\n            redeemCollateralBalances[msg.sender] = 0;\n        }\n    }\n\n\n    // Function can be called by an XESH holder to have the protocol buy back XESH with excess collateral value from a desired collateral pool\n    // This can also happen if the collateral ratio > 1\n    function buyBackXESH(uint256 XESH_amount) external {\n        require(buyBackPaused == false, \"Buyback is paused\");\n        (uint256 xeb_price, uint256 xesh_price, , , , , uint256 redemption_fee) = XEB.xeb_info();\n        \n        XebPoolLibrary.BuybackXESH_Params memory input_params = XebPoolLibrary.BuybackXESH_Params(\n            redemption_fee,\n            availableExcessCollatDV(),\n            xesh_price,\n            oracle.consult(xeb_contract_address, 1e8).mul(1e8).div(xeb_price),\n            XESH_amount\n        );\n\n        (uint256 collateral_equivalent_d8) = XebPoolLibrary.calcBuyBackXESH(input_params);\n\n        // Give the sender their desired collateral and burn the XESH\n        collateral_token.transfer(msg.sender, collateral_equivalent_d8);\n        XESH.burnFrom(msg.sender, XESH_amount);\n    }\n\n    \n    // When the protocol is recollateralizing, we need to give a discount of XESH to hit the new CR target\n    // Returns value of collateral that must increase to reach recollateralization target (if 0 means no recollateralization)\n    function recollateralizeAmount() public view returns (uint256 recollateralization_left) {\n        ( , , uint256 total_supply, uint256 global_collateral_ratio, uint256 global_collat_value, , ) = XEB.xeb_info();\n        uint256 target_collat_value = total_supply.mul(global_collateral_ratio).div(1e12); // We want 6 degrees of precision so divide by 1e12 \n        // Subtract the current value of collateral from the target value needed, if higher than 0 then system needs to recollateralize\n        if (target_collat_value > global_collat_value) recollateralization_left = target_collat_value.sub(global_collat_value); \n        \n        else recollateralization_left = 0;\n        \n        return(recollateralization_left);\n    }\n    \n    // Thus, if the target collateral ratio is higher than the actual value of collateral, minters get XESH for adding collateral\n    // This function simply rewards anyone that sends collateral to a pool with the same amount of XESH + 1% \n    // Anyone can call this function to recollateralize the protocol and take the hardcoded 1% arb opportunity\n    function recollateralizeXeb(uint256 collateral_amount_d8) public {\n        require(recollateralizeAmount() > 0, \"no extra collateral needed\"); \n\n        (uint256 xeb_price, uint256 xesh_price, , , , , ) = XEB.xeb_info();\n        // The discount rate is the extra XESH they get for the collateral they put in, essentially an open arb opportunity \n        uint256 col_price = oracle.consult(xeb_contract_address, 1e8); // X XEB / 1 COLLAT\n        uint256 col_price_usd = col_price.mul(1e8).div(xeb_price);\n        uint256 c_sats_value_d8 = (collateral_amount_d8.mul(col_price_usd)).div(1e8);\n        uint256 recol_am = recollateralizeAmount();\n        \n        if (recol_am >= c_sats_value_d8)  recol_am = c_sats_value_d8;\n        \n        else {\n           c_sats_value_d8 = recol_am;  \n        }\n        uint256 xesh_col_value = c_sats_value_d8.add(recol_am.div(1e2)); // Add the discount rate of 1% to the XESH amount \n        collateral_token.transferFrom(msg.sender, address(this), collateral_amount_d8);\n        XESH.pool_mint(tx.origin, xesh_col_value.mul(xesh_price).div(1e8));\n\n    }\n\n    /* ========== RESTRICTED FUNCTIONS ========== */\n\n    function toggleMinting() external onlyMintPauser {\n        mintPaused = !mintPaused;\n    }\n    \n    function toggleRedeeming() external onlyRedeemPauser {\n        redeemPaused = !redeemPaused;\n    }\n    \n    function toggleBuyBack() external onlyBuyBackPauser {\n        buyBackPaused = !buyBackPaused;\n    }\n\n    function setPoolCeiling(uint256 new_ceiling) external onlyByOwnerOrGovernance {\n        pool_ceiling = new_ceiling;\n    }\n\n    function setOracle(address new_oracle) external onlyByOwnerOrGovernance {\n        oracle_address = new_oracle;\n        oracle = UniswapPairOracle(oracle_address);\n    }\n    \n    function setCollateralAdd(address _collateral_address) external onlyByOwnerOrGovernance {\n        collateral_address = _collateral_address;\n        collateral_token = ERC20(_collateral_address);\n    }\n    \n    function setXEBAddress(address _xeb_contract_address) external onlyByOwnerOrGovernance {\n        XEB = XEBECStablecoin(_xeb_contract_address);\n        xeb_contract_address = _xeb_contract_address;\n    }\n\n    function setXESHAddress(address _xesh_contract_address) external onlyByOwnerOrGovernance {\n        XESH = XEBShares(_xesh_contract_address);\n        xesh_contract_address = _xesh_contract_address;\n    }\n\n    // Adds an owner \n    function addOwner(address owner_address) external onlyByOwnerOrGovernance {\n        owners.push(owner_address);\n    }\n\n    // Removes an owner \n    function removeOwner(address owner_address) external onlyByOwnerOrGovernance {\n        // 'Delete' from the array by setting the address to 0x0\n        for (uint i = 0; i < owners.length; i++){ \n            if (owners[i] == owner_address) {\n                owners[i] = address(0); // This will leave a null in the array and keep the indices the same\n                break;\n            }\n        }\n    }\n    \n    /* ========== EVENTS ========== */\n\n}\n",
  "sourcePath": "/Users/abdulhafiz/Documents/projects/xeb/defi_fraxlink_contract/contracts/Xeb/Pools/XebPool.sol",
  "compiler": {
    "name": "solc",
    "version": "0.6.12+commit.27d51765.Emscripten.clang"
  },
  "schemaVersion": "3.3.4",
  "updatedAt": "2021-03-07T17:07:33.028Z",
  "devdoc": {
    "kind": "dev",
    "methods": {
      "getRoleAdmin(bytes32)": {
        "details": "Returns the admin role that controls `role`. See {grantRole} and {revokeRole}. To change a role's admin, use {_setRoleAdmin}."
      },
      "getRoleMember(bytes32,uint256)": {
        "details": "Returns one of the accounts that have `role`. `index` must be a value between 0 and {getRoleMemberCount}, non-inclusive. Role bearers are not sorted in any particular way, and their ordering may change at any point. WARNING: When using {getRoleMember} and {getRoleMemberCount}, make sure you perform all queries on the same block. See the following https://forum.openzeppelin.com/t/iterating-over-elements-on-enumerableset-in-openzeppelin-contracts/2296[forum post] for more information."
      },
      "getRoleMemberCount(bytes32)": {
        "details": "Returns the number of accounts that have `role`. Can be used together with {getRoleMember} to enumerate all bearers of a role."
      },
      "grantRole(bytes32,address)": {
        "details": "Grants `role` to `account`. If `account` had not been already granted `role`, emits a {RoleGranted} event. Requirements: - the caller must have ``role``'s admin role."
      },
      "hasRole(bytes32,address)": {
        "details": "Returns `true` if `account` has been granted `role`."
      },
      "renounceRole(bytes32,address)": {
        "details": "Revokes `role` from the calling account. Roles are often managed via {grantRole} and {revokeRole}: this function's purpose is to provide a mechanism for accounts to lose their privileges if they are compromised (such as when a trusted device is misplaced). If the calling account had been granted `role`, emits a {RoleRevoked} event. Requirements: - the caller must be `account`."
      },
      "revokeRole(bytes32,address)": {
        "details": "Revokes `role` from `account`. If `account` had been granted `role`, emits a {RoleRevoked} event. Requirements: - the caller must have ``role``'s admin role."
      }
    },
    "version": 1
  },
  "userdoc": {
    "kind": "user",
    "methods": {},
    "version": 1
  }
}