{
  "contractName": "XEBShares",
  "abi": [
    {
      "inputs": [
        {
          "internalType": "string",
          "name": "_symbol",
          "type": "string"
        },
        {
          "internalType": "uint256",
          "name": "_genesis_supply",
          "type": "uint256"
        },
        {
          "internalType": "uint256",
          "name": "_maximum_supply",
          "type": "uint256"
        },
        {
          "internalType": "address",
          "name": "_oracle_address",
          "type": "address"
        },
        {
          "internalType": "address",
          "name": "_owner_address",
          "type": "address"
        },
        {
          "internalType": "address",
          "name": "_timelock_address",
          "type": "address"
        }
      ],
      "stateMutability": "nonpayable",
      "type": "constructor"
    },
    {
      "anonymous": false,
      "inputs": [
        {
          "indexed": true,
          "internalType": "address",
          "name": "owner",
          "type": "address"
        },
        {
          "indexed": true,
          "internalType": "address",
          "name": "spender",
          "type": "address"
        },
        {
          "indexed": false,
          "internalType": "uint256",
          "name": "value",
          "type": "uint256"
        }
      ],
      "name": "Approval",
      "type": "event"
    },
    {
      "anonymous": false,
      "inputs": [
        {
          "indexed": true,
          "internalType": "bytes32",
          "name": "role",
          "type": "bytes32"
        },
        {
          "indexed": true,
          "internalType": "bytes32",
          "name": "previousAdminRole",
          "type": "bytes32"
        },
        {
          "indexed": true,
          "internalType": "bytes32",
          "name": "newAdminRole",
          "type": "bytes32"
        }
      ],
      "name": "RoleAdminChanged",
      "type": "event"
    },
    {
      "anonymous": false,
      "inputs": [
        {
          "indexed": true,
          "internalType": "bytes32",
          "name": "role",
          "type": "bytes32"
        },
        {
          "indexed": true,
          "internalType": "address",
          "name": "account",
          "type": "address"
        },
        {
          "indexed": true,
          "internalType": "address",
          "name": "sender",
          "type": "address"
        }
      ],
      "name": "RoleGranted",
      "type": "event"
    },
    {
      "anonymous": false,
      "inputs": [
        {
          "indexed": true,
          "internalType": "bytes32",
          "name": "role",
          "type": "bytes32"
        },
        {
          "indexed": true,
          "internalType": "address",
          "name": "account",
          "type": "address"
        },
        {
          "indexed": true,
          "internalType": "address",
          "name": "sender",
          "type": "address"
        }
      ],
      "name": "RoleRevoked",
      "type": "event"
    },
    {
      "anonymous": false,
      "inputs": [
        {
          "indexed": true,
          "internalType": "address",
          "name": "from",
          "type": "address"
        },
        {
          "indexed": true,
          "internalType": "address",
          "name": "to",
          "type": "address"
        },
        {
          "indexed": false,
          "internalType": "uint256",
          "name": "value",
          "type": "uint256"
        }
      ],
      "name": "Transfer",
      "type": "event"
    },
    {
      "anonymous": false,
      "inputs": [
        {
          "indexed": true,
          "internalType": "address",
          "name": "voter",
          "type": "address"
        },
        {
          "indexed": false,
          "internalType": "uint256",
          "name": "previousBalance",
          "type": "uint256"
        },
        {
          "indexed": false,
          "internalType": "uint256",
          "name": "newBalance",
          "type": "uint256"
        }
      ],
      "name": "VoterVotesChanged",
      "type": "event"
    },
    {
      "anonymous": false,
      "inputs": [
        {
          "indexed": true,
          "internalType": "address",
          "name": "from",
          "type": "address"
        },
        {
          "indexed": true,
          "internalType": "address",
          "name": "to",
          "type": "address"
        },
        {
          "indexed": false,
          "internalType": "uint256",
          "name": "amount",
          "type": "uint256"
        }
      ],
      "name": "XESHBurned",
      "type": "event"
    },
    {
      "inputs": [],
      "name": "DEFAULT_ADMIN_ROLE",
      "outputs": [
        {
          "internalType": "bytes32",
          "name": "",
          "type": "bytes32"
        }
      ],
      "stateMutability": "view",
      "type": "function"
    },
    {
      "inputs": [],
      "name": "XEBECStablecoinAdd",
      "outputs": [
        {
          "internalType": "address",
          "name": "",
          "type": "address"
        }
      ],
      "stateMutability": "view",
      "type": "function"
    },
    {
      "inputs": [],
      "name": "XESH_DAO_min",
      "outputs": [
        {
          "internalType": "uint256",
          "name": "",
          "type": "uint256"
        }
      ],
      "stateMutability": "view",
      "type": "function"
    },
    {
      "inputs": [
        {
          "internalType": "address",
          "name": "owner",
          "type": "address"
        },
        {
          "internalType": "address",
          "name": "spender",
          "type": "address"
        }
      ],
      "name": "allowance",
      "outputs": [
        {
          "internalType": "uint256",
          "name": "",
          "type": "uint256"
        }
      ],
      "stateMutability": "view",
      "type": "function"
    },
    {
      "inputs": [
        {
          "internalType": "address",
          "name": "spender",
          "type": "address"
        },
        {
          "internalType": "uint256",
          "name": "amount",
          "type": "uint256"
        }
      ],
      "name": "approve",
      "outputs": [
        {
          "internalType": "bool",
          "name": "",
          "type": "bool"
        }
      ],
      "stateMutability": "nonpayable",
      "type": "function"
    },
    {
      "inputs": [
        {
          "internalType": "address",
          "name": "account",
          "type": "address"
        }
      ],
      "name": "balanceOf",
      "outputs": [
        {
          "internalType": "uint256",
          "name": "",
          "type": "uint256"
        }
      ],
      "stateMutability": "view",
      "type": "function"
    },
    {
      "inputs": [
        {
          "internalType": "uint256",
          "name": "amount",
          "type": "uint256"
        }
      ],
      "name": "burn",
      "outputs": [],
      "stateMutability": "nonpayable",
      "type": "function"
    },
    {
      "inputs": [
        {
          "internalType": "address",
          "name": "account",
          "type": "address"
        },
        {
          "internalType": "uint256",
          "name": "amount",
          "type": "uint256"
        }
      ],
      "name": "burnFrom",
      "outputs": [],
      "stateMutability": "nonpayable",
      "type": "function"
    },
    {
      "inputs": [
        {
          "internalType": "address",
          "name": "",
          "type": "address"
        },
        {
          "internalType": "uint32",
          "name": "",
          "type": "uint32"
        }
      ],
      "name": "checkpoints",
      "outputs": [
        {
          "internalType": "uint32",
          "name": "fromBlock",
          "type": "uint32"
        },
        {
          "internalType": "uint96",
          "name": "votes",
          "type": "uint96"
        }
      ],
      "stateMutability": "view",
      "type": "function"
    },
    {
      "inputs": [],
      "name": "decimals",
      "outputs": [
        {
          "internalType": "uint8",
          "name": "",
          "type": "uint8"
        }
      ],
      "stateMutability": "view",
      "type": "function"
    },
    {
      "inputs": [
        {
          "internalType": "address",
          "name": "spender",
          "type": "address"
        },
        {
          "internalType": "uint256",
          "name": "subtractedValue",
          "type": "uint256"
        }
      ],
      "name": "decreaseAllowance",
      "outputs": [
        {
          "internalType": "bool",
          "name": "",
          "type": "bool"
        }
      ],
      "stateMutability": "nonpayable",
      "type": "function"
    },
    {
      "inputs": [
        {
          "internalType": "bytes32",
          "name": "role",
          "type": "bytes32"
        }
      ],
      "name": "getRoleAdmin",
      "outputs": [
        {
          "internalType": "bytes32",
          "name": "",
          "type": "bytes32"
        }
      ],
      "stateMutability": "view",
      "type": "function"
    },
    {
      "inputs": [
        {
          "internalType": "bytes32",
          "name": "role",
          "type": "bytes32"
        },
        {
          "internalType": "uint256",
          "name": "index",
          "type": "uint256"
        }
      ],
      "name": "getRoleMember",
      "outputs": [
        {
          "internalType": "address",
          "name": "",
          "type": "address"
        }
      ],
      "stateMutability": "view",
      "type": "function"
    },
    {
      "inputs": [
        {
          "internalType": "bytes32",
          "name": "role",
          "type": "bytes32"
        }
      ],
      "name": "getRoleMemberCount",
      "outputs": [
        {
          "internalType": "uint256",
          "name": "",
          "type": "uint256"
        }
      ],
      "stateMutability": "view",
      "type": "function"
    },
    {
      "inputs": [
        {
          "internalType": "bytes32",
          "name": "role",
          "type": "bytes32"
        },
        {
          "internalType": "address",
          "name": "account",
          "type": "address"
        }
      ],
      "name": "grantRole",
      "outputs": [],
      "stateMutability": "nonpayable",
      "type": "function"
    },
    {
      "inputs": [
        {
          "internalType": "bytes32",
          "name": "role",
          "type": "bytes32"
        },
        {
          "internalType": "address",
          "name": "account",
          "type": "address"
        }
      ],
      "name": "hasRole",
      "outputs": [
        {
          "internalType": "bool",
          "name": "",
          "type": "bool"
        }
      ],
      "stateMutability": "view",
      "type": "function"
    },
    {
      "inputs": [
        {
          "internalType": "address",
          "name": "spender",
          "type": "address"
        },
        {
          "internalType": "uint256",
          "name": "addedValue",
          "type": "uint256"
        }
      ],
      "name": "increaseAllowance",
      "outputs": [
        {
          "internalType": "bool",
          "name": "",
          "type": "bool"
        }
      ],
      "stateMutability": "nonpayable",
      "type": "function"
    },
    {
      "inputs": [],
      "name": "maximum_supply",
      "outputs": [
        {
          "internalType": "uint256",
          "name": "",
          "type": "uint256"
        }
      ],
      "stateMutability": "view",
      "type": "function"
    },
    {
      "inputs": [
        {
          "internalType": "address",
          "name": "",
          "type": "address"
        }
      ],
      "name": "numCheckpoints",
      "outputs": [
        {
          "internalType": "uint32",
          "name": "",
          "type": "uint32"
        }
      ],
      "stateMutability": "view",
      "type": "function"
    },
    {
      "inputs": [],
      "name": "oracle_address",
      "outputs": [
        {
          "internalType": "address",
          "name": "",
          "type": "address"
        }
      ],
      "stateMutability": "view",
      "type": "function"
    },
    {
      "inputs": [],
      "name": "owner_address",
      "outputs": [
        {
          "internalType": "address",
          "name": "",
          "type": "address"
        }
      ],
      "stateMutability": "view",
      "type": "function"
    },
    {
      "inputs": [
        {
          "internalType": "bytes32",
          "name": "role",
          "type": "bytes32"
        },
        {
          "internalType": "address",
          "name": "account",
          "type": "address"
        }
      ],
      "name": "renounceRole",
      "outputs": [],
      "stateMutability": "nonpayable",
      "type": "function"
    },
    {
      "inputs": [
        {
          "internalType": "bytes32",
          "name": "role",
          "type": "bytes32"
        },
        {
          "internalType": "address",
          "name": "account",
          "type": "address"
        }
      ],
      "name": "revokeRole",
      "outputs": [],
      "stateMutability": "nonpayable",
      "type": "function"
    },
    {
      "inputs": [],
      "name": "symbol",
      "outputs": [
        {
          "internalType": "string",
          "name": "",
          "type": "string"
        }
      ],
      "stateMutability": "view",
      "type": "function"
    },
    {
      "inputs": [],
      "name": "timelock_address",
      "outputs": [
        {
          "internalType": "address",
          "name": "",
          "type": "address"
        }
      ],
      "stateMutability": "view",
      "type": "function"
    },
    {
      "inputs": [],
      "name": "totalSupply",
      "outputs": [
        {
          "internalType": "uint256",
          "name": "",
          "type": "uint256"
        }
      ],
      "stateMutability": "view",
      "type": "function"
    },
    {
      "inputs": [
        {
          "internalType": "address",
          "name": "xeb_contract_address",
          "type": "address"
        }
      ],
      "name": "setXEBAddress",
      "outputs": [],
      "stateMutability": "nonpayable",
      "type": "function"
    },
    {
      "inputs": [
        {
          "internalType": "uint256",
          "name": "min_XESH",
          "type": "uint256"
        }
      ],
      "name": "setXESHMinDAO",
      "outputs": [],
      "stateMutability": "nonpayable",
      "type": "function"
    },
    {
      "inputs": [
        {
          "internalType": "address",
          "name": "to",
          "type": "address"
        },
        {
          "internalType": "uint256",
          "name": "amount",
          "type": "uint256"
        }
      ],
      "name": "mint",
      "outputs": [],
      "stateMutability": "nonpayable",
      "type": "function"
    },
    {
      "inputs": [
        {
          "internalType": "address",
          "name": "m_address",
          "type": "address"
        },
        {
          "internalType": "uint256",
          "name": "m_amount",
          "type": "uint256"
        }
      ],
      "name": "pool_mint",
      "outputs": [],
      "stateMutability": "nonpayable",
      "type": "function"
    },
    {
      "inputs": [
        {
          "internalType": "address",
          "name": "b_address",
          "type": "address"
        },
        {
          "internalType": "uint256",
          "name": "b_amount",
          "type": "uint256"
        }
      ],
      "name": "pool_burn_from",
      "outputs": [],
      "stateMutability": "nonpayable",
      "type": "function"
    },
    {
      "inputs": [
        {
          "internalType": "address",
          "name": "recipient",
          "type": "address"
        },
        {
          "internalType": "uint256",
          "name": "amount",
          "type": "uint256"
        }
      ],
      "name": "transfer",
      "outputs": [
        {
          "internalType": "bool",
          "name": "",
          "type": "bool"
        }
      ],
      "stateMutability": "nonpayable",
      "type": "function"
    },
    {
      "inputs": [
        {
          "internalType": "address",
          "name": "sender",
          "type": "address"
        },
        {
          "internalType": "address",
          "name": "recipient",
          "type": "address"
        },
        {
          "internalType": "uint256",
          "name": "amount",
          "type": "uint256"
        }
      ],
      "name": "transferFrom",
      "outputs": [
        {
          "internalType": "bool",
          "name": "",
          "type": "bool"
        }
      ],
      "stateMutability": "nonpayable",
      "type": "function"
    },
    {
      "inputs": [
        {
          "internalType": "address",
          "name": "account",
          "type": "address"
        }
      ],
      "name": "getCurrentVotes",
      "outputs": [
        {
          "internalType": "uint96",
          "name": "",
          "type": "uint96"
        }
      ],
      "stateMutability": "view",
      "type": "function"
    },
    {
      "inputs": [
        {
          "internalType": "address",
          "name": "account",
          "type": "address"
        },
        {
          "internalType": "uint256",
          "name": "blockNumber",
          "type": "uint256"
        }
      ],
      "name": "getPriorVotes",
      "outputs": [
        {
          "internalType": "uint96",
          "name": "",
          "type": "uint96"
        }
      ],
      "stateMutability": "view",
      "type": "function"
    }
  ],
  "bytecode": "0x60806040526012600560006101000a81548160ff021916908360ff1602179055503480156200002d57600080fd5b5060405162004bf938038062004bf9833981810160405281019062000053919062000a09565b85600490805190602001906200006b929190620008d9565b50846006819055508360078190555081600960006101000a81548173ffffffffffffffffffffffffffffffffffffffff021916908373ffffffffffffffffffffffffffffffffffffffff16021790555082600a60006101000a81548173ffffffffffffffffffffffffffffffffffffffff021916908373ffffffffffffffffffffffffffffffffffffffff16021790555080600b60006101000a81548173ffffffffffffffffffffffffffffffffffffffff021916908373ffffffffffffffffffffffffffffffffffffffff160217905550620001616000801b62000155620001dc60201b60201c565b620001e460201b60201c565b62000197600960009054906101000a900473ffffffffffffffffffffffffffffffffffffffff16600654620001fa60201b60201c565b620001d0600960009054906101000a900473ffffffffffffffffffffffffffffffffffffffff16600080600654620003a960201b60201c565b50505050505062000dad565b600033905090565b620001f68282620006aa60201b60201c565b5050565b600073ffffffffffffffffffffffffffffffffffffffff168273ffffffffffffffffffffffffffffffffffffffff1614156200026d576040517f08c379a0000000000000000000000000000000000000000000000000000000008152600401620002649062000be5565b60405180910390fd5b62000281600083836200074e60201b60201c565b6200029d816002546200075360201b62001a471790919060201c565b600281905550620002fb816000808573ffffffffffffffffffffffffffffffffffffffff1673ffffffffffffffffffffffffffffffffffffffff168152602001908152602001600020546200075360201b62001a471790919060201c565b6000808473ffffffffffffffffffffffffffffffffffffffff1673ffffffffffffffffffffffffffffffffffffffff168152602001908152602001600020819055508173ffffffffffffffffffffffffffffffffffffffff16600073ffffffffffffffffffffffffffffffffffffffff167fddf252ad1be2c89b69c2b068fc378daa952ba7f163c4a11628f55a4df523b3ef836040516200039d919062000c07565b60405180910390a35050565b6000620003d64360405180606001604052806034815260200162004bc560349139620007ab60201b60201c565b905060008463ffffffff161180156200046c57508063ffffffff16600d60008773ffffffffffffffffffffffffffffffffffffffff1673ffffffffffffffffffffffffffffffffffffffff16815260200190815260200160002060006001870363ffffffff1663ffffffff16815260200190815260200160002060000160009054906101000a900463ffffffff1663ffffffff16145b15620005095781600d60008773ffffffffffffffffffffffffffffffffffffffff1673ffffffffffffffffffffffffffffffffffffffff16815260200190815260200160002060006001870363ffffffff1663ffffffff16815260200190815260200160002060000160046101000a8154816bffffffffffffffffffffffff02191690836bffffffffffffffffffffffff16021790555062000651565b60405180604001604052808263ffffffff168152602001836bffffffffffffffffffffffff16815250600d60008773ffffffffffffffffffffffffffffffffffffffff1673ffffffffffffffffffffffffffffffffffffffff16815260200190815260200160002060008663ffffffff1663ffffffff16815260200190815260200160002060008201518160000160006101000a81548163ffffffff021916908363ffffffff16021790555060208201518160000160046101000a8154816bffffffffffffffffffffffff02191690836bffffffffffffffffffffffff16021790555090505060018401600e60008773ffffffffffffffffffffffffffffffffffffffff1673ffffffffffffffffffffffffffffffffffffffff16815260200190815260200160002060006101000a81548163ffffffff021916908363ffffffff1602179055505b8473ffffffffffffffffffffffffffffffffffffffff167f3eaa1c4be29b4a4c60e00300b5a17a8ec6c982b5b0ad5870cc84ebdc3b24d68e84846040516200069b92919062000c24565b60405180910390a25050505050565b620006d981600360008581526020019081526020016000206000016200080460201b62001a9c1790919060201c565b156200074a57620006ef620001dc60201b60201c565b73ffffffffffffffffffffffffffffffffffffffff168173ffffffffffffffffffffffffffffffffffffffff16837f2f8788117e7eff1d82e926ec794901d17c78024a50270940304540a733656f0d60405160405180910390a45b5050565b505050565b600080828401905083811015620007a1576040517f08c379a0000000000000000000000000000000000000000000000000000000008152600401620007989062000bc3565b60405180910390fd5b8091505092915050565b600064010000000083108290620007fa576040517f08c379a0000000000000000000000000000000000000000000000000000000008152600401620007f1919062000b9f565b60405180910390fd5b5082905092915050565b600062000834836000018373ffffffffffffffffffffffffffffffffffffffff1660001b6200083c60201b60201c565b905092915050565b6000620008508383620008b660201b60201c565b620008ab578260000182908060018154018082558091505060019003906000526020600020016000909190919091505582600001805490508360010160008481526020019081526020016000208190555060019050620008b0565b600090505b92915050565b600080836001016000848152602001908152602001600020541415905092915050565b828054600181600116156101000203166002900490600052602060002090601f016020900481019282601f106200091c57805160ff19168380011785556200094d565b828001600101855582156200094d579182015b828111156200094c5782518255916020019190600101906200092f565b5b5090506200095c919062000960565b5090565b5b808211156200097b57600081600090555060010162000961565b5090565b600081519050620009908162000d79565b92915050565b600082601f830112620009a857600080fd5b8151620009bf620009b98262000c7f565b62000c51565b91508082526020830160208301858383011115620009dc57600080fd5b620009e983828462000d32565b50505092915050565b60008151905062000a038162000d93565b92915050565b60008060008060008060c0878903121562000a2357600080fd5b600087015167ffffffffffffffff81111562000a3e57600080fd5b62000a4c89828a0162000996565b965050602062000a5f89828a01620009f2565b955050604062000a7289828a01620009f2565b945050606062000a8589828a016200097f565b935050608062000a9889828a016200097f565b92505060a062000aab89828a016200097f565b9150509295509295509295565b600062000ac58262000cac565b62000ad1818562000cb7565b935062000ae381856020860162000d32565b62000aee8162000d68565b840191505092915050565b600062000b08601b8362000cb7565b91507f536166654d6174683a206164646974696f6e206f766572666c6f7700000000006000830152602082019050919050565b600062000b4a601f8362000cb7565b91507f45524332303a206d696e7420746f20746865207a65726f2061646472657373006000830152602082019050919050565b62000b888162000cfc565b82525050565b62000b998162000d1e565b82525050565b6000602082019050818103600083015262000bbb818462000ab8565b905092915050565b6000602082019050818103600083015262000bde8162000af9565b9050919050565b6000602082019050818103600083015262000c008162000b3b565b9050919050565b600060208201905062000c1e600083018462000b7d565b92915050565b600060408201905062000c3b600083018562000b8e565b62000c4a602083018462000b8e565b9392505050565b6000604051905081810181811067ffffffffffffffff8211171562000c7557600080fd5b8060405250919050565b600067ffffffffffffffff82111562000c9757600080fd5b601f19601f8301169050602081019050919050565b600081519050919050565b600082825260208201905092915050565b600062000cd58262000cdc565b9050919050565b600073ffffffffffffffffffffffffffffffffffffffff82169050919050565b6000819050919050565b60006bffffffffffffffffffffffff82169050919050565b600062000d2b8262000d06565b9050919050565b60005b8381101562000d5257808201518184015260208101905062000d35565b8381111562000d62576000848401525b50505050565b6000601f19601f8301169050919050565b62000d848162000cc8565b811462000d9057600080fd5b50565b62000d9e8162000cfc565b811462000daa57600080fd5b50565b613e088062000dbd6000396000f3fe608060405234801561001057600080fd5b50600436106102115760003560e01c806380edef8e11610125578063af1f4370116100ad578063ca15c8731161007c578063ca15c87314610660578063d547741f14610690578063dc6663c7146106ac578063dd62ed3e146106ca578063f1127ed8146106fa57610211565b8063af1f4370146105da578063b1202d5f146105f8578063b4b5ea5714610614578063b4f56b261461064457610211565b806395d89b41116100f457806395d89b4114610522578063a217fddf14610540578063a457c2d71461055e578063a8a778ae1461058e578063a9059cbb146105aa57610211565b806380edef8e1461048657806382a5a75d146104a45780639010d07c146104c257806391d14854146104f257610211565b806340c10f19116101a8578063782d6fe111610177578063782d6fe1146103e257806379cc67901461041257806379d96ea31461042e5780637e0c17921461044a578063803964701461046857610211565b806340c10f191461034a57806342966c68146103665780636fcfff451461038257806370a08231146103b257610211565b80632f2ff15d116101e45780632f2ff15d146102c4578063313ce567146102e057806336568abe146102fe578063395093511461031a57610211565b8063095ea7b31461021657806318160ddd1461024657806323b872dd14610264578063248a9ca314610294575b600080fd5b610230600480360381019061022b9190613015565b61072b565b60405161023d91906137fe565b60405180910390f35b61024e610749565b60405161025b9190613a36565b60405180910390f35b61027e60048036038101906102799190612fc6565b610753565b60405161028b91906137fe565b60405180910390f35b6102ae60048036038101906102a991906130b6565b610837565b6040516102bb9190613819565b60405180910390f35b6102de60048036038101906102d991906130df565b610857565b005b6102e86108cb565b6040516102f59190613a95565b60405180910390f35b610318600480360381019061031391906130df565b6108de565b005b610334600480360381019061032f9190613015565b610961565b60405161034191906137fe565b60405180910390f35b610364600480360381019061035f9190613015565b610a14565b005b610380600480360381019061037b9190613157565b610b60565b005b61039c60048036038101906103979190612f61565b610b74565b6040516103a99190613a51565b60405180910390f35b6103cc60048036038101906103c79190612f61565b610b97565b6040516103d99190613a36565b60405180910390f35b6103fc60048036038101906103f79190613015565b610bdf565b6040516104099190613ab0565b60405180910390f35b61042c60048036038101906104279190613015565b610fee565b005b61044860048036038101906104439190612f61565b611050565b005b61045261117c565b60405161045f91906137c8565b60405180910390f35b6104706111a2565b60405161047d9190613a36565b60405180910390f35b61048e6111a8565b60405161049b91906137c8565b60405180910390f35b6104ac6111ce565b6040516104b99190613a36565b60405180910390f35b6104dc60048036038101906104d7919061311b565b6111d4565b6040516104e991906137c8565b60405180910390f35b61050c600480360381019061050791906130df565b611206565b60405161051991906137fe565b60405180910390f35b61052a611238565b6040516105379190613834565b60405180910390f35b6105486112d6565b6040516105559190613819565b60405180910390f35b61057860048036038101906105739190613015565b6112dd565b60405161058591906137fe565b60405180910390f35b6105a860048036038101906105a39190613015565b6113aa565b005b6105c460048036038101906105bf9190613015565b611519565b6040516105d191906137fe565b60405180910390f35b6105e2611549565b6040516105ef91906137c8565b60405180910390f35b610612600480360381019061060d9190613157565b61156f565b005b61062e60048036038101906106299190612f61565b611661565b60405161063b9190613ab0565b60405180910390f35b61065e60048036038101906106599190613015565b61174f565b005b61067a600480360381019061067591906130b6565b6118a6565b6040516106879190613a36565b60405180910390f35b6106aa60048036038101906106a591906130df565b6118cd565b005b6106b4611941565b6040516106c191906137c8565b60405180910390f35b6106e460048036038101906106df9190612f8a565b611967565b6040516106f19190613a36565b60405180910390f35b610714600480360381019061070f9190613051565b6119ee565b604051610722929190613a6c565b60405180910390f35b600061073f610738611acc565b8484611ad4565b6001905092915050565b6000600254905090565b6000610760848484611c9f565b6108218461076c611acc565b61081c85604051806060016040528060288152602001613d3b60289139600160008b73ffffffffffffffffffffffffffffffffffffffff1673ffffffffffffffffffffffffffffffffffffffff16815260200190815260200160002060006107d2611acc565b73ffffffffffffffffffffffffffffffffffffffff1673ffffffffffffffffffffffffffffffffffffffff16815260200190815260200160002054611f349092919063ffffffff16565b611ad4565b61082c848484611f8f565b600190509392505050565b600060036000838152602001908152602001600020600201549050919050565b61087e6003600084815260200190815260200160002060020154610879611acc565b611206565b6108bd576040517f08c379a00000000000000000000000000000000000000000000000000000000081526004016108b4906138b6565b60405180910390fd5b6108c7828261228a565b5050565b600560009054906101000a900460ff1681565b6108e6611acc565b73ffffffffffffffffffffffffffffffffffffffff168173ffffffffffffffffffffffffffffffffffffffff1614610953576040517f08c379a000000000000000000000000000000000000000000000000000000000815260040161094a906139f6565b60405180910390fd5b61095d828261231e565b5050565b6000610a0a61096e611acc565b84610a05856001600061097f611acc565b73ffffffffffffffffffffffffffffffffffffffff1673ffffffffffffffffffffffffffffffffffffffff16815260200190815260200160002060008973ffffffffffffffffffffffffffffffffffffffff1673ffffffffffffffffffffffffffffffffffffffff16815260200190815260200160002054611a4790919063ffffffff16565b611ad4565b6001905092915050565b60011515600c60009054906101000a900473ffffffffffffffffffffffffffffffffffffffff1673ffffffffffffffffffffffffffffffffffffffff16635db57527336040518263ffffffff1660e01b8152600401610a7391906137e3565b60206040518083038186803b158015610a8b57600080fd5b505afa158015610a9f573d6000803e3d6000fd5b505050506040513d601f19601f82011682018060405250810190610ac3919061308d565b151514610b05576040517f08c379a0000000000000000000000000000000000000000000000000000000008152600401610afc906138d6565b60405180910390fd5b60075481610b11610749565b0110610b52576040517f08c379a0000000000000000000000000000000000000000000000000000000008152600401610b49906139d6565b60405180910390fd5b610b5c82826123b2565b5050565b610b71610b6b611acc565b82612546565b50565b600e6020528060005260406000206000915054906101000a900463ffffffff1681565b60008060008373ffffffffffffffffffffffffffffffffffffffff1673ffffffffffffffffffffffffffffffffffffffff168152602001908152602001600020549050919050565b6000438210610c23576040517f08c379a0000000000000000000000000000000000000000000000000000000008152600401610c1a90613936565b60405180910390fd5b6000600e60008573ffffffffffffffffffffffffffffffffffffffff1673ffffffffffffffffffffffffffffffffffffffff16815260200190815260200160002060009054906101000a900463ffffffff16905060008163ffffffff161415610c90576000915050610fe8565b82600d60008673ffffffffffffffffffffffffffffffffffffffff1673ffffffffffffffffffffffffffffffffffffffff16815260200190815260200160002060006001840363ffffffff1663ffffffff16815260200190815260200160002060000160009054906101000a900463ffffffff1663ffffffff1611610d9257600d60008573ffffffffffffffffffffffffffffffffffffffff1673ffffffffffffffffffffffffffffffffffffffff16815260200190815260200160002060006001830363ffffffff1663ffffffff16815260200190815260200160002060000160049054906101000a90046bffffffffffffffffffffffff16915050610fe8565b82600d60008673ffffffffffffffffffffffffffffffffffffffff1673ffffffffffffffffffffffffffffffffffffffff16815260200190815260200160002060008063ffffffff16815260200190815260200160002060000160009054906101000a900463ffffffff1663ffffffff161115610e13576000915050610fe8565b6000806001830390505b8163ffffffff168163ffffffff161115610f6a576000600283830363ffffffff1681610e4557fe5b0482039050610e52612eca565b600d60008973ffffffffffffffffffffffffffffffffffffffff1673ffffffffffffffffffffffffffffffffffffffff16815260200190815260200160002060008363ffffffff1663ffffffff1681526020019081526020016000206040518060400160405290816000820160009054906101000a900463ffffffff1663ffffffff1663ffffffff1681526020016000820160049054906101000a90046bffffffffffffffffffffffff166bffffffffffffffffffffffff166bffffffffffffffffffffffff1681525050905086816000015163ffffffff161415610f4257806020015195505050505050610fe8565b86816000015163ffffffff161015610f5c57819350610f63565b6001820392505b5050610e1d565b600d60008773ffffffffffffffffffffffffffffffffffffffff1673ffffffffffffffffffffffffffffffffffffffff16815260200190815260200160002060008363ffffffff1663ffffffff16815260200190815260200160002060000160049054906101000a90046bffffffffffffffffffffffff1693505050505b92915050565b600061102d82604051806060016040528060248152602001613d636024913961101e86611019611acc565b611967565b611f349092919063ffffffff16565b90506110418361103b611acc565b83611ad4565b61104b8383612546565b505050565b600a60009054906101000a900473ffffffffffffffffffffffffffffffffffffffff1673ffffffffffffffffffffffffffffffffffffffff163373ffffffffffffffffffffffffffffffffffffffff1614806110f95750600b60009054906101000a900473ffffffffffffffffffffffffffffffffffffffff1673ffffffffffffffffffffffffffffffffffffffff163373ffffffffffffffffffffffffffffffffffffffff16145b611138576040517f08c379a000000000000000000000000000000000000000000000000000000000815260040161112f90613856565b60405180910390fd5b80600c60006101000a81548173ffffffffffffffffffffffffffffffffffffffff021916908373ffffffffffffffffffffffffffffffffffffffff16021790555050565b600a60009054906101000a900473ffffffffffffffffffffffffffffffffffffffff1681565b60085481565b600960009054906101000a900473ffffffffffffffffffffffffffffffffffffffff1681565b60075481565b60006111fe82600360008681526020019081526020016000206000016126f490919063ffffffff16565b905092915050565b6000611230826003600086815260200190815260200160002060000161270e90919063ffffffff16565b905092915050565b60048054600181600116156101000203166002900480601f0160208091040260200160405190810160405280929190818152602001828054600181600116156101000203166002900480156112ce5780601f106112a3576101008083540402835291602001916112ce565b820191906000526020600020905b8154815290600101906020018083116112b157829003601f168201915b505050505081565b6000801b81565b60006113a06112ea611acc565b8461139b85604051806060016040528060258152602001613dae6025913960016000611314611acc565b73ffffffffffffffffffffffffffffffffffffffff1673ffffffffffffffffffffffffffffffffffffffff16815260200190815260200160002060008a73ffffffffffffffffffffffffffffffffffffffff1673ffffffffffffffffffffffffffffffffffffffff16815260200190815260200160002054611f349092919063ffffffff16565b611ad4565b6001905092915050565b60011515600c60009054906101000a900473ffffffffffffffffffffffffffffffffffffffff1673ffffffffffffffffffffffffffffffffffffffff16635db57527336040518263ffffffff1660e01b815260040161140991906137e3565b60206040518083038186803b15801561142157600080fd5b505afa158015611435573d6000803e3d6000fd5b505050506040513d601f19601f82011682018060405250810190611459919061308d565b15151461149b576040517f08c379a0000000000000000000000000000000000000000000000000000000008152600401611492906138d6565b60405180910390fd5b6114a5828261273e565b6114b0823083611f8f565b3373ffffffffffffffffffffffffffffffffffffffff168273ffffffffffffffffffffffffffffffffffffffff167f694c31c5135118c47a8b81004795102e354b98e99ca3984b4a1773016daf501a8360405161150d9190613a36565b60405180910390a35050565b600061152d611526611acc565b8484611c9f565b61153f611538611acc565b8484611f8f565b6001905092915050565b600560019054906101000a900473ffffffffffffffffffffffffffffffffffffffff1681565b600a60009054906101000a900473ffffffffffffffffffffffffffffffffffffffff1673ffffffffffffffffffffffffffffffffffffffff163373ffffffffffffffffffffffffffffffffffffffff1614806116185750600b60009054906101000a900473ffffffffffffffffffffffffffffffffffffffff1673ffffffffffffffffffffffffffffffffffffffff163373ffffffffffffffffffffffffffffffffffffffff16145b611657576040517f08c379a000000000000000000000000000000000000000000000000000000000815260040161164e90613856565b60405180910390fd5b8060088190555050565b600080600e60008473ffffffffffffffffffffffffffffffffffffffff1673ffffffffffffffffffffffffffffffffffffffff16815260200190815260200160002060009054906101000a900463ffffffff16905060008163ffffffff16116116cb576000611747565b600d60008473ffffffffffffffffffffffffffffffffffffffff1673ffffffffffffffffffffffffffffffffffffffff16815260200190815260200160002060006001830363ffffffff1663ffffffff16815260200190815260200160002060000160049054906101000a90046bffffffffffffffffffffffff165b915050919050565b60011515600c60009054906101000a900473ffffffffffffffffffffffffffffffffffffffff1673ffffffffffffffffffffffffffffffffffffffff16635db57527336040518263ffffffff1660e01b81526004016117ae91906137e3565b60206040518083038186803b1580156117c657600080fd5b505afa1580156117da573d6000803e3d6000fd5b505050506040513d601f19601f820116820180604052508101906117fe919061308d565b151514611840576040517f08c379a0000000000000000000000000000000000000000000000000000000008152600401611837906138d6565b60405180910390fd5b6007548161184c610749565b011061188d576040517f08c379a0000000000000000000000000000000000000000000000000000000008152600401611884906139d6565b60405180910390fd5b611898308383611f8f565b6118a282826123b2565b5050565b60006118c66003600084815260200190815260200160002060000161280d565b9050919050565b6118f460036000848152602001908152602001600020600201546118ef611acc565b611206565b611933576040517f08c379a000000000000000000000000000000000000000000000000000000000815260040161192a90613956565b60405180910390fd5b61193d828261231e565b5050565b600b60009054906101000a900473ffffffffffffffffffffffffffffffffffffffff1681565b6000600160008473ffffffffffffffffffffffffffffffffffffffff1673ffffffffffffffffffffffffffffffffffffffff16815260200190815260200160002060008373ffffffffffffffffffffffffffffffffffffffff1673ffffffffffffffffffffffffffffffffffffffff16815260200190815260200160002054905092915050565b600d602052816000526040600020602052806000526040600020600091509150508060000160009054906101000a900463ffffffff16908060000160049054906101000a90046bffffffffffffffffffffffff16905082565b600080828401905083811015611a92576040517f08c379a0000000000000000000000000000000000000000000000000000000008152600401611a8990613916565b60405180910390fd5b8091505092915050565b6000611ac4836000018373ffffffffffffffffffffffffffffffffffffffff1660001b612822565b905092915050565b600033905090565b600073ffffffffffffffffffffffffffffffffffffffff168373ffffffffffffffffffffffffffffffffffffffff161415611b44576040517f08c379a0000000000000000000000000000000000000000000000000000000008152600401611b3b906139b6565b60405180910390fd5b600073ffffffffffffffffffffffffffffffffffffffff168273ffffffffffffffffffffffffffffffffffffffff161415611bb4576040517f08c379a0000000000000000000000000000000000000000000000000000000008152600401611bab906138f6565b60405180910390fd5b80600160008573ffffffffffffffffffffffffffffffffffffffff1673ffffffffffffffffffffffffffffffffffffffff16815260200190815260200160002060008473ffffffffffffffffffffffffffffffffffffffff1673ffffffffffffffffffffffffffffffffffffffff168152602001908152602001600020819055508173ffffffffffffffffffffffffffffffffffffffff168373ffffffffffffffffffffffffffffffffffffffff167f8c5be1e5ebec7d5bd14f71427d1e84f3dd0314c0f7b2291e5b200ac8c7c3b92583604051611c929190613a36565b60405180910390a3505050565b600073ffffffffffffffffffffffffffffffffffffffff168373ffffffffffffffffffffffffffffffffffffffff161415611d0f576040517f08c379a0000000000000000000000000000000000000000000000000000000008152600401611d0690613996565b60405180910390fd5b600073ffffffffffffffffffffffffffffffffffffffff168273ffffffffffffffffffffffffffffffffffffffff161415611d7f576040517f08c379a0000000000000000000000000000000000000000000000000000000008152600401611d7690613896565b60405180910390fd5b611d8a838383612892565b611df581604051806060016040528060268152602001613cb9602691396000808773ffffffffffffffffffffffffffffffffffffffff1673ffffffffffffffffffffffffffffffffffffffff16815260200190815260200160002054611f349092919063ffffffff16565b6000808573ffffffffffffffffffffffffffffffffffffffff1673ffffffffffffffffffffffffffffffffffffffff16815260200190815260200160002081905550611e88816000808573ffffffffffffffffffffffffffffffffffffffff1673ffffffffffffffffffffffffffffffffffffffff16815260200190815260200160002054611a4790919063ffffffff16565b6000808473ffffffffffffffffffffffffffffffffffffffff1673ffffffffffffffffffffffffffffffffffffffff168152602001908152602001600020819055508173ffffffffffffffffffffffffffffffffffffffff168373ffffffffffffffffffffffffffffffffffffffff167fddf252ad1be2c89b69c2b068fc378daa952ba7f163c4a11628f55a4df523b3ef83604051611f279190613a36565b60405180910390a3505050565b6000838311158290611f7c576040517f08c379a0000000000000000000000000000000000000000000000000000000008152600401611f739190613834565b60405180910390fd5b5060008385039050809150509392505050565b8173ffffffffffffffffffffffffffffffffffffffff168373ffffffffffffffffffffffffffffffffffffffff1614158015611fd957506000816bffffffffffffffffffffffff16115b1561228557600073ffffffffffffffffffffffffffffffffffffffff168373ffffffffffffffffffffffffffffffffffffffff1614612131576000600e60008573ffffffffffffffffffffffffffffffffffffffff1673ffffffffffffffffffffffffffffffffffffffff16815260200190815260200160002060009054906101000a900463ffffffff1690506000808263ffffffff161161207c5760006120f8565b600d60008673ffffffffffffffffffffffffffffffffffffffff1673ffffffffffffffffffffffffffffffffffffffff16815260200190815260200160002060006001840363ffffffff1663ffffffff16815260200190815260200160002060000160049054906101000a90046bffffffffffffffffffffffff165b9050600061211f8285604051806060016040528060288152602001613d1360289139612897565b905061212d86848484612908565b5050505b600073ffffffffffffffffffffffffffffffffffffffff168273ffffffffffffffffffffffffffffffffffffffff1614612284576000600e60008473ffffffffffffffffffffffffffffffffffffffff1673ffffffffffffffffffffffffffffffffffffffff16815260200190815260200160002060009054906101000a900463ffffffff1690506000808263ffffffff16116121cf57600061224b565b600d60008573ffffffffffffffffffffffffffffffffffffffff1673ffffffffffffffffffffffffffffffffffffffff16815260200190815260200160002060006001840363ffffffff1663ffffffff16815260200190815260200160002060000160049054906101000a90046bffffffffffffffffffffffff165b905060006122728285604051806060016040528060278152602001613d8760279139612bfb565b905061228085848484612908565b5050505b5b505050565b6122b28160036000858152602001908152602001600020600001611a9c90919063ffffffff16565b1561231a576122bf611acc565b73ffffffffffffffffffffffffffffffffffffffff168173ffffffffffffffffffffffffffffffffffffffff16837f2f8788117e7eff1d82e926ec794901d17c78024a50270940304540a733656f0d60405160405180910390a45b5050565b6123468160036000858152602001908152602001600020600001612c7190919063ffffffff16565b156123ae57612353611acc565b73ffffffffffffffffffffffffffffffffffffffff168173ffffffffffffffffffffffffffffffffffffffff16837ff6391f5c32d9c69d2a47ea670b442974b53935d1edc7fd64eb21e047a839171b60405160405180910390a45b5050565b600073ffffffffffffffffffffffffffffffffffffffff168273ffffffffffffffffffffffffffffffffffffffff161415612422576040517f08c379a000000000000000000000000000000000000000000000000000000000815260040161241990613a16565b60405180910390fd5b61242e60008383612892565b61244381600254611a4790919063ffffffff16565b60028190555061249a816000808573ffffffffffffffffffffffffffffffffffffffff1673ffffffffffffffffffffffffffffffffffffffff16815260200190815260200160002054611a4790919063ffffffff16565b6000808473ffffffffffffffffffffffffffffffffffffffff1673ffffffffffffffffffffffffffffffffffffffff168152602001908152602001600020819055508173ffffffffffffffffffffffffffffffffffffffff16600073ffffffffffffffffffffffffffffffffffffffff167fddf252ad1be2c89b69c2b068fc378daa952ba7f163c4a11628f55a4df523b3ef8360405161253a9190613a36565b60405180910390a35050565b600073ffffffffffffffffffffffffffffffffffffffff168273ffffffffffffffffffffffffffffffffffffffff1614156125b6576040517f08c379a00000000000000000000000000000000000000000000000000000000081526004016125ad90613976565b60405180910390fd5b6125c282600083612892565b61262d81604051806060016040528060228152602001613c97602291396000808673ffffffffffffffffffffffffffffffffffffffff1673ffffffffffffffffffffffffffffffffffffffff16815260200190815260200160002054611f349092919063ffffffff16565b6000808473ffffffffffffffffffffffffffffffffffffffff1673ffffffffffffffffffffffffffffffffffffffff1681526020019081526020016000208190555061268481600254612ca190919063ffffffff16565b600281905550600073ffffffffffffffffffffffffffffffffffffffff168273ffffffffffffffffffffffffffffffffffffffff167fddf252ad1be2c89b69c2b068fc378daa952ba7f163c4a11628f55a4df523b3ef836040516126e89190613a36565b60405180910390a35050565b60006127038360000183612ceb565b60001c905092915050565b6000612736836000018373ffffffffffffffffffffffffffffffffffffffff1660001b612d58565b905092915050565b6127488282612546565b61280982612754611acc565b61280484604051806060016040528060248152602001613d6360249139600160008973ffffffffffffffffffffffffffffffffffffffff1673ffffffffffffffffffffffffffffffffffffffff16815260200190815260200160002060006127ba611acc565b73ffffffffffffffffffffffffffffffffffffffff1673ffffffffffffffffffffffffffffffffffffffff16815260200190815260200160002054611f349092919063ffffffff16565b611ad4565b5050565b600061281b82600001612d7b565b9050919050565b600061282e8383612d58565b61288757826000018290806001815401808255809150506001900390600052602060002001600090919091909150558260000180549050836001016000848152602001908152602001600020819055506001905061288c565b600090505b92915050565b505050565b6000836bffffffffffffffffffffffff16836bffffffffffffffffffffffff16111582906128fb576040517f08c379a00000000000000000000000000000000000000000000000000000000081526004016128f29190613834565b60405180910390fd5b5082840390509392505050565b600061292c43604051806060016040528060348152602001613cdf60349139612d8c565b905060008463ffffffff161180156129c157508063ffffffff16600d60008773ffffffffffffffffffffffffffffffffffffffff1673ffffffffffffffffffffffffffffffffffffffff16815260200190815260200160002060006001870363ffffffff1663ffffffff16815260200190815260200160002060000160009054906101000a900463ffffffff1663ffffffff16145b15612a5c5781600d60008773ffffffffffffffffffffffffffffffffffffffff1673ffffffffffffffffffffffffffffffffffffffff16815260200190815260200160002060006001870363ffffffff1663ffffffff16815260200190815260200160002060000160046101000a8154816bffffffffffffffffffffffff02191690836bffffffffffffffffffffffff160217905550612ba4565b60405180604001604052808263ffffffff168152602001836bffffffffffffffffffffffff16815250600d60008773ffffffffffffffffffffffffffffffffffffffff1673ffffffffffffffffffffffffffffffffffffffff16815260200190815260200160002060008663ffffffff1663ffffffff16815260200190815260200160002060008201518160000160006101000a81548163ffffffff021916908363ffffffff16021790555060208201518160000160046101000a8154816bffffffffffffffffffffffff02191690836bffffffffffffffffffffffff16021790555090505060018401600e60008773ffffffffffffffffffffffffffffffffffffffff1673ffffffffffffffffffffffffffffffffffffffff16815260200190815260200160002060006101000a81548163ffffffff021916908363ffffffff1602179055505b8473ffffffffffffffffffffffffffffffffffffffff167f3eaa1c4be29b4a4c60e00300b5a17a8ec6c982b5b0ad5870cc84ebdc3b24d68e8484604051612bec929190613acb565b60405180910390a25050505050565b6000808385019050846bffffffffffffffffffffffff16816bffffffffffffffffffffffff1610158390612c65576040517f08c379a0000000000000000000000000000000000000000000000000000000008152600401612c5c9190613834565b60405180910390fd5b50809150509392505050565b6000612c99836000018373ffffffffffffffffffffffffffffffffffffffff1660001b612de2565b905092915050565b6000612ce383836040518060400160405280601e81526020017f536166654d6174683a207375627472616374696f6e206f766572666c6f770000815250611f34565b905092915050565b600081836000018054905011612d36576040517f08c379a0000000000000000000000000000000000000000000000000000000008152600401612d2d90613876565b60405180910390fd5b826000018281548110612d4557fe5b9060005260206000200154905092915050565b600080836001016000848152602001908152602001600020541415905092915050565b600081600001805490509050919050565b600064010000000083108290612dd8576040517f08c379a0000000000000000000000000000000000000000000000000000000008152600401612dcf9190613834565b60405180910390fd5b5082905092915050565b60008083600101600084815260200190815260200160002054905060008114612ebe5760006001820390506000600186600001805490500390506000866000018281548110612e2d57fe5b9060005260206000200154905080876000018481548110612e4a57fe5b9060005260206000200181905550600183018760010160008381526020019081526020016000208190555086600001805480612e8257fe5b60019003818190600052602060002001600090559055866001016000878152602001908152602001600020600090556001945050505050612ec4565b60009150505b92915050565b6040518060400160405280600063ffffffff16815260200160006bffffffffffffffffffffffff1681525090565b600081359050612f0781613c23565b92915050565b600081519050612f1c81613c3a565b92915050565b600081359050612f3181613c51565b92915050565b600081359050612f4681613c68565b92915050565b600081359050612f5b81613c7f565b92915050565b600060208284031215612f7357600080fd5b6000612f8184828501612ef8565b91505092915050565b60008060408385031215612f9d57600080fd5b6000612fab85828601612ef8565b9250506020612fbc85828601612ef8565b9150509250929050565b600080600060608486031215612fdb57600080fd5b6000612fe986828701612ef8565b9350506020612ffa86828701612ef8565b925050604061300b86828701612f37565b9150509250925092565b6000806040838503121561302857600080fd5b600061303685828601612ef8565b925050602061304785828601612f37565b9150509250929050565b6000806040838503121561306457600080fd5b600061307285828601612ef8565b925050602061308385828601612f4c565b9150509250929050565b60006020828403121561309f57600080fd5b60006130ad84828501612f0d565b91505092915050565b6000602082840312156130c857600080fd5b60006130d684828501612f22565b91505092915050565b600080604083850312156130f257600080fd5b600061310085828601612f22565b925050602061311185828601612ef8565b9150509250929050565b6000806040838503121561312e57600080fd5b600061313c85828601612f22565b925050602061314d85828601612f37565b9150509250929050565b60006020828403121561316957600080fd5b600061317784828501612f37565b91505092915050565b61318981613b97565b82525050565b61319881613b10565b82525050565b6131a781613b22565b82525050565b6131b681613b2e565b82525050565b60006131c782613af4565b6131d18185613aff565b93506131e1818560208601613bdf565b6131ea81613c12565b840191505092915050565b6000613202601883613aff565b91507f596f75277265206e6f7420746865206f7261636c65203a7000000000000000006000830152602082019050919050565b6000613242602283613aff565b91507f456e756d657261626c655365743a20696e646578206f7574206f6620626f756e60008301527f64730000000000000000000000000000000000000000000000000000000000006020830152604082019050919050565b60006132a8602383613aff565b91507f45524332303a207472616e7366657220746f20746865207a65726f206164647260008301527f65737300000000000000000000000000000000000000000000000000000000006020830152604082019050919050565b600061330e602f83613aff565b91507f416363657373436f6e74726f6c3a2073656e646572206d75737420626520616e60008301527f2061646d696e20746f206772616e7400000000000000000000000000000000006020830152604082019050919050565b6000613374602183613aff565b91507f4f6e6c7920786562656320706f6f6c732063616e206d696e74206e657720584560008301527f42000000000000000000000000000000000000000000000000000000000000006020830152604082019050919050565b60006133da602283613aff565b91507f45524332303a20617070726f766520746f20746865207a65726f20616464726560008301527f73730000000000000000000000000000000000000000000000000000000000006020830152604082019050919050565b6000613440601b83613aff565b91507f536166654d6174683a206164646974696f6e206f766572666c6f7700000000006000830152602082019050919050565b6000613480602783613aff565b91507f436f6d703a3a6765745072696f72566f7465733a206e6f74207965742064657460008301527f65726d696e6564000000000000000000000000000000000000000000000000006020830152604082019050919050565b60006134e6603083613aff565b91507f416363657373436f6e74726f6c3a2073656e646572206d75737420626520616e60008301527f2061646d696e20746f207265766f6b65000000000000000000000000000000006020830152604082019050919050565b600061354c602183613aff565b91507f45524332303a206275726e2066726f6d20746865207a65726f2061646472657360008301527f73000000000000000000000000000000000000000000000000000000000000006020830152604082019050919050565b60006135b2602583613aff565b91507f45524332303a207472616e736665722066726f6d20746865207a65726f20616460008301527f64726573730000000000000000000000000000000000000000000000000000006020830152604082019050919050565b6000613618602483613aff565b91507f45524332303a20617070726f76652066726f6d20746865207a65726f2061646460008301527f72657373000000000000000000000000000000000000000000000000000000006020830152604082019050919050565b600061367e602e83613aff565b91507f4e6f206d6f726520584553482063616e206265206d696e7465642c206d61782060008301527f737570706c7920726561636865640000000000000000000000000000000000006020830152604082019050919050565b60006136e4602f83613aff565b91507f416363657373436f6e74726f6c3a2063616e206f6e6c792072656e6f756e636560008301527f20726f6c657320666f722073656c6600000000000000000000000000000000006020830152604082019050919050565b600061374a601f83613aff565b91507f45524332303a206d696e7420746f20746865207a65726f2061646472657373006000830152602082019050919050565b61378681613b58565b82525050565b61379581613b62565b82525050565b6137a481613b72565b82525050565b6137b381613bcd565b82525050565b6137c281613b7f565b82525050565b60006020820190506137dd600083018461318f565b92915050565b60006020820190506137f86000830184613180565b92915050565b6000602082019050613813600083018461319e565b92915050565b600060208201905061382e60008301846131ad565b92915050565b6000602082019050818103600083015261384e81846131bc565b905092915050565b6000602082019050818103600083015261386f816131f5565b9050919050565b6000602082019050818103600083015261388f81613235565b9050919050565b600060208201905081810360008301526138af8161329b565b9050919050565b600060208201905081810360008301526138cf81613301565b9050919050565b600060208201905081810360008301526138ef81613367565b9050919050565b6000602082019050818103600083015261390f816133cd565b9050919050565b6000602082019050818103600083015261392f81613433565b9050919050565b6000602082019050818103600083015261394f81613473565b9050919050565b6000602082019050818103600083015261396f816134d9565b9050919050565b6000602082019050818103600083015261398f8161353f565b9050919050565b600060208201905081810360008301526139af816135a5565b9050919050565b600060208201905081810360008301526139cf8161360b565b9050919050565b600060208201905081810360008301526139ef81613671565b9050919050565b60006020820190508181036000830152613a0f816136d7565b9050919050565b60006020820190508181036000830152613a2f8161373d565b9050919050565b6000602082019050613a4b600083018461377d565b92915050565b6000602082019050613a66600083018461378c565b92915050565b6000604082019050613a81600083018561378c565b613a8e60208301846137b9565b9392505050565b6000602082019050613aaa600083018461379b565b92915050565b6000602082019050613ac560008301846137b9565b92915050565b6000604082019050613ae060008301856137aa565b613aed60208301846137aa565b9392505050565b600081519050919050565b600082825260208201905092915050565b6000613b1b82613b38565b9050919050565b60008115159050919050565b6000819050919050565b600073ffffffffffffffffffffffffffffffffffffffff82169050919050565b6000819050919050565b600063ffffffff82169050919050565b600060ff82169050919050565b60006bffffffffffffffffffffffff82169050919050565b6000613ba282613ba9565b9050919050565b6000613bb482613bbb565b9050919050565b6000613bc682613b38565b9050919050565b6000613bd882613b7f565b9050919050565b60005b83811015613bfd578082015181840152602081019050613be2565b83811115613c0c576000848401525b50505050565b6000601f19601f8301169050919050565b613c2c81613b10565b8114613c3757600080fd5b50565b613c4381613b22565b8114613c4e57600080fd5b50565b613c5a81613b2e565b8114613c6557600080fd5b50565b613c7181613b58565b8114613c7c57600080fd5b50565b613c8881613b62565b8114613c9357600080fd5b5056fe45524332303a206275726e20616d6f756e7420657863656564732062616c616e636545524332303a207472616e7366657220616d6f756e7420657863656564732062616c616e6365436f6d703a3a5f7772697465436865636b706f696e743a20626c6f636b206e756d62657220657863656564732033322062697473436f6d703a3a5f6d6f7665566f7465733a20766f746520616d6f756e7420756e646572666c6f777345524332303a207472616e7366657220616d6f756e74206578636565647320616c6c6f77616e636545524332303a206275726e20616d6f756e74206578636565647320616c6c6f77616e6365436f6d703a3a5f6d6f7665566f7465733a20766f746520616d6f756e74206f766572666c6f777345524332303a2064656372656173656420616c6c6f77616e63652062656c6f77207a65726fa26469706673582212202a1c9775a233055ac2ec3ee8eeeefd6fd7ddc562444c351b67b325beebccf18764736f6c634300060c0033436f6d703a3a5f7772697465436865636b706f696e743a20626c6f636b206e756d62657220657863656564732033322062697473",
  "immutableReferences": {},
  "source": "// SPDX-License-Identifier: MIT\npragma solidity ^0.6.0 <0.7.0;\npragma experimental ABIEncoderV2;\n\nimport \"../Common/Context.sol\";\nimport \"../ERC20/ERC20Custom.sol\";\nimport \"../ERC20/IERC20.sol\";\nimport \"../Xeb/Xeb.sol\";\nimport \"../Math/SafeMath.sol\";\n\ncontract XEBShares is ERC20Custom, AccessControl {\n    using SafeMath for uint256;\n\n    /* ========== STATE VARIABLES ========== */\n\n    string public symbol;\n    uint8 public decimals = 18;\n    address public XEBECStablecoinAdd;\n    \n    uint256 genesis_supply;\n    uint256 public maximum_supply; // No XESH can be minted under any condition past this number\n    uint256 public XESH_DAO_min; // Minimum XESH required to join DAO groups \n\n    address public owner_address;\n    address public oracle_address;\n    address public timelock_address;\n    XEBECStablecoin private XEB;\n\n    // A checkpoint for marking number of votes from a given block\n    struct Checkpoint {\n        uint32 fromBlock;\n        uint96 votes;\n    }\n\n    // A record of votes checkpoints for each account, by index\n    mapping (address => mapping (uint32 => Checkpoint)) public checkpoints;\n\n    // The number of checkpoints for each account\n    mapping (address => uint32) public numCheckpoints;\n\n    /* ========== MODIFIERS ========== */\n\n    modifier onlyPools() {\n       require(XEB.xeb_pools(msg.sender) == true, \"Only xebec pools can mint new XEB\");\n        _;\n    } \n    \n    modifier onlyByOracle() {\n        require(msg.sender == oracle_address || msg.sender == timelock_address, \"You're not the oracle :p\");\n        _;\n    }\n\n    /* ========== CONSTRUCTOR ========== */\n\n    constructor(\n        string memory _symbol, \n        uint256 _genesis_supply,\n        uint256 _maximum_supply,\n        address _oracle_address,\n        address _owner_address,\n        address _timelock_address\n    ) public {\n        symbol = _symbol;\n        genesis_supply = _genesis_supply;\n        maximum_supply = _maximum_supply; \n        owner_address = _owner_address;\n        oracle_address = _oracle_address;\n        timelock_address = _timelock_address;\n        _setupRole(DEFAULT_ADMIN_ROLE, _msgSender());\n        _mint(owner_address, genesis_supply);\n\n        // Do a checkpoint for the owner\n        _writeCheckpoint(owner_address, 0, 0, uint96(genesis_supply));\n    }\n\n    /* ========== RESTRICTED FUNCTIONS ========== */\n\n    // function setOracle(address new_oracle) external onlyByOracle {\n    //     oracle_address = new_oracle;\n    // }\n    \n    function setXEBAddress(address xeb_contract_address) external onlyByOracle {\n        XEB = XEBECStablecoin(xeb_contract_address);\n    }\n    \n    function setXESHMinDAO(uint256 min_XESH) external onlyByOracle {\n        XESH_DAO_min = min_XESH;\n    }\n\n    function mint(address to, uint256 amount) public onlyPools {\n        require(totalSupply() + amount < maximum_supply, \"No more XESH can be minted, max supply reached\");\n        _mint(to, amount);\n    }\n    \n    // This function is what other XEB pools will call to mint new XESH (similar to the XEB mint) \n    function pool_mint(address m_address, uint256 m_amount) external onlyPools {\n        require(totalSupply() + m_amount < maximum_supply, \"No more XESH can be minted, max supply reached\");\n        _moveDelegates(address(this), m_address, uint96(m_amount));\n        super._mint(m_address, m_amount);\n    }\n\n    // This function is what other XEB pools will call to burn XESH\n    function pool_burn_from(address b_address, uint256 b_amount) external onlyPools {\n        super._burnFrom(b_address, b_amount);\n        _moveDelegates(b_address, address(this), uint96(b_amount)); //NOTE: this doesn't actually burn the votes from existence, only moves them back to XESH contract; need to add this in\n        emit XESHBurned(b_address, msg.sender, b_amount);\n    }\n\n    /* ========== OVERRIDDEN PUBLIC FUNCTIONS ========== */\n\n    function transfer(address recipient, uint256 amount) public virtual override returns (bool) {\n        _transfer(_msgSender(), recipient, amount);\n\n        // Keep track of votes. \"Delegates\" is a misnomer here\n        _moveDelegates(_msgSender(), recipient, uint96(amount));\n        return true;\n    }\n\n    function transferFrom(address sender, address recipient, uint256 amount) public virtual override returns (bool) {\n        _transfer(sender, recipient, amount);\n        _approve(sender, _msgSender(), _allowances[sender][_msgSender()].sub(amount, \"ERC20: transfer amount exceeds allowance\"));\n\n        // Keep track of votes. \"Delegates\" is a misnomer here\n        _moveDelegates(sender, recipient, uint96(amount));\n        return true;\n    }\n\n    /* ========== PUBLIC FUNCTIONS ========== */\n\n    /**\n     * @notice Gets the current votes balance for `account`\n     * @param account The address to get votes balance\n     * @return The number of current votes for `account`\n     */\n    function getCurrentVotes(address account) external view returns (uint96) {\n        uint32 nCheckpoints = numCheckpoints[account];\n        return nCheckpoints > 0 ? checkpoints[account][nCheckpoints - 1].votes : 0;\n    }\n\n    /**\n     * @notice Determine the prior number of votes for an account as of a block number\n     * @dev Block number must be a finalized block or else this function will revert to prevent misinformation.\n     * @param account The address of the account to check\n     * @param blockNumber The block number to get the vote balance at\n     * @return The number of votes the account had as of the given block\n     */\n    function getPriorVotes(address account, uint blockNumber) public view returns (uint96) {\n        require(blockNumber < block.number, \"Comp::getPriorVotes: not yet determined\");\n\n        uint32 nCheckpoints = numCheckpoints[account];\n        if (nCheckpoints == 0) {\n            return 0;\n        }\n\n        // First check most recent balance\n        if (checkpoints[account][nCheckpoints - 1].fromBlock <= blockNumber) {\n            return checkpoints[account][nCheckpoints - 1].votes;\n        }\n\n        // Next check implicit zero balance\n        if (checkpoints[account][0].fromBlock > blockNumber) {\n            return 0;\n        }\n\n        uint32 lower = 0;\n        uint32 upper = nCheckpoints - 1;\n        while (upper > lower) {\n            uint32 center = upper - (upper - lower) / 2; // ceil, avoiding overflow\n            Checkpoint memory cp = checkpoints[account][center];\n            if (cp.fromBlock == blockNumber) {\n                return cp.votes;\n            } else if (cp.fromBlock < blockNumber) {\n                lower = center;\n            } else {\n                upper = center - 1;\n            }\n        }\n        return checkpoints[account][lower].votes;\n    }\n\n    /* ========== INTERNAL FUNCTIONS ========== */\n\n    // From compound's _moveDelegates\n    // Keep track of votes. \"Delegates\" is a misnomer here\n    function _moveDelegates(address srcRep, address dstRep, uint96 amount) internal {\n        if (srcRep != dstRep && amount > 0) {\n            if (srcRep != address(0)) {\n                uint32 srcRepNum = numCheckpoints[srcRep];\n                uint96 srcRepOld = srcRepNum > 0 ? checkpoints[srcRep][srcRepNum - 1].votes : 0;\n                uint96 srcRepNew = sub96(srcRepOld, amount, \"Comp::_moveVotes: vote amount underflows\");\n                _writeCheckpoint(srcRep, srcRepNum, srcRepOld, srcRepNew);\n            }\n\n            if (dstRep != address(0)) {\n                uint32 dstRepNum = numCheckpoints[dstRep];\n                uint96 dstRepOld = dstRepNum > 0 ? checkpoints[dstRep][dstRepNum - 1].votes : 0;\n                uint96 dstRepNew = add96(dstRepOld, amount, \"Comp::_moveVotes: vote amount overflows\");\n                _writeCheckpoint(dstRep, dstRepNum, dstRepOld, dstRepNew);\n            }\n        }\n    }\n\n    function _writeCheckpoint(address voter, uint32 nCheckpoints, uint96 oldVotes, uint96 newVotes) internal {\n      uint32 blockNumber = safe32(block.number, \"Comp::_writeCheckpoint: block number exceeds 32 bits\");\n\n      if (nCheckpoints > 0 && checkpoints[voter][nCheckpoints - 1].fromBlock == blockNumber) {\n          checkpoints[voter][nCheckpoints - 1].votes = newVotes;\n      } else {\n          checkpoints[voter][nCheckpoints] = Checkpoint(blockNumber, newVotes);\n          numCheckpoints[voter] = nCheckpoints + 1;\n      }\n\n      emit VoterVotesChanged(voter, oldVotes, newVotes);\n    }\n\n    function safe32(uint n, string memory errorMessage) internal pure returns (uint32) {\n        require(n < 2**32, errorMessage);\n        return uint32(n);\n    }\n\n    function safe96(uint n, string memory errorMessage) internal pure returns (uint96) {\n        require(n < 2**96, errorMessage);\n        return uint96(n);\n    }\n\n    function add96(uint96 a, uint96 b, string memory errorMessage) internal pure returns (uint96) {\n        uint96 c = a + b;\n        require(c >= a, errorMessage);\n        return c;\n    }\n\n    function sub96(uint96 a, uint96 b, string memory errorMessage) internal pure returns (uint96) {\n        require(b <= a, errorMessage);\n        return a - b;\n    }\n\n    function getChainId() internal pure returns (uint) {\n        uint256 chainId;\n        assembly { chainId := chainid() }\n        return chainId;\n    }\n\n    /* ========== EVENTS ========== */\n    \n    /// @notice An event thats emitted when a voters account's vote balance changes\n    event VoterVotesChanged(address indexed voter, uint previousBalance, uint newBalance);\n\n    // Track XESH burned\n    event XESHBurned(address indexed from, address indexed to, uint256 amount);\n\n}\n",
  "sourcePath": "/Users/abdulhafiz/Documents/projects/xeb/defi_fraxlink_contract/contracts/Xesh/XESH.sol",
  "compiler": {
    "name": "solc",
    "version": "0.6.12+commit.27d51765.Emscripten.clang"
  },
  "schemaVersion": "3.3.4",
  "updatedAt": "2021-03-15T14:40:12.732Z",
  "devdoc": {
    "kind": "dev",
    "methods": {
      "allowance(address,address)": {
        "details": "See {IERC20-allowance}."
      },
      "approve(address,uint256)": {
        "details": "See {IERC20-approve}. Requirements: - `spender` cannot be the zero address.approve(address spender, uint256 amount)"
      },
      "balanceOf(address)": {
        "details": "See {IERC20-balanceOf}."
      },
      "burn(uint256)": {
        "details": "Destroys `amount` tokens from the caller. See {ERC20-_burn}."
      },
      "burnFrom(address,uint256)": {
        "details": "Destroys `amount` tokens from `account`, deducting from the caller's allowance. See {ERC20-_burn} and {ERC20-allowance}. Requirements: - the caller must have allowance for `accounts`'s tokens of at least `amount`."
      },
      "decreaseAllowance(address,uint256)": {
        "details": "Atomically decreases the allowance granted to `spender` by the caller. This is an alternative to {approve} that can be used as a mitigation for problems described in {IERC20-approve}. Emits an {Approval} event indicating the updated allowance. Requirements: - `spender` cannot be the zero address. - `spender` must have allowance for the caller of at least `subtractedValue`."
      },
      "getCurrentVotes(address)": {
        "params": {
          "account": "The address to get votes balance"
        },
        "returns": {
          "_0": "The number of current votes for `account`"
        }
      },
      "getPriorVotes(address,uint256)": {
        "details": "Block number must be a finalized block or else this function will revert to prevent misinformation.",
        "params": {
          "account": "The address of the account to check",
          "blockNumber": "The block number to get the vote balance at"
        },
        "returns": {
          "_0": "The number of votes the account had as of the given block"
        }
      },
      "getRoleAdmin(bytes32)": {
        "details": "Returns the admin role that controls `role`. See {grantRole} and {revokeRole}. To change a role's admin, use {_setRoleAdmin}."
      },
      "getRoleMember(bytes32,uint256)": {
        "details": "Returns one of the accounts that have `role`. `index` must be a value between 0 and {getRoleMemberCount}, non-inclusive. Role bearers are not sorted in any particular way, and their ordering may change at any point. WARNING: When using {getRoleMember} and {getRoleMemberCount}, make sure you perform all queries on the same block. See the following https://forum.openzeppelin.com/t/iterating-over-elements-on-enumerableset-in-openzeppelin-contracts/2296[forum post] for more information."
      },
      "getRoleMemberCount(bytes32)": {
        "details": "Returns the number of accounts that have `role`. Can be used together with {getRoleMember} to enumerate all bearers of a role."
      },
      "grantRole(bytes32,address)": {
        "details": "Grants `role` to `account`. If `account` had not been already granted `role`, emits a {RoleGranted} event. Requirements: - the caller must have ``role``'s admin role."
      },
      "hasRole(bytes32,address)": {
        "details": "Returns `true` if `account` has been granted `role`."
      },
      "increaseAllowance(address,uint256)": {
        "details": "Atomically increases the allowance granted to `spender` by the caller. This is an alternative to {approve} that can be used as a mitigation for problems described in {IERC20-approve}. Emits an {Approval} event indicating the updated allowance. Requirements: - `spender` cannot be the zero address."
      },
      "renounceRole(bytes32,address)": {
        "details": "Revokes `role` from the calling account. Roles are often managed via {grantRole} and {revokeRole}: this function's purpose is to provide a mechanism for accounts to lose their privileges if they are compromised (such as when a trusted device is misplaced). If the calling account had been granted `role`, emits a {RoleRevoked} event. Requirements: - the caller must be `account`."
      },
      "revokeRole(bytes32,address)": {
        "details": "Revokes `role` from `account`. If `account` had been granted `role`, emits a {RoleRevoked} event. Requirements: - the caller must have ``role``'s admin role."
      },
      "totalSupply()": {
        "details": "See {IERC20-totalSupply}."
      },
      "transfer(address,uint256)": {
        "details": "See {IERC20-transfer}. Requirements: - `recipient` cannot be the zero address. - the caller must have a balance of at least `amount`."
      },
      "transferFrom(address,address,uint256)": {
        "details": "See {IERC20-transferFrom}. Emits an {Approval} event indicating the updated allowance. This is not required by the EIP. See the note at the beginning of {ERC20}; Requirements: - `sender` and `recipient` cannot be the zero address. - `sender` must have a balance of at least `amount`. - the caller must have allowance for `sender`'s tokens of at least `amount`."
      }
    },
    "version": 1
  },
  "userdoc": {
    "events": {
      "VoterVotesChanged(address,uint256,uint256)": {
        "notice": "An event thats emitted when a voters account's vote balance changes"
      }
    },
    "kind": "user",
    "methods": {
      "getCurrentVotes(address)": {
        "notice": "Gets the current votes balance for `account`"
      },
      "getPriorVotes(address,uint256)": {
        "notice": "Determine the prior number of votes for an account as of a block number"
      }
    },
    "version": 1
  }
}